{
	"contracts/SimpleStorage.sol": {
		"SimpleStorage": {
			"abi": [
				{
					"inputs": [
						{
							"internalType": "string",
							"name": "_name",
							"type": "string"
						},
						{
							"internalType": "uint256",
							"name": "_favoriteNumber",
							"type": "uint256"
						},
						{
							"internalType": "bool",
							"name": "_isVerified",
							"type": "bool"
						}
					],
					"name": "createPerson",
					"outputs": [],
					"stateMutability": "nonpayable",
					"type": "function"
				},
				{
					"inputs": [
						{
							"internalType": "uint256",
							"name": "",
							"type": "uint256"
						}
					],
					"name": "people",
					"outputs": [
						{
							"internalType": "uint256",
							"name": "favoriteNumber",
							"type": "uint256"
						},
						{
							"internalType": "string",
							"name": "name",
							"type": "string"
						},
						{
							"internalType": "bool",
							"name": "isVerified",
							"type": "bool"
						}
					],
					"stateMutability": "view",
					"type": "function"
				},
				{
					"inputs": [],
					"name": "retrieve",
					"outputs": [
						{
							"internalType": "uint256",
							"name": "",
							"type": "uint256"
						}
					],
					"stateMutability": "view",
					"type": "function"
				},
				{
					"inputs": [
						{
							"internalType": "uint256",
							"name": "_favoriteNumber",
							"type": "uint256"
						}
					],
					"name": "store",
					"outputs": [],
					"stateMutability": "nonpayable",
					"type": "function"
				}
			],
			"devdoc": {
				"kind": "dev",
				"methods": {},
				"version": 1
			},
			"evm": {
				"assembly": "    /* \"contracts/SimpleStorage.sol\":93:869  contract SimpleStorage {... */\n  mstore(0x40, 0x80)\n  callvalue\n  dup1\n  iszero\n  tag_1\n  jumpi\n  0x00\n  dup1\n  revert\ntag_1:\n  pop\n  dataSize(sub_0)\n  dup1\n  dataOffset(sub_0)\n  0x00\n  codecopy\n  0x00\n  return\nstop\n\nsub_0: assembly {\n        /* \"contracts/SimpleStorage.sol\":93:869  contract SimpleStorage {... */\n      mstore(0x40, 0x80)\n      callvalue\n      dup1\n      iszero\n      tag_1\n      jumpi\n      0x00\n      dup1\n      revert\n    tag_1:\n      pop\n      jumpi(tag_2, lt(calldatasize, 0x04))\n      shr(0xe0, calldataload(0x00))\n      dup1\n      0x2e64cec1\n      eq\n      tag_3\n      jumpi\n      dup1\n      0x6057361d\n      eq\n      tag_4\n      jumpi\n      dup1\n      0x9e7a13ad\n      eq\n      tag_5\n      jumpi\n      dup1\n      0xbdfd5e1f\n      eq\n      tag_6\n      jumpi\n    tag_2:\n      0x00\n      dup1\n      revert\n        /* \"contracts/SimpleStorage.sol\":775:864  function retrieve() public view returns(uint256) {... */\n    tag_3:\n      tag_7\n      tag_8\n      jump\t// in\n    tag_7:\n      mload(0x40)\n      tag_9\n      swap2\n      swap1\n      tag_10\n      jump\t// in\n    tag_9:\n      mload(0x40)\n      dup1\n      swap2\n      sub\n      swap1\n      return\n        /* \"contracts/SimpleStorage.sol\":432:558  function store ( uint256 _favoriteNumber) public {... */\n    tag_4:\n      tag_11\n      0x04\n      dup1\n      calldatasize\n      sub\n      dup2\n      add\n      swap1\n      tag_12\n      swap2\n      swap1\n      tag_13\n      jump\t// in\n    tag_12:\n      tag_14\n      jump\t// in\n    tag_11:\n      stop\n        /* \"contracts/SimpleStorage.sol\":326:348  People[] public people */\n    tag_5:\n      tag_15\n      0x04\n      dup1\n      calldatasize\n      sub\n      dup2\n      add\n      swap1\n      tag_16\n      swap2\n      swap1\n      tag_13\n      jump\t// in\n    tag_16:\n      tag_17\n      jump\t// in\n    tag_15:\n      mload(0x40)\n      tag_18\n      swap4\n      swap3\n      swap2\n      swap1\n      tag_19\n      jump\t// in\n    tag_18:\n      mload(0x40)\n      dup1\n      swap2\n      sub\n      swap1\n      return\n        /* \"contracts/SimpleStorage.sol\":566:767  function createPerson (string memory _name, uint _favoriteNumber, bool _isVerified) public {... */\n    tag_6:\n      tag_20\n      0x04\n      dup1\n      calldatasize\n      sub\n      dup2\n      add\n      swap1\n      tag_21\n      swap2\n      swap1\n      tag_22\n      jump\t// in\n    tag_21:\n      tag_23\n      jump\t// in\n    tag_20:\n      stop\n        /* \"contracts/SimpleStorage.sol\":775:864  function retrieve() public view returns(uint256) {... */\n    tag_8:\n        /* \"contracts/SimpleStorage.sol\":815:822  uint256 */\n      0x00\n        /* \"contracts/SimpleStorage.sol\":842:856  favoriteNumber */\n      dup1\n      sload\n        /* \"contracts/SimpleStorage.sol\":835:856  return favoriteNumber */\n      swap1\n      pop\n        /* \"contracts/SimpleStorage.sol\":775:864  function retrieve() public view returns(uint256) {... */\n      swap1\n      jump\t// out\n        /* \"contracts/SimpleStorage.sol\":432:558  function store ( uint256 _favoriteNumber) public {... */\n    tag_14:\n        /* \"contracts/SimpleStorage.sol\":509:524  _favoriteNumber */\n      dup1\n        /* \"contracts/SimpleStorage.sol\":492:506  favoriteNumber */\n      0x00\n        /* \"contracts/SimpleStorage.sol\":492:524  favoriteNumber = _favoriteNumber */\n      dup2\n      swap1\n      sstore\n      pop\n        /* \"contracts/SimpleStorage.sol\":535:540  add() */\n      tag_26\n        /* \"contracts/SimpleStorage.sol\":535:538  add */\n      tag_27\n        /* \"contracts/SimpleStorage.sol\":535:540  add() */\n      jump\t// in\n    tag_26:\n        /* \"contracts/SimpleStorage.sol\":432:558  function store ( uint256 _favoriteNumber) public {... */\n      pop\n      jump\t// out\n        /* \"contracts/SimpleStorage.sol\":326:348  People[] public people */\n    tag_17:\n      0x01\n      dup2\n      dup2\n      sload\n      dup2\n      lt\n      tag_28\n      jumpi\n      0x00\n      dup1\n      revert\n    tag_28:\n      swap1\n      0x00\n      mstore\n      keccak256(0x00, 0x20)\n      swap1\n      0x03\n      mul\n      add\n      0x00\n      swap2\n      pop\n      swap1\n      pop\n      dup1\n      0x00\n      add\n      sload\n      swap1\n      dup1\n      0x01\n      add\n      dup1\n      sload\n      tag_30\n      swap1\n      tag_31\n      jump\t// in\n    tag_30:\n      dup1\n      0x1f\n      add\n      0x20\n      dup1\n      swap2\n      div\n      mul\n      0x20\n      add\n      mload(0x40)\n      swap1\n      dup2\n      add\n      0x40\n      mstore\n      dup1\n      swap3\n      swap2\n      swap1\n      dup2\n      dup2\n      mstore\n      0x20\n      add\n      dup3\n      dup1\n      sload\n      tag_32\n      swap1\n      tag_31\n      jump\t// in\n    tag_32:\n      dup1\n      iszero\n      tag_33\n      jumpi\n      dup1\n      0x1f\n      lt\n      tag_34\n      jumpi\n      0x0100\n      dup1\n      dup4\n      sload\n      div\n      mul\n      dup4\n      mstore\n      swap2\n      0x20\n      add\n      swap2\n      jump(tag_33)\n    tag_34:\n      dup3\n      add\n      swap2\n      swap1\n      0x00\n      mstore\n      keccak256(0x00, 0x20)\n      swap1\n    tag_35:\n      dup2\n      sload\n      dup2\n      mstore\n      swap1\n      0x01\n      add\n      swap1\n      0x20\n      add\n      dup1\n      dup4\n      gt\n      tag_35\n      jumpi\n      dup3\n      swap1\n      sub\n      0x1f\n      and\n      dup3\n      add\n      swap2\n    tag_33:\n      pop\n      pop\n      pop\n      pop\n      pop\n      swap1\n      dup1\n      0x02\n      add\n      0x00\n      swap1\n      sload\n      swap1\n      0x0100\n      exp\n      swap1\n      div\n      0xff\n      and\n      swap1\n      pop\n      dup4\n      jump\t// out\n        /* \"contracts/SimpleStorage.sol\":566:767  function createPerson (string memory _name, uint _favoriteNumber, bool _isVerified) public {... */\n    tag_23:\n        /* \"contracts/SimpleStorage.sol\":668:674  people */\n      0x01\n        /* \"contracts/SimpleStorage.sol\":680:758  People({name: _name, favoriteNumber: _favoriteNumber, isVerified:_isVerified}) */\n      mload(0x40)\n      dup1\n      0x60\n      add\n      0x40\n      mstore\n      dup1\n        /* \"contracts/SimpleStorage.sol\":717:732  _favoriteNumber */\n      dup5\n        /* \"contracts/SimpleStorage.sol\":680:758  People({name: _name, favoriteNumber: _favoriteNumber, isVerified:_isVerified}) */\n      dup2\n      mstore\n      0x20\n      add\n        /* \"contracts/SimpleStorage.sol\":694:699  _name */\n      dup6\n        /* \"contracts/SimpleStorage.sol\":680:758  People({name: _name, favoriteNumber: _favoriteNumber, isVerified:_isVerified}) */\n      dup2\n      mstore\n      0x20\n      add\n        /* \"contracts/SimpleStorage.sol\":745:756  _isVerified */\n      dup4\n        /* \"contracts/SimpleStorage.sol\":680:758  People({name: _name, favoriteNumber: _favoriteNumber, isVerified:_isVerified}) */\n      iszero\n      iszero\n      dup2\n      mstore\n      pop\n        /* \"contracts/SimpleStorage.sol\":668:759  people.push(People({name: _name, favoriteNumber: _favoriteNumber, isVerified:_isVerified})) */\n      swap1\n      dup1\n      0x01\n      dup2\n      sload\n      add\n      dup1\n      dup3\n      sstore\n      dup1\n      swap2\n      pop\n      pop\n      0x01\n      swap1\n      sub\n      swap1\n      0x00\n      mstore\n      keccak256(0x00, 0x20)\n      swap1\n      0x03\n      mul\n      add\n      0x00\n      swap1\n      swap2\n      swap1\n      swap2\n      swap1\n      swap2\n      pop\n      0x00\n      dup3\n      add\n      mload\n      dup2\n      0x00\n      add\n      sstore\n      0x20\n      dup3\n      add\n      mload\n      dup2\n      0x01\n      add\n      swap1\n      dup1\n      mload\n      swap1\n      0x20\n      add\n      swap1\n      tag_38\n      swap3\n      swap2\n      swap1\n      tag_39\n      jump\t// in\n    tag_38:\n      pop\n      0x40\n      dup3\n      add\n      mload\n      dup2\n      0x02\n      add\n      exp(0x0100, 0x00)\n      dup2\n      sload\n      dup2\n      0xff\n      mul\n      not\n      and\n      swap1\n      dup4\n      iszero\n      iszero\n      mul\n      or\n      swap1\n      sstore\n      pop\n      pop\n      pop\n        /* \"contracts/SimpleStorage.sol\":566:767  function createPerson (string memory _name, uint _favoriteNumber, bool _isVerified) public {... */\n      pop\n      pop\n      pop\n      jump\t// out\n        /* \"contracts/SimpleStorage.sol\":357:416  function add() internal {... */\n    tag_27:\n        /* \"contracts/SimpleStorage.sol\":392:406  favoriteNumber */\n      0x00\n      dup1\n        /* \"contracts/SimpleStorage.sol\":392:408  favoriteNumber++ */\n      dup2\n      sload\n      dup1\n      swap3\n      swap2\n      swap1\n      tag_41\n      swap1\n      tag_42\n      jump\t// in\n    tag_41:\n      swap2\n      swap1\n      pop\n      sstore\n      pop\n        /* \"contracts/SimpleStorage.sol\":357:416  function add() internal {... */\n      jump\t// out\n    tag_39:\n      dup3\n      dup1\n      sload\n      tag_43\n      swap1\n      tag_31\n      jump\t// in\n    tag_43:\n      swap1\n      0x00\n      mstore\n      keccak256(0x00, 0x20)\n      swap1\n      0x1f\n      add\n      0x20\n      swap1\n      div\n      dup2\n      add\n      swap3\n      dup3\n      tag_45\n      jumpi\n      0x00\n      dup6\n      sstore\n      jump(tag_44)\n    tag_45:\n      dup3\n      0x1f\n      lt\n      tag_46\n      jumpi\n      dup1\n      mload\n      not(0xff)\n      and\n      dup4\n      dup1\n      add\n      or\n      dup6\n      sstore\n      jump(tag_44)\n    tag_46:\n      dup3\n      dup1\n      add\n      0x01\n      add\n      dup6\n      sstore\n      dup3\n      iszero\n      tag_44\n      jumpi\n      swap2\n      dup3\n      add\n    tag_47:\n      dup3\n      dup2\n      gt\n      iszero\n      tag_48\n      jumpi\n      dup3\n      mload\n      dup3\n      sstore\n      swap2\n      0x20\n      add\n      swap2\n      swap1\n      0x01\n      add\n      swap1\n      jump(tag_47)\n    tag_48:\n    tag_44:\n      pop\n      swap1\n      pop\n      tag_49\n      swap2\n      swap1\n      tag_50\n      jump\t// in\n    tag_49:\n      pop\n      swap1\n      jump\t// out\n    tag_50:\n    tag_51:\n      dup1\n      dup3\n      gt\n      iszero\n      tag_52\n      jumpi\n      0x00\n      dup2\n      0x00\n      swap1\n      sstore\n      pop\n      0x01\n      add\n      jump(tag_51)\n    tag_52:\n      pop\n      swap1\n      jump\t// out\n        /* \"#utility.yul\":7:84   */\n    tag_53:\n        /* \"#utility.yul\":44:51   */\n      0x00\n        /* \"#utility.yul\":73:78   */\n      dup2\n        /* \"#utility.yul\":62:78   */\n      swap1\n      pop\n        /* \"#utility.yul\":7:84   */\n      swap2\n      swap1\n      pop\n      jump\t// out\n        /* \"#utility.yul\":90:208   */\n    tag_54:\n        /* \"#utility.yul\":177:201   */\n      tag_83\n        /* \"#utility.yul\":195:200   */\n      dup2\n        /* \"#utility.yul\":177:201   */\n      tag_53\n      jump\t// in\n    tag_83:\n        /* \"#utility.yul\":172:175   */\n      dup3\n        /* \"#utility.yul\":165:202   */\n      mstore\n        /* \"#utility.yul\":90:208   */\n      pop\n      pop\n      jump\t// out\n        /* \"#utility.yul\":214:436   */\n    tag_10:\n        /* \"#utility.yul\":307:311   */\n      0x00\n        /* \"#utility.yul\":345:347   */\n      0x20\n        /* \"#utility.yul\":334:343   */\n      dup3\n        /* \"#utility.yul\":330:348   */\n      add\n        /* \"#utility.yul\":322:348   */\n      swap1\n      pop\n        /* \"#utility.yul\":358:429   */\n      tag_85\n        /* \"#utility.yul\":426:427   */\n      0x00\n        /* \"#utility.yul\":415:424   */\n      dup4\n        /* \"#utility.yul\":411:428   */\n      add\n        /* \"#utility.yul\":402:408   */\n      dup5\n        /* \"#utility.yul\":358:429   */\n      tag_54\n      jump\t// in\n    tag_85:\n        /* \"#utility.yul\":214:436   */\n      swap3\n      swap2\n      pop\n      pop\n      jump\t// out\n        /* \"#utility.yul\":442:517   */\n    tag_55:\n        /* \"#utility.yul\":475:481   */\n      0x00\n        /* \"#utility.yul\":508:510   */\n      0x40\n        /* \"#utility.yul\":502:511   */\n      mload\n        /* \"#utility.yul\":492:511   */\n      swap1\n      pop\n        /* \"#utility.yul\":442:517   */\n      swap1\n      jump\t// out\n        /* \"#utility.yul\":523:640   */\n    tag_56:\n        /* \"#utility.yul\":632:633   */\n      0x00\n        /* \"#utility.yul\":629:630   */\n      dup1\n        /* \"#utility.yul\":622:634   */\n      revert\n        /* \"#utility.yul\":646:763   */\n    tag_57:\n        /* \"#utility.yul\":755:756   */\n      0x00\n        /* \"#utility.yul\":752:753   */\n      dup1\n        /* \"#utility.yul\":745:757   */\n      revert\n        /* \"#utility.yul\":769:891   */\n    tag_58:\n        /* \"#utility.yul\":842:866   */\n      tag_90\n        /* \"#utility.yul\":860:865   */\n      dup2\n        /* \"#utility.yul\":842:866   */\n      tag_53\n      jump\t// in\n    tag_90:\n        /* \"#utility.yul\":835:840   */\n      dup2\n        /* \"#utility.yul\":832:867   */\n      eq\n        /* \"#utility.yul\":822:885   */\n      tag_91\n      jumpi\n        /* \"#utility.yul\":881:882   */\n      0x00\n        /* \"#utility.yul\":878:879   */\n      dup1\n        /* \"#utility.yul\":871:883   */\n      revert\n        /* \"#utility.yul\":822:885   */\n    tag_91:\n        /* \"#utility.yul\":769:891   */\n      pop\n      jump\t// out\n        /* \"#utility.yul\":897:1036   */\n    tag_59:\n        /* \"#utility.yul\":943:948   */\n      0x00\n        /* \"#utility.yul\":981:987   */\n      dup2\n        /* \"#utility.yul\":968:988   */\n      calldataload\n        /* \"#utility.yul\":959:988   */\n      swap1\n      pop\n        /* \"#utility.yul\":997:1030   */\n      tag_93\n        /* \"#utility.yul\":1024:1029   */\n      dup2\n        /* \"#utility.yul\":997:1030   */\n      tag_58\n      jump\t// in\n    tag_93:\n        /* \"#utility.yul\":897:1036   */\n      swap3\n      swap2\n      pop\n      pop\n      jump\t// out\n        /* \"#utility.yul\":1042:1371   */\n    tag_13:\n        /* \"#utility.yul\":1101:1107   */\n      0x00\n        /* \"#utility.yul\":1150:1152   */\n      0x20\n        /* \"#utility.yul\":1138:1147   */\n      dup3\n        /* \"#utility.yul\":1129:1136   */\n      dup5\n        /* \"#utility.yul\":1125:1148   */\n      sub\n        /* \"#utility.yul\":1121:1153   */\n      slt\n        /* \"#utility.yul\":1118:1237   */\n      iszero\n      tag_95\n      jumpi\n        /* \"#utility.yul\":1156:1235   */\n      tag_96\n      tag_56\n      jump\t// in\n    tag_96:\n        /* \"#utility.yul\":1118:1237   */\n    tag_95:\n        /* \"#utility.yul\":1276:1277   */\n      0x00\n        /* \"#utility.yul\":1301:1354   */\n      tag_97\n        /* \"#utility.yul\":1346:1353   */\n      dup5\n        /* \"#utility.yul\":1337:1343   */\n      dup3\n        /* \"#utility.yul\":1326:1335   */\n      dup6\n        /* \"#utility.yul\":1322:1344   */\n      add\n        /* \"#utility.yul\":1301:1354   */\n      tag_59\n      jump\t// in\n    tag_97:\n        /* \"#utility.yul\":1291:1354   */\n      swap2\n      pop\n        /* \"#utility.yul\":1247:1364   */\n      pop\n        /* \"#utility.yul\":1042:1371   */\n      swap3\n      swap2\n      pop\n      pop\n      jump\t// out\n        /* \"#utility.yul\":1377:1476   */\n    tag_60:\n        /* \"#utility.yul\":1429:1435   */\n      0x00\n        /* \"#utility.yul\":1463:1468   */\n      dup2\n        /* \"#utility.yul\":1457:1469   */\n      mload\n        /* \"#utility.yul\":1447:1469   */\n      swap1\n      pop\n        /* \"#utility.yul\":1377:1476   */\n      swap2\n      swap1\n      pop\n      jump\t// out\n        /* \"#utility.yul\":1482:1651   */\n    tag_61:\n        /* \"#utility.yul\":1566:1577   */\n      0x00\n        /* \"#utility.yul\":1600:1606   */\n      dup3\n        /* \"#utility.yul\":1595:1598   */\n      dup3\n        /* \"#utility.yul\":1588:1607   */\n      mstore\n        /* \"#utility.yul\":1640:1644   */\n      0x20\n        /* \"#utility.yul\":1635:1638   */\n      dup3\n        /* \"#utility.yul\":1631:1645   */\n      add\n        /* \"#utility.yul\":1616:1645   */\n      swap1\n      pop\n        /* \"#utility.yul\":1482:1651   */\n      swap3\n      swap2\n      pop\n      pop\n      jump\t// out\n        /* \"#utility.yul\":1657:1964   */\n    tag_62:\n        /* \"#utility.yul\":1725:1726   */\n      0x00\n        /* \"#utility.yul\":1735:1848   */\n    tag_101:\n        /* \"#utility.yul\":1749:1755   */\n      dup4\n        /* \"#utility.yul\":1746:1747   */\n      dup2\n        /* \"#utility.yul\":1743:1756   */\n      lt\n        /* \"#utility.yul\":1735:1848   */\n      iszero\n      tag_103\n      jumpi\n        /* \"#utility.yul\":1834:1835   */\n      dup1\n        /* \"#utility.yul\":1829:1832   */\n      dup3\n        /* \"#utility.yul\":1825:1836   */\n      add\n        /* \"#utility.yul\":1819:1837   */\n      mload\n        /* \"#utility.yul\":1815:1816   */\n      dup2\n        /* \"#utility.yul\":1810:1813   */\n      dup5\n        /* \"#utility.yul\":1806:1817   */\n      add\n        /* \"#utility.yul\":1799:1838   */\n      mstore\n        /* \"#utility.yul\":1771:1773   */\n      0x20\n        /* \"#utility.yul\":1768:1769   */\n      dup2\n        /* \"#utility.yul\":1764:1774   */\n      add\n        /* \"#utility.yul\":1759:1774   */\n      swap1\n      pop\n        /* \"#utility.yul\":1735:1848   */\n      jump(tag_101)\n    tag_103:\n        /* \"#utility.yul\":1866:1872   */\n      dup4\n        /* \"#utility.yul\":1863:1864   */\n      dup2\n        /* \"#utility.yul\":1860:1873   */\n      gt\n        /* \"#utility.yul\":1857:1958   */\n      iszero\n      tag_104\n      jumpi\n        /* \"#utility.yul\":1946:1947   */\n      0x00\n        /* \"#utility.yul\":1937:1943   */\n      dup5\n        /* \"#utility.yul\":1932:1935   */\n      dup5\n        /* \"#utility.yul\":1928:1944   */\n      add\n        /* \"#utility.yul\":1921:1948   */\n      mstore\n        /* \"#utility.yul\":1857:1958   */\n    tag_104:\n        /* \"#utility.yul\":1706:1964   */\n      pop\n        /* \"#utility.yul\":1657:1964   */\n      pop\n      pop\n      pop\n      jump\t// out\n        /* \"#utility.yul\":1970:2072   */\n    tag_63:\n        /* \"#utility.yul\":2011:2017   */\n      0x00\n        /* \"#utility.yul\":2062:2064   */\n      0x1f\n        /* \"#utility.yul\":2058:2065   */\n      not\n        /* \"#utility.yul\":2053:2055   */\n      0x1f\n        /* \"#utility.yul\":2046:2051   */\n      dup4\n        /* \"#utility.yul\":2042:2056   */\n      add\n        /* \"#utility.yul\":2038:2066   */\n      and\n        /* \"#utility.yul\":2028:2066   */\n      swap1\n      pop\n        /* \"#utility.yul\":1970:2072   */\n      swap2\n      swap1\n      pop\n      jump\t// out\n        /* \"#utility.yul\":2078:2442   */\n    tag_64:\n        /* \"#utility.yul\":2166:2169   */\n      0x00\n        /* \"#utility.yul\":2194:2233   */\n      tag_107\n        /* \"#utility.yul\":2227:2232   */\n      dup3\n        /* \"#utility.yul\":2194:2233   */\n      tag_60\n      jump\t// in\n    tag_107:\n        /* \"#utility.yul\":2249:2320   */\n      tag_108\n        /* \"#utility.yul\":2313:2319   */\n      dup2\n        /* \"#utility.yul\":2308:2311   */\n      dup6\n        /* \"#utility.yul\":2249:2320   */\n      tag_61\n      jump\t// in\n    tag_108:\n        /* \"#utility.yul\":2242:2320   */\n      swap4\n      pop\n        /* \"#utility.yul\":2329:2381   */\n      tag_109\n        /* \"#utility.yul\":2374:2380   */\n      dup2\n        /* \"#utility.yul\":2369:2372   */\n      dup6\n        /* \"#utility.yul\":2362:2366   */\n      0x20\n        /* \"#utility.yul\":2355:2360   */\n      dup7\n        /* \"#utility.yul\":2351:2367   */\n      add\n        /* \"#utility.yul\":2329:2381   */\n      tag_62\n      jump\t// in\n    tag_109:\n        /* \"#utility.yul\":2406:2435   */\n      tag_110\n        /* \"#utility.yul\":2428:2434   */\n      dup2\n        /* \"#utility.yul\":2406:2435   */\n      tag_63\n      jump\t// in\n    tag_110:\n        /* \"#utility.yul\":2401:2404   */\n      dup5\n        /* \"#utility.yul\":2397:2436   */\n      add\n        /* \"#utility.yul\":2390:2436   */\n      swap2\n      pop\n        /* \"#utility.yul\":2170:2442   */\n      pop\n        /* \"#utility.yul\":2078:2442   */\n      swap3\n      swap2\n      pop\n      pop\n      jump\t// out\n        /* \"#utility.yul\":2448:2538   */\n    tag_65:\n        /* \"#utility.yul\":2482:2489   */\n      0x00\n        /* \"#utility.yul\":2525:2530   */\n      dup2\n        /* \"#utility.yul\":2518:2531   */\n      iszero\n        /* \"#utility.yul\":2511:2532   */\n      iszero\n        /* \"#utility.yul\":2500:2532   */\n      swap1\n      pop\n        /* \"#utility.yul\":2448:2538   */\n      swap2\n      swap1\n      pop\n      jump\t// out\n        /* \"#utility.yul\":2544:2653   */\n    tag_66:\n        /* \"#utility.yul\":2625:2646   */\n      tag_113\n        /* \"#utility.yul\":2640:2645   */\n      dup2\n        /* \"#utility.yul\":2625:2646   */\n      tag_65\n      jump\t// in\n    tag_113:\n        /* \"#utility.yul\":2620:2623   */\n      dup3\n        /* \"#utility.yul\":2613:2647   */\n      mstore\n        /* \"#utility.yul\":2544:2653   */\n      pop\n      pop\n      jump\t// out\n        /* \"#utility.yul\":2659:3180   */\n    tag_19:\n        /* \"#utility.yul\":2822:2826   */\n      0x00\n        /* \"#utility.yul\":2860:2862   */\n      0x60\n        /* \"#utility.yul\":2849:2858   */\n      dup3\n        /* \"#utility.yul\":2845:2863   */\n      add\n        /* \"#utility.yul\":2837:2863   */\n      swap1\n      pop\n        /* \"#utility.yul\":2873:2944   */\n      tag_115\n        /* \"#utility.yul\":2941:2942   */\n      0x00\n        /* \"#utility.yul\":2930:2939   */\n      dup4\n        /* \"#utility.yul\":2926:2943   */\n      add\n        /* \"#utility.yul\":2917:2923   */\n      dup7\n        /* \"#utility.yul\":2873:2944   */\n      tag_54\n      jump\t// in\n    tag_115:\n        /* \"#utility.yul\":2991:3000   */\n      dup2\n        /* \"#utility.yul\":2985:2989   */\n      dup2\n        /* \"#utility.yul\":2981:3001   */\n      sub\n        /* \"#utility.yul\":2976:2978   */\n      0x20\n        /* \"#utility.yul\":2965:2974   */\n      dup4\n        /* \"#utility.yul\":2961:2979   */\n      add\n        /* \"#utility.yul\":2954:3002   */\n      mstore\n        /* \"#utility.yul\":3019:3097   */\n      tag_116\n        /* \"#utility.yul\":3092:3096   */\n      dup2\n        /* \"#utility.yul\":3083:3089   */\n      dup6\n        /* \"#utility.yul\":3019:3097   */\n      tag_64\n      jump\t// in\n    tag_116:\n        /* \"#utility.yul\":3011:3097   */\n      swap1\n      pop\n        /* \"#utility.yul\":3107:3173   */\n      tag_117\n        /* \"#utility.yul\":3169:3171   */\n      0x40\n        /* \"#utility.yul\":3158:3167   */\n      dup4\n        /* \"#utility.yul\":3154:3172   */\n      add\n        /* \"#utility.yul\":3145:3151   */\n      dup5\n        /* \"#utility.yul\":3107:3173   */\n      tag_66\n      jump\t// in\n    tag_117:\n        /* \"#utility.yul\":2659:3180   */\n      swap5\n      swap4\n      pop\n      pop\n      pop\n      pop\n      jump\t// out\n        /* \"#utility.yul\":3186:3303   */\n    tag_67:\n        /* \"#utility.yul\":3295:3296   */\n      0x00\n        /* \"#utility.yul\":3292:3293   */\n      dup1\n        /* \"#utility.yul\":3285:3297   */\n      revert\n        /* \"#utility.yul\":3309:3426   */\n    tag_68:\n        /* \"#utility.yul\":3418:3419   */\n      0x00\n        /* \"#utility.yul\":3415:3416   */\n      dup1\n        /* \"#utility.yul\":3408:3420   */\n      revert\n        /* \"#utility.yul\":3432:3612   */\n    tag_69:\n        /* \"#utility.yul\":3480:3557   */\n      0x4e487b7100000000000000000000000000000000000000000000000000000000\n        /* \"#utility.yul\":3477:3478   */\n      0x00\n        /* \"#utility.yul\":3470:3558   */\n      mstore\n        /* \"#utility.yul\":3577:3581   */\n      0x41\n        /* \"#utility.yul\":3574:3575   */\n      0x04\n        /* \"#utility.yul\":3567:3582   */\n      mstore\n        /* \"#utility.yul\":3601:3605   */\n      0x24\n        /* \"#utility.yul\":3598:3599   */\n      0x00\n        /* \"#utility.yul\":3591:3606   */\n      revert\n        /* \"#utility.yul\":3618:3899   */\n    tag_70:\n        /* \"#utility.yul\":3701:3728   */\n      tag_122\n        /* \"#utility.yul\":3723:3727   */\n      dup3\n        /* \"#utility.yul\":3701:3728   */\n      tag_63\n      jump\t// in\n    tag_122:\n        /* \"#utility.yul\":3693:3699   */\n      dup2\n        /* \"#utility.yul\":3689:3729   */\n      add\n        /* \"#utility.yul\":3831:3837   */\n      dup2\n        /* \"#utility.yul\":3819:3829   */\n      dup2\n        /* \"#utility.yul\":3816:3838   */\n      lt\n        /* \"#utility.yul\":3795:3813   */\n      0xffffffffffffffff\n        /* \"#utility.yul\":3783:3793   */\n      dup3\n        /* \"#utility.yul\":3780:3814   */\n      gt\n        /* \"#utility.yul\":3777:3839   */\n      or\n        /* \"#utility.yul\":3774:3862   */\n      iszero\n      tag_123\n      jumpi\n        /* \"#utility.yul\":3842:3860   */\n      tag_124\n      tag_69\n      jump\t// in\n    tag_124:\n        /* \"#utility.yul\":3774:3862   */\n    tag_123:\n        /* \"#utility.yul\":3882:3892   */\n      dup1\n        /* \"#utility.yul\":3878:3880   */\n      0x40\n        /* \"#utility.yul\":3871:3893   */\n      mstore\n        /* \"#utility.yul\":3661:3899   */\n      pop\n        /* \"#utility.yul\":3618:3899   */\n      pop\n      pop\n      jump\t// out\n        /* \"#utility.yul\":3905:4034   */\n    tag_71:\n        /* \"#utility.yul\":3939:3945   */\n      0x00\n        /* \"#utility.yul\":3966:3986   */\n      tag_126\n      tag_55\n      jump\t// in\n    tag_126:\n        /* \"#utility.yul\":3956:3986   */\n      swap1\n      pop\n        /* \"#utility.yul\":3995:4028   */\n      tag_127\n        /* \"#utility.yul\":4023:4027   */\n      dup3\n        /* \"#utility.yul\":4015:4021   */\n      dup3\n        /* \"#utility.yul\":3995:4028   */\n      tag_70\n      jump\t// in\n    tag_127:\n        /* \"#utility.yul\":3905:4034   */\n      swap2\n      swap1\n      pop\n      jump\t// out\n        /* \"#utility.yul\":4040:4348   */\n    tag_72:\n        /* \"#utility.yul\":4102:4106   */\n      0x00\n        /* \"#utility.yul\":4192:4210   */\n      0xffffffffffffffff\n        /* \"#utility.yul\":4184:4190   */\n      dup3\n        /* \"#utility.yul\":4181:4211   */\n      gt\n        /* \"#utility.yul\":4178:4234   */\n      iszero\n      tag_129\n      jumpi\n        /* \"#utility.yul\":4214:4232   */\n      tag_130\n      tag_69\n      jump\t// in\n    tag_130:\n        /* \"#utility.yul\":4178:4234   */\n    tag_129:\n        /* \"#utility.yul\":4252:4281   */\n      tag_131\n        /* \"#utility.yul\":4274:4280   */\n      dup3\n        /* \"#utility.yul\":4252:4281   */\n      tag_63\n      jump\t// in\n    tag_131:\n        /* \"#utility.yul\":4244:4281   */\n      swap1\n      pop\n        /* \"#utility.yul\":4336:4340   */\n      0x20\n        /* \"#utility.yul\":4330:4334   */\n      dup2\n        /* \"#utility.yul\":4326:4341   */\n      add\n        /* \"#utility.yul\":4318:4341   */\n      swap1\n      pop\n        /* \"#utility.yul\":4040:4348   */\n      swap2\n      swap1\n      pop\n      jump\t// out\n        /* \"#utility.yul\":4354:4508   */\n    tag_73:\n        /* \"#utility.yul\":4438:4444   */\n      dup3\n        /* \"#utility.yul\":4433:4436   */\n      dup2\n        /* \"#utility.yul\":4428:4431   */\n      dup4\n        /* \"#utility.yul\":4415:4445   */\n      calldatacopy\n        /* \"#utility.yul\":4500:4501   */\n      0x00\n        /* \"#utility.yul\":4491:4497   */\n      dup4\n        /* \"#utility.yul\":4486:4489   */\n      dup4\n        /* \"#utility.yul\":4482:4498   */\n      add\n        /* \"#utility.yul\":4475:4502   */\n      mstore\n        /* \"#utility.yul\":4354:4508   */\n      pop\n      pop\n      pop\n      jump\t// out\n        /* \"#utility.yul\":4514:4926   */\n    tag_74:\n        /* \"#utility.yul\":4592:4597   */\n      0x00\n        /* \"#utility.yul\":4617:4683   */\n      tag_134\n        /* \"#utility.yul\":4633:4682   */\n      tag_135\n        /* \"#utility.yul\":4675:4681   */\n      dup5\n        /* \"#utility.yul\":4633:4682   */\n      tag_72\n      jump\t// in\n    tag_135:\n        /* \"#utility.yul\":4617:4683   */\n      tag_71\n      jump\t// in\n    tag_134:\n        /* \"#utility.yul\":4608:4683   */\n      swap1\n      pop\n        /* \"#utility.yul\":4706:4712   */\n      dup3\n        /* \"#utility.yul\":4699:4704   */\n      dup2\n        /* \"#utility.yul\":4692:4713   */\n      mstore\n        /* \"#utility.yul\":4744:4748   */\n      0x20\n        /* \"#utility.yul\":4737:4742   */\n      dup2\n        /* \"#utility.yul\":4733:4749   */\n      add\n        /* \"#utility.yul\":4782:4785   */\n      dup5\n        /* \"#utility.yul\":4773:4779   */\n      dup5\n        /* \"#utility.yul\":4768:4771   */\n      dup5\n        /* \"#utility.yul\":4764:4780   */\n      add\n        /* \"#utility.yul\":4761:4786   */\n      gt\n        /* \"#utility.yul\":4758:4870   */\n      iszero\n      tag_136\n      jumpi\n        /* \"#utility.yul\":4789:4868   */\n      tag_137\n      tag_68\n      jump\t// in\n    tag_137:\n        /* \"#utility.yul\":4758:4870   */\n    tag_136:\n        /* \"#utility.yul\":4879:4920   */\n      tag_138\n        /* \"#utility.yul\":4913:4919   */\n      dup5\n        /* \"#utility.yul\":4908:4911   */\n      dup3\n        /* \"#utility.yul\":4903:4906   */\n      dup6\n        /* \"#utility.yul\":4879:4920   */\n      tag_73\n      jump\t// in\n    tag_138:\n        /* \"#utility.yul\":4598:4926   */\n      pop\n        /* \"#utility.yul\":4514:4926   */\n      swap4\n      swap3\n      pop\n      pop\n      pop\n      jump\t// out\n        /* \"#utility.yul\":4946:5286   */\n    tag_75:\n        /* \"#utility.yul\":5002:5007   */\n      0x00\n        /* \"#utility.yul\":5051:5054   */\n      dup3\n        /* \"#utility.yul\":5044:5048   */\n      0x1f\n        /* \"#utility.yul\":5036:5042   */\n      dup4\n        /* \"#utility.yul\":5032:5049   */\n      add\n        /* \"#utility.yul\":5028:5055   */\n      slt\n        /* \"#utility.yul\":5018:5140   */\n      tag_140\n      jumpi\n        /* \"#utility.yul\":5059:5138   */\n      tag_141\n      tag_67\n      jump\t// in\n    tag_141:\n        /* \"#utility.yul\":5018:5140   */\n    tag_140:\n        /* \"#utility.yul\":5176:5182   */\n      dup2\n        /* \"#utility.yul\":5163:5183   */\n      calldataload\n        /* \"#utility.yul\":5201:5280   */\n      tag_142\n        /* \"#utility.yul\":5276:5279   */\n      dup5\n        /* \"#utility.yul\":5268:5274   */\n      dup3\n        /* \"#utility.yul\":5261:5265   */\n      0x20\n        /* \"#utility.yul\":5253:5259   */\n      dup7\n        /* \"#utility.yul\":5249:5266   */\n      add\n        /* \"#utility.yul\":5201:5280   */\n      tag_74\n      jump\t// in\n    tag_142:\n        /* \"#utility.yul\":5192:5280   */\n      swap2\n      pop\n        /* \"#utility.yul\":5008:5286   */\n      pop\n        /* \"#utility.yul\":4946:5286   */\n      swap3\n      swap2\n      pop\n      pop\n      jump\t// out\n        /* \"#utility.yul\":5292:5408   */\n    tag_76:\n        /* \"#utility.yul\":5362:5383   */\n      tag_144\n        /* \"#utility.yul\":5377:5382   */\n      dup2\n        /* \"#utility.yul\":5362:5383   */\n      tag_65\n      jump\t// in\n    tag_144:\n        /* \"#utility.yul\":5355:5360   */\n      dup2\n        /* \"#utility.yul\":5352:5384   */\n      eq\n        /* \"#utility.yul\":5342:5402   */\n      tag_145\n      jumpi\n        /* \"#utility.yul\":5398:5399   */\n      0x00\n        /* \"#utility.yul\":5395:5396   */\n      dup1\n        /* \"#utility.yul\":5388:5400   */\n      revert\n        /* \"#utility.yul\":5342:5402   */\n    tag_145:\n        /* \"#utility.yul\":5292:5408   */\n      pop\n      jump\t// out\n        /* \"#utility.yul\":5414:5547   */\n    tag_77:\n        /* \"#utility.yul\":5457:5462   */\n      0x00\n        /* \"#utility.yul\":5495:5501   */\n      dup2\n        /* \"#utility.yul\":5482:5502   */\n      calldataload\n        /* \"#utility.yul\":5473:5502   */\n      swap1\n      pop\n        /* \"#utility.yul\":5511:5541   */\n      tag_147\n        /* \"#utility.yul\":5535:5540   */\n      dup2\n        /* \"#utility.yul\":5511:5541   */\n      tag_76\n      jump\t// in\n    tag_147:\n        /* \"#utility.yul\":5414:5547   */\n      swap3\n      swap2\n      pop\n      pop\n      jump\t// out\n        /* \"#utility.yul\":5553:6346   */\n    tag_22:\n        /* \"#utility.yul\":5637:5643   */\n      0x00\n        /* \"#utility.yul\":5645:5651   */\n      dup1\n        /* \"#utility.yul\":5653:5659   */\n      0x00\n        /* \"#utility.yul\":5702:5704   */\n      0x60\n        /* \"#utility.yul\":5690:5699   */\n      dup5\n        /* \"#utility.yul\":5681:5688   */\n      dup7\n        /* \"#utility.yul\":5677:5700   */\n      sub\n        /* \"#utility.yul\":5673:5705   */\n      slt\n        /* \"#utility.yul\":5670:5789   */\n      iszero\n      tag_149\n      jumpi\n        /* \"#utility.yul\":5708:5787   */\n      tag_150\n      tag_56\n      jump\t// in\n    tag_150:\n        /* \"#utility.yul\":5670:5789   */\n    tag_149:\n        /* \"#utility.yul\":5856:5857   */\n      0x00\n        /* \"#utility.yul\":5845:5854   */\n      dup5\n        /* \"#utility.yul\":5841:5858   */\n      add\n        /* \"#utility.yul\":5828:5859   */\n      calldataload\n        /* \"#utility.yul\":5886:5904   */\n      0xffffffffffffffff\n        /* \"#utility.yul\":5878:5884   */\n      dup2\n        /* \"#utility.yul\":5875:5905   */\n      gt\n        /* \"#utility.yul\":5872:5989   */\n      iszero\n      tag_151\n      jumpi\n        /* \"#utility.yul\":5908:5987   */\n      tag_152\n      tag_57\n      jump\t// in\n    tag_152:\n        /* \"#utility.yul\":5872:5989   */\n    tag_151:\n        /* \"#utility.yul\":6013:6076   */\n      tag_153\n        /* \"#utility.yul\":6068:6075   */\n      dup7\n        /* \"#utility.yul\":6059:6065   */\n      dup3\n        /* \"#utility.yul\":6048:6057   */\n      dup8\n        /* \"#utility.yul\":6044:6066   */\n      add\n        /* \"#utility.yul\":6013:6076   */\n      tag_75\n      jump\t// in\n    tag_153:\n        /* \"#utility.yul\":6003:6076   */\n      swap4\n      pop\n        /* \"#utility.yul\":5799:6086   */\n      pop\n        /* \"#utility.yul\":6125:6127   */\n      0x20\n        /* \"#utility.yul\":6151:6204   */\n      tag_154\n        /* \"#utility.yul\":6196:6203   */\n      dup7\n        /* \"#utility.yul\":6187:6193   */\n      dup3\n        /* \"#utility.yul\":6176:6185   */\n      dup8\n        /* \"#utility.yul\":6172:6194   */\n      add\n        /* \"#utility.yul\":6151:6204   */\n      tag_59\n      jump\t// in\n    tag_154:\n        /* \"#utility.yul\":6141:6204   */\n      swap3\n      pop\n        /* \"#utility.yul\":6096:6214   */\n      pop\n        /* \"#utility.yul\":6253:6255   */\n      0x40\n        /* \"#utility.yul\":6279:6329   */\n      tag_155\n        /* \"#utility.yul\":6321:6328   */\n      dup7\n        /* \"#utility.yul\":6312:6318   */\n      dup3\n        /* \"#utility.yul\":6301:6310   */\n      dup8\n        /* \"#utility.yul\":6297:6319   */\n      add\n        /* \"#utility.yul\":6279:6329   */\n      tag_77\n      jump\t// in\n    tag_155:\n        /* \"#utility.yul\":6269:6329   */\n      swap2\n      pop\n        /* \"#utility.yul\":6224:6339   */\n      pop\n        /* \"#utility.yul\":5553:6346   */\n      swap3\n      pop\n      swap3\n      pop\n      swap3\n      jump\t// out\n        /* \"#utility.yul\":6352:6532   */\n    tag_78:\n        /* \"#utility.yul\":6400:6477   */\n      0x4e487b7100000000000000000000000000000000000000000000000000000000\n        /* \"#utility.yul\":6397:6398   */\n      0x00\n        /* \"#utility.yul\":6390:6478   */\n      mstore\n        /* \"#utility.yul\":6497:6501   */\n      0x22\n        /* \"#utility.yul\":6494:6495   */\n      0x04\n        /* \"#utility.yul\":6487:6502   */\n      mstore\n        /* \"#utility.yul\":6521:6525   */\n      0x24\n        /* \"#utility.yul\":6518:6519   */\n      0x00\n        /* \"#utility.yul\":6511:6526   */\n      revert\n        /* \"#utility.yul\":6538:6858   */\n    tag_31:\n        /* \"#utility.yul\":6582:6588   */\n      0x00\n        /* \"#utility.yul\":6619:6620   */\n      0x02\n        /* \"#utility.yul\":6613:6617   */\n      dup3\n        /* \"#utility.yul\":6609:6621   */\n      div\n        /* \"#utility.yul\":6599:6621   */\n      swap1\n      pop\n        /* \"#utility.yul\":6666:6667   */\n      0x01\n        /* \"#utility.yul\":6660:6664   */\n      dup3\n        /* \"#utility.yul\":6656:6668   */\n      and\n        /* \"#utility.yul\":6687:6705   */\n      dup1\n        /* \"#utility.yul\":6677:6758   */\n      tag_158\n      jumpi\n        /* \"#utility.yul\":6743:6747   */\n      0x7f\n        /* \"#utility.yul\":6735:6741   */\n      dup3\n        /* \"#utility.yul\":6731:6748   */\n      and\n        /* \"#utility.yul\":6721:6748   */\n      swap2\n      pop\n        /* \"#utility.yul\":6677:6758   */\n    tag_158:\n        /* \"#utility.yul\":6805:6807   */\n      0x20\n        /* \"#utility.yul\":6797:6803   */\n      dup3\n        /* \"#utility.yul\":6794:6808   */\n      lt\n        /* \"#utility.yul\":6774:6792   */\n      dup2\n        /* \"#utility.yul\":6771:6809   */\n      eq\n        /* \"#utility.yul\":6768:6852   */\n      iszero\n      tag_159\n      jumpi\n        /* \"#utility.yul\":6824:6842   */\n      tag_160\n      tag_78\n      jump\t// in\n    tag_160:\n        /* \"#utility.yul\":6768:6852   */\n    tag_159:\n        /* \"#utility.yul\":6589:6858   */\n      pop\n        /* \"#utility.yul\":6538:6858   */\n      swap2\n      swap1\n      pop\n      jump\t// out\n        /* \"#utility.yul\":6864:7044   */\n    tag_79:\n        /* \"#utility.yul\":6912:6989   */\n      0x4e487b7100000000000000000000000000000000000000000000000000000000\n        /* \"#utility.yul\":6909:6910   */\n      0x00\n        /* \"#utility.yul\":6902:6990   */\n      mstore\n        /* \"#utility.yul\":7009:7013   */\n      0x11\n        /* \"#utility.yul\":7006:7007   */\n      0x04\n        /* \"#utility.yul\":6999:7014   */\n      mstore\n        /* \"#utility.yul\":7033:7037   */\n      0x24\n        /* \"#utility.yul\":7030:7031   */\n      0x00\n        /* \"#utility.yul\":7023:7038   */\n      revert\n        /* \"#utility.yul\":7050:7283   */\n    tag_42:\n        /* \"#utility.yul\":7089:7092   */\n      0x00\n        /* \"#utility.yul\":7112:7136   */\n      tag_163\n        /* \"#utility.yul\":7130:7135   */\n      dup3\n        /* \"#utility.yul\":7112:7136   */\n      tag_53\n      jump\t// in\n    tag_163:\n        /* \"#utility.yul\":7103:7136   */\n      swap2\n      pop\n        /* \"#utility.yul\":7158:7224   */\n      0xffffffffffffffffffffffffffffffffffffffffffffffffffffffffffffffff\n        /* \"#utility.yul\":7151:7156   */\n      dup3\n        /* \"#utility.yul\":7148:7225   */\n      eq\n        /* \"#utility.yul\":7145:7248   */\n      iszero\n      tag_164\n      jumpi\n        /* \"#utility.yul\":7228:7246   */\n      tag_165\n      tag_79\n      jump\t// in\n    tag_165:\n        /* \"#utility.yul\":7145:7248   */\n    tag_164:\n        /* \"#utility.yul\":7275:7276   */\n      0x01\n        /* \"#utility.yul\":7268:7273   */\n      dup3\n        /* \"#utility.yul\":7264:7277   */\n      add\n        /* \"#utility.yul\":7257:7277   */\n      swap1\n      pop\n        /* \"#utility.yul\":7050:7283   */\n      swap2\n      swap1\n      pop\n      jump\t// out\n\n    auxdata: 0xa26469706673582212205b69121e0d8c482c0b2eb96511b0680cd49c5e19f69524fb4522b4fc2e6247f564736f6c63430008080033\n}\n",
				"bytecode": {
					"linkReferences": {},
					"object": "608060405234801561001057600080fd5b50610787806100206000396000f3fe608060405234801561001057600080fd5b506004361061004c5760003560e01c80632e64cec1146100515780636057361d1461006f5780639e7a13ad1461008b578063bdfd5e1f146100bd575b600080fd5b6100596100d9565b604051610066919061032e565b60405180910390f35b61008960048036038101906100849190610389565b6100e2565b005b6100a560048036038101906100a09190610389565b6100f4565b6040516100b49392919061046a565b60405180910390f35b6100d760048036038101906100d29190610609565b6101c3565b005b60008054905090565b806000819055506100f1610259565b50565b6001818154811061010457600080fd5b906000526020600020906003020160009150905080600001549080600101805461012d906106a7565b80601f0160208091040260200160405190810160405280929190818152602001828054610159906106a7565b80156101a65780601f1061017b576101008083540402835291602001916101a6565b820191906000526020600020905b81548152906001019060200180831161018957829003601f168201915b5050505050908060020160009054906101000a900460ff16905083565b600160405180606001604052808481526020018581526020018315158152509080600181540180825580915050600190039060005260206000209060030201600090919091909150600082015181600001556020820151816001019080519060200190610231929190610272565b5060408201518160020160006101000a81548160ff0219169083151502179055505050505050565b60008081548092919061026b90610708565b9190505550565b82805461027e906106a7565b90600052602060002090601f0160209004810192826102a057600085556102e7565b82601f106102b957805160ff19168380011785556102e7565b828001600101855582156102e7579182015b828111156102e65782518255916020019190600101906102cb565b5b5090506102f491906102f8565b5090565b5b808211156103115760008160009055506001016102f9565b5090565b6000819050919050565b61032881610315565b82525050565b6000602082019050610343600083018461031f565b92915050565b6000604051905090565b600080fd5b600080fd5b61036681610315565b811461037157600080fd5b50565b6000813590506103838161035d565b92915050565b60006020828403121561039f5761039e610353565b5b60006103ad84828501610374565b91505092915050565b600081519050919050565b600082825260208201905092915050565b60005b838110156103f05780820151818401526020810190506103d5565b838111156103ff576000848401525b50505050565b6000601f19601f8301169050919050565b6000610421826103b6565b61042b81856103c1565b935061043b8185602086016103d2565b61044481610405565b840191505092915050565b60008115159050919050565b6104648161044f565b82525050565b600060608201905061047f600083018661031f565b81810360208301526104918185610416565b90506104a0604083018461045b565b949350505050565b600080fd5b600080fd5b7f4e487b7100000000000000000000000000000000000000000000000000000000600052604160045260246000fd5b6104ea82610405565b810181811067ffffffffffffffff82111715610509576105086104b2565b5b80604052505050565b600061051c610349565b905061052882826104e1565b919050565b600067ffffffffffffffff821115610548576105476104b2565b5b61055182610405565b9050602081019050919050565b82818337600083830152505050565b600061058061057b8461052d565b610512565b90508281526020810184848401111561059c5761059b6104ad565b5b6105a784828561055e565b509392505050565b600082601f8301126105c4576105c36104a8565b5b81356105d484826020860161056d565b91505092915050565b6105e68161044f565b81146105f157600080fd5b50565b600081359050610603816105dd565b92915050565b60008060006060848603121561062257610621610353565b5b600084013567ffffffffffffffff8111156106405761063f610358565b5b61064c868287016105af565b935050602061065d86828701610374565b925050604061066e868287016105f4565b9150509250925092565b7f4e487b7100000000000000000000000000000000000000000000000000000000600052602260045260246000fd5b600060028204905060018216806106bf57607f821691505b602082108114156106d3576106d2610678565b5b50919050565b7f4e487b7100000000000000000000000000000000000000000000000000000000600052601160045260246000fd5b600061071382610315565b91507fffffffffffffffffffffffffffffffffffffffffffffffffffffffffffffffff821415610746576107456106d9565b5b60018201905091905056fea26469706673582212205b69121e0d8c482c0b2eb96511b0680cd49c5e19f69524fb4522b4fc2e6247f564736f6c63430008080033",
					"opcodes": "PUSH1 0x80 PUSH1 0x40 MSTORE CALLVALUE DUP1 ISZERO PUSH2 0x10 JUMPI PUSH1 0x0 DUP1 REVERT JUMPDEST POP PUSH2 0x787 DUP1 PUSH2 0x20 PUSH1 0x0 CODECOPY PUSH1 0x0 RETURN INVALID PUSH1 0x80 PUSH1 0x40 MSTORE CALLVALUE DUP1 ISZERO PUSH2 0x10 JUMPI PUSH1 0x0 DUP1 REVERT JUMPDEST POP PUSH1 0x4 CALLDATASIZE LT PUSH2 0x4C JUMPI PUSH1 0x0 CALLDATALOAD PUSH1 0xE0 SHR DUP1 PUSH4 0x2E64CEC1 EQ PUSH2 0x51 JUMPI DUP1 PUSH4 0x6057361D EQ PUSH2 0x6F JUMPI DUP1 PUSH4 0x9E7A13AD EQ PUSH2 0x8B JUMPI DUP1 PUSH4 0xBDFD5E1F EQ PUSH2 0xBD JUMPI JUMPDEST PUSH1 0x0 DUP1 REVERT JUMPDEST PUSH2 0x59 PUSH2 0xD9 JUMP JUMPDEST PUSH1 0x40 MLOAD PUSH2 0x66 SWAP2 SWAP1 PUSH2 0x32E JUMP JUMPDEST PUSH1 0x40 MLOAD DUP1 SWAP2 SUB SWAP1 RETURN JUMPDEST PUSH2 0x89 PUSH1 0x4 DUP1 CALLDATASIZE SUB DUP2 ADD SWAP1 PUSH2 0x84 SWAP2 SWAP1 PUSH2 0x389 JUMP JUMPDEST PUSH2 0xE2 JUMP JUMPDEST STOP JUMPDEST PUSH2 0xA5 PUSH1 0x4 DUP1 CALLDATASIZE SUB DUP2 ADD SWAP1 PUSH2 0xA0 SWAP2 SWAP1 PUSH2 0x389 JUMP JUMPDEST PUSH2 0xF4 JUMP JUMPDEST PUSH1 0x40 MLOAD PUSH2 0xB4 SWAP4 SWAP3 SWAP2 SWAP1 PUSH2 0x46A JUMP JUMPDEST PUSH1 0x40 MLOAD DUP1 SWAP2 SUB SWAP1 RETURN JUMPDEST PUSH2 0xD7 PUSH1 0x4 DUP1 CALLDATASIZE SUB DUP2 ADD SWAP1 PUSH2 0xD2 SWAP2 SWAP1 PUSH2 0x609 JUMP JUMPDEST PUSH2 0x1C3 JUMP JUMPDEST STOP JUMPDEST PUSH1 0x0 DUP1 SLOAD SWAP1 POP SWAP1 JUMP JUMPDEST DUP1 PUSH1 0x0 DUP2 SWAP1 SSTORE POP PUSH2 0xF1 PUSH2 0x259 JUMP JUMPDEST POP JUMP JUMPDEST PUSH1 0x1 DUP2 DUP2 SLOAD DUP2 LT PUSH2 0x104 JUMPI PUSH1 0x0 DUP1 REVERT JUMPDEST SWAP1 PUSH1 0x0 MSTORE PUSH1 0x20 PUSH1 0x0 KECCAK256 SWAP1 PUSH1 0x3 MUL ADD PUSH1 0x0 SWAP2 POP SWAP1 POP DUP1 PUSH1 0x0 ADD SLOAD SWAP1 DUP1 PUSH1 0x1 ADD DUP1 SLOAD PUSH2 0x12D SWAP1 PUSH2 0x6A7 JUMP JUMPDEST DUP1 PUSH1 0x1F ADD PUSH1 0x20 DUP1 SWAP2 DIV MUL PUSH1 0x20 ADD PUSH1 0x40 MLOAD SWAP1 DUP2 ADD PUSH1 0x40 MSTORE DUP1 SWAP3 SWAP2 SWAP1 DUP2 DUP2 MSTORE PUSH1 0x20 ADD DUP3 DUP1 SLOAD PUSH2 0x159 SWAP1 PUSH2 0x6A7 JUMP JUMPDEST DUP1 ISZERO PUSH2 0x1A6 JUMPI DUP1 PUSH1 0x1F LT PUSH2 0x17B JUMPI PUSH2 0x100 DUP1 DUP4 SLOAD DIV MUL DUP4 MSTORE SWAP2 PUSH1 0x20 ADD SWAP2 PUSH2 0x1A6 JUMP JUMPDEST DUP3 ADD SWAP2 SWAP1 PUSH1 0x0 MSTORE PUSH1 0x20 PUSH1 0x0 KECCAK256 SWAP1 JUMPDEST DUP2 SLOAD DUP2 MSTORE SWAP1 PUSH1 0x1 ADD SWAP1 PUSH1 0x20 ADD DUP1 DUP4 GT PUSH2 0x189 JUMPI DUP3 SWAP1 SUB PUSH1 0x1F AND DUP3 ADD SWAP2 JUMPDEST POP POP POP POP POP SWAP1 DUP1 PUSH1 0x2 ADD PUSH1 0x0 SWAP1 SLOAD SWAP1 PUSH2 0x100 EXP SWAP1 DIV PUSH1 0xFF AND SWAP1 POP DUP4 JUMP JUMPDEST PUSH1 0x1 PUSH1 0x40 MLOAD DUP1 PUSH1 0x60 ADD PUSH1 0x40 MSTORE DUP1 DUP5 DUP2 MSTORE PUSH1 0x20 ADD DUP6 DUP2 MSTORE PUSH1 0x20 ADD DUP4 ISZERO ISZERO DUP2 MSTORE POP SWAP1 DUP1 PUSH1 0x1 DUP2 SLOAD ADD DUP1 DUP3 SSTORE DUP1 SWAP2 POP POP PUSH1 0x1 SWAP1 SUB SWAP1 PUSH1 0x0 MSTORE PUSH1 0x20 PUSH1 0x0 KECCAK256 SWAP1 PUSH1 0x3 MUL ADD PUSH1 0x0 SWAP1 SWAP2 SWAP1 SWAP2 SWAP1 SWAP2 POP PUSH1 0x0 DUP3 ADD MLOAD DUP2 PUSH1 0x0 ADD SSTORE PUSH1 0x20 DUP3 ADD MLOAD DUP2 PUSH1 0x1 ADD SWAP1 DUP1 MLOAD SWAP1 PUSH1 0x20 ADD SWAP1 PUSH2 0x231 SWAP3 SWAP2 SWAP1 PUSH2 0x272 JUMP JUMPDEST POP PUSH1 0x40 DUP3 ADD MLOAD DUP2 PUSH1 0x2 ADD PUSH1 0x0 PUSH2 0x100 EXP DUP2 SLOAD DUP2 PUSH1 0xFF MUL NOT AND SWAP1 DUP4 ISZERO ISZERO MUL OR SWAP1 SSTORE POP POP POP POP POP POP JUMP JUMPDEST PUSH1 0x0 DUP1 DUP2 SLOAD DUP1 SWAP3 SWAP2 SWAP1 PUSH2 0x26B SWAP1 PUSH2 0x708 JUMP JUMPDEST SWAP2 SWAP1 POP SSTORE POP JUMP JUMPDEST DUP3 DUP1 SLOAD PUSH2 0x27E SWAP1 PUSH2 0x6A7 JUMP JUMPDEST SWAP1 PUSH1 0x0 MSTORE PUSH1 0x20 PUSH1 0x0 KECCAK256 SWAP1 PUSH1 0x1F ADD PUSH1 0x20 SWAP1 DIV DUP2 ADD SWAP3 DUP3 PUSH2 0x2A0 JUMPI PUSH1 0x0 DUP6 SSTORE PUSH2 0x2E7 JUMP JUMPDEST DUP3 PUSH1 0x1F LT PUSH2 0x2B9 JUMPI DUP1 MLOAD PUSH1 0xFF NOT AND DUP4 DUP1 ADD OR DUP6 SSTORE PUSH2 0x2E7 JUMP JUMPDEST DUP3 DUP1 ADD PUSH1 0x1 ADD DUP6 SSTORE DUP3 ISZERO PUSH2 0x2E7 JUMPI SWAP2 DUP3 ADD JUMPDEST DUP3 DUP2 GT ISZERO PUSH2 0x2E6 JUMPI DUP3 MLOAD DUP3 SSTORE SWAP2 PUSH1 0x20 ADD SWAP2 SWAP1 PUSH1 0x1 ADD SWAP1 PUSH2 0x2CB JUMP JUMPDEST JUMPDEST POP SWAP1 POP PUSH2 0x2F4 SWAP2 SWAP1 PUSH2 0x2F8 JUMP JUMPDEST POP SWAP1 JUMP JUMPDEST JUMPDEST DUP1 DUP3 GT ISZERO PUSH2 0x311 JUMPI PUSH1 0x0 DUP2 PUSH1 0x0 SWAP1 SSTORE POP PUSH1 0x1 ADD PUSH2 0x2F9 JUMP JUMPDEST POP SWAP1 JUMP JUMPDEST PUSH1 0x0 DUP2 SWAP1 POP SWAP2 SWAP1 POP JUMP JUMPDEST PUSH2 0x328 DUP2 PUSH2 0x315 JUMP JUMPDEST DUP3 MSTORE POP POP JUMP JUMPDEST PUSH1 0x0 PUSH1 0x20 DUP3 ADD SWAP1 POP PUSH2 0x343 PUSH1 0x0 DUP4 ADD DUP5 PUSH2 0x31F JUMP JUMPDEST SWAP3 SWAP2 POP POP JUMP JUMPDEST PUSH1 0x0 PUSH1 0x40 MLOAD SWAP1 POP SWAP1 JUMP JUMPDEST PUSH1 0x0 DUP1 REVERT JUMPDEST PUSH1 0x0 DUP1 REVERT JUMPDEST PUSH2 0x366 DUP2 PUSH2 0x315 JUMP JUMPDEST DUP2 EQ PUSH2 0x371 JUMPI PUSH1 0x0 DUP1 REVERT JUMPDEST POP JUMP JUMPDEST PUSH1 0x0 DUP2 CALLDATALOAD SWAP1 POP PUSH2 0x383 DUP2 PUSH2 0x35D JUMP JUMPDEST SWAP3 SWAP2 POP POP JUMP JUMPDEST PUSH1 0x0 PUSH1 0x20 DUP3 DUP5 SUB SLT ISZERO PUSH2 0x39F JUMPI PUSH2 0x39E PUSH2 0x353 JUMP JUMPDEST JUMPDEST PUSH1 0x0 PUSH2 0x3AD DUP5 DUP3 DUP6 ADD PUSH2 0x374 JUMP JUMPDEST SWAP2 POP POP SWAP3 SWAP2 POP POP JUMP JUMPDEST PUSH1 0x0 DUP2 MLOAD SWAP1 POP SWAP2 SWAP1 POP JUMP JUMPDEST PUSH1 0x0 DUP3 DUP3 MSTORE PUSH1 0x20 DUP3 ADD SWAP1 POP SWAP3 SWAP2 POP POP JUMP JUMPDEST PUSH1 0x0 JUMPDEST DUP4 DUP2 LT ISZERO PUSH2 0x3F0 JUMPI DUP1 DUP3 ADD MLOAD DUP2 DUP5 ADD MSTORE PUSH1 0x20 DUP2 ADD SWAP1 POP PUSH2 0x3D5 JUMP JUMPDEST DUP4 DUP2 GT ISZERO PUSH2 0x3FF JUMPI PUSH1 0x0 DUP5 DUP5 ADD MSTORE JUMPDEST POP POP POP POP JUMP JUMPDEST PUSH1 0x0 PUSH1 0x1F NOT PUSH1 0x1F DUP4 ADD AND SWAP1 POP SWAP2 SWAP1 POP JUMP JUMPDEST PUSH1 0x0 PUSH2 0x421 DUP3 PUSH2 0x3B6 JUMP JUMPDEST PUSH2 0x42B DUP2 DUP6 PUSH2 0x3C1 JUMP JUMPDEST SWAP4 POP PUSH2 0x43B DUP2 DUP6 PUSH1 0x20 DUP7 ADD PUSH2 0x3D2 JUMP JUMPDEST PUSH2 0x444 DUP2 PUSH2 0x405 JUMP JUMPDEST DUP5 ADD SWAP2 POP POP SWAP3 SWAP2 POP POP JUMP JUMPDEST PUSH1 0x0 DUP2 ISZERO ISZERO SWAP1 POP SWAP2 SWAP1 POP JUMP JUMPDEST PUSH2 0x464 DUP2 PUSH2 0x44F JUMP JUMPDEST DUP3 MSTORE POP POP JUMP JUMPDEST PUSH1 0x0 PUSH1 0x60 DUP3 ADD SWAP1 POP PUSH2 0x47F PUSH1 0x0 DUP4 ADD DUP7 PUSH2 0x31F JUMP JUMPDEST DUP2 DUP2 SUB PUSH1 0x20 DUP4 ADD MSTORE PUSH2 0x491 DUP2 DUP6 PUSH2 0x416 JUMP JUMPDEST SWAP1 POP PUSH2 0x4A0 PUSH1 0x40 DUP4 ADD DUP5 PUSH2 0x45B JUMP JUMPDEST SWAP5 SWAP4 POP POP POP POP JUMP JUMPDEST PUSH1 0x0 DUP1 REVERT JUMPDEST PUSH1 0x0 DUP1 REVERT JUMPDEST PUSH32 0x4E487B7100000000000000000000000000000000000000000000000000000000 PUSH1 0x0 MSTORE PUSH1 0x41 PUSH1 0x4 MSTORE PUSH1 0x24 PUSH1 0x0 REVERT JUMPDEST PUSH2 0x4EA DUP3 PUSH2 0x405 JUMP JUMPDEST DUP2 ADD DUP2 DUP2 LT PUSH8 0xFFFFFFFFFFFFFFFF DUP3 GT OR ISZERO PUSH2 0x509 JUMPI PUSH2 0x508 PUSH2 0x4B2 JUMP JUMPDEST JUMPDEST DUP1 PUSH1 0x40 MSTORE POP POP POP JUMP JUMPDEST PUSH1 0x0 PUSH2 0x51C PUSH2 0x349 JUMP JUMPDEST SWAP1 POP PUSH2 0x528 DUP3 DUP3 PUSH2 0x4E1 JUMP JUMPDEST SWAP2 SWAP1 POP JUMP JUMPDEST PUSH1 0x0 PUSH8 0xFFFFFFFFFFFFFFFF DUP3 GT ISZERO PUSH2 0x548 JUMPI PUSH2 0x547 PUSH2 0x4B2 JUMP JUMPDEST JUMPDEST PUSH2 0x551 DUP3 PUSH2 0x405 JUMP JUMPDEST SWAP1 POP PUSH1 0x20 DUP2 ADD SWAP1 POP SWAP2 SWAP1 POP JUMP JUMPDEST DUP3 DUP2 DUP4 CALLDATACOPY PUSH1 0x0 DUP4 DUP4 ADD MSTORE POP POP POP JUMP JUMPDEST PUSH1 0x0 PUSH2 0x580 PUSH2 0x57B DUP5 PUSH2 0x52D JUMP JUMPDEST PUSH2 0x512 JUMP JUMPDEST SWAP1 POP DUP3 DUP2 MSTORE PUSH1 0x20 DUP2 ADD DUP5 DUP5 DUP5 ADD GT ISZERO PUSH2 0x59C JUMPI PUSH2 0x59B PUSH2 0x4AD JUMP JUMPDEST JUMPDEST PUSH2 0x5A7 DUP5 DUP3 DUP6 PUSH2 0x55E JUMP JUMPDEST POP SWAP4 SWAP3 POP POP POP JUMP JUMPDEST PUSH1 0x0 DUP3 PUSH1 0x1F DUP4 ADD SLT PUSH2 0x5C4 JUMPI PUSH2 0x5C3 PUSH2 0x4A8 JUMP JUMPDEST JUMPDEST DUP2 CALLDATALOAD PUSH2 0x5D4 DUP5 DUP3 PUSH1 0x20 DUP7 ADD PUSH2 0x56D JUMP JUMPDEST SWAP2 POP POP SWAP3 SWAP2 POP POP JUMP JUMPDEST PUSH2 0x5E6 DUP2 PUSH2 0x44F JUMP JUMPDEST DUP2 EQ PUSH2 0x5F1 JUMPI PUSH1 0x0 DUP1 REVERT JUMPDEST POP JUMP JUMPDEST PUSH1 0x0 DUP2 CALLDATALOAD SWAP1 POP PUSH2 0x603 DUP2 PUSH2 0x5DD JUMP JUMPDEST SWAP3 SWAP2 POP POP JUMP JUMPDEST PUSH1 0x0 DUP1 PUSH1 0x0 PUSH1 0x60 DUP5 DUP7 SUB SLT ISZERO PUSH2 0x622 JUMPI PUSH2 0x621 PUSH2 0x353 JUMP JUMPDEST JUMPDEST PUSH1 0x0 DUP5 ADD CALLDATALOAD PUSH8 0xFFFFFFFFFFFFFFFF DUP2 GT ISZERO PUSH2 0x640 JUMPI PUSH2 0x63F PUSH2 0x358 JUMP JUMPDEST JUMPDEST PUSH2 0x64C DUP7 DUP3 DUP8 ADD PUSH2 0x5AF JUMP JUMPDEST SWAP4 POP POP PUSH1 0x20 PUSH2 0x65D DUP7 DUP3 DUP8 ADD PUSH2 0x374 JUMP JUMPDEST SWAP3 POP POP PUSH1 0x40 PUSH2 0x66E DUP7 DUP3 DUP8 ADD PUSH2 0x5F4 JUMP JUMPDEST SWAP2 POP POP SWAP3 POP SWAP3 POP SWAP3 JUMP JUMPDEST PUSH32 0x4E487B7100000000000000000000000000000000000000000000000000000000 PUSH1 0x0 MSTORE PUSH1 0x22 PUSH1 0x4 MSTORE PUSH1 0x24 PUSH1 0x0 REVERT JUMPDEST PUSH1 0x0 PUSH1 0x2 DUP3 DIV SWAP1 POP PUSH1 0x1 DUP3 AND DUP1 PUSH2 0x6BF JUMPI PUSH1 0x7F DUP3 AND SWAP2 POP JUMPDEST PUSH1 0x20 DUP3 LT DUP2 EQ ISZERO PUSH2 0x6D3 JUMPI PUSH2 0x6D2 PUSH2 0x678 JUMP JUMPDEST JUMPDEST POP SWAP2 SWAP1 POP JUMP JUMPDEST PUSH32 0x4E487B7100000000000000000000000000000000000000000000000000000000 PUSH1 0x0 MSTORE PUSH1 0x11 PUSH1 0x4 MSTORE PUSH1 0x24 PUSH1 0x0 REVERT JUMPDEST PUSH1 0x0 PUSH2 0x713 DUP3 PUSH2 0x315 JUMP JUMPDEST SWAP2 POP PUSH32 0xFFFFFFFFFFFFFFFFFFFFFFFFFFFFFFFFFFFFFFFFFFFFFFFFFFFFFFFFFFFFFFFF DUP3 EQ ISZERO PUSH2 0x746 JUMPI PUSH2 0x745 PUSH2 0x6D9 JUMP JUMPDEST JUMPDEST PUSH1 0x1 DUP3 ADD SWAP1 POP SWAP2 SWAP1 POP JUMP INVALID LOG2 PUSH5 0x6970667358 0x22 SLT KECCAK256 JUMPDEST PUSH10 0x121E0D8C482C0B2EB965 GT 0xB0 PUSH9 0xCD49C5E19F69524FB GASLIMIT 0x22 0xB4 0xFC 0x2E PUSH3 0x47F564 PUSH20 0x6F6C634300080800330000000000000000000000 "
				},
				"gasEstimates": {
					"creation": {
						"codeDepositCost": "385400",
						"executionCost": "424",
						"totalCost": "385824"
					},
					"external": {
						"createPerson(string,uint256,bool)": "infinite",
						"people(uint256)": "infinite",
						"retrieve()": "2415",
						"store(uint256)": "infinite"
					},
					"internal": {
						"add()": "24369"
					}
				},
				"methodIdentifiers": {
					"createPerson(string,uint256,bool)": "bdfd5e1f",
					"people(uint256)": "9e7a13ad",
					"retrieve()": "2e64cec1",
					"store(uint256)": "6057361d"
				}
			},
			"storageLayout": {
				"storage": [
					{
						"astId": 3,
						"contract": "contracts/SimpleStorage.sol:SimpleStorage",
						"label": "favoriteNumber",
						"offset": 0,
						"slot": "0",
						"type": "t_uint256"
					},
					{
						"astId": 14,
						"contract": "contracts/SimpleStorage.sol:SimpleStorage",
						"label": "people",
						"offset": 0,
						"slot": "1",
						"type": "t_array(t_struct(People)10_storage)dyn_storage"
					}
				],
				"types": {
					"t_array(t_struct(People)10_storage)dyn_storage": {
						"base": "t_struct(People)10_storage",
						"encoding": "dynamic_array",
						"label": "struct SimpleStorage.People[]",
						"numberOfBytes": "32"
					},
					"t_bool": {
						"encoding": "inplace",
						"label": "bool",
						"numberOfBytes": "1"
					},
					"t_string_storage": {
						"encoding": "bytes",
						"label": "string",
						"numberOfBytes": "32"
					},
					"t_struct(People)10_storage": {
						"encoding": "inplace",
						"label": "struct SimpleStorage.People",
						"members": [
							{
								"astId": 5,
								"contract": "contracts/SimpleStorage.sol:SimpleStorage",
								"label": "favoriteNumber",
								"offset": 0,
								"slot": "0",
								"type": "t_uint256"
							},
							{
								"astId": 7,
								"contract": "contracts/SimpleStorage.sol:SimpleStorage",
								"label": "name",
								"offset": 0,
								"slot": "1",
								"type": "t_string_storage"
							},
							{
								"astId": 9,
								"contract": "contracts/SimpleStorage.sol:SimpleStorage",
								"label": "isVerified",
								"offset": 0,
								"slot": "2",
								"type": "t_bool"
							}
						],
						"numberOfBytes": "96"
					},
					"t_uint256": {
						"encoding": "inplace",
						"label": "uint256",
						"numberOfBytes": "32"
					}
				}
			},
			"userdoc": {
				"kind": "user",
				"methods": {},
				"version": 1
			}
		}
	}
}