{
	"contracts/SimpleStorage.sol": {
		"SimpleStorage": {
			"abi": [
				{
					"inputs": [
						{
							"internalType": "string",
							"name": "_name",
							"type": "string"
						},
						{
							"internalType": "uint256",
							"name": "_favNumber",
							"type": "uint256"
						}
					],
					"name": "createPerson",
					"outputs": [],
					"stateMutability": "nonpayable",
					"type": "function"
				},
				{
					"inputs": [
						{
							"internalType": "string",
							"name": "",
							"type": "string"
						}
					],
					"name": "nameToFavNumber",
					"outputs": [
						{
							"internalType": "uint256",
							"name": "",
							"type": "uint256"
						}
					],
					"stateMutability": "view",
					"type": "function"
				},
				{
					"inputs": [],
					"name": "number",
					"outputs": [
						{
							"internalType": "uint256",
							"name": "",
							"type": "uint256"
						}
					],
					"stateMutability": "view",
					"type": "function"
				},
				{
					"inputs": [
						{
							"internalType": "uint256",
							"name": "",
							"type": "uint256"
						}
					],
					"name": "people",
					"outputs": [
						{
							"internalType": "string",
							"name": "name",
							"type": "string"
						},
						{
							"internalType": "uint256",
							"name": "favoriteNumber",
							"type": "uint256"
						}
					],
					"stateMutability": "view",
					"type": "function"
				},
				{
					"inputs": [],
					"name": "retrieve",
					"outputs": [
						{
							"internalType": "uint256",
							"name": "",
							"type": "uint256"
						}
					],
					"stateMutability": "view",
					"type": "function"
				},
				{
					"inputs": [
						{
							"internalType": "uint256",
							"name": "_number",
							"type": "uint256"
						}
					],
					"name": "store",
					"outputs": [],
					"stateMutability": "nonpayable",
					"type": "function"
				}
			],
			"devdoc": {
				"kind": "dev",
				"methods": {},
				"version": 1
			},
			"evm": {
				"assembly": "    /* \"contracts/SimpleStorage.sol\":93:761  contract SimpleStorage {... */\n  mstore(0x40, 0x80)\n  callvalue\n  dup1\n  iszero\n  tag_1\n  jumpi\n  0x00\n  dup1\n  revert\ntag_1:\n  pop\n  dataSize(sub_0)\n  dup1\n  dataOffset(sub_0)\n  0x00\n  codecopy\n  0x00\n  return\nstop\n\nsub_0: assembly {\n        /* \"contracts/SimpleStorage.sol\":93:761  contract SimpleStorage {... */\n      mstore(0x40, 0x80)\n      callvalue\n      dup1\n      iszero\n      tag_1\n      jumpi\n      0x00\n      dup1\n      revert\n    tag_1:\n      pop\n      jumpi(tag_2, lt(calldatasize, 0x04))\n      shr(0xe0, calldataload(0x00))\n      dup1\n      0x1ef455c7\n      eq\n      tag_3\n      jumpi\n      dup1\n      0x2e64cec1\n      eq\n      tag_4\n      jumpi\n      dup1\n      0x43ec8f47\n      eq\n      tag_5\n      jumpi\n      dup1\n      0x6057361d\n      eq\n      tag_6\n      jumpi\n      dup1\n      0x8381f58a\n      eq\n      tag_7\n      jumpi\n      dup1\n      0x9e7a13ad\n      eq\n      tag_8\n      jumpi\n    tag_2:\n      0x00\n      dup1\n      revert\n        /* \"contracts/SimpleStorage.sol\":489:758  function createPerson (string memory _name, uint _favNumber) public {... */\n    tag_3:\n      tag_9\n      tag_10\n      calldatasize\n      0x04\n      tag_11\n      jump\t// in\n    tag_10:\n      tag_12\n      jump\t// in\n    tag_9:\n      stop\n        /* \"contracts/SimpleStorage.sol\":231:309  function retrieve() public view returns(uint) {... */\n    tag_4:\n        /* \"contracts/SimpleStorage.sol\":271:275  uint */\n      0x00\n        /* \"contracts/SimpleStorage.sol\":295:301  number */\n      sload\n        /* \"contracts/SimpleStorage.sol\":231:309  function retrieve() public view returns(uint) {... */\n    tag_13:\n      mload(0x40)\n        /* \"#utility.yul\":1411:1436   */\n      swap1\n      dup2\n      mstore\n        /* \"#utility.yul\":1399:1401   */\n      0x20\n        /* \"#utility.yul\":1384:1402   */\n      add\n        /* \"contracts/SimpleStorage.sol\":231:309  function retrieve() public view returns(uint) {... */\n    tag_15:\n      mload(0x40)\n      dup1\n      swap2\n      sub\n      swap1\n      return\n        /* \"contracts/SimpleStorage.sol\":434:480  mapping(string => uint) public nameToFavNumber */\n    tag_5:\n      tag_13\n      tag_18\n      calldatasize\n      0x04\n      tag_19\n      jump\t// in\n    tag_18:\n      dup1\n      mload\n      0x20\n      dup2\n      dup4\n      add\n      dup2\n      add\n      dup1\n      mload\n      0x02\n      dup3\n      mstore\n      swap3\n      dup3\n      add\n      swap2\n      swap1\n      swap4\n      add\n      keccak256\n      swap2\n      mstore\n      sload\n      dup2\n      jump\n        /* \"contracts/SimpleStorage.sol\":152:223  function store(uint _number) public {... */\n    tag_6:\n      tag_9\n      tag_23\n      calldatasize\n      0x04\n      tag_24\n      jump\t// in\n    tag_23:\n        /* \"contracts/SimpleStorage.sol\":199:205  number */\n      0x00\n        /* \"contracts/SimpleStorage.sol\":199:215  number = _number */\n      sstore\n        /* \"contracts/SimpleStorage.sol\":152:223  function store(uint _number) public {... */\n      jump\n        /* \"contracts/SimpleStorage.sol\":125:143  uint public number */\n    tag_7:\n      tag_13\n      sload(0x00)\n      dup2\n      jump\n        /* \"contracts/SimpleStorage.sol\":403:425  People[] public people */\n    tag_8:\n      tag_29\n      tag_30\n      calldatasize\n      0x04\n      tag_24\n      jump\t// in\n    tag_30:\n      tag_31\n      jump\t// in\n    tag_29:\n      mload(0x40)\n      tag_15\n      swap3\n      swap2\n      swap1\n      tag_33\n      jump\t// in\n        /* \"contracts/SimpleStorage.sol\":489:758  function createPerson (string memory _name, uint _favNumber) public {... */\n    tag_12:\n        /* \"contracts/SimpleStorage.sol\":646:671  People(_name, _favNumber) */\n      0x40\n      dup1\n      mload\n      dup1\n      dup3\n      add\n      swap1\n      swap2\n      mstore\n      dup3\n      dup2\n      mstore\n      0x20\n      dup1\n      dup3\n      add\n      dup4\n      swap1\n      mstore\n        /* \"contracts/SimpleStorage.sol\":682:688  people */\n      0x01\n        /* \"contracts/SimpleStorage.sol\":682:704  people.push(newPerson) */\n      dup1\n      sload\n      dup1\n      dup3\n      add\n      dup3\n      sstore\n        /* \"contracts/SimpleStorage.sol\":620:643  People memory newPerson */\n      0x00\n        /* \"contracts/SimpleStorage.sol\":682:704  people.push(newPerson) */\n      swap2\n      swap1\n      swap2\n      mstore\n      dup3\n      mload\n      dup1\n      mload\n        /* \"contracts/SimpleStorage.sol\":646:671  People(_name, _favNumber) */\n      dup5\n      swap4\n        /* \"contracts/SimpleStorage.sol\":682:704  people.push(newPerson) */\n      0x02\n      swap1\n      swap4\n      mul\n      0xb10e2d527612073b26eecdfd717e6a320cf44b4afac2b0732d9fcbe2b7fa0cf6\n      add\n      swap3\n      tag_36\n      swap3\n      dup5\n      swap3\n      swap2\n      add\n      swap1\n      tag_37\n      jump\t// in\n    tag_36:\n      pop\n      0x20\n      dup3\n      add\n      mload\n      dup2\n      0x01\n      add\n      sstore\n      pop\n      pop\n        /* \"contracts/SimpleStorage.sol\":740:750  _favNumber */\n      dup2\n        /* \"contracts/SimpleStorage.sol\":715:730  nameToFavNumber */\n      0x02\n        /* \"contracts/SimpleStorage.sol\":731:736  _name */\n      dup5\n        /* \"contracts/SimpleStorage.sol\":715:737  nameToFavNumber[_name] */\n      mload(0x40)\n      tag_38\n      swap2\n      swap1\n      tag_39\n      jump\t// in\n    tag_38:\n      swap1\n      dup2\n      mstore\n      mload(0x40)\n      swap1\n      dup2\n      swap1\n      sub\n      0x20\n      add\n      swap1\n      keccak256\n        /* \"contracts/SimpleStorage.sol\":715:750  nameToFavNumber[_name] = _favNumber */\n      sstore\n      pop\n      pop\n      pop\n        /* \"contracts/SimpleStorage.sol\":489:758  function createPerson (string memory _name, uint _favNumber) public {... */\n      jump\t// out\n        /* \"contracts/SimpleStorage.sol\":403:425  People[] public people */\n    tag_31:\n      0x01\n      dup2\n      dup2\n      sload\n      dup2\n      lt\n      tag_42\n      jumpi\n      0x00\n      dup1\n      revert\n    tag_42:\n      swap1\n      0x00\n      mstore\n      keccak256(0x00, 0x20)\n      swap1\n      0x02\n      mul\n      add\n      0x00\n      swap2\n      pop\n      swap1\n      pop\n      dup1\n      0x00\n      add\n      dup1\n      sload\n      tag_44\n      swap1\n      tag_45\n      jump\t// in\n    tag_44:\n      dup1\n      0x1f\n      add\n      0x20\n      dup1\n      swap2\n      div\n      mul\n      0x20\n      add\n      mload(0x40)\n      swap1\n      dup2\n      add\n      0x40\n      mstore\n      dup1\n      swap3\n      swap2\n      swap1\n      dup2\n      dup2\n      mstore\n      0x20\n      add\n      dup3\n      dup1\n      sload\n      tag_46\n      swap1\n      tag_45\n      jump\t// in\n    tag_46:\n      dup1\n      iszero\n      tag_47\n      jumpi\n      dup1\n      0x1f\n      lt\n      tag_48\n      jumpi\n      0x0100\n      dup1\n      dup4\n      sload\n      div\n      mul\n      dup4\n      mstore\n      swap2\n      0x20\n      add\n      swap2\n      jump(tag_47)\n    tag_48:\n      dup3\n      add\n      swap2\n      swap1\n      0x00\n      mstore\n      keccak256(0x00, 0x20)\n      swap1\n    tag_49:\n      dup2\n      sload\n      dup2\n      mstore\n      swap1\n      0x01\n      add\n      swap1\n      0x20\n      add\n      dup1\n      dup4\n      gt\n      tag_49\n      jumpi\n      dup3\n      swap1\n      sub\n      0x1f\n      and\n      dup3\n      add\n      swap2\n    tag_47:\n      pop\n      pop\n      pop\n      pop\n      pop\n      swap1\n      dup1\n      0x01\n      add\n      sload\n      swap1\n      pop\n      dup3\n      jump\t// out\n    tag_37:\n      dup3\n      dup1\n      sload\n      tag_50\n      swap1\n      tag_45\n      jump\t// in\n    tag_50:\n      swap1\n      0x00\n      mstore\n      keccak256(0x00, 0x20)\n      swap1\n      0x1f\n      add\n      0x20\n      swap1\n      div\n      dup2\n      add\n      swap3\n      dup3\n      tag_52\n      jumpi\n      0x00\n      dup6\n      sstore\n      jump(tag_55)\n    tag_52:\n      dup3\n      0x1f\n      lt\n      tag_53\n      jumpi\n      dup1\n      mload\n      not(0xff)\n      and\n      dup4\n      dup1\n      add\n      or\n      dup6\n      sstore\n      jump(tag_55)\n    tag_53:\n      dup3\n      dup1\n      add\n      0x01\n      add\n      dup6\n      sstore\n      dup3\n      iszero\n      tag_55\n      jumpi\n      swap2\n      dup3\n      add\n    tag_54:\n      dup3\n      dup2\n      gt\n      iszero\n      tag_55\n      jumpi\n      dup3\n      mload\n      dup3\n      sstore\n      swap2\n      0x20\n      add\n      swap2\n      swap1\n      0x01\n      add\n      swap1\n      jump(tag_54)\n    tag_55:\n      pop\n      tag_56\n      swap3\n      swap2\n      pop\n      tag_57\n      jump\t// in\n    tag_56:\n      pop\n      swap1\n      jump\t// out\n    tag_57:\n    tag_58:\n      dup1\n      dup3\n      gt\n      iszero\n      tag_56\n      jumpi\n      0x00\n      dup2\n      sstore\n      0x01\n      add\n      jump(tag_58)\n        /* \"#utility.yul\":14:141   */\n    tag_60:\n        /* \"#utility.yul\":75:85   */\n      0x4e487b71\n        /* \"#utility.yul\":70:73   */\n      0xe0\n        /* \"#utility.yul\":66:86   */\n      shl\n        /* \"#utility.yul\":63:64   */\n      0x00\n        /* \"#utility.yul\":56:87   */\n      mstore\n        /* \"#utility.yul\":106:110   */\n      0x41\n        /* \"#utility.yul\":103:104   */\n      0x04\n        /* \"#utility.yul\":96:111   */\n      mstore\n        /* \"#utility.yul\":130:134   */\n      0x24\n        /* \"#utility.yul\":127:128   */\n      0x00\n        /* \"#utility.yul\":120:135   */\n      revert\n        /* \"#utility.yul\":146:865   */\n    tag_61:\n        /* \"#utility.yul\":189:194   */\n      0x00\n        /* \"#utility.yul\":242:245   */\n      dup3\n        /* \"#utility.yul\":235:239   */\n      0x1f\n        /* \"#utility.yul\":227:233   */\n      dup4\n        /* \"#utility.yul\":223:240   */\n      add\n        /* \"#utility.yul\":219:246   */\n      slt\n        /* \"#utility.yul\":209:264   */\n      tag_66\n      jumpi\n        /* \"#utility.yul\":260:261   */\n      0x00\n        /* \"#utility.yul\":257:258   */\n      dup1\n        /* \"#utility.yul\":250:262   */\n      revert\n        /* \"#utility.yul\":209:264   */\n    tag_66:\n        /* \"#utility.yul\":296:302   */\n      dup2\n        /* \"#utility.yul\":283:303   */\n      calldataload\n        /* \"#utility.yul\":322:340   */\n      0xffffffffffffffff\n        /* \"#utility.yul\":359:361   */\n      dup1\n        /* \"#utility.yul\":355:357   */\n      dup3\n        /* \"#utility.yul\":352:362   */\n      gt\n        /* \"#utility.yul\":349:385   */\n      iszero\n      tag_68\n      jumpi\n        /* \"#utility.yul\":365:383   */\n      tag_68\n      tag_60\n      jump\t// in\n    tag_68:\n        /* \"#utility.yul\":440:442   */\n      0x40\n        /* \"#utility.yul\":434:443   */\n      mload\n        /* \"#utility.yul\":408:410   */\n      0x1f\n        /* \"#utility.yul\":494:507   */\n      dup4\n      add\n      not(0x1f)\n        /* \"#utility.yul\":490:512   */\n      swap1\n      dup2\n      and\n        /* \"#utility.yul\":514:516   */\n      0x3f\n        /* \"#utility.yul\":486:517   */\n      add\n        /* \"#utility.yul\":482:522   */\n      and\n        /* \"#utility.yul\":470:523   */\n      dup2\n      add\n      swap1\n        /* \"#utility.yul\":538:556   */\n      dup3\n      dup3\n      gt\n        /* \"#utility.yul\":558:580   */\n      dup2\n      dup4\n      lt\n        /* \"#utility.yul\":535:581   */\n      or\n        /* \"#utility.yul\":532:604   */\n      iszero\n      tag_70\n      jumpi\n        /* \"#utility.yul\":584:602   */\n      tag_70\n      tag_60\n      jump\t// in\n    tag_70:\n        /* \"#utility.yul\":624:634   */\n      dup2\n        /* \"#utility.yul\":620:622   */\n      0x40\n        /* \"#utility.yul\":613:635   */\n      mstore\n        /* \"#utility.yul\":659:661   */\n      dup4\n        /* \"#utility.yul\":651:657   */\n      dup2\n        /* \"#utility.yul\":644:662   */\n      mstore\n        /* \"#utility.yul\":705:708   */\n      dup7\n        /* \"#utility.yul\":698:702   */\n      0x20\n        /* \"#utility.yul\":693:695   */\n      dup6\n        /* \"#utility.yul\":685:691   */\n      dup9\n        /* \"#utility.yul\":681:696   */\n      add\n        /* \"#utility.yul\":677:703   */\n      add\n        /* \"#utility.yul\":674:709   */\n      gt\n        /* \"#utility.yul\":671:726   */\n      iszero\n      tag_71\n      jumpi\n        /* \"#utility.yul\":722:723   */\n      0x00\n        /* \"#utility.yul\":719:720   */\n      dup1\n        /* \"#utility.yul\":712:724   */\n      revert\n        /* \"#utility.yul\":671:726   */\n    tag_71:\n        /* \"#utility.yul\":786:788   */\n      dup4\n        /* \"#utility.yul\":779:783   */\n      0x20\n        /* \"#utility.yul\":771:777   */\n      dup8\n        /* \"#utility.yul\":767:784   */\n      add\n        /* \"#utility.yul\":760:764   */\n      0x20\n        /* \"#utility.yul\":752:758   */\n      dup4\n        /* \"#utility.yul\":748:765   */\n      add\n        /* \"#utility.yul\":735:789   */\n      calldatacopy\n        /* \"#utility.yul\":833:834   */\n      0x00\n        /* \"#utility.yul\":826:830   */\n      0x20\n        /* \"#utility.yul\":821:823   */\n      dup6\n        /* \"#utility.yul\":813:819   */\n      dup4\n        /* \"#utility.yul\":809:824   */\n      add\n        /* \"#utility.yul\":805:831   */\n      add\n        /* \"#utility.yul\":798:835   */\n      mstore\n        /* \"#utility.yul\":853:859   */\n      dup1\n        /* \"#utility.yul\":844:859   */\n      swap5\n      pop\n      pop\n      pop\n      pop\n      pop\n        /* \"#utility.yul\":146:865   */\n      swap3\n      swap2\n      pop\n      pop\n      jump\t// out\n        /* \"#utility.yul\":870:1260   */\n    tag_11:\n        /* \"#utility.yul\":948:954   */\n      0x00\n        /* \"#utility.yul\":956:962   */\n      dup1\n        /* \"#utility.yul\":1009:1011   */\n      0x40\n        /* \"#utility.yul\":997:1006   */\n      dup4\n        /* \"#utility.yul\":988:995   */\n      dup6\n        /* \"#utility.yul\":984:1007   */\n      sub\n        /* \"#utility.yul\":980:1012   */\n      slt\n        /* \"#utility.yul\":977:1029   */\n      iszero\n      tag_73\n      jumpi\n        /* \"#utility.yul\":1025:1026   */\n      0x00\n        /* \"#utility.yul\":1022:1023   */\n      dup1\n        /* \"#utility.yul\":1015:1027   */\n      revert\n        /* \"#utility.yul\":977:1029   */\n    tag_73:\n        /* \"#utility.yul\":1065:1074   */\n      dup3\n        /* \"#utility.yul\":1052:1075   */\n      calldataload\n        /* \"#utility.yul\":1098:1116   */\n      0xffffffffffffffff\n        /* \"#utility.yul\":1090:1096   */\n      dup2\n        /* \"#utility.yul\":1087:1117   */\n      gt\n        /* \"#utility.yul\":1084:1134   */\n      iszero\n      tag_74\n      jumpi\n        /* \"#utility.yul\":1130:1131   */\n      0x00\n        /* \"#utility.yul\":1127:1128   */\n      dup1\n        /* \"#utility.yul\":1120:1132   */\n      revert\n        /* \"#utility.yul\":1084:1134   */\n    tag_74:\n        /* \"#utility.yul\":1153:1203   */\n      tag_75\n        /* \"#utility.yul\":1195:1202   */\n      dup6\n        /* \"#utility.yul\":1186:1192   */\n      dup3\n        /* \"#utility.yul\":1175:1184   */\n      dup7\n        /* \"#utility.yul\":1171:1193   */\n      add\n        /* \"#utility.yul\":1153:1203   */\n      tag_61\n      jump\t// in\n    tag_75:\n        /* \"#utility.yul\":1143:1203   */\n      swap6\n        /* \"#utility.yul\":1250:1252   */\n      0x20\n        /* \"#utility.yul\":1235:1253   */\n      swap5\n      swap1\n      swap5\n      add\n        /* \"#utility.yul\":1222:1254   */\n      calldataload\n      swap5\n      pop\n      pop\n      pop\n      pop\n        /* \"#utility.yul\":870:1260   */\n      jump\t// out\n        /* \"#utility.yul\":1447:1769   */\n    tag_19:\n        /* \"#utility.yul\":1516:1522   */\n      0x00\n        /* \"#utility.yul\":1569:1571   */\n      0x20\n        /* \"#utility.yul\":1557:1566   */\n      dup3\n        /* \"#utility.yul\":1548:1555   */\n      dup5\n        /* \"#utility.yul\":1544:1567   */\n      sub\n        /* \"#utility.yul\":1540:1572   */\n      slt\n        /* \"#utility.yul\":1537:1589   */\n      iszero\n      tag_78\n      jumpi\n        /* \"#utility.yul\":1585:1586   */\n      0x00\n        /* \"#utility.yul\":1582:1583   */\n      dup1\n        /* \"#utility.yul\":1575:1587   */\n      revert\n        /* \"#utility.yul\":1537:1589   */\n    tag_78:\n        /* \"#utility.yul\":1625:1634   */\n      dup2\n        /* \"#utility.yul\":1612:1635   */\n      calldataload\n        /* \"#utility.yul\":1658:1676   */\n      0xffffffffffffffff\n        /* \"#utility.yul\":1650:1656   */\n      dup2\n        /* \"#utility.yul\":1647:1677   */\n      gt\n        /* \"#utility.yul\":1644:1694   */\n      iszero\n      tag_79\n      jumpi\n        /* \"#utility.yul\":1690:1691   */\n      0x00\n        /* \"#utility.yul\":1687:1688   */\n      dup1\n        /* \"#utility.yul\":1680:1692   */\n      revert\n        /* \"#utility.yul\":1644:1694   */\n    tag_79:\n        /* \"#utility.yul\":1713:1763   */\n      tag_80\n        /* \"#utility.yul\":1755:1762   */\n      dup5\n        /* \"#utility.yul\":1746:1752   */\n      dup3\n        /* \"#utility.yul\":1735:1744   */\n      dup6\n        /* \"#utility.yul\":1731:1753   */\n      add\n        /* \"#utility.yul\":1713:1763   */\n      tag_61\n      jump\t// in\n    tag_80:\n        /* \"#utility.yul\":1703:1763   */\n      swap5\n        /* \"#utility.yul\":1447:1769   */\n      swap4\n      pop\n      pop\n      pop\n      pop\n      jump\t// out\n        /* \"#utility.yul\":1774:1954   */\n    tag_24:\n        /* \"#utility.yul\":1833:1839   */\n      0x00\n        /* \"#utility.yul\":1886:1888   */\n      0x20\n        /* \"#utility.yul\":1874:1883   */\n      dup3\n        /* \"#utility.yul\":1865:1872   */\n      dup5\n        /* \"#utility.yul\":1861:1884   */\n      sub\n        /* \"#utility.yul\":1857:1889   */\n      slt\n        /* \"#utility.yul\":1854:1906   */\n      iszero\n      tag_82\n      jumpi\n        /* \"#utility.yul\":1902:1903   */\n      0x00\n        /* \"#utility.yul\":1899:1900   */\n      dup1\n        /* \"#utility.yul\":1892:1904   */\n      revert\n        /* \"#utility.yul\":1854:1906   */\n    tag_82:\n      pop\n        /* \"#utility.yul\":1925:1948   */\n      calldataload\n      swap2\n        /* \"#utility.yul\":1774:1954   */\n      swap1\n      pop\n      jump\t// out\n        /* \"#utility.yul\":1959:2217   */\n    tag_62:\n        /* \"#utility.yul\":2031:2032   */\n      0x00\n        /* \"#utility.yul\":2041:2154   */\n    tag_84:\n        /* \"#utility.yul\":2055:2061   */\n      dup4\n        /* \"#utility.yul\":2052:2053   */\n      dup2\n        /* \"#utility.yul\":2049:2062   */\n      lt\n        /* \"#utility.yul\":2041:2154   */\n      iszero\n      tag_86\n      jumpi\n        /* \"#utility.yul\":2131:2142   */\n      dup2\n      dup2\n      add\n        /* \"#utility.yul\":2125:2143   */\n      mload\n        /* \"#utility.yul\":2112:2123   */\n      dup4\n      dup3\n      add\n        /* \"#utility.yul\":2105:2144   */\n      mstore\n        /* \"#utility.yul\":2077:2079   */\n      0x20\n        /* \"#utility.yul\":2070:2080   */\n      add\n        /* \"#utility.yul\":2041:2154   */\n      jump(tag_84)\n    tag_86:\n        /* \"#utility.yul\":2172:2178   */\n      dup4\n        /* \"#utility.yul\":2169:2170   */\n      dup2\n        /* \"#utility.yul\":2166:2179   */\n      gt\n        /* \"#utility.yul\":2163:2211   */\n      iszero\n      tag_87\n      jumpi\n        /* \"#utility.yul\":2207:2208   */\n      0x00\n        /* \"#utility.yul\":2198:2204   */\n      dup5\n        /* \"#utility.yul\":2193:2196   */\n      dup5\n        /* \"#utility.yul\":2189:2205   */\n      add\n        /* \"#utility.yul\":2182:2209   */\n      mstore\n        /* \"#utility.yul\":2163:2211   */\n    tag_87:\n      pop\n        /* \"#utility.yul\":1959:2217   */\n      pop\n      pop\n      pop\n      jump\t// out\n        /* \"#utility.yul\":2222:2680   */\n    tag_33:\n        /* \"#utility.yul\":2399:2401   */\n      0x40\n        /* \"#utility.yul\":2388:2397   */\n      dup2\n        /* \"#utility.yul\":2381:2402   */\n      mstore\n        /* \"#utility.yul\":2362:2366   */\n      0x00\n        /* \"#utility.yul\":2431:2437   */\n      dup4\n        /* \"#utility.yul\":2425:2438   */\n      mload\n        /* \"#utility.yul\":2474:2480   */\n      dup1\n        /* \"#utility.yul\":2469:2471   */\n      0x40\n        /* \"#utility.yul\":2458:2467   */\n      dup5\n        /* \"#utility.yul\":2454:2472   */\n      add\n        /* \"#utility.yul\":2447:2481   */\n      mstore\n        /* \"#utility.yul\":2490:2558   */\n      tag_89\n        /* \"#utility.yul\":2551:2557   */\n      dup2\n        /* \"#utility.yul\":2546:2548   */\n      0x60\n        /* \"#utility.yul\":2535:2544   */\n      dup6\n        /* \"#utility.yul\":2531:2549   */\n      add\n        /* \"#utility.yul\":2524:2528   */\n      0x20\n        /* \"#utility.yul\":2516:2522   */\n      dup9\n        /* \"#utility.yul\":2512:2529   */\n      add\n        /* \"#utility.yul\":2490:2558   */\n      tag_62\n      jump\t// in\n    tag_89:\n        /* \"#utility.yul\":2660:2664   */\n      0x20\n        /* \"#utility.yul\":2645:2665   */\n      dup4\n      add\n        /* \"#utility.yul\":2638:2674   */\n      swap4\n      swap1\n      swap4\n      mstore\n      pop\n        /* \"#utility.yul\":2619:2621   */\n      0x1f\n        /* \"#utility.yul\":2598:2613   */\n      swap2\n      swap1\n      swap2\n      add\n      not(0x1f)\n        /* \"#utility.yul\":2594:2623   */\n      and\n        /* \"#utility.yul\":2579:2624   */\n      add\n        /* \"#utility.yul\":2626:2628   */\n      0x60\n        /* \"#utility.yul\":2575:2629   */\n      add\n      swap2\n        /* \"#utility.yul\":2222:2680   */\n      swap1\n      pop\n      jump\t// out\n        /* \"#utility.yul\":2685:2961   */\n    tag_39:\n        /* \"#utility.yul\":2816:2819   */\n      0x00\n        /* \"#utility.yul\":2854:2860   */\n      dup3\n        /* \"#utility.yul\":2848:2861   */\n      mload\n        /* \"#utility.yul\":2870:2923   */\n      tag_91\n        /* \"#utility.yul\":2916:2922   */\n      dup2\n        /* \"#utility.yul\":2911:2914   */\n      dup5\n        /* \"#utility.yul\":2904:2908   */\n      0x20\n        /* \"#utility.yul\":2896:2902   */\n      dup8\n        /* \"#utility.yul\":2892:2909   */\n      add\n        /* \"#utility.yul\":2870:2923   */\n      tag_62\n      jump\t// in\n    tag_91:\n        /* \"#utility.yul\":2939:2955   */\n      swap2\n      swap1\n      swap2\n      add\n      swap3\n        /* \"#utility.yul\":2685:2961   */\n      swap2\n      pop\n      pop\n      jump\t// out\n        /* \"#utility.yul\":2966:3346   */\n    tag_45:\n        /* \"#utility.yul\":3045:3046   */\n      0x01\n        /* \"#utility.yul\":3041:3053   */\n      dup2\n      dup2\n      shr\n      swap1\n        /* \"#utility.yul\":3088:3100   */\n      dup3\n      and\n      dup1\n        /* \"#utility.yul\":3109:3170   */\n      tag_93\n      jumpi\n        /* \"#utility.yul\":3163:3167   */\n      0x7f\n        /* \"#utility.yul\":3155:3161   */\n      dup3\n        /* \"#utility.yul\":3151:3168   */\n      and\n        /* \"#utility.yul\":3141:3168   */\n      swap2\n      pop\n        /* \"#utility.yul\":3109:3170   */\n    tag_93:\n        /* \"#utility.yul\":3216:3218   */\n      0x20\n        /* \"#utility.yul\":3208:3214   */\n      dup3\n        /* \"#utility.yul\":3205:3219   */\n      lt\n        /* \"#utility.yul\":3185:3203   */\n      dup2\n        /* \"#utility.yul\":3182:3220   */\n      sub\n        /* \"#utility.yul\":3179:3340   */\n      tag_94\n      jumpi\n        /* \"#utility.yul\":3262:3272   */\n      0x4e487b71\n        /* \"#utility.yul\":3257:3260   */\n      0xe0\n        /* \"#utility.yul\":3253:3273   */\n      shl\n        /* \"#utility.yul\":3250:3251   */\n      0x00\n        /* \"#utility.yul\":3243:3274   */\n      mstore\n        /* \"#utility.yul\":3297:3301   */\n      0x22\n        /* \"#utility.yul\":3294:3295   */\n      0x04\n        /* \"#utility.yul\":3287:3302   */\n      mstore\n        /* \"#utility.yul\":3325:3329   */\n      0x24\n        /* \"#utility.yul\":3322:3323   */\n      0x00\n        /* \"#utility.yul\":3315:3330   */\n      revert\n        /* \"#utility.yul\":3179:3340   */\n    tag_94:\n      pop\n        /* \"#utility.yul\":2966:3346   */\n      swap2\n      swap1\n      pop\n      jump\t// out\n\n    auxdata: 0xa264697066735822122082a7b24f0e29be3d3fb487f8b20dec57424a4b7e06c343a088dae7eda82b20c064736f6c634300080d0033\n}\n",
				"bytecode": {
					"linkReferences": {},
					"object": "608060405234801561001057600080fd5b50610518806100206000396000f3fe608060405234801561001057600080fd5b50600436106100625760003560e01c80631ef455c7146100675780632e64cec11461007c57806343ec8f47146100935780636057361d146100be5780638381f58a146100d15780639e7a13ad146100da575b600080fd5b61007a610075366004610386565b6100fb565b005b6000545b6040519081526020015b60405180910390f35b6100806100a13660046103cb565b805160208183018101805160028252928201919093012091525481565b61007a6100cc366004610408565b600055565b61008060005481565b6100ed6100e8366004610408565b61018e565b60405161008a929190610451565b60408051808201909152828152602080820183905260018054808201825560009190915282518051849360029093027fb10e2d527612073b26eecdfd717e6a320cf44b4afac2b0732d9fcbe2b7fa0cf6019261015b92849291019061024a565b5060208201518160010155505081600284604051610179919061048c565b90815260405190819003602001902055505050565b6001818154811061019e57600080fd5b90600052602060002090600202016000915090508060000180546101c1906104a8565b80601f01602080910402602001604051908101604052809291908181526020018280546101ed906104a8565b801561023a5780601f1061020f5761010080835404028352916020019161023a565b820191906000526020600020905b81548152906001019060200180831161021d57829003601f168201915b5050505050908060010154905082565b828054610256906104a8565b90600052602060002090601f01602090048101928261027857600085556102be565b82601f1061029157805160ff19168380011785556102be565b828001600101855582156102be579182015b828111156102be5782518255916020019190600101906102a3565b506102ca9291506102ce565b5090565b5b808211156102ca57600081556001016102cf565b634e487b7160e01b600052604160045260246000fd5b600082601f83011261030a57600080fd5b813567ffffffffffffffff80821115610325576103256102e3565b604051601f8301601f19908116603f0116810190828211818310171561034d5761034d6102e3565b8160405283815286602085880101111561036657600080fd5b836020870160208301376000602085830101528094505050505092915050565b6000806040838503121561039957600080fd5b823567ffffffffffffffff8111156103b057600080fd5b6103bc858286016102f9565b95602094909401359450505050565b6000602082840312156103dd57600080fd5b813567ffffffffffffffff8111156103f457600080fd5b610400848285016102f9565b949350505050565b60006020828403121561041a57600080fd5b5035919050565b60005b8381101561043c578181015183820152602001610424565b8381111561044b576000848401525b50505050565b6040815260008351806040840152610470816060850160208801610421565b602083019390935250601f91909101601f191601606001919050565b6000825161049e818460208701610421565b9190910192915050565b600181811c908216806104bc57607f821691505b6020821081036104dc57634e487b7160e01b600052602260045260246000fd5b5091905056fea264697066735822122082a7b24f0e29be3d3fb487f8b20dec57424a4b7e06c343a088dae7eda82b20c064736f6c634300080d0033",
					"opcodes": "PUSH1 0x80 PUSH1 0x40 MSTORE CALLVALUE DUP1 ISZERO PUSH2 0x10 JUMPI PUSH1 0x0 DUP1 REVERT JUMPDEST POP PUSH2 0x518 DUP1 PUSH2 0x20 PUSH1 0x0 CODECOPY PUSH1 0x0 RETURN INVALID PUSH1 0x80 PUSH1 0x40 MSTORE CALLVALUE DUP1 ISZERO PUSH2 0x10 JUMPI PUSH1 0x0 DUP1 REVERT JUMPDEST POP PUSH1 0x4 CALLDATASIZE LT PUSH2 0x62 JUMPI PUSH1 0x0 CALLDATALOAD PUSH1 0xE0 SHR DUP1 PUSH4 0x1EF455C7 EQ PUSH2 0x67 JUMPI DUP1 PUSH4 0x2E64CEC1 EQ PUSH2 0x7C JUMPI DUP1 PUSH4 0x43EC8F47 EQ PUSH2 0x93 JUMPI DUP1 PUSH4 0x6057361D EQ PUSH2 0xBE JUMPI DUP1 PUSH4 0x8381F58A EQ PUSH2 0xD1 JUMPI DUP1 PUSH4 0x9E7A13AD EQ PUSH2 0xDA JUMPI JUMPDEST PUSH1 0x0 DUP1 REVERT JUMPDEST PUSH2 0x7A PUSH2 0x75 CALLDATASIZE PUSH1 0x4 PUSH2 0x386 JUMP JUMPDEST PUSH2 0xFB JUMP JUMPDEST STOP JUMPDEST PUSH1 0x0 SLOAD JUMPDEST PUSH1 0x40 MLOAD SWAP1 DUP2 MSTORE PUSH1 0x20 ADD JUMPDEST PUSH1 0x40 MLOAD DUP1 SWAP2 SUB SWAP1 RETURN JUMPDEST PUSH2 0x80 PUSH2 0xA1 CALLDATASIZE PUSH1 0x4 PUSH2 0x3CB JUMP JUMPDEST DUP1 MLOAD PUSH1 0x20 DUP2 DUP4 ADD DUP2 ADD DUP1 MLOAD PUSH1 0x2 DUP3 MSTORE SWAP3 DUP3 ADD SWAP2 SWAP1 SWAP4 ADD KECCAK256 SWAP2 MSTORE SLOAD DUP2 JUMP JUMPDEST PUSH2 0x7A PUSH2 0xCC CALLDATASIZE PUSH1 0x4 PUSH2 0x408 JUMP JUMPDEST PUSH1 0x0 SSTORE JUMP JUMPDEST PUSH2 0x80 PUSH1 0x0 SLOAD DUP2 JUMP JUMPDEST PUSH2 0xED PUSH2 0xE8 CALLDATASIZE PUSH1 0x4 PUSH2 0x408 JUMP JUMPDEST PUSH2 0x18E JUMP JUMPDEST PUSH1 0x40 MLOAD PUSH2 0x8A SWAP3 SWAP2 SWAP1 PUSH2 0x451 JUMP JUMPDEST PUSH1 0x40 DUP1 MLOAD DUP1 DUP3 ADD SWAP1 SWAP2 MSTORE DUP3 DUP2 MSTORE PUSH1 0x20 DUP1 DUP3 ADD DUP4 SWAP1 MSTORE PUSH1 0x1 DUP1 SLOAD DUP1 DUP3 ADD DUP3 SSTORE PUSH1 0x0 SWAP2 SWAP1 SWAP2 MSTORE DUP3 MLOAD DUP1 MLOAD DUP5 SWAP4 PUSH1 0x2 SWAP1 SWAP4 MUL PUSH32 0xB10E2D527612073B26EECDFD717E6A320CF44B4AFAC2B0732D9FCBE2B7FA0CF6 ADD SWAP3 PUSH2 0x15B SWAP3 DUP5 SWAP3 SWAP2 ADD SWAP1 PUSH2 0x24A JUMP JUMPDEST POP PUSH1 0x20 DUP3 ADD MLOAD DUP2 PUSH1 0x1 ADD SSTORE POP POP DUP2 PUSH1 0x2 DUP5 PUSH1 0x40 MLOAD PUSH2 0x179 SWAP2 SWAP1 PUSH2 0x48C JUMP JUMPDEST SWAP1 DUP2 MSTORE PUSH1 0x40 MLOAD SWAP1 DUP2 SWAP1 SUB PUSH1 0x20 ADD SWAP1 KECCAK256 SSTORE POP POP POP JUMP JUMPDEST PUSH1 0x1 DUP2 DUP2 SLOAD DUP2 LT PUSH2 0x19E JUMPI PUSH1 0x0 DUP1 REVERT JUMPDEST SWAP1 PUSH1 0x0 MSTORE PUSH1 0x20 PUSH1 0x0 KECCAK256 SWAP1 PUSH1 0x2 MUL ADD PUSH1 0x0 SWAP2 POP SWAP1 POP DUP1 PUSH1 0x0 ADD DUP1 SLOAD PUSH2 0x1C1 SWAP1 PUSH2 0x4A8 JUMP JUMPDEST DUP1 PUSH1 0x1F ADD PUSH1 0x20 DUP1 SWAP2 DIV MUL PUSH1 0x20 ADD PUSH1 0x40 MLOAD SWAP1 DUP2 ADD PUSH1 0x40 MSTORE DUP1 SWAP3 SWAP2 SWAP1 DUP2 DUP2 MSTORE PUSH1 0x20 ADD DUP3 DUP1 SLOAD PUSH2 0x1ED SWAP1 PUSH2 0x4A8 JUMP JUMPDEST DUP1 ISZERO PUSH2 0x23A JUMPI DUP1 PUSH1 0x1F LT PUSH2 0x20F JUMPI PUSH2 0x100 DUP1 DUP4 SLOAD DIV MUL DUP4 MSTORE SWAP2 PUSH1 0x20 ADD SWAP2 PUSH2 0x23A JUMP JUMPDEST DUP3 ADD SWAP2 SWAP1 PUSH1 0x0 MSTORE PUSH1 0x20 PUSH1 0x0 KECCAK256 SWAP1 JUMPDEST DUP2 SLOAD DUP2 MSTORE SWAP1 PUSH1 0x1 ADD SWAP1 PUSH1 0x20 ADD DUP1 DUP4 GT PUSH2 0x21D JUMPI DUP3 SWAP1 SUB PUSH1 0x1F AND DUP3 ADD SWAP2 JUMPDEST POP POP POP POP POP SWAP1 DUP1 PUSH1 0x1 ADD SLOAD SWAP1 POP DUP3 JUMP JUMPDEST DUP3 DUP1 SLOAD PUSH2 0x256 SWAP1 PUSH2 0x4A8 JUMP JUMPDEST SWAP1 PUSH1 0x0 MSTORE PUSH1 0x20 PUSH1 0x0 KECCAK256 SWAP1 PUSH1 0x1F ADD PUSH1 0x20 SWAP1 DIV DUP2 ADD SWAP3 DUP3 PUSH2 0x278 JUMPI PUSH1 0x0 DUP6 SSTORE PUSH2 0x2BE JUMP JUMPDEST DUP3 PUSH1 0x1F LT PUSH2 0x291 JUMPI DUP1 MLOAD PUSH1 0xFF NOT AND DUP4 DUP1 ADD OR DUP6 SSTORE PUSH2 0x2BE JUMP JUMPDEST DUP3 DUP1 ADD PUSH1 0x1 ADD DUP6 SSTORE DUP3 ISZERO PUSH2 0x2BE JUMPI SWAP2 DUP3 ADD JUMPDEST DUP3 DUP2 GT ISZERO PUSH2 0x2BE JUMPI DUP3 MLOAD DUP3 SSTORE SWAP2 PUSH1 0x20 ADD SWAP2 SWAP1 PUSH1 0x1 ADD SWAP1 PUSH2 0x2A3 JUMP JUMPDEST POP PUSH2 0x2CA SWAP3 SWAP2 POP PUSH2 0x2CE JUMP JUMPDEST POP SWAP1 JUMP JUMPDEST JUMPDEST DUP1 DUP3 GT ISZERO PUSH2 0x2CA JUMPI PUSH1 0x0 DUP2 SSTORE PUSH1 0x1 ADD PUSH2 0x2CF JUMP JUMPDEST PUSH4 0x4E487B71 PUSH1 0xE0 SHL PUSH1 0x0 MSTORE PUSH1 0x41 PUSH1 0x4 MSTORE PUSH1 0x24 PUSH1 0x0 REVERT JUMPDEST PUSH1 0x0 DUP3 PUSH1 0x1F DUP4 ADD SLT PUSH2 0x30A JUMPI PUSH1 0x0 DUP1 REVERT JUMPDEST DUP2 CALLDATALOAD PUSH8 0xFFFFFFFFFFFFFFFF DUP1 DUP3 GT ISZERO PUSH2 0x325 JUMPI PUSH2 0x325 PUSH2 0x2E3 JUMP JUMPDEST PUSH1 0x40 MLOAD PUSH1 0x1F DUP4 ADD PUSH1 0x1F NOT SWAP1 DUP2 AND PUSH1 0x3F ADD AND DUP2 ADD SWAP1 DUP3 DUP3 GT DUP2 DUP4 LT OR ISZERO PUSH2 0x34D JUMPI PUSH2 0x34D PUSH2 0x2E3 JUMP JUMPDEST DUP2 PUSH1 0x40 MSTORE DUP4 DUP2 MSTORE DUP7 PUSH1 0x20 DUP6 DUP9 ADD ADD GT ISZERO PUSH2 0x366 JUMPI PUSH1 0x0 DUP1 REVERT JUMPDEST DUP4 PUSH1 0x20 DUP8 ADD PUSH1 0x20 DUP4 ADD CALLDATACOPY PUSH1 0x0 PUSH1 0x20 DUP6 DUP4 ADD ADD MSTORE DUP1 SWAP5 POP POP POP POP POP SWAP3 SWAP2 POP POP JUMP JUMPDEST PUSH1 0x0 DUP1 PUSH1 0x40 DUP4 DUP6 SUB SLT ISZERO PUSH2 0x399 JUMPI PUSH1 0x0 DUP1 REVERT JUMPDEST DUP3 CALLDATALOAD PUSH8 0xFFFFFFFFFFFFFFFF DUP2 GT ISZERO PUSH2 0x3B0 JUMPI PUSH1 0x0 DUP1 REVERT JUMPDEST PUSH2 0x3BC DUP6 DUP3 DUP7 ADD PUSH2 0x2F9 JUMP JUMPDEST SWAP6 PUSH1 0x20 SWAP5 SWAP1 SWAP5 ADD CALLDATALOAD SWAP5 POP POP POP POP JUMP JUMPDEST PUSH1 0x0 PUSH1 0x20 DUP3 DUP5 SUB SLT ISZERO PUSH2 0x3DD JUMPI PUSH1 0x0 DUP1 REVERT JUMPDEST DUP2 CALLDATALOAD PUSH8 0xFFFFFFFFFFFFFFFF DUP2 GT ISZERO PUSH2 0x3F4 JUMPI PUSH1 0x0 DUP1 REVERT JUMPDEST PUSH2 0x400 DUP5 DUP3 DUP6 ADD PUSH2 0x2F9 JUMP JUMPDEST SWAP5 SWAP4 POP POP POP POP JUMP JUMPDEST PUSH1 0x0 PUSH1 0x20 DUP3 DUP5 SUB SLT ISZERO PUSH2 0x41A JUMPI PUSH1 0x0 DUP1 REVERT JUMPDEST POP CALLDATALOAD SWAP2 SWAP1 POP JUMP JUMPDEST PUSH1 0x0 JUMPDEST DUP4 DUP2 LT ISZERO PUSH2 0x43C JUMPI DUP2 DUP2 ADD MLOAD DUP4 DUP3 ADD MSTORE PUSH1 0x20 ADD PUSH2 0x424 JUMP JUMPDEST DUP4 DUP2 GT ISZERO PUSH2 0x44B JUMPI PUSH1 0x0 DUP5 DUP5 ADD MSTORE JUMPDEST POP POP POP POP JUMP JUMPDEST PUSH1 0x40 DUP2 MSTORE PUSH1 0x0 DUP4 MLOAD DUP1 PUSH1 0x40 DUP5 ADD MSTORE PUSH2 0x470 DUP2 PUSH1 0x60 DUP6 ADD PUSH1 0x20 DUP9 ADD PUSH2 0x421 JUMP JUMPDEST PUSH1 0x20 DUP4 ADD SWAP4 SWAP1 SWAP4 MSTORE POP PUSH1 0x1F SWAP2 SWAP1 SWAP2 ADD PUSH1 0x1F NOT AND ADD PUSH1 0x60 ADD SWAP2 SWAP1 POP JUMP JUMPDEST PUSH1 0x0 DUP3 MLOAD PUSH2 0x49E DUP2 DUP5 PUSH1 0x20 DUP8 ADD PUSH2 0x421 JUMP JUMPDEST SWAP2 SWAP1 SWAP2 ADD SWAP3 SWAP2 POP POP JUMP JUMPDEST PUSH1 0x1 DUP2 DUP2 SHR SWAP1 DUP3 AND DUP1 PUSH2 0x4BC JUMPI PUSH1 0x7F DUP3 AND SWAP2 POP JUMPDEST PUSH1 0x20 DUP3 LT DUP2 SUB PUSH2 0x4DC JUMPI PUSH4 0x4E487B71 PUSH1 0xE0 SHL PUSH1 0x0 MSTORE PUSH1 0x22 PUSH1 0x4 MSTORE PUSH1 0x24 PUSH1 0x0 REVERT JUMPDEST POP SWAP2 SWAP1 POP JUMP INVALID LOG2 PUSH5 0x6970667358 0x22 SLT KECCAK256 DUP3 0xA7 0xB2 0x4F 0xE 0x29 0xBE RETURNDATASIZE EXTCODEHASH 0xB4 DUP8 0xF8 0xB2 0xD 0xEC JUMPI TIMESTAMP 0x4A 0x4B PUSH31 0x6C343A088DAE7EDA82B20C064736F6C634300080D00330000000000000000 "
				},
				"gasEstimates": {
					"creation": {
						"codeDepositCost": "260800",
						"executionCost": "300",
						"totalCost": "261100"
					},
					"external": {
						"createPerson(string,uint256)": "infinite",
						"nameToFavNumber(string)": "infinite",
						"number()": "2350",
						"people(uint256)": "infinite",
						"retrieve()": "2270",
						"store(uint256)": "22356"
					}
				},
				"methodIdentifiers": {
					"createPerson(string,uint256)": "1ef455c7",
					"nameToFavNumber(string)": "43ec8f47",
					"number()": "8381f58a",
					"people(uint256)": "9e7a13ad",
					"retrieve()": "2e64cec1",
					"store(uint256)": "6057361d"
				}
			},
			"storageLayout": {
				"storage": [
					{
						"astId": 3,
						"contract": "contracts/SimpleStorage.sol:SimpleStorage",
						"label": "number",
						"offset": 0,
						"slot": "0",
						"type": "t_uint256"
					},
					{
						"astId": 30,
						"contract": "contracts/SimpleStorage.sol:SimpleStorage",
						"label": "people",
						"offset": 0,
						"slot": "1",
						"type": "t_array(t_struct(People)26_storage)dyn_storage"
					},
					{
						"astId": 34,
						"contract": "contracts/SimpleStorage.sol:SimpleStorage",
						"label": "nameToFavNumber",
						"offset": 0,
						"slot": "2",
						"type": "t_mapping(t_string_memory_ptr,t_uint256)"
					}
				],
				"types": {
					"t_array(t_struct(People)26_storage)dyn_storage": {
						"base": "t_struct(People)26_storage",
						"encoding": "dynamic_array",
						"label": "struct SimpleStorage.People[]",
						"numberOfBytes": "32"
					},
					"t_mapping(t_string_memory_ptr,t_uint256)": {
						"encoding": "mapping",
						"key": "t_string_memory_ptr",
						"label": "mapping(string => uint256)",
						"numberOfBytes": "32",
						"value": "t_uint256"
					},
					"t_string_memory_ptr": {
						"encoding": "bytes",
						"label": "string",
						"numberOfBytes": "32"
					},
					"t_string_storage": {
						"encoding": "bytes",
						"label": "string",
						"numberOfBytes": "32"
					},
					"t_struct(People)26_storage": {
						"encoding": "inplace",
						"label": "struct SimpleStorage.People",
						"members": [
							{
								"astId": 23,
								"contract": "contracts/SimpleStorage.sol:SimpleStorage",
								"label": "name",
								"offset": 0,
								"slot": "0",
								"type": "t_string_storage"
							},
							{
								"astId": 25,
								"contract": "contracts/SimpleStorage.sol:SimpleStorage",
								"label": "favoriteNumber",
								"offset": 0,
								"slot": "1",
								"type": "t_uint256"
							}
						],
						"numberOfBytes": "64"
					},
					"t_uint256": {
						"encoding": "inplace",
						"label": "uint256",
						"numberOfBytes": "32"
					}
				}
			},
			"userdoc": {
				"kind": "user",
				"methods": {},
				"version": 1
			}
		}
	}
}