{
	"contracts/StorageFactory.sol": {
		"StorageFactory": {
			"abi": [
				{
					"inputs": [],
					"name": "createContract",
					"outputs": [],
					"stateMutability": "nonpayable",
					"type": "function"
				},
				{
					"inputs": [
						{
							"internalType": "uint256",
							"name": "",
							"type": "uint256"
						}
					],
					"name": "simpleStorageList",
					"outputs": [
						{
							"internalType": "contract SimpleStorage",
							"name": "",
							"type": "address"
						}
					],
					"stateMutability": "view",
					"type": "function"
				}
			],
			"devdoc": {
				"kind": "dev",
				"methods": {},
				"version": 1
			},
			"evm": {
				"assembly": "    /* \"contracts/StorageFactory.sol\":95:327  contract StorageFactory {... */\n  mstore(0x40, 0x80)\n  callvalue\n  dup1\n  iszero\n  tag_1\n  jumpi\n  0x00\n  dup1\n  revert\ntag_1:\n  pop\n  dataSize(sub_0)\n  dup1\n  dataOffset(sub_0)\n  0x00\n  codecopy\n  0x00\n  return\nstop\n\nsub_0: assembly {\n        /* \"contracts/StorageFactory.sol\":95:327  contract StorageFactory {... */\n      mstore(0x40, 0x80)\n      callvalue\n      dup1\n      iszero\n      tag_1\n      jumpi\n      0x00\n      dup1\n      revert\n    tag_1:\n      pop\n      jumpi(tag_2, lt(calldatasize, 0x04))\n      shr(0xe0, calldataload(0x00))\n      dup1\n      0x412a5a6d\n      eq\n      tag_3\n      jumpi\n      dup1\n      0xceaf9ec1\n      eq\n      tag_4\n      jumpi\n    tag_2:\n      0x00\n      dup1\n      revert\n        /* \"contracts/StorageFactory.sol\":175:324  function createContract() public {... */\n    tag_3:\n      tag_5\n      tag_6\n      jump\t// in\n    tag_5:\n      stop\n        /* \"contracts/StorageFactory.sol\":126:166  SimpleStorage[] public simpleStorageList */\n    tag_4:\n      tag_7\n      0x04\n      dup1\n      calldatasize\n      sub\n      dup2\n      add\n      swap1\n      tag_8\n      swap2\n      swap1\n      tag_9\n      jump\t// in\n    tag_8:\n      tag_10\n      jump\t// in\n    tag_7:\n      mload(0x40)\n      tag_11\n      swap2\n      swap1\n      tag_12\n      jump\t// in\n    tag_11:\n      mload(0x40)\n      dup1\n      swap2\n      sub\n      swap1\n      return\n        /* \"contracts/StorageFactory.sol\":175:324  function createContract() public {... */\n    tag_6:\n        /* \"contracts/StorageFactory.sol\":219:246  SimpleStorage simpleStorage */\n      0x00\n        /* \"contracts/StorageFactory.sol\":249:268  new SimpleStorage() */\n      mload(0x40)\n      tag_14\n      swap1\n      tag_15\n      jump\t// in\n    tag_14:\n      mload(0x40)\n      dup1\n      swap2\n      sub\n      swap1\n      0x00\n      create\n      dup1\n      iszero\n      dup1\n      iszero\n      tag_16\n      jumpi\n      returndatasize\n      0x00\n      dup1\n      returndatacopy\n      revert(0x00, returndatasize)\n    tag_16:\n      pop\n        /* \"contracts/StorageFactory.sol\":219:268  SimpleStorage simpleStorage = new SimpleStorage() */\n      swap1\n      pop\n        /* \"contracts/StorageFactory.sol\":279:296  simpleStorageList */\n      0x00\n        /* \"contracts/StorageFactory.sol\":302:315  simpleStorage */\n      dup2\n        /* \"contracts/StorageFactory.sol\":279:316  simpleStorageList.push(simpleStorage) */\n      swap1\n      dup1\n      0x01\n      dup2\n      sload\n      add\n      dup1\n      dup3\n      sstore\n      dup1\n      swap2\n      pop\n      pop\n      0x01\n      swap1\n      sub\n      swap1\n      0x00\n      mstore\n      keccak256(0x00, 0x20)\n      add\n      0x00\n      swap1\n      swap2\n      swap1\n      swap2\n      swap1\n      swap2\n      0x0100\n      exp\n      dup2\n      sload\n      dup2\n      0xffffffffffffffffffffffffffffffffffffffff\n      mul\n      not\n      and\n      swap1\n      dup4\n      0xffffffffffffffffffffffffffffffffffffffff\n      and\n      mul\n      or\n      swap1\n      sstore\n      pop\n        /* \"contracts/StorageFactory.sol\":208:324  {... */\n      pop\n        /* \"contracts/StorageFactory.sol\":175:324  function createContract() public {... */\n      jump\t// out\n        /* \"contracts/StorageFactory.sol\":126:166  SimpleStorage[] public simpleStorageList */\n    tag_10:\n      0x00\n      dup2\n      dup2\n      sload\n      dup2\n      lt\n      tag_18\n      jumpi\n      0x00\n      dup1\n      revert\n    tag_18:\n      swap1\n      0x00\n      mstore\n      keccak256(0x00, 0x20)\n      add\n      0x00\n      swap2\n      pop\n      sload\n      swap1\n      0x0100\n      exp\n      swap1\n      div\n      0xffffffffffffffffffffffffffffffffffffffff\n      and\n      dup2\n      jump\t// out\n    tag_15:\n      dataSize(sub_0)\n      dup1\n      dataOffset(sub_0)\n      dup4\n      codecopy\n      add\n      swap1\n      jump\t// out\n        /* \"#utility.yul\":88:205   */\n    tag_21:\n        /* \"#utility.yul\":197:198   */\n      0x00\n        /* \"#utility.yul\":194:195   */\n      dup1\n        /* \"#utility.yul\":187:199   */\n      revert\n        /* \"#utility.yul\":334:411   */\n    tag_23:\n        /* \"#utility.yul\":371:378   */\n      0x00\n        /* \"#utility.yul\":400:405   */\n      dup2\n        /* \"#utility.yul\":389:405   */\n      swap1\n      pop\n        /* \"#utility.yul\":334:411   */\n      swap2\n      swap1\n      pop\n      jump\t// out\n        /* \"#utility.yul\":417:539   */\n    tag_24:\n        /* \"#utility.yul\":490:514   */\n      tag_38\n        /* \"#utility.yul\":508:513   */\n      dup2\n        /* \"#utility.yul\":490:514   */\n      tag_23\n      jump\t// in\n    tag_38:\n        /* \"#utility.yul\":483:488   */\n      dup2\n        /* \"#utility.yul\":480:515   */\n      eq\n        /* \"#utility.yul\":470:533   */\n      tag_39\n      jumpi\n        /* \"#utility.yul\":529:530   */\n      0x00\n        /* \"#utility.yul\":526:527   */\n      dup1\n        /* \"#utility.yul\":519:531   */\n      revert\n        /* \"#utility.yul\":470:533   */\n    tag_39:\n        /* \"#utility.yul\":417:539   */\n      pop\n      jump\t// out\n        /* \"#utility.yul\":545:684   */\n    tag_25:\n        /* \"#utility.yul\":591:596   */\n      0x00\n        /* \"#utility.yul\":629:635   */\n      dup2\n        /* \"#utility.yul\":616:636   */\n      calldataload\n        /* \"#utility.yul\":607:636   */\n      swap1\n      pop\n        /* \"#utility.yul\":645:678   */\n      tag_41\n        /* \"#utility.yul\":672:677   */\n      dup2\n        /* \"#utility.yul\":645:678   */\n      tag_24\n      jump\t// in\n    tag_41:\n        /* \"#utility.yul\":545:684   */\n      swap3\n      swap2\n      pop\n      pop\n      jump\t// out\n        /* \"#utility.yul\":690:1019   */\n    tag_9:\n        /* \"#utility.yul\":749:755   */\n      0x00\n        /* \"#utility.yul\":798:800   */\n      0x20\n        /* \"#utility.yul\":786:795   */\n      dup3\n        /* \"#utility.yul\":777:784   */\n      dup5\n        /* \"#utility.yul\":773:796   */\n      sub\n        /* \"#utility.yul\":769:801   */\n      slt\n        /* \"#utility.yul\":766:885   */\n      iszero\n      tag_43\n      jumpi\n        /* \"#utility.yul\":804:883   */\n      tag_44\n      tag_21\n      jump\t// in\n    tag_44:\n        /* \"#utility.yul\":766:885   */\n    tag_43:\n        /* \"#utility.yul\":924:925   */\n      0x00\n        /* \"#utility.yul\":949:1002   */\n      tag_45\n        /* \"#utility.yul\":994:1001   */\n      dup5\n        /* \"#utility.yul\":985:991   */\n      dup3\n        /* \"#utility.yul\":974:983   */\n      dup6\n        /* \"#utility.yul\":970:992   */\n      add\n        /* \"#utility.yul\":949:1002   */\n      tag_25\n      jump\t// in\n    tag_45:\n        /* \"#utility.yul\":939:1002   */\n      swap2\n      pop\n        /* \"#utility.yul\":895:1012   */\n      pop\n        /* \"#utility.yul\":690:1019   */\n      swap3\n      swap2\n      pop\n      pop\n      jump\t// out\n        /* \"#utility.yul\":1025:1151   */\n    tag_26:\n        /* \"#utility.yul\":1062:1069   */\n      0x00\n        /* \"#utility.yul\":1102:1144   */\n      0xffffffffffffffffffffffffffffffffffffffff\n        /* \"#utility.yul\":1095:1100   */\n      dup3\n        /* \"#utility.yul\":1091:1145   */\n      and\n        /* \"#utility.yul\":1080:1145   */\n      swap1\n      pop\n        /* \"#utility.yul\":1025:1151   */\n      swap2\n      swap1\n      pop\n      jump\t// out\n        /* \"#utility.yul\":1157:1217   */\n    tag_27:\n        /* \"#utility.yul\":1185:1188   */\n      0x00\n        /* \"#utility.yul\":1206:1211   */\n      dup2\n        /* \"#utility.yul\":1199:1211   */\n      swap1\n      pop\n        /* \"#utility.yul\":1157:1217   */\n      swap2\n      swap1\n      pop\n      jump\t// out\n        /* \"#utility.yul\":1223:1365   */\n    tag_28:\n        /* \"#utility.yul\":1273:1282   */\n      0x00\n        /* \"#utility.yul\":1306:1359   */\n      tag_49\n        /* \"#utility.yul\":1324:1358   */\n      tag_50\n        /* \"#utility.yul\":1333:1357   */\n      tag_51\n        /* \"#utility.yul\":1351:1356   */\n      dup5\n        /* \"#utility.yul\":1333:1357   */\n      tag_26\n      jump\t// in\n    tag_51:\n        /* \"#utility.yul\":1324:1358   */\n      tag_27\n      jump\t// in\n    tag_50:\n        /* \"#utility.yul\":1306:1359   */\n      tag_26\n      jump\t// in\n    tag_49:\n        /* \"#utility.yul\":1293:1359   */\n      swap1\n      pop\n        /* \"#utility.yul\":1223:1365   */\n      swap2\n      swap1\n      pop\n      jump\t// out\n        /* \"#utility.yul\":1371:1497   */\n    tag_29:\n        /* \"#utility.yul\":1421:1430   */\n      0x00\n        /* \"#utility.yul\":1454:1491   */\n      tag_53\n        /* \"#utility.yul\":1485:1490   */\n      dup3\n        /* \"#utility.yul\":1454:1491   */\n      tag_28\n      jump\t// in\n    tag_53:\n        /* \"#utility.yul\":1441:1491   */\n      swap1\n      pop\n        /* \"#utility.yul\":1371:1497   */\n      swap2\n      swap1\n      pop\n      jump\t// out\n        /* \"#utility.yul\":1503:1649   */\n    tag_30:\n        /* \"#utility.yul\":1573:1582   */\n      0x00\n        /* \"#utility.yul\":1606:1643   */\n      tag_55\n        /* \"#utility.yul\":1637:1642   */\n      dup3\n        /* \"#utility.yul\":1606:1643   */\n      tag_29\n      jump\t// in\n    tag_55:\n        /* \"#utility.yul\":1593:1643   */\n      swap1\n      pop\n        /* \"#utility.yul\":1503:1649   */\n      swap2\n      swap1\n      pop\n      jump\t// out\n        /* \"#utility.yul\":1655:1826   */\n    tag_31:\n        /* \"#utility.yul\":1762:1819   */\n      tag_57\n        /* \"#utility.yul\":1813:1818   */\n      dup2\n        /* \"#utility.yul\":1762:1819   */\n      tag_30\n      jump\t// in\n    tag_57:\n        /* \"#utility.yul\":1757:1760   */\n      dup3\n        /* \"#utility.yul\":1750:1820   */\n      mstore\n        /* \"#utility.yul\":1655:1826   */\n      pop\n      pop\n      jump\t// out\n        /* \"#utility.yul\":1832:2094   */\n    tag_12:\n        /* \"#utility.yul\":1945:1949   */\n      0x00\n        /* \"#utility.yul\":1983:1985   */\n      0x20\n        /* \"#utility.yul\":1972:1981   */\n      dup3\n        /* \"#utility.yul\":1968:1986   */\n      add\n        /* \"#utility.yul\":1960:1986   */\n      swap1\n      pop\n        /* \"#utility.yul\":1996:2087   */\n      tag_59\n        /* \"#utility.yul\":2084:2085   */\n      0x00\n        /* \"#utility.yul\":2073:2082   */\n      dup4\n        /* \"#utility.yul\":2069:2086   */\n      add\n        /* \"#utility.yul\":2060:2066   */\n      dup5\n        /* \"#utility.yul\":1996:2087   */\n      tag_31\n      jump\t// in\n    tag_59:\n        /* \"#utility.yul\":1832:2094   */\n      swap3\n      swap2\n      pop\n      pop\n      jump\t// out\n    stop\n\n    sub_0: assembly {\n            /* \"contracts/SimpleStorage.sol\":93:569  contract SimpleStorage {... */\n          mstore(0x40, 0x80)\n          callvalue\n          dup1\n          iszero\n          tag_1\n          jumpi\n          0x00\n          dup1\n          revert\n        tag_1:\n          pop\n          dataSize(sub_0)\n          dup1\n          dataOffset(sub_0)\n          0x00\n          codecopy\n          0x00\n          return\n        stop\n\n        sub_0: assembly {\n                /* \"contracts/SimpleStorage.sol\":93:569  contract SimpleStorage {... */\n              mstore(0x40, 0x80)\n              callvalue\n              dup1\n              iszero\n              tag_1\n              jumpi\n              0x00\n              dup1\n              revert\n            tag_1:\n              pop\n              jumpi(tag_2, lt(calldatasize, 0x04))\n              shr(0xe0, calldataload(0x00))\n              dup1\n              0x1ef455c7\n              eq\n              tag_3\n              jumpi\n              dup1\n              0x43ec8f47\n              eq\n              tag_4\n              jumpi\n              dup1\n              0x9e7a13ad\n              eq\n              tag_5\n              jumpi\n            tag_2:\n              0x00\n              dup1\n              revert\n                /* \"contracts/SimpleStorage.sol\":297:566  function createPerson (string memory _name, uint _favNumber) public {... */\n            tag_3:\n              tag_6\n              0x04\n              dup1\n              calldatasize\n              sub\n              dup2\n              add\n              swap1\n              tag_7\n              swap2\n              swap1\n              tag_8\n              jump\t// in\n            tag_7:\n              tag_9\n              jump\t// in\n            tag_6:\n              stop\n                /* \"contracts/SimpleStorage.sol\":242:288  mapping(string => uint) public nameToFavNumber */\n            tag_4:\n              tag_10\n              0x04\n              dup1\n              calldatasize\n              sub\n              dup2\n              add\n              swap1\n              tag_11\n              swap2\n              swap1\n              tag_12\n              jump\t// in\n            tag_11:\n              tag_13\n              jump\t// in\n            tag_10:\n              mload(0x40)\n              tag_14\n              swap2\n              swap1\n              tag_15\n              jump\t// in\n            tag_14:\n              mload(0x40)\n              dup1\n              swap2\n              sub\n              swap1\n              return\n                /* \"contracts/SimpleStorage.sol\":211:233  People[] public people */\n            tag_5:\n              tag_16\n              0x04\n              dup1\n              calldatasize\n              sub\n              dup2\n              add\n              swap1\n              tag_17\n              swap2\n              swap1\n              tag_18\n              jump\t// in\n            tag_17:\n              tag_19\n              jump\t// in\n            tag_16:\n              mload(0x40)\n              tag_20\n              swap3\n              swap2\n              swap1\n              tag_21\n              jump\t// in\n            tag_20:\n              mload(0x40)\n              dup1\n              swap2\n              sub\n              swap1\n              return\n                /* \"contracts/SimpleStorage.sol\":297:566  function createPerson (string memory _name, uint _favNumber) public {... */\n            tag_9:\n                /* \"contracts/SimpleStorage.sol\":428:451  People memory newPerson */\n              0x00\n                /* \"contracts/SimpleStorage.sol\":454:479  People(_name, _favNumber) */\n              mload(0x40)\n              dup1\n              0x40\n              add\n              0x40\n              mstore\n              dup1\n                /* \"contracts/SimpleStorage.sol\":461:466  _name */\n              dup5\n                /* \"contracts/SimpleStorage.sol\":454:479  People(_name, _favNumber) */\n              dup2\n              mstore\n              0x20\n              add\n                /* \"contracts/SimpleStorage.sol\":468:478  _favNumber */\n              dup4\n                /* \"contracts/SimpleStorage.sol\":454:479  People(_name, _favNumber) */\n              dup2\n              mstore\n              pop\n                /* \"contracts/SimpleStorage.sol\":428:479  People memory newPerson = People(_name, _favNumber) */\n              swap1\n              pop\n                /* \"contracts/SimpleStorage.sol\":490:496  people */\n              0x00\n                /* \"contracts/SimpleStorage.sol\":502:511  newPerson */\n              dup2\n                /* \"contracts/SimpleStorage.sol\":490:512  people.push(newPerson) */\n              swap1\n              dup1\n              0x01\n              dup2\n              sload\n              add\n              dup1\n              dup3\n              sstore\n              dup1\n              swap2\n              pop\n              pop\n              0x01\n              swap1\n              sub\n              swap1\n              0x00\n              mstore\n              keccak256(0x00, 0x20)\n              swap1\n              0x02\n              mul\n              add\n              0x00\n              swap1\n              swap2\n              swap1\n              swap2\n              swap1\n              swap2\n              pop\n              0x00\n              dup3\n              add\n              mload\n              dup2\n              0x00\n              add\n              swap1\n              dup1\n              mload\n              swap1\n              0x20\n              add\n              swap1\n              tag_24\n              swap3\n              swap2\n              swap1\n              tag_25\n              jump\t// in\n            tag_24:\n              pop\n              0x20\n              dup3\n              add\n              mload\n              dup2\n              0x01\n              add\n              sstore\n              pop\n              pop\n                /* \"contracts/SimpleStorage.sol\":548:558  _favNumber */\n              dup2\n                /* \"contracts/SimpleStorage.sol\":523:538  nameToFavNumber */\n              0x01\n                /* \"contracts/SimpleStorage.sol\":539:544  _name */\n              dup5\n                /* \"contracts/SimpleStorage.sol\":523:545  nameToFavNumber[_name] */\n              mload(0x40)\n              tag_26\n              swap2\n              swap1\n              tag_27\n              jump\t// in\n            tag_26:\n              swap1\n              dup2\n              mstore\n              0x20\n              add\n              mload(0x40)\n              dup1\n              swap2\n              sub\n              swap1\n              keccak256\n                /* \"contracts/SimpleStorage.sol\":523:558  nameToFavNumber[_name] = _favNumber */\n              dup2\n              swap1\n              sstore\n              pop\n                /* \"contracts/SimpleStorage.sol\":365:566  {... */\n              pop\n                /* \"contracts/SimpleStorage.sol\":297:566  function createPerson (string memory _name, uint _favNumber) public {... */\n              pop\n              pop\n              jump\t// out\n                /* \"contracts/SimpleStorage.sol\":242:288  mapping(string => uint) public nameToFavNumber */\n            tag_13:\n              0x01\n              dup2\n              dup1\n              mload\n              0x20\n              dup2\n              add\n              dup3\n              add\n              dup1\n              mload\n              dup5\n              dup3\n              mstore\n              0x20\n              dup4\n              add\n              0x20\n              dup6\n              add\n              keccak256\n              dup2\n              dup4\n              mstore\n              dup1\n              swap6\n              pop\n              pop\n              pop\n              pop\n              pop\n              pop\n              0x00\n              swap2\n              pop\n              swap1\n              pop\n              sload\n              dup2\n              jump\t// out\n                /* \"contracts/SimpleStorage.sol\":211:233  People[] public people */\n            tag_19:\n              0x00\n              dup2\n              dup2\n              sload\n              dup2\n              lt\n              tag_28\n              jumpi\n              0x00\n              dup1\n              revert\n            tag_28:\n              swap1\n              0x00\n              mstore\n              keccak256(0x00, 0x20)\n              swap1\n              0x02\n              mul\n              add\n              0x00\n              swap2\n              pop\n              swap1\n              pop\n              dup1\n              0x00\n              add\n              dup1\n              sload\n              tag_30\n              swap1\n              tag_31\n              jump\t// in\n            tag_30:\n              dup1\n              0x1f\n              add\n              0x20\n              dup1\n              swap2\n              div\n              mul\n              0x20\n              add\n              mload(0x40)\n              swap1\n              dup2\n              add\n              0x40\n              mstore\n              dup1\n              swap3\n              swap2\n              swap1\n              dup2\n              dup2\n              mstore\n              0x20\n              add\n              dup3\n              dup1\n              sload\n              tag_32\n              swap1\n              tag_31\n              jump\t// in\n            tag_32:\n              dup1\n              iszero\n              tag_33\n              jumpi\n              dup1\n              0x1f\n              lt\n              tag_34\n              jumpi\n              0x0100\n              dup1\n              dup4\n              sload\n              div\n              mul\n              dup4\n              mstore\n              swap2\n              0x20\n              add\n              swap2\n              jump(tag_33)\n            tag_34:\n              dup3\n              add\n              swap2\n              swap1\n              0x00\n              mstore\n              keccak256(0x00, 0x20)\n              swap1\n            tag_35:\n              dup2\n              sload\n              dup2\n              mstore\n              swap1\n              0x01\n              add\n              swap1\n              0x20\n              add\n              dup1\n              dup4\n              gt\n              tag_35\n              jumpi\n              dup3\n              swap1\n              sub\n              0x1f\n              and\n              dup3\n              add\n              swap2\n            tag_33:\n              pop\n              pop\n              pop\n              pop\n              pop\n              swap1\n              dup1\n              0x01\n              add\n              sload\n              swap1\n              pop\n              dup3\n              jump\t// out\n            tag_25:\n              dup3\n              dup1\n              sload\n              tag_36\n              swap1\n              tag_31\n              jump\t// in\n            tag_36:\n              swap1\n              0x00\n              mstore\n              keccak256(0x00, 0x20)\n              swap1\n              0x1f\n              add\n              0x20\n              swap1\n              div\n              dup2\n              add\n              swap3\n              dup3\n              tag_38\n              jumpi\n              0x00\n              dup6\n              sstore\n              jump(tag_37)\n            tag_38:\n              dup3\n              0x1f\n              lt\n              tag_39\n              jumpi\n              dup1\n              mload\n              not(0xff)\n              and\n              dup4\n              dup1\n              add\n              or\n              dup6\n              sstore\n              jump(tag_37)\n            tag_39:\n              dup3\n              dup1\n              add\n              0x01\n              add\n              dup6\n              sstore\n              dup3\n              iszero\n              tag_37\n              jumpi\n              swap2\n              dup3\n              add\n            tag_40:\n              dup3\n              dup2\n              gt\n              iszero\n              tag_41\n              jumpi\n              dup3\n              mload\n              dup3\n              sstore\n              swap2\n              0x20\n              add\n              swap2\n              swap1\n              0x01\n              add\n              swap1\n              jump(tag_40)\n            tag_41:\n            tag_37:\n              pop\n              swap1\n              pop\n              tag_42\n              swap2\n              swap1\n              tag_43\n              jump\t// in\n            tag_42:\n              pop\n              swap1\n              jump\t// out\n            tag_43:\n            tag_44:\n              dup1\n              dup3\n              gt\n              iszero\n              tag_45\n              jumpi\n              0x00\n              dup2\n              0x00\n              swap1\n              sstore\n              pop\n              0x01\n              add\n              jump(tag_44)\n            tag_45:\n              pop\n              swap1\n              jump\t// out\n                /* \"#utility.yul\":7:82   */\n            tag_46:\n                /* \"#utility.yul\":40:46   */\n              0x00\n                /* \"#utility.yul\":73:75   */\n              0x40\n                /* \"#utility.yul\":67:76   */\n              mload\n                /* \"#utility.yul\":57:76   */\n              swap1\n              pop\n                /* \"#utility.yul\":7:82   */\n              swap1\n              jump\t// out\n                /* \"#utility.yul\":88:205   */\n            tag_47:\n                /* \"#utility.yul\":197:198   */\n              0x00\n                /* \"#utility.yul\":194:195   */\n              dup1\n                /* \"#utility.yul\":187:199   */\n              revert\n                /* \"#utility.yul\":211:328   */\n            tag_48:\n                /* \"#utility.yul\":320:321   */\n              0x00\n                /* \"#utility.yul\":317:318   */\n              dup1\n                /* \"#utility.yul\":310:322   */\n              revert\n                /* \"#utility.yul\":334:451   */\n            tag_49:\n                /* \"#utility.yul\":443:444   */\n              0x00\n                /* \"#utility.yul\":440:441   */\n              dup1\n                /* \"#utility.yul\":433:445   */\n              revert\n                /* \"#utility.yul\":457:574   */\n            tag_50:\n                /* \"#utility.yul\":566:567   */\n              0x00\n                /* \"#utility.yul\":563:564   */\n              dup1\n                /* \"#utility.yul\":556:568   */\n              revert\n                /* \"#utility.yul\":580:682   */\n            tag_51:\n                /* \"#utility.yul\":621:627   */\n              0x00\n                /* \"#utility.yul\":672:674   */\n              0x1f\n                /* \"#utility.yul\":668:675   */\n              not\n                /* \"#utility.yul\":663:665   */\n              0x1f\n                /* \"#utility.yul\":656:661   */\n              dup4\n                /* \"#utility.yul\":652:666   */\n              add\n                /* \"#utility.yul\":648:676   */\n              and\n                /* \"#utility.yul\":638:676   */\n              swap1\n              pop\n                /* \"#utility.yul\":580:682   */\n              swap2\n              swap1\n              pop\n              jump\t// out\n                /* \"#utility.yul\":688:868   */\n            tag_52:\n                /* \"#utility.yul\":736:813   */\n              0x4e487b7100000000000000000000000000000000000000000000000000000000\n                /* \"#utility.yul\":733:734   */\n              0x00\n                /* \"#utility.yul\":726:814   */\n              mstore\n                /* \"#utility.yul\":833:837   */\n              0x41\n                /* \"#utility.yul\":830:831   */\n              0x04\n                /* \"#utility.yul\":823:838   */\n              mstore\n                /* \"#utility.yul\":857:861   */\n              0x24\n                /* \"#utility.yul\":854:855   */\n              0x00\n                /* \"#utility.yul\":847:862   */\n              revert\n                /* \"#utility.yul\":874:1155   */\n            tag_53:\n                /* \"#utility.yul\":957:984   */\n              tag_79\n                /* \"#utility.yul\":979:983   */\n              dup3\n                /* \"#utility.yul\":957:984   */\n              tag_51\n              jump\t// in\n            tag_79:\n                /* \"#utility.yul\":949:955   */\n              dup2\n                /* \"#utility.yul\":945:985   */\n              add\n                /* \"#utility.yul\":1087:1093   */\n              dup2\n                /* \"#utility.yul\":1075:1085   */\n              dup2\n                /* \"#utility.yul\":1072:1094   */\n              lt\n                /* \"#utility.yul\":1051:1069   */\n              0xffffffffffffffff\n                /* \"#utility.yul\":1039:1049   */\n              dup3\n                /* \"#utility.yul\":1036:1070   */\n              gt\n                /* \"#utility.yul\":1033:1095   */\n              or\n                /* \"#utility.yul\":1030:1118   */\n              iszero\n              tag_80\n              jumpi\n                /* \"#utility.yul\":1098:1116   */\n              tag_81\n              tag_52\n              jump\t// in\n            tag_81:\n                /* \"#utility.yul\":1030:1118   */\n            tag_80:\n                /* \"#utility.yul\":1138:1148   */\n              dup1\n                /* \"#utility.yul\":1134:1136   */\n              0x40\n                /* \"#utility.yul\":1127:1149   */\n              mstore\n                /* \"#utility.yul\":917:1155   */\n              pop\n                /* \"#utility.yul\":874:1155   */\n              pop\n              pop\n              jump\t// out\n                /* \"#utility.yul\":1161:1290   */\n            tag_54:\n                /* \"#utility.yul\":1195:1201   */\n              0x00\n                /* \"#utility.yul\":1222:1242   */\n              tag_83\n              tag_46\n              jump\t// in\n            tag_83:\n                /* \"#utility.yul\":1212:1242   */\n              swap1\n              pop\n                /* \"#utility.yul\":1251:1284   */\n              tag_84\n                /* \"#utility.yul\":1279:1283   */\n              dup3\n                /* \"#utility.yul\":1271:1277   */\n              dup3\n                /* \"#utility.yul\":1251:1284   */\n              tag_53\n              jump\t// in\n            tag_84:\n                /* \"#utility.yul\":1161:1290   */\n              swap2\n              swap1\n              pop\n              jump\t// out\n                /* \"#utility.yul\":1296:1604   */\n            tag_55:\n                /* \"#utility.yul\":1358:1362   */\n              0x00\n                /* \"#utility.yul\":1448:1466   */\n              0xffffffffffffffff\n                /* \"#utility.yul\":1440:1446   */\n              dup3\n                /* \"#utility.yul\":1437:1467   */\n              gt\n                /* \"#utility.yul\":1434:1490   */\n              iszero\n              tag_86\n              jumpi\n                /* \"#utility.yul\":1470:1488   */\n              tag_87\n              tag_52\n              jump\t// in\n            tag_87:\n                /* \"#utility.yul\":1434:1490   */\n            tag_86:\n                /* \"#utility.yul\":1508:1537   */\n              tag_88\n                /* \"#utility.yul\":1530:1536   */\n              dup3\n                /* \"#utility.yul\":1508:1537   */\n              tag_51\n              jump\t// in\n            tag_88:\n                /* \"#utility.yul\":1500:1537   */\n              swap1\n              pop\n                /* \"#utility.yul\":1592:1596   */\n              0x20\n                /* \"#utility.yul\":1586:1590   */\n              dup2\n                /* \"#utility.yul\":1582:1597   */\n              add\n                /* \"#utility.yul\":1574:1597   */\n              swap1\n              pop\n                /* \"#utility.yul\":1296:1604   */\n              swap2\n              swap1\n              pop\n              jump\t// out\n                /* \"#utility.yul\":1610:1764   */\n            tag_56:\n                /* \"#utility.yul\":1694:1700   */\n              dup3\n                /* \"#utility.yul\":1689:1692   */\n              dup2\n                /* \"#utility.yul\":1684:1687   */\n              dup4\n                /* \"#utility.yul\":1671:1701   */\n              calldatacopy\n                /* \"#utility.yul\":1756:1757   */\n              0x00\n                /* \"#utility.yul\":1747:1753   */\n              dup4\n                /* \"#utility.yul\":1742:1745   */\n              dup4\n                /* \"#utility.yul\":1738:1754   */\n              add\n                /* \"#utility.yul\":1731:1758   */\n              mstore\n                /* \"#utility.yul\":1610:1764   */\n              pop\n              pop\n              pop\n              jump\t// out\n                /* \"#utility.yul\":1770:2182   */\n            tag_57:\n                /* \"#utility.yul\":1848:1853   */\n              0x00\n                /* \"#utility.yul\":1873:1939   */\n              tag_91\n                /* \"#utility.yul\":1889:1938   */\n              tag_92\n                /* \"#utility.yul\":1931:1937   */\n              dup5\n                /* \"#utility.yul\":1889:1938   */\n              tag_55\n              jump\t// in\n            tag_92:\n                /* \"#utility.yul\":1873:1939   */\n              tag_54\n              jump\t// in\n            tag_91:\n                /* \"#utility.yul\":1864:1939   */\n              swap1\n              pop\n                /* \"#utility.yul\":1962:1968   */\n              dup3\n                /* \"#utility.yul\":1955:1960   */\n              dup2\n                /* \"#utility.yul\":1948:1969   */\n              mstore\n                /* \"#utility.yul\":2000:2004   */\n              0x20\n                /* \"#utility.yul\":1993:1998   */\n              dup2\n                /* \"#utility.yul\":1989:2005   */\n              add\n                /* \"#utility.yul\":2038:2041   */\n              dup5\n                /* \"#utility.yul\":2029:2035   */\n              dup5\n                /* \"#utility.yul\":2024:2027   */\n              dup5\n                /* \"#utility.yul\":2020:2036   */\n              add\n                /* \"#utility.yul\":2017:2042   */\n              gt\n                /* \"#utility.yul\":2014:2126   */\n              iszero\n              tag_93\n              jumpi\n                /* \"#utility.yul\":2045:2124   */\n              tag_94\n              tag_50\n              jump\t// in\n            tag_94:\n                /* \"#utility.yul\":2014:2126   */\n            tag_93:\n                /* \"#utility.yul\":2135:2176   */\n              tag_95\n                /* \"#utility.yul\":2169:2175   */\n              dup5\n                /* \"#utility.yul\":2164:2167   */\n              dup3\n                /* \"#utility.yul\":2159:2162   */\n              dup6\n                /* \"#utility.yul\":2135:2176   */\n              tag_56\n              jump\t// in\n            tag_95:\n                /* \"#utility.yul\":1854:2182   */\n              pop\n                /* \"#utility.yul\":1770:2182   */\n              swap4\n              swap3\n              pop\n              pop\n              pop\n              jump\t// out\n                /* \"#utility.yul\":2202:2542   */\n            tag_58:\n                /* \"#utility.yul\":2258:2263   */\n              0x00\n                /* \"#utility.yul\":2307:2310   */\n              dup3\n                /* \"#utility.yul\":2300:2304   */\n              0x1f\n                /* \"#utility.yul\":2292:2298   */\n              dup4\n                /* \"#utility.yul\":2288:2305   */\n              add\n                /* \"#utility.yul\":2284:2311   */\n              slt\n                /* \"#utility.yul\":2274:2396   */\n              tag_97\n              jumpi\n                /* \"#utility.yul\":2315:2394   */\n              tag_98\n              tag_49\n              jump\t// in\n            tag_98:\n                /* \"#utility.yul\":2274:2396   */\n            tag_97:\n                /* \"#utility.yul\":2432:2438   */\n              dup2\n                /* \"#utility.yul\":2419:2439   */\n              calldataload\n                /* \"#utility.yul\":2457:2536   */\n              tag_99\n                /* \"#utility.yul\":2532:2535   */\n              dup5\n                /* \"#utility.yul\":2524:2530   */\n              dup3\n                /* \"#utility.yul\":2517:2521   */\n              0x20\n                /* \"#utility.yul\":2509:2515   */\n              dup7\n                /* \"#utility.yul\":2505:2522   */\n              add\n                /* \"#utility.yul\":2457:2536   */\n              tag_57\n              jump\t// in\n            tag_99:\n                /* \"#utility.yul\":2448:2536   */\n              swap2\n              pop\n                /* \"#utility.yul\":2264:2542   */\n              pop\n                /* \"#utility.yul\":2202:2542   */\n              swap3\n              swap2\n              pop\n              pop\n              jump\t// out\n                /* \"#utility.yul\":2548:2625   */\n            tag_59:\n                /* \"#utility.yul\":2585:2592   */\n              0x00\n                /* \"#utility.yul\":2614:2619   */\n              dup2\n                /* \"#utility.yul\":2603:2619   */\n              swap1\n              pop\n                /* \"#utility.yul\":2548:2625   */\n              swap2\n              swap1\n              pop\n              jump\t// out\n                /* \"#utility.yul\":2631:2753   */\n            tag_60:\n                /* \"#utility.yul\":2704:2728   */\n              tag_102\n                /* \"#utility.yul\":2722:2727   */\n              dup2\n                /* \"#utility.yul\":2704:2728   */\n              tag_59\n              jump\t// in\n            tag_102:\n                /* \"#utility.yul\":2697:2702   */\n              dup2\n                /* \"#utility.yul\":2694:2729   */\n              eq\n                /* \"#utility.yul\":2684:2747   */\n              tag_103\n              jumpi\n                /* \"#utility.yul\":2743:2744   */\n              0x00\n                /* \"#utility.yul\":2740:2741   */\n              dup1\n                /* \"#utility.yul\":2733:2745   */\n              revert\n                /* \"#utility.yul\":2684:2747   */\n            tag_103:\n                /* \"#utility.yul\":2631:2753   */\n              pop\n              jump\t// out\n                /* \"#utility.yul\":2759:2898   */\n            tag_61:\n                /* \"#utility.yul\":2805:2810   */\n              0x00\n                /* \"#utility.yul\":2843:2849   */\n              dup2\n                /* \"#utility.yul\":2830:2850   */\n              calldataload\n                /* \"#utility.yul\":2821:2850   */\n              swap1\n              pop\n                /* \"#utility.yul\":2859:2892   */\n              tag_105\n                /* \"#utility.yul\":2886:2891   */\n              dup2\n                /* \"#utility.yul\":2859:2892   */\n              tag_60\n              jump\t// in\n            tag_105:\n                /* \"#utility.yul\":2759:2898   */\n              swap3\n              swap2\n              pop\n              pop\n              jump\t// out\n                /* \"#utility.yul\":2904:3558   */\n            tag_8:\n                /* \"#utility.yul\":2982:2988   */\n              0x00\n                /* \"#utility.yul\":2990:2996   */\n              dup1\n                /* \"#utility.yul\":3039:3041   */\n              0x40\n                /* \"#utility.yul\":3027:3036   */\n              dup4\n                /* \"#utility.yul\":3018:3025   */\n              dup6\n                /* \"#utility.yul\":3014:3037   */\n              sub\n                /* \"#utility.yul\":3010:3042   */\n              slt\n                /* \"#utility.yul\":3007:3126   */\n              iszero\n              tag_107\n              jumpi\n                /* \"#utility.yul\":3045:3124   */\n              tag_108\n              tag_47\n              jump\t// in\n            tag_108:\n                /* \"#utility.yul\":3007:3126   */\n            tag_107:\n                /* \"#utility.yul\":3193:3194   */\n              0x00\n                /* \"#utility.yul\":3182:3191   */\n              dup4\n                /* \"#utility.yul\":3178:3195   */\n              add\n                /* \"#utility.yul\":3165:3196   */\n              calldataload\n                /* \"#utility.yul\":3223:3241   */\n              0xffffffffffffffff\n                /* \"#utility.yul\":3215:3221   */\n              dup2\n                /* \"#utility.yul\":3212:3242   */\n              gt\n                /* \"#utility.yul\":3209:3326   */\n              iszero\n              tag_109\n              jumpi\n                /* \"#utility.yul\":3245:3324   */\n              tag_110\n              tag_48\n              jump\t// in\n            tag_110:\n                /* \"#utility.yul\":3209:3326   */\n            tag_109:\n                /* \"#utility.yul\":3350:3413   */\n              tag_111\n                /* \"#utility.yul\":3405:3412   */\n              dup6\n                /* \"#utility.yul\":3396:3402   */\n              dup3\n                /* \"#utility.yul\":3385:3394   */\n              dup7\n                /* \"#utility.yul\":3381:3403   */\n              add\n                /* \"#utility.yul\":3350:3413   */\n              tag_58\n              jump\t// in\n            tag_111:\n                /* \"#utility.yul\":3340:3413   */\n              swap3\n              pop\n                /* \"#utility.yul\":3136:3423   */\n              pop\n                /* \"#utility.yul\":3462:3464   */\n              0x20\n                /* \"#utility.yul\":3488:3541   */\n              tag_112\n                /* \"#utility.yul\":3533:3540   */\n              dup6\n                /* \"#utility.yul\":3524:3530   */\n              dup3\n                /* \"#utility.yul\":3513:3522   */\n              dup7\n                /* \"#utility.yul\":3509:3531   */\n              add\n                /* \"#utility.yul\":3488:3541   */\n              tag_61\n              jump\t// in\n            tag_112:\n                /* \"#utility.yul\":3478:3541   */\n              swap2\n              pop\n                /* \"#utility.yul\":3433:3551   */\n              pop\n                /* \"#utility.yul\":2904:3558   */\n              swap3\n              pop\n              swap3\n              swap1\n              pop\n              jump\t// out\n                /* \"#utility.yul\":3564:4073   */\n            tag_12:\n                /* \"#utility.yul\":3633:3639   */\n              0x00\n                /* \"#utility.yul\":3682:3684   */\n              0x20\n                /* \"#utility.yul\":3670:3679   */\n              dup3\n                /* \"#utility.yul\":3661:3668   */\n              dup5\n                /* \"#utility.yul\":3657:3680   */\n              sub\n                /* \"#utility.yul\":3653:3685   */\n              slt\n                /* \"#utility.yul\":3650:3769   */\n              iszero\n              tag_114\n              jumpi\n                /* \"#utility.yul\":3688:3767   */\n              tag_115\n              tag_47\n              jump\t// in\n            tag_115:\n                /* \"#utility.yul\":3650:3769   */\n            tag_114:\n                /* \"#utility.yul\":3836:3837   */\n              0x00\n                /* \"#utility.yul\":3825:3834   */\n              dup3\n                /* \"#utility.yul\":3821:3838   */\n              add\n                /* \"#utility.yul\":3808:3839   */\n              calldataload\n                /* \"#utility.yul\":3866:3884   */\n              0xffffffffffffffff\n                /* \"#utility.yul\":3858:3864   */\n              dup2\n                /* \"#utility.yul\":3855:3885   */\n              gt\n                /* \"#utility.yul\":3852:3969   */\n              iszero\n              tag_116\n              jumpi\n                /* \"#utility.yul\":3888:3967   */\n              tag_117\n              tag_48\n              jump\t// in\n            tag_117:\n                /* \"#utility.yul\":3852:3969   */\n            tag_116:\n                /* \"#utility.yul\":3993:4056   */\n              tag_118\n                /* \"#utility.yul\":4048:4055   */\n              dup5\n                /* \"#utility.yul\":4039:4045   */\n              dup3\n                /* \"#utility.yul\":4028:4037   */\n              dup6\n                /* \"#utility.yul\":4024:4046   */\n              add\n                /* \"#utility.yul\":3993:4056   */\n              tag_58\n              jump\t// in\n            tag_118:\n                /* \"#utility.yul\":3983:4056   */\n              swap2\n              pop\n                /* \"#utility.yul\":3779:4066   */\n              pop\n                /* \"#utility.yul\":3564:4073   */\n              swap3\n              swap2\n              pop\n              pop\n              jump\t// out\n                /* \"#utility.yul\":4079:4197   */\n            tag_62:\n                /* \"#utility.yul\":4166:4190   */\n              tag_120\n                /* \"#utility.yul\":4184:4189   */\n              dup2\n                /* \"#utility.yul\":4166:4190   */\n              tag_59\n              jump\t// in\n            tag_120:\n                /* \"#utility.yul\":4161:4164   */\n              dup3\n                /* \"#utility.yul\":4154:4191   */\n              mstore\n                /* \"#utility.yul\":4079:4197   */\n              pop\n              pop\n              jump\t// out\n                /* \"#utility.yul\":4203:4425   */\n            tag_15:\n                /* \"#utility.yul\":4296:4300   */\n              0x00\n                /* \"#utility.yul\":4334:4336   */\n              0x20\n                /* \"#utility.yul\":4323:4332   */\n              dup3\n                /* \"#utility.yul\":4319:4337   */\n              add\n                /* \"#utility.yul\":4311:4337   */\n              swap1\n              pop\n                /* \"#utility.yul\":4347:4418   */\n              tag_122\n                /* \"#utility.yul\":4415:4416   */\n              0x00\n                /* \"#utility.yul\":4404:4413   */\n              dup4\n                /* \"#utility.yul\":4400:4417   */\n              add\n                /* \"#utility.yul\":4391:4397   */\n              dup5\n                /* \"#utility.yul\":4347:4418   */\n              tag_62\n              jump\t// in\n            tag_122:\n                /* \"#utility.yul\":4203:4425   */\n              swap3\n              swap2\n              pop\n              pop\n              jump\t// out\n                /* \"#utility.yul\":4431:4760   */\n            tag_18:\n                /* \"#utility.yul\":4490:4496   */\n              0x00\n                /* \"#utility.yul\":4539:4541   */\n              0x20\n                /* \"#utility.yul\":4527:4536   */\n              dup3\n                /* \"#utility.yul\":4518:4525   */\n              dup5\n                /* \"#utility.yul\":4514:4537   */\n              sub\n                /* \"#utility.yul\":4510:4542   */\n              slt\n                /* \"#utility.yul\":4507:4626   */\n              iszero\n              tag_124\n              jumpi\n                /* \"#utility.yul\":4545:4624   */\n              tag_125\n              tag_47\n              jump\t// in\n            tag_125:\n                /* \"#utility.yul\":4507:4626   */\n            tag_124:\n                /* \"#utility.yul\":4665:4666   */\n              0x00\n                /* \"#utility.yul\":4690:4743   */\n              tag_126\n                /* \"#utility.yul\":4735:4742   */\n              dup5\n                /* \"#utility.yul\":4726:4732   */\n              dup3\n                /* \"#utility.yul\":4715:4724   */\n              dup6\n                /* \"#utility.yul\":4711:4733   */\n              add\n                /* \"#utility.yul\":4690:4743   */\n              tag_61\n              jump\t// in\n            tag_126:\n                /* \"#utility.yul\":4680:4743   */\n              swap2\n              pop\n                /* \"#utility.yul\":4636:4753   */\n              pop\n                /* \"#utility.yul\":4431:4760   */\n              swap3\n              swap2\n              pop\n              pop\n              jump\t// out\n                /* \"#utility.yul\":4766:4865   */\n            tag_63:\n                /* \"#utility.yul\":4818:4824   */\n              0x00\n                /* \"#utility.yul\":4852:4857   */\n              dup2\n                /* \"#utility.yul\":4846:4858   */\n              mload\n                /* \"#utility.yul\":4836:4858   */\n              swap1\n              pop\n                /* \"#utility.yul\":4766:4865   */\n              swap2\n              swap1\n              pop\n              jump\t// out\n                /* \"#utility.yul\":4871:5040   */\n            tag_64:\n                /* \"#utility.yul\":4955:4966   */\n              0x00\n                /* \"#utility.yul\":4989:4995   */\n              dup3\n                /* \"#utility.yul\":4984:4987   */\n              dup3\n                /* \"#utility.yul\":4977:4996   */\n              mstore\n                /* \"#utility.yul\":5029:5033   */\n              0x20\n                /* \"#utility.yul\":5024:5027   */\n              dup3\n                /* \"#utility.yul\":5020:5034   */\n              add\n                /* \"#utility.yul\":5005:5034   */\n              swap1\n              pop\n                /* \"#utility.yul\":4871:5040   */\n              swap3\n              swap2\n              pop\n              pop\n              jump\t// out\n                /* \"#utility.yul\":5046:5353   */\n            tag_65:\n                /* \"#utility.yul\":5114:5115   */\n              0x00\n                /* \"#utility.yul\":5124:5237   */\n            tag_130:\n                /* \"#utility.yul\":5138:5144   */\n              dup4\n                /* \"#utility.yul\":5135:5136   */\n              dup2\n                /* \"#utility.yul\":5132:5145   */\n              lt\n                /* \"#utility.yul\":5124:5237   */\n              iszero\n              tag_132\n              jumpi\n                /* \"#utility.yul\":5223:5224   */\n              dup1\n                /* \"#utility.yul\":5218:5221   */\n              dup3\n                /* \"#utility.yul\":5214:5225   */\n              add\n                /* \"#utility.yul\":5208:5226   */\n              mload\n                /* \"#utility.yul\":5204:5205   */\n              dup2\n                /* \"#utility.yul\":5199:5202   */\n              dup5\n                /* \"#utility.yul\":5195:5206   */\n              add\n                /* \"#utility.yul\":5188:5227   */\n              mstore\n                /* \"#utility.yul\":5160:5162   */\n              0x20\n                /* \"#utility.yul\":5157:5158   */\n              dup2\n                /* \"#utility.yul\":5153:5163   */\n              add\n                /* \"#utility.yul\":5148:5163   */\n              swap1\n              pop\n                /* \"#utility.yul\":5124:5237   */\n              jump(tag_130)\n            tag_132:\n                /* \"#utility.yul\":5255:5261   */\n              dup4\n                /* \"#utility.yul\":5252:5253   */\n              dup2\n                /* \"#utility.yul\":5249:5262   */\n              gt\n                /* \"#utility.yul\":5246:5347   */\n              iszero\n              tag_133\n              jumpi\n                /* \"#utility.yul\":5335:5336   */\n              0x00\n                /* \"#utility.yul\":5326:5332   */\n              dup5\n                /* \"#utility.yul\":5321:5324   */\n              dup5\n                /* \"#utility.yul\":5317:5333   */\n              add\n                /* \"#utility.yul\":5310:5337   */\n              mstore\n                /* \"#utility.yul\":5246:5347   */\n            tag_133:\n                /* \"#utility.yul\":5095:5353   */\n              pop\n                /* \"#utility.yul\":5046:5353   */\n              pop\n              pop\n              pop\n              jump\t// out\n                /* \"#utility.yul\":5359:5723   */\n            tag_66:\n                /* \"#utility.yul\":5447:5450   */\n              0x00\n                /* \"#utility.yul\":5475:5514   */\n              tag_135\n                /* \"#utility.yul\":5508:5513   */\n              dup3\n                /* \"#utility.yul\":5475:5514   */\n              tag_63\n              jump\t// in\n            tag_135:\n                /* \"#utility.yul\":5530:5601   */\n              tag_136\n                /* \"#utility.yul\":5594:5600   */\n              dup2\n                /* \"#utility.yul\":5589:5592   */\n              dup6\n                /* \"#utility.yul\":5530:5601   */\n              tag_64\n              jump\t// in\n            tag_136:\n                /* \"#utility.yul\":5523:5601   */\n              swap4\n              pop\n                /* \"#utility.yul\":5610:5662   */\n              tag_137\n                /* \"#utility.yul\":5655:5661   */\n              dup2\n                /* \"#utility.yul\":5650:5653   */\n              dup6\n                /* \"#utility.yul\":5643:5647   */\n              0x20\n                /* \"#utility.yul\":5636:5641   */\n              dup7\n                /* \"#utility.yul\":5632:5648   */\n              add\n                /* \"#utility.yul\":5610:5662   */\n              tag_65\n              jump\t// in\n            tag_137:\n                /* \"#utility.yul\":5687:5716   */\n              tag_138\n                /* \"#utility.yul\":5709:5715   */\n              dup2\n                /* \"#utility.yul\":5687:5716   */\n              tag_51\n              jump\t// in\n            tag_138:\n                /* \"#utility.yul\":5682:5685   */\n              dup5\n                /* \"#utility.yul\":5678:5717   */\n              add\n                /* \"#utility.yul\":5671:5717   */\n              swap2\n              pop\n                /* \"#utility.yul\":5451:5723   */\n              pop\n                /* \"#utility.yul\":5359:5723   */\n              swap3\n              swap2\n              pop\n              pop\n              jump\t// out\n                /* \"#utility.yul\":5729:6152   */\n            tag_21:\n                /* \"#utility.yul\":5870:5874   */\n              0x00\n                /* \"#utility.yul\":5908:5910   */\n              0x40\n                /* \"#utility.yul\":5897:5906   */\n              dup3\n                /* \"#utility.yul\":5893:5911   */\n              add\n                /* \"#utility.yul\":5885:5911   */\n              swap1\n              pop\n                /* \"#utility.yul\":5957:5966   */\n              dup2\n                /* \"#utility.yul\":5951:5955   */\n              dup2\n                /* \"#utility.yul\":5947:5967   */\n              sub\n                /* \"#utility.yul\":5943:5944   */\n              0x00\n                /* \"#utility.yul\":5932:5941   */\n              dup4\n                /* \"#utility.yul\":5928:5945   */\n              add\n                /* \"#utility.yul\":5921:5968   */\n              mstore\n                /* \"#utility.yul\":5985:6063   */\n              tag_140\n                /* \"#utility.yul\":6058:6062   */\n              dup2\n                /* \"#utility.yul\":6049:6055   */\n              dup6\n                /* \"#utility.yul\":5985:6063   */\n              tag_66\n              jump\t// in\n            tag_140:\n                /* \"#utility.yul\":5977:6063   */\n              swap1\n              pop\n                /* \"#utility.yul\":6073:6145   */\n              tag_141\n                /* \"#utility.yul\":6141:6143   */\n              0x20\n                /* \"#utility.yul\":6130:6139   */\n              dup4\n                /* \"#utility.yul\":6126:6144   */\n              add\n                /* \"#utility.yul\":6117:6123   */\n              dup5\n                /* \"#utility.yul\":6073:6145   */\n              tag_62\n              jump\t// in\n            tag_141:\n                /* \"#utility.yul\":5729:6152   */\n              swap4\n              swap3\n              pop\n              pop\n              pop\n              jump\t// out\n                /* \"#utility.yul\":6158:6306   */\n            tag_67:\n                /* \"#utility.yul\":6260:6271   */\n              0x00\n                /* \"#utility.yul\":6297:6300   */\n              dup2\n                /* \"#utility.yul\":6282:6300   */\n              swap1\n              pop\n                /* \"#utility.yul\":6158:6306   */\n              swap3\n              swap2\n              pop\n              pop\n              jump\t// out\n                /* \"#utility.yul\":6312:6689   */\n            tag_68:\n                /* \"#utility.yul\":6418:6421   */\n              0x00\n                /* \"#utility.yul\":6446:6485   */\n              tag_144\n                /* \"#utility.yul\":6479:6484   */\n              dup3\n                /* \"#utility.yul\":6446:6485   */\n              tag_63\n              jump\t// in\n            tag_144:\n                /* \"#utility.yul\":6501:6590   */\n              tag_145\n                /* \"#utility.yul\":6583:6589   */\n              dup2\n                /* \"#utility.yul\":6578:6581   */\n              dup6\n                /* \"#utility.yul\":6501:6590   */\n              tag_67\n              jump\t// in\n            tag_145:\n                /* \"#utility.yul\":6494:6590   */\n              swap4\n              pop\n                /* \"#utility.yul\":6599:6651   */\n              tag_146\n                /* \"#utility.yul\":6644:6650   */\n              dup2\n                /* \"#utility.yul\":6639:6642   */\n              dup6\n                /* \"#utility.yul\":6632:6636   */\n              0x20\n                /* \"#utility.yul\":6625:6630   */\n              dup7\n                /* \"#utility.yul\":6621:6637   */\n              add\n                /* \"#utility.yul\":6599:6651   */\n              tag_65\n              jump\t// in\n            tag_146:\n                /* \"#utility.yul\":6676:6682   */\n              dup1\n                /* \"#utility.yul\":6671:6674   */\n              dup5\n                /* \"#utility.yul\":6667:6683   */\n              add\n                /* \"#utility.yul\":6660:6683   */\n              swap2\n              pop\n                /* \"#utility.yul\":6422:6689   */\n              pop\n                /* \"#utility.yul\":6312:6689   */\n              swap3\n              swap2\n              pop\n              pop\n              jump\t// out\n                /* \"#utility.yul\":6695:6970   */\n            tag_27:\n                /* \"#utility.yul\":6827:6830   */\n              0x00\n                /* \"#utility.yul\":6849:6944   */\n              tag_148\n                /* \"#utility.yul\":6940:6943   */\n              dup3\n                /* \"#utility.yul\":6931:6937   */\n              dup5\n                /* \"#utility.yul\":6849:6944   */\n              tag_68\n              jump\t// in\n            tag_148:\n                /* \"#utility.yul\":6842:6944   */\n              swap2\n              pop\n                /* \"#utility.yul\":6961:6964   */\n              dup2\n                /* \"#utility.yul\":6954:6964   */\n              swap1\n              pop\n                /* \"#utility.yul\":6695:6970   */\n              swap3\n              swap2\n              pop\n              pop\n              jump\t// out\n                /* \"#utility.yul\":6976:7156   */\n            tag_69:\n                /* \"#utility.yul\":7024:7101   */\n              0x4e487b7100000000000000000000000000000000000000000000000000000000\n                /* \"#utility.yul\":7021:7022   */\n              0x00\n                /* \"#utility.yul\":7014:7102   */\n              mstore\n                /* \"#utility.yul\":7121:7125   */\n              0x22\n                /* \"#utility.yul\":7118:7119   */\n              0x04\n                /* \"#utility.yul\":7111:7126   */\n              mstore\n                /* \"#utility.yul\":7145:7149   */\n              0x24\n                /* \"#utility.yul\":7142:7143   */\n              0x00\n                /* \"#utility.yul\":7135:7150   */\n              revert\n                /* \"#utility.yul\":7162:7482   */\n            tag_31:\n                /* \"#utility.yul\":7206:7212   */\n              0x00\n                /* \"#utility.yul\":7243:7244   */\n              0x02\n                /* \"#utility.yul\":7237:7241   */\n              dup3\n                /* \"#utility.yul\":7233:7245   */\n              div\n                /* \"#utility.yul\":7223:7245   */\n              swap1\n              pop\n                /* \"#utility.yul\":7290:7291   */\n              0x01\n                /* \"#utility.yul\":7284:7288   */\n              dup3\n                /* \"#utility.yul\":7280:7292   */\n              and\n                /* \"#utility.yul\":7311:7329   */\n              dup1\n                /* \"#utility.yul\":7301:7382   */\n              tag_151\n              jumpi\n                /* \"#utility.yul\":7367:7371   */\n              0x7f\n                /* \"#utility.yul\":7359:7365   */\n              dup3\n                /* \"#utility.yul\":7355:7372   */\n              and\n                /* \"#utility.yul\":7345:7372   */\n              swap2\n              pop\n                /* \"#utility.yul\":7301:7382   */\n            tag_151:\n                /* \"#utility.yul\":7429:7431   */\n              0x20\n                /* \"#utility.yul\":7421:7427   */\n              dup3\n                /* \"#utility.yul\":7418:7432   */\n              lt\n                /* \"#utility.yul\":7398:7416   */\n              dup2\n                /* \"#utility.yul\":7395:7433   */\n              eq\n                /* \"#utility.yul\":7392:7476   */\n              iszero\n              tag_152\n              jumpi\n                /* \"#utility.yul\":7448:7466   */\n              tag_153\n              tag_69\n              jump\t// in\n            tag_153:\n                /* \"#utility.yul\":7392:7476   */\n            tag_152:\n                /* \"#utility.yul\":7213:7482   */\n              pop\n                /* \"#utility.yul\":7162:7482   */\n              swap2\n              swap1\n              pop\n              jump\t// out\n\n            auxdata: 0xa2646970667358221220a2d3f389dd9d7f4fb8581c7cdb98ecd7c790892a20092ef05393f22ac8341a0264736f6c63430008080033\n        }\n    }\n\n    auxdata: 0xa2646970667358221220dab5a0d293d33d34e8c3d2ba35cbeaca8ed1d92dbb9691991c45b9de4723ccfc64736f6c63430008080033\n}\n",
				"bytecode": {
					"linkReferences": {},
					"object": "608060405234801561001057600080fd5b506109c0806100206000396000f3fe608060405234801561001057600080fd5b50600436106100365760003560e01c8063412a5a6d1461003b578063ceaf9ec114610045575b600080fd5b610043610075565b005b61005f600480360381019061005a919061018f565b610108565b60405161006c919061023b565b60405180910390f35b600060405161008390610147565b604051809103906000f08015801561009f573d6000803e3d6000fd5b5090506000819080600181540180825580915050600190039060005260206000200160009091909190916101000a81548173ffffffffffffffffffffffffffffffffffffffff021916908373ffffffffffffffffffffffffffffffffffffffff16021790555050565b6000818154811061011857600080fd5b906000526020600020016000915054906101000a900473ffffffffffffffffffffffffffffffffffffffff1681565b6107348061025783390190565b600080fd5b6000819050919050565b61016c81610159565b811461017757600080fd5b50565b60008135905061018981610163565b92915050565b6000602082840312156101a5576101a4610154565b5b60006101b38482850161017a565b91505092915050565b600073ffffffffffffffffffffffffffffffffffffffff82169050919050565b6000819050919050565b60006102016101fc6101f7846101bc565b6101dc565b6101bc565b9050919050565b6000610213826101e6565b9050919050565b600061022582610208565b9050919050565b6102358161021a565b82525050565b6000602082019050610250600083018461022c565b9291505056fe608060405234801561001057600080fd5b50610714806100206000396000f3fe608060405234801561001057600080fd5b50600436106100415760003560e01c80631ef455c71461004657806343ec8f47146100625780639e7a13ad14610092575b600080fd5b610060600480360381019061005b9190610476565b6100c3565b005b61007c600480360381019061007791906104d2565b610159565b604051610089919061052a565b60405180910390f35b6100ac60048036038101906100a79190610545565b610187565b6040516100ba9291906105fa565b60405180910390f35b6000604051806040016040528084815260200183815250905060008190806001815401808255809150506001900390600052602060002090600202016000909190919091506000820151816000019080519060200190610124929190610243565b50602082015181600101555050816001846040516101429190610666565b908152602001604051809103902081905550505050565b6001818051602081018201805184825260208301602085012081835280955050505050506000915090505481565b6000818154811061019757600080fd5b90600052602060002090600202016000915090508060000180546101ba906106ac565b80601f01602080910402602001604051908101604052809291908181526020018280546101e6906106ac565b80156102335780601f1061020857610100808354040283529160200191610233565b820191906000526020600020905b81548152906001019060200180831161021657829003601f168201915b5050505050908060010154905082565b82805461024f906106ac565b90600052602060002090601f01602090048101928261027157600085556102b8565b82601f1061028a57805160ff19168380011785556102b8565b828001600101855582156102b8579182015b828111156102b757825182559160200191906001019061029c565b5b5090506102c591906102c9565b5090565b5b808211156102e25760008160009055506001016102ca565b5090565b6000604051905090565b600080fd5b600080fd5b600080fd5b600080fd5b6000601f19601f8301169050919050565b7f4e487b7100000000000000000000000000000000000000000000000000000000600052604160045260246000fd5b61034d82610304565b810181811067ffffffffffffffff8211171561036c5761036b610315565b5b80604052505050565b600061037f6102e6565b905061038b8282610344565b919050565b600067ffffffffffffffff8211156103ab576103aa610315565b5b6103b482610304565b9050602081019050919050565b82818337600083830152505050565b60006103e36103de84610390565b610375565b9050828152602081018484840111156103ff576103fe6102ff565b5b61040a8482856103c1565b509392505050565b600082601f830112610427576104266102fa565b5b81356104378482602086016103d0565b91505092915050565b6000819050919050565b61045381610440565b811461045e57600080fd5b50565b6000813590506104708161044a565b92915050565b6000806040838503121561048d5761048c6102f0565b5b600083013567ffffffffffffffff8111156104ab576104aa6102f5565b5b6104b785828601610412565b92505060206104c885828601610461565b9150509250929050565b6000602082840312156104e8576104e76102f0565b5b600082013567ffffffffffffffff811115610506576105056102f5565b5b61051284828501610412565b91505092915050565b61052481610440565b82525050565b600060208201905061053f600083018461051b565b92915050565b60006020828403121561055b5761055a6102f0565b5b600061056984828501610461565b91505092915050565b600081519050919050565b600082825260208201905092915050565b60005b838110156105ac578082015181840152602081019050610591565b838111156105bb576000848401525b50505050565b60006105cc82610572565b6105d6818561057d565b93506105e681856020860161058e565b6105ef81610304565b840191505092915050565b6000604082019050818103600083015261061481856105c1565b9050610623602083018461051b565b9392505050565b600081905092915050565b600061064082610572565b61064a818561062a565b935061065a81856020860161058e565b80840191505092915050565b60006106728284610635565b915081905092915050565b7f4e487b7100000000000000000000000000000000000000000000000000000000600052602260045260246000fd5b600060028204905060018216806106c457607f821691505b602082108114156106d8576106d761067d565b5b5091905056fea2646970667358221220a2d3f389dd9d7f4fb8581c7cdb98ecd7c790892a20092ef05393f22ac8341a0264736f6c63430008080033a2646970667358221220dab5a0d293d33d34e8c3d2ba35cbeaca8ed1d92dbb9691991c45b9de4723ccfc64736f6c63430008080033",
					"opcodes": "PUSH1 0x80 PUSH1 0x40 MSTORE CALLVALUE DUP1 ISZERO PUSH2 0x10 JUMPI PUSH1 0x0 DUP1 REVERT JUMPDEST POP PUSH2 0x9C0 DUP1 PUSH2 0x20 PUSH1 0x0 CODECOPY PUSH1 0x0 RETURN INVALID PUSH1 0x80 PUSH1 0x40 MSTORE CALLVALUE DUP1 ISZERO PUSH2 0x10 JUMPI PUSH1 0x0 DUP1 REVERT JUMPDEST POP PUSH1 0x4 CALLDATASIZE LT PUSH2 0x36 JUMPI PUSH1 0x0 CALLDATALOAD PUSH1 0xE0 SHR DUP1 PUSH4 0x412A5A6D EQ PUSH2 0x3B JUMPI DUP1 PUSH4 0xCEAF9EC1 EQ PUSH2 0x45 JUMPI JUMPDEST PUSH1 0x0 DUP1 REVERT JUMPDEST PUSH2 0x43 PUSH2 0x75 JUMP JUMPDEST STOP JUMPDEST PUSH2 0x5F PUSH1 0x4 DUP1 CALLDATASIZE SUB DUP2 ADD SWAP1 PUSH2 0x5A SWAP2 SWAP1 PUSH2 0x18F JUMP JUMPDEST PUSH2 0x108 JUMP JUMPDEST PUSH1 0x40 MLOAD PUSH2 0x6C SWAP2 SWAP1 PUSH2 0x23B JUMP JUMPDEST PUSH1 0x40 MLOAD DUP1 SWAP2 SUB SWAP1 RETURN JUMPDEST PUSH1 0x0 PUSH1 0x40 MLOAD PUSH2 0x83 SWAP1 PUSH2 0x147 JUMP JUMPDEST PUSH1 0x40 MLOAD DUP1 SWAP2 SUB SWAP1 PUSH1 0x0 CREATE DUP1 ISZERO DUP1 ISZERO PUSH2 0x9F JUMPI RETURNDATASIZE PUSH1 0x0 DUP1 RETURNDATACOPY RETURNDATASIZE PUSH1 0x0 REVERT JUMPDEST POP SWAP1 POP PUSH1 0x0 DUP2 SWAP1 DUP1 PUSH1 0x1 DUP2 SLOAD ADD DUP1 DUP3 SSTORE DUP1 SWAP2 POP POP PUSH1 0x1 SWAP1 SUB SWAP1 PUSH1 0x0 MSTORE PUSH1 0x20 PUSH1 0x0 KECCAK256 ADD PUSH1 0x0 SWAP1 SWAP2 SWAP1 SWAP2 SWAP1 SWAP2 PUSH2 0x100 EXP DUP2 SLOAD DUP2 PUSH20 0xFFFFFFFFFFFFFFFFFFFFFFFFFFFFFFFFFFFFFFFF MUL NOT AND SWAP1 DUP4 PUSH20 0xFFFFFFFFFFFFFFFFFFFFFFFFFFFFFFFFFFFFFFFF AND MUL OR SWAP1 SSTORE POP POP JUMP JUMPDEST PUSH1 0x0 DUP2 DUP2 SLOAD DUP2 LT PUSH2 0x118 JUMPI PUSH1 0x0 DUP1 REVERT JUMPDEST SWAP1 PUSH1 0x0 MSTORE PUSH1 0x20 PUSH1 0x0 KECCAK256 ADD PUSH1 0x0 SWAP2 POP SLOAD SWAP1 PUSH2 0x100 EXP SWAP1 DIV PUSH20 0xFFFFFFFFFFFFFFFFFFFFFFFFFFFFFFFFFFFFFFFF AND DUP2 JUMP JUMPDEST PUSH2 0x734 DUP1 PUSH2 0x257 DUP4 CODECOPY ADD SWAP1 JUMP JUMPDEST PUSH1 0x0 DUP1 REVERT JUMPDEST PUSH1 0x0 DUP2 SWAP1 POP SWAP2 SWAP1 POP JUMP JUMPDEST PUSH2 0x16C DUP2 PUSH2 0x159 JUMP JUMPDEST DUP2 EQ PUSH2 0x177 JUMPI PUSH1 0x0 DUP1 REVERT JUMPDEST POP JUMP JUMPDEST PUSH1 0x0 DUP2 CALLDATALOAD SWAP1 POP PUSH2 0x189 DUP2 PUSH2 0x163 JUMP JUMPDEST SWAP3 SWAP2 POP POP JUMP JUMPDEST PUSH1 0x0 PUSH1 0x20 DUP3 DUP5 SUB SLT ISZERO PUSH2 0x1A5 JUMPI PUSH2 0x1A4 PUSH2 0x154 JUMP JUMPDEST JUMPDEST PUSH1 0x0 PUSH2 0x1B3 DUP5 DUP3 DUP6 ADD PUSH2 0x17A JUMP JUMPDEST SWAP2 POP POP SWAP3 SWAP2 POP POP JUMP JUMPDEST PUSH1 0x0 PUSH20 0xFFFFFFFFFFFFFFFFFFFFFFFFFFFFFFFFFFFFFFFF DUP3 AND SWAP1 POP SWAP2 SWAP1 POP JUMP JUMPDEST PUSH1 0x0 DUP2 SWAP1 POP SWAP2 SWAP1 POP JUMP JUMPDEST PUSH1 0x0 PUSH2 0x201 PUSH2 0x1FC PUSH2 0x1F7 DUP5 PUSH2 0x1BC JUMP JUMPDEST PUSH2 0x1DC JUMP JUMPDEST PUSH2 0x1BC JUMP JUMPDEST SWAP1 POP SWAP2 SWAP1 POP JUMP JUMPDEST PUSH1 0x0 PUSH2 0x213 DUP3 PUSH2 0x1E6 JUMP JUMPDEST SWAP1 POP SWAP2 SWAP1 POP JUMP JUMPDEST PUSH1 0x0 PUSH2 0x225 DUP3 PUSH2 0x208 JUMP JUMPDEST SWAP1 POP SWAP2 SWAP1 POP JUMP JUMPDEST PUSH2 0x235 DUP2 PUSH2 0x21A JUMP JUMPDEST DUP3 MSTORE POP POP JUMP JUMPDEST PUSH1 0x0 PUSH1 0x20 DUP3 ADD SWAP1 POP PUSH2 0x250 PUSH1 0x0 DUP4 ADD DUP5 PUSH2 0x22C JUMP JUMPDEST SWAP3 SWAP2 POP POP JUMP INVALID PUSH1 0x80 PUSH1 0x40 MSTORE CALLVALUE DUP1 ISZERO PUSH2 0x10 JUMPI PUSH1 0x0 DUP1 REVERT JUMPDEST POP PUSH2 0x714 DUP1 PUSH2 0x20 PUSH1 0x0 CODECOPY PUSH1 0x0 RETURN INVALID PUSH1 0x80 PUSH1 0x40 MSTORE CALLVALUE DUP1 ISZERO PUSH2 0x10 JUMPI PUSH1 0x0 DUP1 REVERT JUMPDEST POP PUSH1 0x4 CALLDATASIZE LT PUSH2 0x41 JUMPI PUSH1 0x0 CALLDATALOAD PUSH1 0xE0 SHR DUP1 PUSH4 0x1EF455C7 EQ PUSH2 0x46 JUMPI DUP1 PUSH4 0x43EC8F47 EQ PUSH2 0x62 JUMPI DUP1 PUSH4 0x9E7A13AD EQ PUSH2 0x92 JUMPI JUMPDEST PUSH1 0x0 DUP1 REVERT JUMPDEST PUSH2 0x60 PUSH1 0x4 DUP1 CALLDATASIZE SUB DUP2 ADD SWAP1 PUSH2 0x5B SWAP2 SWAP1 PUSH2 0x476 JUMP JUMPDEST PUSH2 0xC3 JUMP JUMPDEST STOP JUMPDEST PUSH2 0x7C PUSH1 0x4 DUP1 CALLDATASIZE SUB DUP2 ADD SWAP1 PUSH2 0x77 SWAP2 SWAP1 PUSH2 0x4D2 JUMP JUMPDEST PUSH2 0x159 JUMP JUMPDEST PUSH1 0x40 MLOAD PUSH2 0x89 SWAP2 SWAP1 PUSH2 0x52A JUMP JUMPDEST PUSH1 0x40 MLOAD DUP1 SWAP2 SUB SWAP1 RETURN JUMPDEST PUSH2 0xAC PUSH1 0x4 DUP1 CALLDATASIZE SUB DUP2 ADD SWAP1 PUSH2 0xA7 SWAP2 SWAP1 PUSH2 0x545 JUMP JUMPDEST PUSH2 0x187 JUMP JUMPDEST PUSH1 0x40 MLOAD PUSH2 0xBA SWAP3 SWAP2 SWAP1 PUSH2 0x5FA JUMP JUMPDEST PUSH1 0x40 MLOAD DUP1 SWAP2 SUB SWAP1 RETURN JUMPDEST PUSH1 0x0 PUSH1 0x40 MLOAD DUP1 PUSH1 0x40 ADD PUSH1 0x40 MSTORE DUP1 DUP5 DUP2 MSTORE PUSH1 0x20 ADD DUP4 DUP2 MSTORE POP SWAP1 POP PUSH1 0x0 DUP2 SWAP1 DUP1 PUSH1 0x1 DUP2 SLOAD ADD DUP1 DUP3 SSTORE DUP1 SWAP2 POP POP PUSH1 0x1 SWAP1 SUB SWAP1 PUSH1 0x0 MSTORE PUSH1 0x20 PUSH1 0x0 KECCAK256 SWAP1 PUSH1 0x2 MUL ADD PUSH1 0x0 SWAP1 SWAP2 SWAP1 SWAP2 SWAP1 SWAP2 POP PUSH1 0x0 DUP3 ADD MLOAD DUP2 PUSH1 0x0 ADD SWAP1 DUP1 MLOAD SWAP1 PUSH1 0x20 ADD SWAP1 PUSH2 0x124 SWAP3 SWAP2 SWAP1 PUSH2 0x243 JUMP JUMPDEST POP PUSH1 0x20 DUP3 ADD MLOAD DUP2 PUSH1 0x1 ADD SSTORE POP POP DUP2 PUSH1 0x1 DUP5 PUSH1 0x40 MLOAD PUSH2 0x142 SWAP2 SWAP1 PUSH2 0x666 JUMP JUMPDEST SWAP1 DUP2 MSTORE PUSH1 0x20 ADD PUSH1 0x40 MLOAD DUP1 SWAP2 SUB SWAP1 KECCAK256 DUP2 SWAP1 SSTORE POP POP POP POP JUMP JUMPDEST PUSH1 0x1 DUP2 DUP1 MLOAD PUSH1 0x20 DUP2 ADD DUP3 ADD DUP1 MLOAD DUP5 DUP3 MSTORE PUSH1 0x20 DUP4 ADD PUSH1 0x20 DUP6 ADD KECCAK256 DUP2 DUP4 MSTORE DUP1 SWAP6 POP POP POP POP POP POP PUSH1 0x0 SWAP2 POP SWAP1 POP SLOAD DUP2 JUMP JUMPDEST PUSH1 0x0 DUP2 DUP2 SLOAD DUP2 LT PUSH2 0x197 JUMPI PUSH1 0x0 DUP1 REVERT JUMPDEST SWAP1 PUSH1 0x0 MSTORE PUSH1 0x20 PUSH1 0x0 KECCAK256 SWAP1 PUSH1 0x2 MUL ADD PUSH1 0x0 SWAP2 POP SWAP1 POP DUP1 PUSH1 0x0 ADD DUP1 SLOAD PUSH2 0x1BA SWAP1 PUSH2 0x6AC JUMP JUMPDEST DUP1 PUSH1 0x1F ADD PUSH1 0x20 DUP1 SWAP2 DIV MUL PUSH1 0x20 ADD PUSH1 0x40 MLOAD SWAP1 DUP2 ADD PUSH1 0x40 MSTORE DUP1 SWAP3 SWAP2 SWAP1 DUP2 DUP2 MSTORE PUSH1 0x20 ADD DUP3 DUP1 SLOAD PUSH2 0x1E6 SWAP1 PUSH2 0x6AC JUMP JUMPDEST DUP1 ISZERO PUSH2 0x233 JUMPI DUP1 PUSH1 0x1F LT PUSH2 0x208 JUMPI PUSH2 0x100 DUP1 DUP4 SLOAD DIV MUL DUP4 MSTORE SWAP2 PUSH1 0x20 ADD SWAP2 PUSH2 0x233 JUMP JUMPDEST DUP3 ADD SWAP2 SWAP1 PUSH1 0x0 MSTORE PUSH1 0x20 PUSH1 0x0 KECCAK256 SWAP1 JUMPDEST DUP2 SLOAD DUP2 MSTORE SWAP1 PUSH1 0x1 ADD SWAP1 PUSH1 0x20 ADD DUP1 DUP4 GT PUSH2 0x216 JUMPI DUP3 SWAP1 SUB PUSH1 0x1F AND DUP3 ADD SWAP2 JUMPDEST POP POP POP POP POP SWAP1 DUP1 PUSH1 0x1 ADD SLOAD SWAP1 POP DUP3 JUMP JUMPDEST DUP3 DUP1 SLOAD PUSH2 0x24F SWAP1 PUSH2 0x6AC JUMP JUMPDEST SWAP1 PUSH1 0x0 MSTORE PUSH1 0x20 PUSH1 0x0 KECCAK256 SWAP1 PUSH1 0x1F ADD PUSH1 0x20 SWAP1 DIV DUP2 ADD SWAP3 DUP3 PUSH2 0x271 JUMPI PUSH1 0x0 DUP6 SSTORE PUSH2 0x2B8 JUMP JUMPDEST DUP3 PUSH1 0x1F LT PUSH2 0x28A JUMPI DUP1 MLOAD PUSH1 0xFF NOT AND DUP4 DUP1 ADD OR DUP6 SSTORE PUSH2 0x2B8 JUMP JUMPDEST DUP3 DUP1 ADD PUSH1 0x1 ADD DUP6 SSTORE DUP3 ISZERO PUSH2 0x2B8 JUMPI SWAP2 DUP3 ADD JUMPDEST DUP3 DUP2 GT ISZERO PUSH2 0x2B7 JUMPI DUP3 MLOAD DUP3 SSTORE SWAP2 PUSH1 0x20 ADD SWAP2 SWAP1 PUSH1 0x1 ADD SWAP1 PUSH2 0x29C JUMP JUMPDEST JUMPDEST POP SWAP1 POP PUSH2 0x2C5 SWAP2 SWAP1 PUSH2 0x2C9 JUMP JUMPDEST POP SWAP1 JUMP JUMPDEST JUMPDEST DUP1 DUP3 GT ISZERO PUSH2 0x2E2 JUMPI PUSH1 0x0 DUP2 PUSH1 0x0 SWAP1 SSTORE POP PUSH1 0x1 ADD PUSH2 0x2CA JUMP JUMPDEST POP SWAP1 JUMP JUMPDEST PUSH1 0x0 PUSH1 0x40 MLOAD SWAP1 POP SWAP1 JUMP JUMPDEST PUSH1 0x0 DUP1 REVERT JUMPDEST PUSH1 0x0 DUP1 REVERT JUMPDEST PUSH1 0x0 DUP1 REVERT JUMPDEST PUSH1 0x0 DUP1 REVERT JUMPDEST PUSH1 0x0 PUSH1 0x1F NOT PUSH1 0x1F DUP4 ADD AND SWAP1 POP SWAP2 SWAP1 POP JUMP JUMPDEST PUSH32 0x4E487B7100000000000000000000000000000000000000000000000000000000 PUSH1 0x0 MSTORE PUSH1 0x41 PUSH1 0x4 MSTORE PUSH1 0x24 PUSH1 0x0 REVERT JUMPDEST PUSH2 0x34D DUP3 PUSH2 0x304 JUMP JUMPDEST DUP2 ADD DUP2 DUP2 LT PUSH8 0xFFFFFFFFFFFFFFFF DUP3 GT OR ISZERO PUSH2 0x36C JUMPI PUSH2 0x36B PUSH2 0x315 JUMP JUMPDEST JUMPDEST DUP1 PUSH1 0x40 MSTORE POP POP POP JUMP JUMPDEST PUSH1 0x0 PUSH2 0x37F PUSH2 0x2E6 JUMP JUMPDEST SWAP1 POP PUSH2 0x38B DUP3 DUP3 PUSH2 0x344 JUMP JUMPDEST SWAP2 SWAP1 POP JUMP JUMPDEST PUSH1 0x0 PUSH8 0xFFFFFFFFFFFFFFFF DUP3 GT ISZERO PUSH2 0x3AB JUMPI PUSH2 0x3AA PUSH2 0x315 JUMP JUMPDEST JUMPDEST PUSH2 0x3B4 DUP3 PUSH2 0x304 JUMP JUMPDEST SWAP1 POP PUSH1 0x20 DUP2 ADD SWAP1 POP SWAP2 SWAP1 POP JUMP JUMPDEST DUP3 DUP2 DUP4 CALLDATACOPY PUSH1 0x0 DUP4 DUP4 ADD MSTORE POP POP POP JUMP JUMPDEST PUSH1 0x0 PUSH2 0x3E3 PUSH2 0x3DE DUP5 PUSH2 0x390 JUMP JUMPDEST PUSH2 0x375 JUMP JUMPDEST SWAP1 POP DUP3 DUP2 MSTORE PUSH1 0x20 DUP2 ADD DUP5 DUP5 DUP5 ADD GT ISZERO PUSH2 0x3FF JUMPI PUSH2 0x3FE PUSH2 0x2FF JUMP JUMPDEST JUMPDEST PUSH2 0x40A DUP5 DUP3 DUP6 PUSH2 0x3C1 JUMP JUMPDEST POP SWAP4 SWAP3 POP POP POP JUMP JUMPDEST PUSH1 0x0 DUP3 PUSH1 0x1F DUP4 ADD SLT PUSH2 0x427 JUMPI PUSH2 0x426 PUSH2 0x2FA JUMP JUMPDEST JUMPDEST DUP2 CALLDATALOAD PUSH2 0x437 DUP5 DUP3 PUSH1 0x20 DUP7 ADD PUSH2 0x3D0 JUMP JUMPDEST SWAP2 POP POP SWAP3 SWAP2 POP POP JUMP JUMPDEST PUSH1 0x0 DUP2 SWAP1 POP SWAP2 SWAP1 POP JUMP JUMPDEST PUSH2 0x453 DUP2 PUSH2 0x440 JUMP JUMPDEST DUP2 EQ PUSH2 0x45E JUMPI PUSH1 0x0 DUP1 REVERT JUMPDEST POP JUMP JUMPDEST PUSH1 0x0 DUP2 CALLDATALOAD SWAP1 POP PUSH2 0x470 DUP2 PUSH2 0x44A JUMP JUMPDEST SWAP3 SWAP2 POP POP JUMP JUMPDEST PUSH1 0x0 DUP1 PUSH1 0x40 DUP4 DUP6 SUB SLT ISZERO PUSH2 0x48D JUMPI PUSH2 0x48C PUSH2 0x2F0 JUMP JUMPDEST JUMPDEST PUSH1 0x0 DUP4 ADD CALLDATALOAD PUSH8 0xFFFFFFFFFFFFFFFF DUP2 GT ISZERO PUSH2 0x4AB JUMPI PUSH2 0x4AA PUSH2 0x2F5 JUMP JUMPDEST JUMPDEST PUSH2 0x4B7 DUP6 DUP3 DUP7 ADD PUSH2 0x412 JUMP JUMPDEST SWAP3 POP POP PUSH1 0x20 PUSH2 0x4C8 DUP6 DUP3 DUP7 ADD PUSH2 0x461 JUMP JUMPDEST SWAP2 POP POP SWAP3 POP SWAP3 SWAP1 POP JUMP JUMPDEST PUSH1 0x0 PUSH1 0x20 DUP3 DUP5 SUB SLT ISZERO PUSH2 0x4E8 JUMPI PUSH2 0x4E7 PUSH2 0x2F0 JUMP JUMPDEST JUMPDEST PUSH1 0x0 DUP3 ADD CALLDATALOAD PUSH8 0xFFFFFFFFFFFFFFFF DUP2 GT ISZERO PUSH2 0x506 JUMPI PUSH2 0x505 PUSH2 0x2F5 JUMP JUMPDEST JUMPDEST PUSH2 0x512 DUP5 DUP3 DUP6 ADD PUSH2 0x412 JUMP JUMPDEST SWAP2 POP POP SWAP3 SWAP2 POP POP JUMP JUMPDEST PUSH2 0x524 DUP2 PUSH2 0x440 JUMP JUMPDEST DUP3 MSTORE POP POP JUMP JUMPDEST PUSH1 0x0 PUSH1 0x20 DUP3 ADD SWAP1 POP PUSH2 0x53F PUSH1 0x0 DUP4 ADD DUP5 PUSH2 0x51B JUMP JUMPDEST SWAP3 SWAP2 POP POP JUMP JUMPDEST PUSH1 0x0 PUSH1 0x20 DUP3 DUP5 SUB SLT ISZERO PUSH2 0x55B JUMPI PUSH2 0x55A PUSH2 0x2F0 JUMP JUMPDEST JUMPDEST PUSH1 0x0 PUSH2 0x569 DUP5 DUP3 DUP6 ADD PUSH2 0x461 JUMP JUMPDEST SWAP2 POP POP SWAP3 SWAP2 POP POP JUMP JUMPDEST PUSH1 0x0 DUP2 MLOAD SWAP1 POP SWAP2 SWAP1 POP JUMP JUMPDEST PUSH1 0x0 DUP3 DUP3 MSTORE PUSH1 0x20 DUP3 ADD SWAP1 POP SWAP3 SWAP2 POP POP JUMP JUMPDEST PUSH1 0x0 JUMPDEST DUP4 DUP2 LT ISZERO PUSH2 0x5AC JUMPI DUP1 DUP3 ADD MLOAD DUP2 DUP5 ADD MSTORE PUSH1 0x20 DUP2 ADD SWAP1 POP PUSH2 0x591 JUMP JUMPDEST DUP4 DUP2 GT ISZERO PUSH2 0x5BB JUMPI PUSH1 0x0 DUP5 DUP5 ADD MSTORE JUMPDEST POP POP POP POP JUMP JUMPDEST PUSH1 0x0 PUSH2 0x5CC DUP3 PUSH2 0x572 JUMP JUMPDEST PUSH2 0x5D6 DUP2 DUP6 PUSH2 0x57D JUMP JUMPDEST SWAP4 POP PUSH2 0x5E6 DUP2 DUP6 PUSH1 0x20 DUP7 ADD PUSH2 0x58E JUMP JUMPDEST PUSH2 0x5EF DUP2 PUSH2 0x304 JUMP JUMPDEST DUP5 ADD SWAP2 POP POP SWAP3 SWAP2 POP POP JUMP JUMPDEST PUSH1 0x0 PUSH1 0x40 DUP3 ADD SWAP1 POP DUP2 DUP2 SUB PUSH1 0x0 DUP4 ADD MSTORE PUSH2 0x614 DUP2 DUP6 PUSH2 0x5C1 JUMP JUMPDEST SWAP1 POP PUSH2 0x623 PUSH1 0x20 DUP4 ADD DUP5 PUSH2 0x51B JUMP JUMPDEST SWAP4 SWAP3 POP POP POP JUMP JUMPDEST PUSH1 0x0 DUP2 SWAP1 POP SWAP3 SWAP2 POP POP JUMP JUMPDEST PUSH1 0x0 PUSH2 0x640 DUP3 PUSH2 0x572 JUMP JUMPDEST PUSH2 0x64A DUP2 DUP6 PUSH2 0x62A JUMP JUMPDEST SWAP4 POP PUSH2 0x65A DUP2 DUP6 PUSH1 0x20 DUP7 ADD PUSH2 0x58E JUMP JUMPDEST DUP1 DUP5 ADD SWAP2 POP POP SWAP3 SWAP2 POP POP JUMP JUMPDEST PUSH1 0x0 PUSH2 0x672 DUP3 DUP5 PUSH2 0x635 JUMP JUMPDEST SWAP2 POP DUP2 SWAP1 POP SWAP3 SWAP2 POP POP JUMP JUMPDEST PUSH32 0x4E487B7100000000000000000000000000000000000000000000000000000000 PUSH1 0x0 MSTORE PUSH1 0x22 PUSH1 0x4 MSTORE PUSH1 0x24 PUSH1 0x0 REVERT JUMPDEST PUSH1 0x0 PUSH1 0x2 DUP3 DIV SWAP1 POP PUSH1 0x1 DUP3 AND DUP1 PUSH2 0x6C4 JUMPI PUSH1 0x7F DUP3 AND SWAP2 POP JUMPDEST PUSH1 0x20 DUP3 LT DUP2 EQ ISZERO PUSH2 0x6D8 JUMPI PUSH2 0x6D7 PUSH2 0x67D JUMP JUMPDEST JUMPDEST POP SWAP2 SWAP1 POP JUMP INVALID LOG2 PUSH5 0x6970667358 0x22 SLT KECCAK256 LOG2 0xD3 RETURN DUP10 0xDD SWAP14 PUSH32 0x4FB8581C7CDB98ECD7C790892A20092EF05393F22AC8341A0264736F6C634300 ADDMOD ADDMOD STOP CALLER LOG2 PUSH5 0x6970667358 0x22 SLT KECCAK256 0xDA 0xB5 LOG0 0xD2 SWAP4 0xD3 RETURNDATASIZE CALLVALUE 0xE8 0xC3 0xD2 0xBA CALLDATALOAD 0xCB 0xEA 0xCA DUP15 0xD1 0xD9 0x2D 0xBB SWAP7 SWAP2 SWAP10 SHR GASLIMIT 0xB9 0xDE SELFBALANCE 0x23 0xCC 0xFC PUSH5 0x736F6C6343 STOP ADDMOD ADDMOD STOP CALLER "
				},
				"gasEstimates": {
					"creation": {
						"codeDepositCost": "499200",
						"executionCost": "530",
						"totalCost": "499730"
					},
					"external": {
						"createContract()": "infinite",
						"simpleStorageList(uint256)": "infinite"
					}
				},
				"methodIdentifiers": {
					"createContract()": "412a5a6d",
					"simpleStorageList(uint256)": "ceaf9ec1"
				}
			},
			"storageLayout": {
				"storage": [
					{
						"astId": 50,
						"contract": "contracts/StorageFactory.sol:StorageFactory",
						"label": "simpleStorageList",
						"offset": 0,
						"slot": "0",
						"type": "t_array(t_contract(SimpleStorage)43)dyn_storage"
					}
				],
				"types": {
					"t_array(t_contract(SimpleStorage)43)dyn_storage": {
						"base": "t_contract(SimpleStorage)43",
						"encoding": "dynamic_array",
						"label": "contract SimpleStorage[]",
						"numberOfBytes": "32"
					},
					"t_contract(SimpleStorage)43": {
						"encoding": "inplace",
						"label": "contract SimpleStorage",
						"numberOfBytes": "20"
					}
				}
			},
			"userdoc": {
				"kind": "user",
				"methods": {},
				"version": 1
			}
		}
	}
}