{
	"contracts/FundMe.sol": {
		"FundMe": {
			"abi": [
				{
					"inputs": [],
					"stateMutability": "nonpayable",
					"type": "constructor"
				},
				{
					"inputs": [],
					"name": "MIN_USD",
					"outputs": [
						{
							"internalType": "uint256",
							"name": "",
							"type": "uint256"
						}
					],
					"stateMutability": "view",
					"type": "function"
				},
				{
					"inputs": [
						{
							"internalType": "address",
							"name": "",
							"type": "address"
						}
					],
					"name": "addressToAmount",
					"outputs": [
						{
							"internalType": "uint256",
							"name": "",
							"type": "uint256"
						}
					],
					"stateMutability": "view",
					"type": "function"
				},
				{
					"inputs": [],
					"name": "fund",
					"outputs": [],
					"stateMutability": "payable",
					"type": "function"
				},
				{
					"inputs": [
						{
							"internalType": "uint256",
							"name": "",
							"type": "uint256"
						}
					],
					"name": "funders",
					"outputs": [
						{
							"internalType": "address",
							"name": "",
							"type": "address"
						}
					],
					"stateMutability": "view",
					"type": "function"
				},
				{
					"inputs": [],
					"name": "owner",
					"outputs": [
						{
							"internalType": "address",
							"name": "",
							"type": "address"
						}
					],
					"stateMutability": "view",
					"type": "function"
				},
				{
					"inputs": [],
					"name": "withdraw",
					"outputs": [],
					"stateMutability": "nonpayable",
					"type": "function"
				}
			],
			"devdoc": {
				"kind": "dev",
				"methods": {},
				"version": 1
			},
			"evm": {
				"assembly": "    /* \"contracts/FundMe.sol\":207:2446  contract FundMe {... */\n  mstore(0x40, 0x80)\n    /* \"contracts/FundMe.sol\":572:727  constructor(){... */\n  callvalue\n  dup1\n  iszero\n  tag_1\n  jumpi\n  0x00\n  dup1\n  revert\ntag_1:\n  pop\n    /* \"contracts/FundMe.sol\":709:719  msg.sender */\n  caller\n    /* \"contracts/FundMe.sol\":701:706  owner */\n  0x02\n  0x00\n    /* \"contracts/FundMe.sol\":701:719  owner = msg.sender */\n  0x0100\n  exp\n  dup2\n  sload\n  dup2\n  0xffffffffffffffffffffffffffffffffffffffff\n  mul\n  not\n  and\n  swap1\n  dup4\n  0xffffffffffffffffffffffffffffffffffffffff\n  and\n  mul\n  or\n  swap1\n  sstore\n  pop\n    /* \"contracts/FundMe.sol\":207:2446  contract FundMe {... */\n  dataSize(sub_0)\n  dup1\n  dataOffset(sub_0)\n  0x00\n  codecopy\n  0x00\n  return\nstop\n\nsub_0: assembly {\n        /* \"contracts/FundMe.sol\":207:2446  contract FundMe {... */\n      mstore(0x40, 0x80)\n      jumpi(tag_1, lt(calldatasize, 0x04))\n      shr(0xe0, calldataload(0x00))\n      dup1\n      0x213dbea2\n      eq\n      tag_2\n      jumpi\n      dup1\n      0x3c7e7d28\n      eq\n      tag_3\n      jumpi\n      dup1\n      0x3ccfd60b\n      eq\n      tag_4\n      jumpi\n      dup1\n      0x8da5cb5b\n      eq\n      tag_5\n      jumpi\n      dup1\n      0xb60d4288\n      eq\n      tag_6\n      jumpi\n      dup1\n      0xdc0d3dff\n      eq\n      tag_7\n      jumpi\n    tag_1:\n      0x00\n      dup1\n      revert\n        /* \"contracts/FundMe.sol\":326:366  uint public constant MIN_USD = 50 * 1e18 */\n    tag_2:\n      callvalue\n      dup1\n      iszero\n      tag_8\n      jumpi\n      0x00\n      dup1\n      revert\n    tag_8:\n      pop\n      tag_9\n      tag_10\n      jump\t// in\n    tag_9:\n      mload(0x40)\n      tag_11\n      swap2\n      swap1\n      tag_12\n      jump\t// in\n    tag_11:\n      mload(0x40)\n      dup1\n      swap2\n      sub\n      swap1\n      return\n        /* \"contracts/FundMe.sol\":406:456  mapping(address => uint256) public addressToAmount */\n    tag_3:\n      callvalue\n      dup1\n      iszero\n      tag_13\n      jumpi\n      0x00\n      dup1\n      revert\n    tag_13:\n      pop\n      tag_14\n      0x04\n      dup1\n      calldatasize\n      sub\n      dup2\n      add\n      swap1\n      tag_15\n      swap2\n      swap1\n      tag_16\n      jump\t// in\n    tag_15:\n      tag_17\n      jump\t// in\n    tag_14:\n      mload(0x40)\n      tag_18\n      swap2\n      swap1\n      tag_12\n      jump\t// in\n    tag_18:\n      mload(0x40)\n      dup1\n      swap2\n      sub\n      swap1\n      return\n        /* \"contracts/FundMe.sol\":967:2227  function withdraw() public onlyOwner {... */\n    tag_4:\n      callvalue\n      dup1\n      iszero\n      tag_19\n      jumpi\n      0x00\n      dup1\n      revert\n    tag_19:\n      pop\n      tag_20\n      tag_21\n      jump\t// in\n    tag_20:\n      stop\n        /* \"contracts/FundMe.sol\":465:485  address public owner */\n    tag_5:\n      callvalue\n      dup1\n      iszero\n      tag_22\n      jumpi\n      0x00\n      dup1\n      revert\n    tag_22:\n      pop\n      tag_23\n      tag_24\n      jump\t// in\n    tag_23:\n      mload(0x40)\n      tag_25\n      swap2\n      swap1\n      tag_26\n      jump\t// in\n    tag_25:\n      mload(0x40)\n      dup1\n      swap2\n      sub\n      swap1\n      return\n        /* \"contracts/FundMe.sol\":735:959  function fund() public payable {... */\n    tag_6:\n      tag_27\n      tag_28\n      jump\t// in\n    tag_27:\n      stop\n        /* \"contracts/FundMe.sol\":375:399  address[] public funders */\n    tag_7:\n      callvalue\n      dup1\n      iszero\n      tag_29\n      jumpi\n      0x00\n      dup1\n      revert\n    tag_29:\n      pop\n      tag_30\n      0x04\n      dup1\n      calldatasize\n      sub\n      dup2\n      add\n      swap1\n      tag_31\n      swap2\n      swap1\n      tag_32\n      jump\t// in\n    tag_31:\n      tag_33\n      jump\t// in\n    tag_30:\n      mload(0x40)\n      tag_34\n      swap2\n      swap1\n      tag_26\n      jump\t// in\n    tag_34:\n      mload(0x40)\n      dup1\n      swap2\n      sub\n      swap1\n      return\n        /* \"contracts/FundMe.sol\":326:366  uint public constant MIN_USD = 50 * 1e18 */\n    tag_10:\n        /* \"contracts/FundMe.sol\":357:366  50 * 1e18 */\n      0x02b5e3af16b1880000\n        /* \"contracts/FundMe.sol\":326:366  uint public constant MIN_USD = 50 * 1e18 */\n      dup2\n      jump\t// out\n        /* \"contracts/FundMe.sol\":406:456  mapping(address => uint256) public addressToAmount */\n    tag_17:\n      mstore(0x20, 0x01)\n      dup1\n      0x00\n      mstore\n      keccak256(0x00, 0x40)\n      0x00\n      swap2\n      pop\n      swap1\n      pop\n      sload\n      dup2\n      jump\t// out\n        /* \"contracts/FundMe.sol\":967:2227  function withdraw() public onlyOwner {... */\n    tag_21:\n        /* \"contracts/FundMe.sol\":2353:2358  owner */\n      0x02\n      0x00\n      swap1\n      sload\n      swap1\n      0x0100\n      exp\n      swap1\n      div\n      0xffffffffffffffffffffffffffffffffffffffff\n      and\n        /* \"contracts/FundMe.sol\":2339:2358  msg.sender == owner */\n      0xffffffffffffffffffffffffffffffffffffffff\n      and\n        /* \"contracts/FundMe.sol\":2339:2349  msg.sender */\n      caller\n        /* \"contracts/FundMe.sol\":2339:2358  msg.sender == owner */\n      0xffffffffffffffffffffffffffffffffffffffff\n      and\n      eq\n        /* \"contracts/FundMe.sol\":2331:2413  require(msg.sender == owner, \"Only the owner of the contract can withdraw funds!\") */\n      tag_36\n      jumpi\n      mload(0x40)\n      0x08c379a000000000000000000000000000000000000000000000000000000000\n      dup2\n      mstore\n      0x04\n      add\n      tag_37\n      swap1\n      tag_38\n      jump\t// in\n    tag_37:\n      mload(0x40)\n      dup1\n      swap2\n      sub\n      swap1\n      revert\n    tag_36:\n        /* \"contracts/FundMe.sol\":1022:1035  uint256 index */\n      0x00\n        /* \"contracts/FundMe.sol\":1017:1174  for( uint256 index = 0; index < funders.length; index++) {... */\n    tag_40:\n        /* \"contracts/FundMe.sol\":1049:1056  funders */\n      0x00\n        /* \"contracts/FundMe.sol\":1049:1063  funders.length */\n      dup1\n      sload\n      swap1\n      pop\n        /* \"contracts/FundMe.sol\":1041:1046  index */\n      dup2\n        /* \"contracts/FundMe.sol\":1041:1063  index < funders.length */\n      lt\n        /* \"contracts/FundMe.sol\":1017:1174  for( uint256 index = 0; index < funders.length; index++) {... */\n      iszero\n      tag_41\n      jumpi\n        /* \"contracts/FundMe.sol\":1089:1103  address funder */\n      0x00\n        /* \"contracts/FundMe.sol\":1106:1113  funders */\n      dup1\n        /* \"contracts/FundMe.sol\":1114:1119  index */\n      dup3\n        /* \"contracts/FundMe.sol\":1106:1120  funders[index] */\n      dup2\n      sload\n      dup2\n      lt\n      tag_43\n      jumpi\n      tag_44\n      tag_45\n      jump\t// in\n    tag_44:\n    tag_43:\n      swap1\n      0x00\n      mstore\n      keccak256(0x00, 0x20)\n      add\n      0x00\n      swap1\n      sload\n      swap1\n      0x0100\n      exp\n      swap1\n      div\n      0xffffffffffffffffffffffffffffffffffffffff\n      and\n        /* \"contracts/FundMe.sol\":1089:1120  address funder = funders[index] */\n      swap1\n      pop\n        /* \"contracts/FundMe.sol\":1161:1162  0 */\n      0x00\n        /* \"contracts/FundMe.sol\":1135:1150  addressToAmount */\n      0x01\n        /* \"contracts/FundMe.sol\":1135:1158  addressToAmount[funder] */\n      0x00\n        /* \"contracts/FundMe.sol\":1151:1157  funder */\n      dup4\n        /* \"contracts/FundMe.sol\":1135:1158  addressToAmount[funder] */\n      0xffffffffffffffffffffffffffffffffffffffff\n      and\n      0xffffffffffffffffffffffffffffffffffffffff\n      and\n      dup2\n      mstore\n      0x20\n      add\n      swap1\n      dup2\n      mstore\n      0x20\n      add\n      0x00\n      keccak256\n        /* \"contracts/FundMe.sol\":1135:1162  addressToAmount[funder] = 0 */\n      dup2\n      swap1\n      sstore\n      pop\n        /* \"contracts/FundMe.sol\":1074:1174  {... */\n      pop\n        /* \"contracts/FundMe.sol\":1065:1072  index++ */\n      dup1\n      dup1\n      tag_47\n      swap1\n      tag_48\n      jump\t// in\n    tag_47:\n      swap2\n      pop\n      pop\n        /* \"contracts/FundMe.sol\":1017:1174  for( uint256 index = 0; index < funders.length; index++) {... */\n      jump(tag_40)\n    tag_41:\n      pop\n        /* \"contracts/FundMe.sol\":1251:1252  0 */\n      0x00\n        /* \"contracts/FundMe.sol\":1237:1253  new address[](0) */\n      0xffffffffffffffff\n      dup2\n      gt\n      iszero\n      tag_49\n      jumpi\n      tag_50\n      tag_51\n      jump\t// in\n    tag_50:\n    tag_49:\n      mload(0x40)\n      swap1\n      dup1\n      dup3\n      mstore\n      dup1\n      0x20\n      mul\n      0x20\n      add\n      dup3\n      add\n      0x40\n      mstore\n      dup1\n      iszero\n      tag_52\n      jumpi\n      dup2\n      0x20\n      add\n      0x20\n      dup3\n      mul\n      dup1\n      calldatasize\n      dup4\n      calldatacopy\n      dup1\n      dup3\n      add\n      swap2\n      pop\n      pop\n      swap1\n      pop\n    tag_52:\n      pop\n        /* \"contracts/FundMe.sol\":1227:1234  funders */\n      0x00\n        /* \"contracts/FundMe.sol\":1227:1253  funders = new address[](0) */\n      swap1\n      dup1\n      mload\n      swap1\n      0x20\n      add\n      swap1\n      tag_53\n      swap3\n      swap2\n      swap1\n      tag_54\n      jump\t// in\n    tag_53:\n      pop\n        /* \"contracts/FundMe.sol\":2094:2110  bool callSuccess */\n      0x00\n        /* \"contracts/FundMe.sol\":2123:2133  msg.sender */\n      caller\n        /* \"contracts/FundMe.sol\":2115:2139  payable(msg.sender).call */\n      0xffffffffffffffffffffffffffffffffffffffff\n      and\n        /* \"contracts/FundMe.sol\":2147:2168  address(this).balance */\n      selfbalance\n        /* \"contracts/FundMe.sol\":2115:2173  payable(msg.sender).call{value: address(this).balance}(\"\") */\n      mload(0x40)\n      tag_55\n      swap1\n      tag_56\n      jump\t// in\n    tag_55:\n      0x00\n      mload(0x40)\n      dup1\n      dup4\n      sub\n      dup2\n      dup6\n      dup8\n      gas\n      call\n      swap3\n      pop\n      pop\n      pop\n      returndatasize\n      dup1\n      0x00\n      dup2\n      eq\n      tag_59\n      jumpi\n      mload(0x40)\n      swap2\n      pop\n      and(add(returndatasize, 0x3f), not(0x1f))\n      dup3\n      add\n      0x40\n      mstore\n      returndatasize\n      dup3\n      mstore\n      returndatasize\n      0x00\n      0x20\n      dup5\n      add\n      returndatacopy\n      jump(tag_58)\n    tag_59:\n      0x60\n      swap2\n      pop\n    tag_58:\n      pop\n        /* \"contracts/FundMe.sol\":2093:2173  (bool callSuccess,) = payable(msg.sender).call{value: address(this).balance}(\"\") */\n      pop\n      swap1\n      pop\n        /* \"contracts/FundMe.sol\":2192:2203  callSuccess */\n      dup1\n        /* \"contracts/FundMe.sol\":2184:2219  require(callSuccess, \"Call Failed\") */\n      tag_60\n      jumpi\n      mload(0x40)\n      0x08c379a000000000000000000000000000000000000000000000000000000000\n      dup2\n      mstore\n      0x04\n      add\n      tag_61\n      swap1\n      tag_62\n      jump\t// in\n    tag_61:\n      mload(0x40)\n      dup1\n      swap2\n      sub\n      swap1\n      revert\n    tag_60:\n        /* \"contracts/FundMe.sol\":1004:2227  {... */\n      pop\n        /* \"contracts/FundMe.sol\":967:2227  function withdraw() public onlyOwner {... */\n      jump\t// out\n        /* \"contracts/FundMe.sol\":465:485  address public owner */\n    tag_24:\n      0x02\n      0x00\n      swap1\n      sload\n      swap1\n      0x0100\n      exp\n      swap1\n      div\n      0xffffffffffffffffffffffffffffffffffffffff\n      and\n      dup2\n      jump\t// out\n        /* \"contracts/FundMe.sol\":735:959  function fund() public payable {... */\n    tag_28:\n        /* \"contracts/FundMe.sol\":357:366  50 * 1e18 */\n      0x02b5e3af16b1880000\n        /* \"contracts/FundMe.sol\":785:814  msg.value.getConversionRate() */\n      tag_64\n        /* \"contracts/FundMe.sol\":785:794  msg.value */\n      callvalue\n        /* \"contracts/FundMe.sol\":785:812  msg.value.getConversionRate */\n      tag_65\n        /* \"contracts/FundMe.sol\":785:814  msg.value.getConversionRate() */\n      jump\t// in\n    tag_64:\n        /* \"contracts/FundMe.sol\":785:825  msg.value.getConversionRate() >= MIN_USD */\n      lt\n      iszero\n        /* \"contracts/FundMe.sol\":777:865  require(msg.value.getConversionRate() >= MIN_USD, \"Funding amount must be at least $50\") */\n      tag_66\n      jumpi\n      mload(0x40)\n      0x08c379a000000000000000000000000000000000000000000000000000000000\n      dup2\n      mstore\n      0x04\n      add\n      tag_67\n      swap1\n      tag_68\n      jump\t// in\n    tag_67:\n      mload(0x40)\n      dup1\n      swap2\n      sub\n      swap1\n      revert\n    tag_66:\n        /* \"contracts/FundMe.sol\":876:883  funders */\n      0x00\n        /* \"contracts/FundMe.sol\":889:899  msg.sender */\n      caller\n        /* \"contracts/FundMe.sol\":876:900  funders.push(msg.sender) */\n      swap1\n      dup1\n      0x01\n      dup2\n      sload\n      add\n      dup1\n      dup3\n      sstore\n      dup1\n      swap2\n      pop\n      pop\n      0x01\n      swap1\n      sub\n      swap1\n      0x00\n      mstore\n      keccak256(0x00, 0x20)\n      add\n      0x00\n      swap1\n      swap2\n      swap1\n      swap2\n      swap1\n      swap2\n      0x0100\n      exp\n      dup2\n      sload\n      dup2\n      0xffffffffffffffffffffffffffffffffffffffff\n      mul\n      not\n      and\n      swap1\n      dup4\n      0xffffffffffffffffffffffffffffffffffffffff\n      and\n      mul\n      or\n      swap1\n      sstore\n      pop\n        /* \"contracts/FundMe.sol\":942:951  msg.value */\n      callvalue\n        /* \"contracts/FundMe.sol\":911:926  addressToAmount */\n      0x01\n        /* \"contracts/FundMe.sol\":911:938  addressToAmount[msg.sender] */\n      0x00\n        /* \"contracts/FundMe.sol\":927:937  msg.sender */\n      caller\n        /* \"contracts/FundMe.sol\":911:938  addressToAmount[msg.sender] */\n      0xffffffffffffffffffffffffffffffffffffffff\n      and\n      0xffffffffffffffffffffffffffffffffffffffff\n      and\n      dup2\n      mstore\n      0x20\n      add\n      swap1\n      dup2\n      mstore\n      0x20\n      add\n      0x00\n      keccak256\n      0x00\n        /* \"contracts/FundMe.sol\":911:951  addressToAmount[msg.sender] += msg.value */\n      dup3\n      dup3\n      sload\n      tag_70\n      swap2\n      swap1\n      tag_71\n      jump\t// in\n    tag_70:\n      swap3\n      pop\n      pop\n      dup2\n      swap1\n      sstore\n      pop\n        /* \"contracts/FundMe.sol\":735:959  function fund() public payable {... */\n      jump\t// out\n        /* \"contracts/FundMe.sol\":375:399  address[] public funders */\n    tag_33:\n      0x00\n      dup2\n      dup2\n      sload\n      dup2\n      lt\n      tag_72\n      jumpi\n      0x00\n      dup1\n      revert\n    tag_72:\n      swap1\n      0x00\n      mstore\n      keccak256(0x00, 0x20)\n      add\n      0x00\n      swap2\n      pop\n      sload\n      swap1\n      0x0100\n      exp\n      swap1\n      div\n      0xffffffffffffffffffffffffffffffffffffffff\n      and\n      dup2\n      jump\t// out\n        /* \"contracts/PriceConverter.sol\":435:658  function getConversionRate(uint256 ethAmount) internal view returns (uint256) {... */\n    tag_65:\n        /* \"contracts/PriceConverter.sol\":504:511  uint256 */\n      0x00\n        /* \"contracts/PriceConverter.sol\":524:540  uint256 ethPrice */\n      dup1\n        /* \"contracts/PriceConverter.sol\":543:553  getPrice() */\n      tag_75\n        /* \"contracts/PriceConverter.sol\":543:551  getPrice */\n      tag_76\n        /* \"contracts/PriceConverter.sol\":543:553  getPrice() */\n      jump\t// in\n    tag_75:\n        /* \"contracts/PriceConverter.sol\":524:553  uint256 ethPrice = getPrice() */\n      swap1\n      pop\n        /* \"contracts/PriceConverter.sol\":564:586  uint256 ethAmountInUsd */\n      0x00\n        /* \"contracts/PriceConverter.sol\":614:618  1e18 */\n      0x0de0b6b3a7640000\n        /* \"contracts/PriceConverter.sol\":601:610  ethAmount */\n      dup5\n        /* \"contracts/PriceConverter.sol\":590:598  ethPrice */\n      dup4\n        /* \"contracts/PriceConverter.sol\":590:610  ethPrice * ethAmount */\n      tag_77\n      swap2\n      swap1\n      tag_78\n      jump\t// in\n    tag_77:\n        /* \"contracts/PriceConverter.sol\":589:618  (ethPrice * ethAmount) / 1e18 */\n      tag_79\n      swap2\n      swap1\n      tag_80\n      jump\t// in\n    tag_79:\n        /* \"contracts/PriceConverter.sol\":564:618  uint256 ethAmountInUsd = (ethPrice * ethAmount) / 1e18 */\n      swap1\n      pop\n        /* \"contracts/PriceConverter.sol\":636:650  ethAmountInUsd */\n      dup1\n        /* \"contracts/PriceConverter.sol\":629:650  return ethAmountInUsd */\n      swap3\n      pop\n      pop\n      pop\n        /* \"contracts/PriceConverter.sol\":435:658  function getConversionRate(uint256 ethAmount) internal view returns (uint256) {... */\n      swap2\n      swap1\n      pop\n      jump\t// out\n        /* \"contracts/PriceConverter.sol\":174:427  function getPrice() internal view returns(uint256) {... */\n    tag_76:\n        /* \"contracts/PriceConverter.sol\":216:223  uint256 */\n      0x00\n        /* \"contracts/PriceConverter.sol\":232:263  AggregatorV3Interface priceFeed */\n      dup1\n        /* \"contracts/PriceConverter.sol\":288:330  0x8A753747A1Fa494EC906cE90E9f37563A8AF630e */\n      0x8a753747a1fa494ec906ce90e9f37563a8af630e\n        /* \"contracts/PriceConverter.sol\":232:331  AggregatorV3Interface priceFeed = AggregatorV3Interface(0x8A753747A1Fa494EC906cE90E9f37563A8AF630e) */\n      swap1\n      pop\n        /* \"contracts/PriceConverter.sol\":341:350  int price */\n      0x00\n        /* \"contracts/PriceConverter.sol\":357:366  priceFeed */\n      dup2\n        /* \"contracts/PriceConverter.sol\":357:382  priceFeed.latestRoundData */\n      0xffffffffffffffffffffffffffffffffffffffff\n      and\n      0xfeaf968c\n        /* \"contracts/PriceConverter.sol\":357:384  priceFeed.latestRoundData() */\n      mload(0x40)\n      dup2\n      0xffffffff\n      and\n      0xe0\n      shl\n      dup2\n      mstore\n      0x04\n      add\n      0xa0\n      mload(0x40)\n      dup1\n      dup4\n      sub\n      dup2\n      dup7\n      gas\n      staticcall\n      iszero\n      dup1\n      iszero\n      tag_83\n      jumpi\n      returndatasize\n      0x00\n      dup1\n      returndatacopy\n      revert(0x00, returndatasize)\n    tag_83:\n      pop\n      pop\n      pop\n      pop\n      mload(0x40)\n      returndatasize\n      not(0x1f)\n      0x1f\n      dup3\n      add\n      and\n      dup3\n      add\n      dup1\n      0x40\n      mstore\n      pop\n      dup2\n      add\n      swap1\n      tag_84\n      swap2\n      swap1\n      tag_85\n      jump\t// in\n    tag_84:\n        /* \"contracts/PriceConverter.sol\":338:384  (, int price,,,) = priceFeed.latestRoundData() */\n      pop\n      pop\n      pop\n      swap2\n      pop\n      pop\n        /* \"contracts/PriceConverter.sol\":414:418  1e10 */\n      0x02540be400\n        /* \"contracts/PriceConverter.sol\":406:411  price */\n      dup2\n        /* \"contracts/PriceConverter.sol\":406:418  price * 1e10 */\n      tag_86\n      swap2\n      swap1\n      tag_87\n      jump\t// in\n    tag_86:\n        /* \"contracts/PriceConverter.sol\":391:419  return uint256(price * 1e10) */\n      swap3\n      pop\n      pop\n      pop\n        /* \"contracts/PriceConverter.sol\":174:427  function getPrice() internal view returns(uint256) {... */\n      swap1\n      jump\t// out\n    tag_54:\n      dup3\n      dup1\n      sload\n      dup3\n      dup3\n      sstore\n      swap1\n      0x00\n      mstore\n      keccak256(0x00, 0x20)\n      swap1\n      dup2\n      add\n      swap3\n      dup3\n      iszero\n      tag_88\n      jumpi\n      swap2\n      0x20\n      mul\n      dup3\n      add\n    tag_89:\n      dup3\n      dup2\n      gt\n      iszero\n      tag_90\n      jumpi\n      dup3\n      mload\n      dup3\n      exp(0x0100, 0x00)\n      dup2\n      sload\n      dup2\n      0xffffffffffffffffffffffffffffffffffffffff\n      mul\n      not\n      and\n      swap1\n      dup4\n      0xffffffffffffffffffffffffffffffffffffffff\n      and\n      mul\n      or\n      swap1\n      sstore\n      pop\n      swap2\n      0x20\n      add\n      swap2\n      swap1\n      0x01\n      add\n      swap1\n      jump(tag_89)\n    tag_90:\n    tag_88:\n      pop\n      swap1\n      pop\n      tag_91\n      swap2\n      swap1\n      tag_92\n      jump\t// in\n    tag_91:\n      pop\n      swap1\n      jump\t// out\n    tag_92:\n    tag_93:\n      dup1\n      dup3\n      gt\n      iszero\n      tag_94\n      jumpi\n      0x00\n      dup2\n      0x00\n      swap1\n      sstore\n      pop\n      0x01\n      add\n      jump(tag_93)\n    tag_94:\n      pop\n      swap1\n      jump\t// out\n        /* \"#utility.yul\":7:84   */\n    tag_95:\n        /* \"#utility.yul\":44:51   */\n      0x00\n        /* \"#utility.yul\":73:78   */\n      dup2\n        /* \"#utility.yul\":62:78   */\n      swap1\n      pop\n        /* \"#utility.yul\":7:84   */\n      swap2\n      swap1\n      pop\n      jump\t// out\n        /* \"#utility.yul\":90:208   */\n    tag_96:\n        /* \"#utility.yul\":177:201   */\n      tag_129\n        /* \"#utility.yul\":195:200   */\n      dup2\n        /* \"#utility.yul\":177:201   */\n      tag_95\n      jump\t// in\n    tag_129:\n        /* \"#utility.yul\":172:175   */\n      dup3\n        /* \"#utility.yul\":165:202   */\n      mstore\n        /* \"#utility.yul\":90:208   */\n      pop\n      pop\n      jump\t// out\n        /* \"#utility.yul\":214:436   */\n    tag_12:\n        /* \"#utility.yul\":307:311   */\n      0x00\n        /* \"#utility.yul\":345:347   */\n      0x20\n        /* \"#utility.yul\":334:343   */\n      dup3\n        /* \"#utility.yul\":330:348   */\n      add\n        /* \"#utility.yul\":322:348   */\n      swap1\n      pop\n        /* \"#utility.yul\":358:429   */\n      tag_131\n        /* \"#utility.yul\":426:427   */\n      0x00\n        /* \"#utility.yul\":415:424   */\n      dup4\n        /* \"#utility.yul\":411:428   */\n      add\n        /* \"#utility.yul\":402:408   */\n      dup5\n        /* \"#utility.yul\":358:429   */\n      tag_96\n      jump\t// in\n    tag_131:\n        /* \"#utility.yul\":214:436   */\n      swap3\n      swap2\n      pop\n      pop\n      jump\t// out\n        /* \"#utility.yul\":523:640   */\n    tag_98:\n        /* \"#utility.yul\":632:633   */\n      0x00\n        /* \"#utility.yul\":629:630   */\n      dup1\n        /* \"#utility.yul\":622:634   */\n      revert\n        /* \"#utility.yul\":769:895   */\n    tag_100:\n        /* \"#utility.yul\":806:813   */\n      0x00\n        /* \"#utility.yul\":846:888   */\n      0xffffffffffffffffffffffffffffffffffffffff\n        /* \"#utility.yul\":839:844   */\n      dup3\n        /* \"#utility.yul\":835:889   */\n      and\n        /* \"#utility.yul\":824:889   */\n      swap1\n      pop\n        /* \"#utility.yul\":769:895   */\n      swap2\n      swap1\n      pop\n      jump\t// out\n        /* \"#utility.yul\":901:997   */\n    tag_101:\n        /* \"#utility.yul\":938:945   */\n      0x00\n        /* \"#utility.yul\":967:991   */\n      tag_137\n        /* \"#utility.yul\":985:990   */\n      dup3\n        /* \"#utility.yul\":967:991   */\n      tag_100\n      jump\t// in\n    tag_137:\n        /* \"#utility.yul\":956:991   */\n      swap1\n      pop\n        /* \"#utility.yul\":901:997   */\n      swap2\n      swap1\n      pop\n      jump\t// out\n        /* \"#utility.yul\":1003:1125   */\n    tag_102:\n        /* \"#utility.yul\":1076:1100   */\n      tag_139\n        /* \"#utility.yul\":1094:1099   */\n      dup2\n        /* \"#utility.yul\":1076:1100   */\n      tag_101\n      jump\t// in\n    tag_139:\n        /* \"#utility.yul\":1069:1074   */\n      dup2\n        /* \"#utility.yul\":1066:1101   */\n      eq\n        /* \"#utility.yul\":1056:1119   */\n      tag_140\n      jumpi\n        /* \"#utility.yul\":1115:1116   */\n      0x00\n        /* \"#utility.yul\":1112:1113   */\n      dup1\n        /* \"#utility.yul\":1105:1117   */\n      revert\n        /* \"#utility.yul\":1056:1119   */\n    tag_140:\n        /* \"#utility.yul\":1003:1125   */\n      pop\n      jump\t// out\n        /* \"#utility.yul\":1131:1270   */\n    tag_103:\n        /* \"#utility.yul\":1177:1182   */\n      0x00\n        /* \"#utility.yul\":1215:1221   */\n      dup2\n        /* \"#utility.yul\":1202:1222   */\n      calldataload\n        /* \"#utility.yul\":1193:1222   */\n      swap1\n      pop\n        /* \"#utility.yul\":1231:1264   */\n      tag_142\n        /* \"#utility.yul\":1258:1263   */\n      dup2\n        /* \"#utility.yul\":1231:1264   */\n      tag_102\n      jump\t// in\n    tag_142:\n        /* \"#utility.yul\":1131:1270   */\n      swap3\n      swap2\n      pop\n      pop\n      jump\t// out\n        /* \"#utility.yul\":1276:1605   */\n    tag_16:\n        /* \"#utility.yul\":1335:1341   */\n      0x00\n        /* \"#utility.yul\":1384:1386   */\n      0x20\n        /* \"#utility.yul\":1372:1381   */\n      dup3\n        /* \"#utility.yul\":1363:1370   */\n      dup5\n        /* \"#utility.yul\":1359:1382   */\n      sub\n        /* \"#utility.yul\":1355:1387   */\n      slt\n        /* \"#utility.yul\":1352:1471   */\n      iszero\n      tag_144\n      jumpi\n        /* \"#utility.yul\":1390:1469   */\n      tag_145\n      tag_98\n      jump\t// in\n    tag_145:\n        /* \"#utility.yul\":1352:1471   */\n    tag_144:\n        /* \"#utility.yul\":1510:1511   */\n      0x00\n        /* \"#utility.yul\":1535:1588   */\n      tag_146\n        /* \"#utility.yul\":1580:1587   */\n      dup5\n        /* \"#utility.yul\":1571:1577   */\n      dup3\n        /* \"#utility.yul\":1560:1569   */\n      dup6\n        /* \"#utility.yul\":1556:1578   */\n      add\n        /* \"#utility.yul\":1535:1588   */\n      tag_103\n      jump\t// in\n    tag_146:\n        /* \"#utility.yul\":1525:1588   */\n      swap2\n      pop\n        /* \"#utility.yul\":1481:1598   */\n      pop\n        /* \"#utility.yul\":1276:1605   */\n      swap3\n      swap2\n      pop\n      pop\n      jump\t// out\n        /* \"#utility.yul\":1611:1729   */\n    tag_104:\n        /* \"#utility.yul\":1698:1722   */\n      tag_148\n        /* \"#utility.yul\":1716:1721   */\n      dup2\n        /* \"#utility.yul\":1698:1722   */\n      tag_101\n      jump\t// in\n    tag_148:\n        /* \"#utility.yul\":1693:1696   */\n      dup3\n        /* \"#utility.yul\":1686:1723   */\n      mstore\n        /* \"#utility.yul\":1611:1729   */\n      pop\n      pop\n      jump\t// out\n        /* \"#utility.yul\":1735:1957   */\n    tag_26:\n        /* \"#utility.yul\":1828:1832   */\n      0x00\n        /* \"#utility.yul\":1866:1868   */\n      0x20\n        /* \"#utility.yul\":1855:1864   */\n      dup3\n        /* \"#utility.yul\":1851:1869   */\n      add\n        /* \"#utility.yul\":1843:1869   */\n      swap1\n      pop\n        /* \"#utility.yul\":1879:1950   */\n      tag_150\n        /* \"#utility.yul\":1947:1948   */\n      0x00\n        /* \"#utility.yul\":1936:1945   */\n      dup4\n        /* \"#utility.yul\":1932:1949   */\n      add\n        /* \"#utility.yul\":1923:1929   */\n      dup5\n        /* \"#utility.yul\":1879:1950   */\n      tag_104\n      jump\t// in\n    tag_150:\n        /* \"#utility.yul\":1735:1957   */\n      swap3\n      swap2\n      pop\n      pop\n      jump\t// out\n        /* \"#utility.yul\":1963:2085   */\n    tag_105:\n        /* \"#utility.yul\":2036:2060   */\n      tag_152\n        /* \"#utility.yul\":2054:2059   */\n      dup2\n        /* \"#utility.yul\":2036:2060   */\n      tag_95\n      jump\t// in\n    tag_152:\n        /* \"#utility.yul\":2029:2034   */\n      dup2\n        /* \"#utility.yul\":2026:2061   */\n      eq\n        /* \"#utility.yul\":2016:2079   */\n      tag_153\n      jumpi\n        /* \"#utility.yul\":2075:2076   */\n      0x00\n        /* \"#utility.yul\":2072:2073   */\n      dup1\n        /* \"#utility.yul\":2065:2077   */\n      revert\n        /* \"#utility.yul\":2016:2079   */\n    tag_153:\n        /* \"#utility.yul\":1963:2085   */\n      pop\n      jump\t// out\n        /* \"#utility.yul\":2091:2230   */\n    tag_106:\n        /* \"#utility.yul\":2137:2142   */\n      0x00\n        /* \"#utility.yul\":2175:2181   */\n      dup2\n        /* \"#utility.yul\":2162:2182   */\n      calldataload\n        /* \"#utility.yul\":2153:2182   */\n      swap1\n      pop\n        /* \"#utility.yul\":2191:2224   */\n      tag_155\n        /* \"#utility.yul\":2218:2223   */\n      dup2\n        /* \"#utility.yul\":2191:2224   */\n      tag_105\n      jump\t// in\n    tag_155:\n        /* \"#utility.yul\":2091:2230   */\n      swap3\n      swap2\n      pop\n      pop\n      jump\t// out\n        /* \"#utility.yul\":2236:2565   */\n    tag_32:\n        /* \"#utility.yul\":2295:2301   */\n      0x00\n        /* \"#utility.yul\":2344:2346   */\n      0x20\n        /* \"#utility.yul\":2332:2341   */\n      dup3\n        /* \"#utility.yul\":2323:2330   */\n      dup5\n        /* \"#utility.yul\":2319:2342   */\n      sub\n        /* \"#utility.yul\":2315:2347   */\n      slt\n        /* \"#utility.yul\":2312:2431   */\n      iszero\n      tag_157\n      jumpi\n        /* \"#utility.yul\":2350:2429   */\n      tag_158\n      tag_98\n      jump\t// in\n    tag_158:\n        /* \"#utility.yul\":2312:2431   */\n    tag_157:\n        /* \"#utility.yul\":2470:2471   */\n      0x00\n        /* \"#utility.yul\":2495:2548   */\n      tag_159\n        /* \"#utility.yul\":2540:2547   */\n      dup5\n        /* \"#utility.yul\":2531:2537   */\n      dup3\n        /* \"#utility.yul\":2520:2529   */\n      dup6\n        /* \"#utility.yul\":2516:2538   */\n      add\n        /* \"#utility.yul\":2495:2548   */\n      tag_106\n      jump\t// in\n    tag_159:\n        /* \"#utility.yul\":2485:2548   */\n      swap2\n      pop\n        /* \"#utility.yul\":2441:2558   */\n      pop\n        /* \"#utility.yul\":2236:2565   */\n      swap3\n      swap2\n      pop\n      pop\n      jump\t// out\n        /* \"#utility.yul\":2571:2740   */\n    tag_107:\n        /* \"#utility.yul\":2655:2666   */\n      0x00\n        /* \"#utility.yul\":2689:2695   */\n      dup3\n        /* \"#utility.yul\":2684:2687   */\n      dup3\n        /* \"#utility.yul\":2677:2696   */\n      mstore\n        /* \"#utility.yul\":2729:2733   */\n      0x20\n        /* \"#utility.yul\":2724:2727   */\n      dup3\n        /* \"#utility.yul\":2720:2734   */\n      add\n        /* \"#utility.yul\":2705:2734   */\n      swap1\n      pop\n        /* \"#utility.yul\":2571:2740   */\n      swap3\n      swap2\n      pop\n      pop\n      jump\t// out\n        /* \"#utility.yul\":2746:2983   */\n    tag_108:\n        /* \"#utility.yul\":2886:2920   */\n      0x4f6e6c7920746865206f776e6572206f662074686520636f6e74726163742063\n        /* \"#utility.yul\":2882:2883   */\n      0x00\n        /* \"#utility.yul\":2874:2880   */\n      dup3\n        /* \"#utility.yul\":2870:2884   */\n      add\n        /* \"#utility.yul\":2863:2921   */\n      mstore\n        /* \"#utility.yul\":2955:2975   */\n      0x616e2077697468647261772066756e6473210000000000000000000000000000\n        /* \"#utility.yul\":2950:2952   */\n      0x20\n        /* \"#utility.yul\":2942:2948   */\n      dup3\n        /* \"#utility.yul\":2938:2953   */\n      add\n        /* \"#utility.yul\":2931:2976   */\n      mstore\n        /* \"#utility.yul\":2746:2983   */\n      pop\n      jump\t// out\n        /* \"#utility.yul\":2989:3355   */\n    tag_109:\n        /* \"#utility.yul\":3131:3134   */\n      0x00\n        /* \"#utility.yul\":3152:3219   */\n      tag_163\n        /* \"#utility.yul\":3216:3218   */\n      0x32\n        /* \"#utility.yul\":3211:3214   */\n      dup4\n        /* \"#utility.yul\":3152:3219   */\n      tag_107\n      jump\t// in\n    tag_163:\n        /* \"#utility.yul\":3145:3219   */\n      swap2\n      pop\n        /* \"#utility.yul\":3228:3321   */\n      tag_164\n        /* \"#utility.yul\":3317:3320   */\n      dup3\n        /* \"#utility.yul\":3228:3321   */\n      tag_108\n      jump\t// in\n    tag_164:\n        /* \"#utility.yul\":3346:3348   */\n      0x40\n        /* \"#utility.yul\":3341:3344   */\n      dup3\n        /* \"#utility.yul\":3337:3349   */\n      add\n        /* \"#utility.yul\":3330:3349   */\n      swap1\n      pop\n        /* \"#utility.yul\":2989:3355   */\n      swap2\n      swap1\n      pop\n      jump\t// out\n        /* \"#utility.yul\":3361:3780   */\n    tag_38:\n        /* \"#utility.yul\":3527:3531   */\n      0x00\n        /* \"#utility.yul\":3565:3567   */\n      0x20\n        /* \"#utility.yul\":3554:3563   */\n      dup3\n        /* \"#utility.yul\":3550:3568   */\n      add\n        /* \"#utility.yul\":3542:3568   */\n      swap1\n      pop\n        /* \"#utility.yul\":3614:3623   */\n      dup2\n        /* \"#utility.yul\":3608:3612   */\n      dup2\n        /* \"#utility.yul\":3604:3624   */\n      sub\n        /* \"#utility.yul\":3600:3601   */\n      0x00\n        /* \"#utility.yul\":3589:3598   */\n      dup4\n        /* \"#utility.yul\":3585:3602   */\n      add\n        /* \"#utility.yul\":3578:3625   */\n      mstore\n        /* \"#utility.yul\":3642:3773   */\n      tag_166\n        /* \"#utility.yul\":3768:3772   */\n      dup2\n        /* \"#utility.yul\":3642:3773   */\n      tag_109\n      jump\t// in\n    tag_166:\n        /* \"#utility.yul\":3634:3773   */\n      swap1\n      pop\n        /* \"#utility.yul\":3361:3780   */\n      swap2\n      swap1\n      pop\n      jump\t// out\n        /* \"#utility.yul\":3786:3966   */\n    tag_45:\n        /* \"#utility.yul\":3834:3911   */\n      0x4e487b7100000000000000000000000000000000000000000000000000000000\n        /* \"#utility.yul\":3831:3832   */\n      0x00\n        /* \"#utility.yul\":3824:3912   */\n      mstore\n        /* \"#utility.yul\":3931:3935   */\n      0x32\n        /* \"#utility.yul\":3928:3929   */\n      0x04\n        /* \"#utility.yul\":3921:3936   */\n      mstore\n        /* \"#utility.yul\":3955:3959   */\n      0x24\n        /* \"#utility.yul\":3952:3953   */\n      0x00\n        /* \"#utility.yul\":3945:3960   */\n      revert\n        /* \"#utility.yul\":3972:4152   */\n    tag_110:\n        /* \"#utility.yul\":4020:4097   */\n      0x4e487b7100000000000000000000000000000000000000000000000000000000\n        /* \"#utility.yul\":4017:4018   */\n      0x00\n        /* \"#utility.yul\":4010:4098   */\n      mstore\n        /* \"#utility.yul\":4117:4121   */\n      0x11\n        /* \"#utility.yul\":4114:4115   */\n      0x04\n        /* \"#utility.yul\":4107:4122   */\n      mstore\n        /* \"#utility.yul\":4141:4145   */\n      0x24\n        /* \"#utility.yul\":4138:4139   */\n      0x00\n        /* \"#utility.yul\":4131:4146   */\n      revert\n        /* \"#utility.yul\":4158:4391   */\n    tag_48:\n        /* \"#utility.yul\":4197:4200   */\n      0x00\n        /* \"#utility.yul\":4220:4244   */\n      tag_170\n        /* \"#utility.yul\":4238:4243   */\n      dup3\n        /* \"#utility.yul\":4220:4244   */\n      tag_95\n      jump\t// in\n    tag_170:\n        /* \"#utility.yul\":4211:4244   */\n      swap2\n      pop\n        /* \"#utility.yul\":4266:4332   */\n      0xffffffffffffffffffffffffffffffffffffffffffffffffffffffffffffffff\n        /* \"#utility.yul\":4259:4264   */\n      dup3\n        /* \"#utility.yul\":4256:4333   */\n      sub\n        /* \"#utility.yul\":4253:4356   */\n      tag_171\n      jumpi\n        /* \"#utility.yul\":4336:4354   */\n      tag_172\n      tag_110\n      jump\t// in\n    tag_172:\n        /* \"#utility.yul\":4253:4356   */\n    tag_171:\n        /* \"#utility.yul\":4383:4384   */\n      0x01\n        /* \"#utility.yul\":4376:4381   */\n      dup3\n        /* \"#utility.yul\":4372:4385   */\n      add\n        /* \"#utility.yul\":4365:4385   */\n      swap1\n      pop\n        /* \"#utility.yul\":4158:4391   */\n      swap2\n      swap1\n      pop\n      jump\t// out\n        /* \"#utility.yul\":4397:4577   */\n    tag_51:\n        /* \"#utility.yul\":4445:4522   */\n      0x4e487b7100000000000000000000000000000000000000000000000000000000\n        /* \"#utility.yul\":4442:4443   */\n      0x00\n        /* \"#utility.yul\":4435:4523   */\n      mstore\n        /* \"#utility.yul\":4542:4546   */\n      0x41\n        /* \"#utility.yul\":4539:4540   */\n      0x04\n        /* \"#utility.yul\":4532:4547   */\n      mstore\n        /* \"#utility.yul\":4566:4570   */\n      0x24\n        /* \"#utility.yul\":4563:4564   */\n      0x00\n        /* \"#utility.yul\":4556:4571   */\n      revert\n        /* \"#utility.yul\":4583:4730   */\n    tag_111:\n        /* \"#utility.yul\":4684:4695   */\n      0x00\n        /* \"#utility.yul\":4721:4724   */\n      dup2\n        /* \"#utility.yul\":4706:4724   */\n      swap1\n      pop\n        /* \"#utility.yul\":4583:4730   */\n      swap3\n      swap2\n      pop\n      pop\n      jump\t// out\n        /* \"#utility.yul\":4736:4850   */\n    tag_112:\n      pop\n      jump\t// out\n        /* \"#utility.yul\":4856:5254   */\n    tag_113:\n        /* \"#utility.yul\":5015:5018   */\n      0x00\n        /* \"#utility.yul\":5036:5119   */\n      tag_177\n        /* \"#utility.yul\":5117:5118   */\n      0x00\n        /* \"#utility.yul\":5112:5115   */\n      dup4\n        /* \"#utility.yul\":5036:5119   */\n      tag_111\n      jump\t// in\n    tag_177:\n        /* \"#utility.yul\":5029:5119   */\n      swap2\n      pop\n        /* \"#utility.yul\":5128:5221   */\n      tag_178\n        /* \"#utility.yul\":5217:5220   */\n      dup3\n        /* \"#utility.yul\":5128:5221   */\n      tag_112\n      jump\t// in\n    tag_178:\n        /* \"#utility.yul\":5246:5247   */\n      0x00\n        /* \"#utility.yul\":5241:5244   */\n      dup3\n        /* \"#utility.yul\":5237:5248   */\n      add\n        /* \"#utility.yul\":5230:5248   */\n      swap1\n      pop\n        /* \"#utility.yul\":4856:5254   */\n      swap2\n      swap1\n      pop\n      jump\t// out\n        /* \"#utility.yul\":5260:5639   */\n    tag_56:\n        /* \"#utility.yul\":5444:5447   */\n      0x00\n        /* \"#utility.yul\":5466:5613   */\n      tag_180\n        /* \"#utility.yul\":5609:5612   */\n      dup3\n        /* \"#utility.yul\":5466:5613   */\n      tag_113\n      jump\t// in\n    tag_180:\n        /* \"#utility.yul\":5459:5613   */\n      swap2\n      pop\n        /* \"#utility.yul\":5630:5633   */\n      dup2\n        /* \"#utility.yul\":5623:5633   */\n      swap1\n      pop\n        /* \"#utility.yul\":5260:5639   */\n      swap2\n      swap1\n      pop\n      jump\t// out\n        /* \"#utility.yul\":5645:5806   */\n    tag_114:\n        /* \"#utility.yul\":5785:5798   */\n      0x43616c6c204661696c6564000000000000000000000000000000000000000000\n        /* \"#utility.yul\":5781:5782   */\n      0x00\n        /* \"#utility.yul\":5773:5779   */\n      dup3\n        /* \"#utility.yul\":5769:5783   */\n      add\n        /* \"#utility.yul\":5762:5799   */\n      mstore\n        /* \"#utility.yul\":5645:5806   */\n      pop\n      jump\t// out\n        /* \"#utility.yul\":5812:6178   */\n    tag_115:\n        /* \"#utility.yul\":5954:5957   */\n      0x00\n        /* \"#utility.yul\":5975:6042   */\n      tag_183\n        /* \"#utility.yul\":6039:6041   */\n      0x0b\n        /* \"#utility.yul\":6034:6037   */\n      dup4\n        /* \"#utility.yul\":5975:6042   */\n      tag_107\n      jump\t// in\n    tag_183:\n        /* \"#utility.yul\":5968:6042   */\n      swap2\n      pop\n        /* \"#utility.yul\":6051:6144   */\n      tag_184\n        /* \"#utility.yul\":6140:6143   */\n      dup3\n        /* \"#utility.yul\":6051:6144   */\n      tag_114\n      jump\t// in\n    tag_184:\n        /* \"#utility.yul\":6169:6171   */\n      0x20\n        /* \"#utility.yul\":6164:6167   */\n      dup3\n        /* \"#utility.yul\":6160:6172   */\n      add\n        /* \"#utility.yul\":6153:6172   */\n      swap1\n      pop\n        /* \"#utility.yul\":5812:6178   */\n      swap2\n      swap1\n      pop\n      jump\t// out\n        /* \"#utility.yul\":6184:6603   */\n    tag_62:\n        /* \"#utility.yul\":6350:6354   */\n      0x00\n        /* \"#utility.yul\":6388:6390   */\n      0x20\n        /* \"#utility.yul\":6377:6386   */\n      dup3\n        /* \"#utility.yul\":6373:6391   */\n      add\n        /* \"#utility.yul\":6365:6391   */\n      swap1\n      pop\n        /* \"#utility.yul\":6437:6446   */\n      dup2\n        /* \"#utility.yul\":6431:6435   */\n      dup2\n        /* \"#utility.yul\":6427:6447   */\n      sub\n        /* \"#utility.yul\":6423:6424   */\n      0x00\n        /* \"#utility.yul\":6412:6421   */\n      dup4\n        /* \"#utility.yul\":6408:6425   */\n      add\n        /* \"#utility.yul\":6401:6448   */\n      mstore\n        /* \"#utility.yul\":6465:6596   */\n      tag_186\n        /* \"#utility.yul\":6591:6595   */\n      dup2\n        /* \"#utility.yul\":6465:6596   */\n      tag_115\n      jump\t// in\n    tag_186:\n        /* \"#utility.yul\":6457:6596   */\n      swap1\n      pop\n        /* \"#utility.yul\":6184:6603   */\n      swap2\n      swap1\n      pop\n      jump\t// out\n        /* \"#utility.yul\":6609:6831   */\n    tag_116:\n        /* \"#utility.yul\":6749:6783   */\n      0x46756e64696e6720616d6f756e74206d757374206265206174206c6561737420\n        /* \"#utility.yul\":6745:6746   */\n      0x00\n        /* \"#utility.yul\":6737:6743   */\n      dup3\n        /* \"#utility.yul\":6733:6747   */\n      add\n        /* \"#utility.yul\":6726:6784   */\n      mstore\n        /* \"#utility.yul\":6818:6823   */\n      0x2435300000000000000000000000000000000000000000000000000000000000\n        /* \"#utility.yul\":6813:6815   */\n      0x20\n        /* \"#utility.yul\":6805:6811   */\n      dup3\n        /* \"#utility.yul\":6801:6816   */\n      add\n        /* \"#utility.yul\":6794:6824   */\n      mstore\n        /* \"#utility.yul\":6609:6831   */\n      pop\n      jump\t// out\n        /* \"#utility.yul\":6837:7203   */\n    tag_117:\n        /* \"#utility.yul\":6979:6982   */\n      0x00\n        /* \"#utility.yul\":7000:7067   */\n      tag_189\n        /* \"#utility.yul\":7064:7066   */\n      0x23\n        /* \"#utility.yul\":7059:7062   */\n      dup4\n        /* \"#utility.yul\":7000:7067   */\n      tag_107\n      jump\t// in\n    tag_189:\n        /* \"#utility.yul\":6993:7067   */\n      swap2\n      pop\n        /* \"#utility.yul\":7076:7169   */\n      tag_190\n        /* \"#utility.yul\":7165:7168   */\n      dup3\n        /* \"#utility.yul\":7076:7169   */\n      tag_116\n      jump\t// in\n    tag_190:\n        /* \"#utility.yul\":7194:7196   */\n      0x40\n        /* \"#utility.yul\":7189:7192   */\n      dup3\n        /* \"#utility.yul\":7185:7197   */\n      add\n        /* \"#utility.yul\":7178:7197   */\n      swap1\n      pop\n        /* \"#utility.yul\":6837:7203   */\n      swap2\n      swap1\n      pop\n      jump\t// out\n        /* \"#utility.yul\":7209:7628   */\n    tag_68:\n        /* \"#utility.yul\":7375:7379   */\n      0x00\n        /* \"#utility.yul\":7413:7415   */\n      0x20\n        /* \"#utility.yul\":7402:7411   */\n      dup3\n        /* \"#utility.yul\":7398:7416   */\n      add\n        /* \"#utility.yul\":7390:7416   */\n      swap1\n      pop\n        /* \"#utility.yul\":7462:7471   */\n      dup2\n        /* \"#utility.yul\":7456:7460   */\n      dup2\n        /* \"#utility.yul\":7452:7472   */\n      sub\n        /* \"#utility.yul\":7448:7449   */\n      0x00\n        /* \"#utility.yul\":7437:7446   */\n      dup4\n        /* \"#utility.yul\":7433:7450   */\n      add\n        /* \"#utility.yul\":7426:7473   */\n      mstore\n        /* \"#utility.yul\":7490:7621   */\n      tag_192\n        /* \"#utility.yul\":7616:7620   */\n      dup2\n        /* \"#utility.yul\":7490:7621   */\n      tag_117\n      jump\t// in\n    tag_192:\n        /* \"#utility.yul\":7482:7621   */\n      swap1\n      pop\n        /* \"#utility.yul\":7209:7628   */\n      swap2\n      swap1\n      pop\n      jump\t// out\n        /* \"#utility.yul\":7634:7939   */\n    tag_71:\n        /* \"#utility.yul\":7674:7677   */\n      0x00\n        /* \"#utility.yul\":7693:7713   */\n      tag_194\n        /* \"#utility.yul\":7711:7712   */\n      dup3\n        /* \"#utility.yul\":7693:7713   */\n      tag_95\n      jump\t// in\n    tag_194:\n        /* \"#utility.yul\":7688:7713   */\n      swap2\n      pop\n        /* \"#utility.yul\":7727:7747   */\n      tag_195\n        /* \"#utility.yul\":7745:7746   */\n      dup4\n        /* \"#utility.yul\":7727:7747   */\n      tag_95\n      jump\t// in\n    tag_195:\n        /* \"#utility.yul\":7722:7747   */\n      swap3\n      pop\n        /* \"#utility.yul\":7881:7882   */\n      dup3\n        /* \"#utility.yul\":7813:7879   */\n      0xffffffffffffffffffffffffffffffffffffffffffffffffffffffffffffffff\n        /* \"#utility.yul\":7809:7883   */\n      sub\n        /* \"#utility.yul\":7806:7807   */\n      dup3\n        /* \"#utility.yul\":7803:7884   */\n      gt\n        /* \"#utility.yul\":7800:7907   */\n      iszero\n      tag_196\n      jumpi\n        /* \"#utility.yul\":7887:7905   */\n      tag_197\n      tag_110\n      jump\t// in\n    tag_197:\n        /* \"#utility.yul\":7800:7907   */\n    tag_196:\n        /* \"#utility.yul\":7931:7932   */\n      dup3\n        /* \"#utility.yul\":7928:7929   */\n      dup3\n        /* \"#utility.yul\":7924:7933   */\n      add\n        /* \"#utility.yul\":7917:7933   */\n      swap1\n      pop\n        /* \"#utility.yul\":7634:7939   */\n      swap3\n      swap2\n      pop\n      pop\n      jump\t// out\n        /* \"#utility.yul\":7945:8293   */\n    tag_78:\n        /* \"#utility.yul\":7985:7992   */\n      0x00\n        /* \"#utility.yul\":8008:8028   */\n      tag_199\n        /* \"#utility.yul\":8026:8027   */\n      dup3\n        /* \"#utility.yul\":8008:8028   */\n      tag_95\n      jump\t// in\n    tag_199:\n        /* \"#utility.yul\":8003:8028   */\n      swap2\n      pop\n        /* \"#utility.yul\":8042:8062   */\n      tag_200\n        /* \"#utility.yul\":8060:8061   */\n      dup4\n        /* \"#utility.yul\":8042:8062   */\n      tag_95\n      jump\t// in\n    tag_200:\n        /* \"#utility.yul\":8037:8062   */\n      swap3\n      pop\n        /* \"#utility.yul\":8230:8231   */\n      dup2\n        /* \"#utility.yul\":8162:8228   */\n      0xffffffffffffffffffffffffffffffffffffffffffffffffffffffffffffffff\n        /* \"#utility.yul\":8158:8232   */\n      div\n        /* \"#utility.yul\":8155:8156   */\n      dup4\n        /* \"#utility.yul\":8152:8233   */\n      gt\n        /* \"#utility.yul\":8147:8148   */\n      dup3\n        /* \"#utility.yul\":8140:8149   */\n      iszero\n        /* \"#utility.yul\":8133:8150   */\n      iszero\n        /* \"#utility.yul\":8129:8234   */\n      and\n        /* \"#utility.yul\":8126:8257   */\n      iszero\n      tag_201\n      jumpi\n        /* \"#utility.yul\":8237:8255   */\n      tag_202\n      tag_110\n      jump\t// in\n    tag_202:\n        /* \"#utility.yul\":8126:8257   */\n    tag_201:\n        /* \"#utility.yul\":8285:8286   */\n      dup3\n        /* \"#utility.yul\":8282:8283   */\n      dup3\n        /* \"#utility.yul\":8278:8287   */\n      mul\n        /* \"#utility.yul\":8267:8287   */\n      swap1\n      pop\n        /* \"#utility.yul\":7945:8293   */\n      swap3\n      swap2\n      pop\n      pop\n      jump\t// out\n        /* \"#utility.yul\":8299:8479   */\n    tag_118:\n        /* \"#utility.yul\":8347:8424   */\n      0x4e487b7100000000000000000000000000000000000000000000000000000000\n        /* \"#utility.yul\":8344:8345   */\n      0x00\n        /* \"#utility.yul\":8337:8425   */\n      mstore\n        /* \"#utility.yul\":8444:8448   */\n      0x12\n        /* \"#utility.yul\":8441:8442   */\n      0x04\n        /* \"#utility.yul\":8434:8449   */\n      mstore\n        /* \"#utility.yul\":8468:8472   */\n      0x24\n        /* \"#utility.yul\":8465:8466   */\n      0x00\n        /* \"#utility.yul\":8458:8473   */\n      revert\n        /* \"#utility.yul\":8485:8670   */\n    tag_80:\n        /* \"#utility.yul\":8525:8526   */\n      0x00\n        /* \"#utility.yul\":8542:8562   */\n      tag_205\n        /* \"#utility.yul\":8560:8561   */\n      dup3\n        /* \"#utility.yul\":8542:8562   */\n      tag_95\n      jump\t// in\n    tag_205:\n        /* \"#utility.yul\":8537:8562   */\n      swap2\n      pop\n        /* \"#utility.yul\":8576:8596   */\n      tag_206\n        /* \"#utility.yul\":8594:8595   */\n      dup4\n        /* \"#utility.yul\":8576:8596   */\n      tag_95\n      jump\t// in\n    tag_206:\n        /* \"#utility.yul\":8571:8596   */\n      swap3\n      pop\n        /* \"#utility.yul\":8615:8616   */\n      dup3\n        /* \"#utility.yul\":8605:8640   */\n      tag_207\n      jumpi\n        /* \"#utility.yul\":8620:8638   */\n      tag_208\n      tag_118\n      jump\t// in\n    tag_208:\n        /* \"#utility.yul\":8605:8640   */\n    tag_207:\n        /* \"#utility.yul\":8662:8663   */\n      dup3\n        /* \"#utility.yul\":8659:8660   */\n      dup3\n        /* \"#utility.yul\":8655:8664   */\n      div\n        /* \"#utility.yul\":8650:8664   */\n      swap1\n      pop\n        /* \"#utility.yul\":8485:8670   */\n      swap3\n      swap2\n      pop\n      pop\n      jump\t// out\n        /* \"#utility.yul\":8676:8781   */\n    tag_119:\n        /* \"#utility.yul\":8712:8719   */\n      0x00\n        /* \"#utility.yul\":8752:8774   */\n      0xffffffffffffffffffff\n        /* \"#utility.yul\":8745:8750   */\n      dup3\n        /* \"#utility.yul\":8741:8775   */\n      and\n        /* \"#utility.yul\":8730:8775   */\n      swap1\n      pop\n        /* \"#utility.yul\":8676:8781   */\n      swap2\n      swap1\n      pop\n      jump\t// out\n        /* \"#utility.yul\":8787:8907   */\n    tag_120:\n        /* \"#utility.yul\":8859:8882   */\n      tag_211\n        /* \"#utility.yul\":8876:8881   */\n      dup2\n        /* \"#utility.yul\":8859:8882   */\n      tag_119\n      jump\t// in\n    tag_211:\n        /* \"#utility.yul\":8852:8857   */\n      dup2\n        /* \"#utility.yul\":8849:8883   */\n      eq\n        /* \"#utility.yul\":8839:8901   */\n      tag_212\n      jumpi\n        /* \"#utility.yul\":8897:8898   */\n      0x00\n        /* \"#utility.yul\":8894:8895   */\n      dup1\n        /* \"#utility.yul\":8887:8899   */\n      revert\n        /* \"#utility.yul\":8839:8901   */\n    tag_212:\n        /* \"#utility.yul\":8787:8907   */\n      pop\n      jump\t// out\n        /* \"#utility.yul\":8913:9054   */\n    tag_121:\n        /* \"#utility.yul\":8969:8974   */\n      0x00\n        /* \"#utility.yul\":9000:9006   */\n      dup2\n        /* \"#utility.yul\":8994:9007   */\n      mload\n        /* \"#utility.yul\":8985:9007   */\n      swap1\n      pop\n        /* \"#utility.yul\":9016:9048   */\n      tag_214\n        /* \"#utility.yul\":9042:9047   */\n      dup2\n        /* \"#utility.yul\":9016:9048   */\n      tag_120\n      jump\t// in\n    tag_214:\n        /* \"#utility.yul\":8913:9054   */\n      swap3\n      swap2\n      pop\n      pop\n      jump\t// out\n        /* \"#utility.yul\":9060:9136   */\n    tag_122:\n        /* \"#utility.yul\":9096:9103   */\n      0x00\n        /* \"#utility.yul\":9125:9130   */\n      dup2\n        /* \"#utility.yul\":9114:9130   */\n      swap1\n      pop\n        /* \"#utility.yul\":9060:9136   */\n      swap2\n      swap1\n      pop\n      jump\t// out\n        /* \"#utility.yul\":9142:9262   */\n    tag_123:\n        /* \"#utility.yul\":9214:9237   */\n      tag_217\n        /* \"#utility.yul\":9231:9236   */\n      dup2\n        /* \"#utility.yul\":9214:9237   */\n      tag_122\n      jump\t// in\n    tag_217:\n        /* \"#utility.yul\":9207:9212   */\n      dup2\n        /* \"#utility.yul\":9204:9238   */\n      eq\n        /* \"#utility.yul\":9194:9256   */\n      tag_218\n      jumpi\n        /* \"#utility.yul\":9252:9253   */\n      0x00\n        /* \"#utility.yul\":9249:9250   */\n      dup1\n        /* \"#utility.yul\":9242:9254   */\n      revert\n        /* \"#utility.yul\":9194:9256   */\n    tag_218:\n        /* \"#utility.yul\":9142:9262   */\n      pop\n      jump\t// out\n        /* \"#utility.yul\":9268:9409   */\n    tag_124:\n        /* \"#utility.yul\":9324:9329   */\n      0x00\n        /* \"#utility.yul\":9355:9361   */\n      dup2\n        /* \"#utility.yul\":9349:9362   */\n      mload\n        /* \"#utility.yul\":9340:9362   */\n      swap1\n      pop\n        /* \"#utility.yul\":9371:9403   */\n      tag_220\n        /* \"#utility.yul\":9397:9402   */\n      dup2\n        /* \"#utility.yul\":9371:9403   */\n      tag_123\n      jump\t// in\n    tag_220:\n        /* \"#utility.yul\":9268:9409   */\n      swap3\n      swap2\n      pop\n      pop\n      jump\t// out\n        /* \"#utility.yul\":9415:9558   */\n    tag_125:\n        /* \"#utility.yul\":9472:9477   */\n      0x00\n        /* \"#utility.yul\":9503:9509   */\n      dup2\n        /* \"#utility.yul\":9497:9510   */\n      mload\n        /* \"#utility.yul\":9488:9510   */\n      swap1\n      pop\n        /* \"#utility.yul\":9519:9552   */\n      tag_222\n        /* \"#utility.yul\":9546:9551   */\n      dup2\n        /* \"#utility.yul\":9519:9552   */\n      tag_105\n      jump\t// in\n    tag_222:\n        /* \"#utility.yul\":9415:9558   */\n      swap3\n      swap2\n      pop\n      pop\n      jump\t// out\n        /* \"#utility.yul\":9564:10535   */\n    tag_85:\n        /* \"#utility.yul\":9667:9673   */\n      0x00\n        /* \"#utility.yul\":9675:9681   */\n      dup1\n        /* \"#utility.yul\":9683:9689   */\n      0x00\n        /* \"#utility.yul\":9691:9697   */\n      dup1\n        /* \"#utility.yul\":9699:9705   */\n      0x00\n        /* \"#utility.yul\":9748:9751   */\n      0xa0\n        /* \"#utility.yul\":9736:9745   */\n      dup7\n        /* \"#utility.yul\":9727:9734   */\n      dup9\n        /* \"#utility.yul\":9723:9746   */\n      sub\n        /* \"#utility.yul\":9719:9752   */\n      slt\n        /* \"#utility.yul\":9716:9836   */\n      iszero\n      tag_224\n      jumpi\n        /* \"#utility.yul\":9755:9834   */\n      tag_225\n      tag_98\n      jump\t// in\n    tag_225:\n        /* \"#utility.yul\":9716:9836   */\n    tag_224:\n        /* \"#utility.yul\":9875:9876   */\n      0x00\n        /* \"#utility.yul\":9900:9963   */\n      tag_226\n        /* \"#utility.yul\":9955:9962   */\n      dup9\n        /* \"#utility.yul\":9946:9952   */\n      dup3\n        /* \"#utility.yul\":9935:9944   */\n      dup10\n        /* \"#utility.yul\":9931:9953   */\n      add\n        /* \"#utility.yul\":9900:9963   */\n      tag_121\n      jump\t// in\n    tag_226:\n        /* \"#utility.yul\":9890:9963   */\n      swap6\n      pop\n        /* \"#utility.yul\":9846:9973   */\n      pop\n        /* \"#utility.yul\":10012:10014   */\n      0x20\n        /* \"#utility.yul\":10038:10101   */\n      tag_227\n        /* \"#utility.yul\":10093:10100   */\n      dup9\n        /* \"#utility.yul\":10084:10090   */\n      dup3\n        /* \"#utility.yul\":10073:10082   */\n      dup10\n        /* \"#utility.yul\":10069:10091   */\n      add\n        /* \"#utility.yul\":10038:10101   */\n      tag_124\n      jump\t// in\n    tag_227:\n        /* \"#utility.yul\":10028:10101   */\n      swap5\n      pop\n        /* \"#utility.yul\":9983:10111   */\n      pop\n        /* \"#utility.yul\":10150:10152   */\n      0x40\n        /* \"#utility.yul\":10176:10240   */\n      tag_228\n        /* \"#utility.yul\":10232:10239   */\n      dup9\n        /* \"#utility.yul\":10223:10229   */\n      dup3\n        /* \"#utility.yul\":10212:10221   */\n      dup10\n        /* \"#utility.yul\":10208:10230   */\n      add\n        /* \"#utility.yul\":10176:10240   */\n      tag_125\n      jump\t// in\n    tag_228:\n        /* \"#utility.yul\":10166:10240   */\n      swap4\n      pop\n        /* \"#utility.yul\":10121:10250   */\n      pop\n        /* \"#utility.yul\":10289:10291   */\n      0x60\n        /* \"#utility.yul\":10315:10379   */\n      tag_229\n        /* \"#utility.yul\":10371:10378   */\n      dup9\n        /* \"#utility.yul\":10362:10368   */\n      dup3\n        /* \"#utility.yul\":10351:10360   */\n      dup10\n        /* \"#utility.yul\":10347:10369   */\n      add\n        /* \"#utility.yul\":10315:10379   */\n      tag_125\n      jump\t// in\n    tag_229:\n        /* \"#utility.yul\":10305:10379   */\n      swap3\n      pop\n        /* \"#utility.yul\":10260:10389   */\n      pop\n        /* \"#utility.yul\":10428:10431   */\n      0x80\n        /* \"#utility.yul\":10455:10518   */\n      tag_230\n        /* \"#utility.yul\":10510:10517   */\n      dup9\n        /* \"#utility.yul\":10501:10507   */\n      dup3\n        /* \"#utility.yul\":10490:10499   */\n      dup10\n        /* \"#utility.yul\":10486:10508   */\n      add\n        /* \"#utility.yul\":10455:10518   */\n      tag_121\n      jump\t// in\n    tag_230:\n        /* \"#utility.yul\":10445:10518   */\n      swap2\n      pop\n        /* \"#utility.yul\":10399:10528   */\n      pop\n        /* \"#utility.yul\":9564:10535   */\n      swap3\n      swap6\n      pop\n      swap3\n      swap6\n      swap1\n      swap4\n      pop\n      jump\t// out\n        /* \"#utility.yul\":10541:11532   */\n    tag_87:\n        /* \"#utility.yul\":10580:10587   */\n      0x00\n        /* \"#utility.yul\":10603:10622   */\n      tag_232\n        /* \"#utility.yul\":10620:10621   */\n      dup3\n        /* \"#utility.yul\":10603:10622   */\n      tag_122\n      jump\t// in\n    tag_232:\n        /* \"#utility.yul\":10598:10622   */\n      swap2\n      pop\n        /* \"#utility.yul\":10636:10655   */\n      tag_233\n        /* \"#utility.yul\":10653:10654   */\n      dup4\n        /* \"#utility.yul\":10636:10655   */\n      tag_122\n      jump\t// in\n    tag_233:\n        /* \"#utility.yul\":10631:10655   */\n      swap3\n      pop\n        /* \"#utility.yul\":10837:10838   */\n      dup3\n        /* \"#utility.yul\":10769:10835   */\n      0x7fffffffffffffffffffffffffffffffffffffffffffffffffffffffffffffff\n        /* \"#utility.yul\":10765:10839   */\n      div\n        /* \"#utility.yul\":10762:10763   */\n      dup3\n        /* \"#utility.yul\":10759:10840   */\n      gt\n        /* \"#utility.yul\":10754:10755   */\n      0x00\n        /* \"#utility.yul\":10751:10752   */\n      dup5\n        /* \"#utility.yul\":10747:10756   */\n      sgt\n        /* \"#utility.yul\":10743:10744   */\n      0x00\n        /* \"#utility.yul\":10740:10741   */\n      dup5\n        /* \"#utility.yul\":10736:10745   */\n      sgt\n        /* \"#utility.yul\":10732:10757   */\n      and\n        /* \"#utility.yul\":10728:10841   */\n      and\n        /* \"#utility.yul\":10725:10864   */\n      iszero\n      tag_234\n      jumpi\n        /* \"#utility.yul\":10844:10862   */\n      tag_235\n      tag_110\n      jump\t// in\n    tag_235:\n        /* \"#utility.yul\":10725:10864   */\n    tag_234:\n        /* \"#utility.yul\":11048:11049   */\n      dup2\n        /* \"#utility.yul\":10980:11046   */\n      0x8000000000000000000000000000000000000000000000000000000000000000\n        /* \"#utility.yul\":10975:11050   */\n      sdiv\n        /* \"#utility.yul\":10972:10973   */\n      dup4\n        /* \"#utility.yul\":10968:11051   */\n      slt\n        /* \"#utility.yul\":10963:10964   */\n      0x00\n        /* \"#utility.yul\":10960:10961   */\n      dup5\n        /* \"#utility.yul\":10956:10965   */\n      slt\n        /* \"#utility.yul\":10952:10953   */\n      0x00\n        /* \"#utility.yul\":10949:10950   */\n      dup5\n        /* \"#utility.yul\":10945:10954   */\n      sgt\n        /* \"#utility.yul\":10941:10966   */\n      and\n        /* \"#utility.yul\":10937:11052   */\n      and\n        /* \"#utility.yul\":10934:11075   */\n      iszero\n      tag_236\n      jumpi\n        /* \"#utility.yul\":11055:11073   */\n      tag_237\n      tag_110\n      jump\t// in\n    tag_237:\n        /* \"#utility.yul\":10934:11075   */\n    tag_236:\n        /* \"#utility.yul\":11259:11260   */\n      dup3\n        /* \"#utility.yul\":11191:11257   */\n      0x8000000000000000000000000000000000000000000000000000000000000000\n        /* \"#utility.yul\":11186:11261   */\n      sdiv\n        /* \"#utility.yul\":11183:11184   */\n      dup3\n        /* \"#utility.yul\":11179:11262   */\n      slt\n        /* \"#utility.yul\":11174:11175   */\n      0x00\n        /* \"#utility.yul\":11171:11172   */\n      dup5\n        /* \"#utility.yul\":11167:11176   */\n      sgt\n        /* \"#utility.yul\":11163:11164   */\n      0x00\n        /* \"#utility.yul\":11160:11161   */\n      dup5\n        /* \"#utility.yul\":11156:11165   */\n      slt\n        /* \"#utility.yul\":11152:11177   */\n      and\n        /* \"#utility.yul\":11148:11263   */\n      and\n        /* \"#utility.yul\":11145:11286   */\n      iszero\n      tag_238\n      jumpi\n        /* \"#utility.yul\":11266:11284   */\n      tag_239\n      tag_110\n      jump\t// in\n    tag_239:\n        /* \"#utility.yul\":11145:11286   */\n    tag_238:\n        /* \"#utility.yul\":11469:11470   */\n      dup3\n        /* \"#utility.yul\":11401:11467   */\n      0x7fffffffffffffffffffffffffffffffffffffffffffffffffffffffffffffff\n        /* \"#utility.yul\":11396:11471   */\n      sdiv\n        /* \"#utility.yul\":11393:11394   */\n      dup3\n        /* \"#utility.yul\":11389:11472   */\n      slt\n        /* \"#utility.yul\":11384:11385   */\n      0x00\n        /* \"#utility.yul\":11381:11382   */\n      dup5\n        /* \"#utility.yul\":11377:11386   */\n      slt\n        /* \"#utility.yul\":11373:11374   */\n      0x00\n        /* \"#utility.yul\":11370:11371   */\n      dup5\n        /* \"#utility.yul\":11366:11375   */\n      slt\n        /* \"#utility.yul\":11362:11387   */\n      and\n        /* \"#utility.yul\":11358:11473   */\n      and\n        /* \"#utility.yul\":11355:11496   */\n      iszero\n      tag_240\n      jumpi\n        /* \"#utility.yul\":11476:11494   */\n      tag_241\n      tag_110\n      jump\t// in\n    tag_241:\n        /* \"#utility.yul\":11355:11496   */\n    tag_240:\n        /* \"#utility.yul\":11524:11525   */\n      dup3\n        /* \"#utility.yul\":11521:11522   */\n      dup3\n        /* \"#utility.yul\":11517:11526   */\n      mul\n        /* \"#utility.yul\":11506:11526   */\n      swap1\n      pop\n        /* \"#utility.yul\":10541:11532   */\n      swap3\n      swap2\n      pop\n      pop\n      jump\t// out\n\n    auxdata: 0xa26469706673582212206cbc59cb4c60cc2fb308b2ef8b17c29f57db23980be2fd2b4eb675c21cb6f4af64736f6c634300080f0033\n}\n",
				"bytecode": {
					"linkReferences": {},
					"object": "608060405234801561001057600080fd5b5033600260006101000a81548173ffffffffffffffffffffffffffffffffffffffff021916908373ffffffffffffffffffffffffffffffffffffffff160217905550610e21806100616000396000f3fe6080604052600436106100555760003560e01c8063213dbea21461005a5780633c7e7d28146100855780633ccfd60b146100c25780638da5cb5b146100d9578063b60d428814610104578063dc0d3dff1461010e575b600080fd5b34801561006657600080fd5b5061006f61014b565b60405161007c91906106d2565b60405180910390f35b34801561009157600080fd5b506100ac60048036038101906100a79190610750565b610158565b6040516100b991906106d2565b60405180910390f35b3480156100ce57600080fd5b506100d7610170565b005b3480156100e557600080fd5b506100ee6103bb565b6040516100fb919061078c565b60405180910390f35b61010c6103e1565b005b34801561011a57600080fd5b50610135600480360381019061013091906107d3565b6104f0565b604051610142919061078c565b60405180910390f35b6802b5e3af16b188000081565b60016020528060005260406000206000915090505481565b600260009054906101000a900473ffffffffffffffffffffffffffffffffffffffff1673ffffffffffffffffffffffffffffffffffffffff163373ffffffffffffffffffffffffffffffffffffffff1614610200576040517f08c379a00000000000000000000000000000000000000000000000000000000081526004016101f790610883565b60405180910390fd5b60005b6000805490508110156102ab576000808281548110610225576102246108a3565b5b9060005260206000200160009054906101000a900473ffffffffffffffffffffffffffffffffffffffff1690506000600160008373ffffffffffffffffffffffffffffffffffffffff1673ffffffffffffffffffffffffffffffffffffffff168152602001908152602001600020819055505080806102a390610901565b915050610203565b50600067ffffffffffffffff8111156102c7576102c6610949565b5b6040519080825280602002602001820160405280156102f55781602001602082028036833780820191505090505b506000908051906020019061030b929190610612565b5060003373ffffffffffffffffffffffffffffffffffffffff1647604051610332906109a9565b60006040518083038185875af1925050503d806000811461036f576040519150601f19603f3d011682016040523d82523d6000602084013e610374565b606091505b50509050806103b8576040517f08c379a00000000000000000000000000000000000000000000000000000000081526004016103af90610a0a565b60405180910390fd5b50565b600260009054906101000a900473ffffffffffffffffffffffffffffffffffffffff1681565b6802b5e3af16b18800006103f43461052f565b1015610435576040517f08c379a000000000000000000000000000000000000000000000000000000000815260040161042c90610a9c565b60405180910390fd5b6000339080600181540180825580915050600190039060005260206000200160009091909190916101000a81548173ffffffffffffffffffffffffffffffffffffffff021916908373ffffffffffffffffffffffffffffffffffffffff16021790555034600160003373ffffffffffffffffffffffffffffffffffffffff1673ffffffffffffffffffffffffffffffffffffffff16815260200190815260200160002060008282546104e79190610abc565b92505081905550565b6000818154811061050057600080fd5b906000526020600020016000915054906101000a900473ffffffffffffffffffffffffffffffffffffffff1681565b60008061053a610569565b90506000670de0b6b3a764000084836105539190610b12565b61055d9190610b9b565b90508092505050919050565b600080738a753747a1fa494ec906ce90e9f37563a8af630e905060008173ffffffffffffffffffffffffffffffffffffffff1663feaf968c6040518163ffffffff1660e01b815260040160a060405180830381865afa1580156105d0573d6000803e3d6000fd5b505050506040513d601f19601f820116820180604052508101906105f49190610c59565b5050509150506402540be4008161060b9190610cd4565b9250505090565b82805482825590600052602060002090810192821561068b579160200282015b8281111561068a5782518260006101000a81548173ffffffffffffffffffffffffffffffffffffffff021916908373ffffffffffffffffffffffffffffffffffffffff16021790555091602001919060010190610632565b5b509050610698919061069c565b5090565b5b808211156106b557600081600090555060010161069d565b5090565b6000819050919050565b6106cc816106b9565b82525050565b60006020820190506106e760008301846106c3565b92915050565b600080fd5b600073ffffffffffffffffffffffffffffffffffffffff82169050919050565b600061071d826106f2565b9050919050565b61072d81610712565b811461073857600080fd5b50565b60008135905061074a81610724565b92915050565b600060208284031215610766576107656106ed565b5b60006107748482850161073b565b91505092915050565b61078681610712565b82525050565b60006020820190506107a1600083018461077d565b92915050565b6107b0816106b9565b81146107bb57600080fd5b50565b6000813590506107cd816107a7565b92915050565b6000602082840312156107e9576107e86106ed565b5b60006107f7848285016107be565b91505092915050565b600082825260208201905092915050565b7f4f6e6c7920746865206f776e6572206f662074686520636f6e7472616374206360008201527f616e2077697468647261772066756e6473210000000000000000000000000000602082015250565b600061086d603283610800565b915061087882610811565b604082019050919050565b6000602082019050818103600083015261089c81610860565b9050919050565b7f4e487b7100000000000000000000000000000000000000000000000000000000600052603260045260246000fd5b7f4e487b7100000000000000000000000000000000000000000000000000000000600052601160045260246000fd5b600061090c826106b9565b91507fffffffffffffffffffffffffffffffffffffffffffffffffffffffffffffffff820361093e5761093d6108d2565b5b600182019050919050565b7f4e487b7100000000000000000000000000000000000000000000000000000000600052604160045260246000fd5b600081905092915050565b50565b6000610993600083610978565b915061099e82610983565b600082019050919050565b60006109b482610986565b9150819050919050565b7f43616c6c204661696c6564000000000000000000000000000000000000000000600082015250565b60006109f4600b83610800565b91506109ff826109be565b602082019050919050565b60006020820190508181036000830152610a23816109e7565b9050919050565b7f46756e64696e6720616d6f756e74206d757374206265206174206c656173742060008201527f2435300000000000000000000000000000000000000000000000000000000000602082015250565b6000610a86602383610800565b9150610a9182610a2a565b604082019050919050565b60006020820190508181036000830152610ab581610a79565b9050919050565b6000610ac7826106b9565b9150610ad2836106b9565b9250827fffffffffffffffffffffffffffffffffffffffffffffffffffffffffffffffff03821115610b0757610b066108d2565b5b828201905092915050565b6000610b1d826106b9565b9150610b28836106b9565b9250817fffffffffffffffffffffffffffffffffffffffffffffffffffffffffffffffff0483118215151615610b6157610b606108d2565b5b828202905092915050565b7f4e487b7100000000000000000000000000000000000000000000000000000000600052601260045260246000fd5b6000610ba6826106b9565b9150610bb1836106b9565b925082610bc157610bc0610b6c565b5b828204905092915050565b600069ffffffffffffffffffff82169050919050565b610beb81610bcc565b8114610bf657600080fd5b50565b600081519050610c0881610be2565b92915050565b6000819050919050565b610c2181610c0e565b8114610c2c57600080fd5b50565b600081519050610c3e81610c18565b92915050565b600081519050610c53816107a7565b92915050565b600080600080600060a08688031215610c7557610c746106ed565b5b6000610c8388828901610bf9565b9550506020610c9488828901610c2f565b9450506040610ca588828901610c44565b9350506060610cb688828901610c44565b9250506080610cc788828901610bf9565b9150509295509295909350565b6000610cdf82610c0e565b9150610cea83610c0e565b9250827f7fffffffffffffffffffffffffffffffffffffffffffffffffffffffffffffff0482116000841360008413161615610d2957610d286108d2565b5b817f80000000000000000000000000000000000000000000000000000000000000000583126000841260008413161615610d6657610d656108d2565b5b827f80000000000000000000000000000000000000000000000000000000000000000582126000841360008412161615610da357610da26108d2565b5b827f7fffffffffffffffffffffffffffffffffffffffffffffffffffffffffffffff0582126000841260008412161615610de057610ddf6108d2565b5b82820290509291505056fea26469706673582212206cbc59cb4c60cc2fb308b2ef8b17c29f57db23980be2fd2b4eb675c21cb6f4af64736f6c634300080f0033",
					"opcodes": "PUSH1 0x80 PUSH1 0x40 MSTORE CALLVALUE DUP1 ISZERO PUSH2 0x10 JUMPI PUSH1 0x0 DUP1 REVERT JUMPDEST POP CALLER PUSH1 0x2 PUSH1 0x0 PUSH2 0x100 EXP DUP2 SLOAD DUP2 PUSH20 0xFFFFFFFFFFFFFFFFFFFFFFFFFFFFFFFFFFFFFFFF MUL NOT AND SWAP1 DUP4 PUSH20 0xFFFFFFFFFFFFFFFFFFFFFFFFFFFFFFFFFFFFFFFF AND MUL OR SWAP1 SSTORE POP PUSH2 0xE21 DUP1 PUSH2 0x61 PUSH1 0x0 CODECOPY PUSH1 0x0 RETURN INVALID PUSH1 0x80 PUSH1 0x40 MSTORE PUSH1 0x4 CALLDATASIZE LT PUSH2 0x55 JUMPI PUSH1 0x0 CALLDATALOAD PUSH1 0xE0 SHR DUP1 PUSH4 0x213DBEA2 EQ PUSH2 0x5A JUMPI DUP1 PUSH4 0x3C7E7D28 EQ PUSH2 0x85 JUMPI DUP1 PUSH4 0x3CCFD60B EQ PUSH2 0xC2 JUMPI DUP1 PUSH4 0x8DA5CB5B EQ PUSH2 0xD9 JUMPI DUP1 PUSH4 0xB60D4288 EQ PUSH2 0x104 JUMPI DUP1 PUSH4 0xDC0D3DFF EQ PUSH2 0x10E JUMPI JUMPDEST PUSH1 0x0 DUP1 REVERT JUMPDEST CALLVALUE DUP1 ISZERO PUSH2 0x66 JUMPI PUSH1 0x0 DUP1 REVERT JUMPDEST POP PUSH2 0x6F PUSH2 0x14B JUMP JUMPDEST PUSH1 0x40 MLOAD PUSH2 0x7C SWAP2 SWAP1 PUSH2 0x6D2 JUMP JUMPDEST PUSH1 0x40 MLOAD DUP1 SWAP2 SUB SWAP1 RETURN JUMPDEST CALLVALUE DUP1 ISZERO PUSH2 0x91 JUMPI PUSH1 0x0 DUP1 REVERT JUMPDEST POP PUSH2 0xAC PUSH1 0x4 DUP1 CALLDATASIZE SUB DUP2 ADD SWAP1 PUSH2 0xA7 SWAP2 SWAP1 PUSH2 0x750 JUMP JUMPDEST PUSH2 0x158 JUMP JUMPDEST PUSH1 0x40 MLOAD PUSH2 0xB9 SWAP2 SWAP1 PUSH2 0x6D2 JUMP JUMPDEST PUSH1 0x40 MLOAD DUP1 SWAP2 SUB SWAP1 RETURN JUMPDEST CALLVALUE DUP1 ISZERO PUSH2 0xCE JUMPI PUSH1 0x0 DUP1 REVERT JUMPDEST POP PUSH2 0xD7 PUSH2 0x170 JUMP JUMPDEST STOP JUMPDEST CALLVALUE DUP1 ISZERO PUSH2 0xE5 JUMPI PUSH1 0x0 DUP1 REVERT JUMPDEST POP PUSH2 0xEE PUSH2 0x3BB JUMP JUMPDEST PUSH1 0x40 MLOAD PUSH2 0xFB SWAP2 SWAP1 PUSH2 0x78C JUMP JUMPDEST PUSH1 0x40 MLOAD DUP1 SWAP2 SUB SWAP1 RETURN JUMPDEST PUSH2 0x10C PUSH2 0x3E1 JUMP JUMPDEST STOP JUMPDEST CALLVALUE DUP1 ISZERO PUSH2 0x11A JUMPI PUSH1 0x0 DUP1 REVERT JUMPDEST POP PUSH2 0x135 PUSH1 0x4 DUP1 CALLDATASIZE SUB DUP2 ADD SWAP1 PUSH2 0x130 SWAP2 SWAP1 PUSH2 0x7D3 JUMP JUMPDEST PUSH2 0x4F0 JUMP JUMPDEST PUSH1 0x40 MLOAD PUSH2 0x142 SWAP2 SWAP1 PUSH2 0x78C JUMP JUMPDEST PUSH1 0x40 MLOAD DUP1 SWAP2 SUB SWAP1 RETURN JUMPDEST PUSH9 0x2B5E3AF16B1880000 DUP2 JUMP JUMPDEST PUSH1 0x1 PUSH1 0x20 MSTORE DUP1 PUSH1 0x0 MSTORE PUSH1 0x40 PUSH1 0x0 KECCAK256 PUSH1 0x0 SWAP2 POP SWAP1 POP SLOAD DUP2 JUMP JUMPDEST PUSH1 0x2 PUSH1 0x0 SWAP1 SLOAD SWAP1 PUSH2 0x100 EXP SWAP1 DIV PUSH20 0xFFFFFFFFFFFFFFFFFFFFFFFFFFFFFFFFFFFFFFFF AND PUSH20 0xFFFFFFFFFFFFFFFFFFFFFFFFFFFFFFFFFFFFFFFF AND CALLER PUSH20 0xFFFFFFFFFFFFFFFFFFFFFFFFFFFFFFFFFFFFFFFF AND EQ PUSH2 0x200 JUMPI PUSH1 0x40 MLOAD PUSH32 0x8C379A000000000000000000000000000000000000000000000000000000000 DUP2 MSTORE PUSH1 0x4 ADD PUSH2 0x1F7 SWAP1 PUSH2 0x883 JUMP JUMPDEST PUSH1 0x40 MLOAD DUP1 SWAP2 SUB SWAP1 REVERT JUMPDEST PUSH1 0x0 JUMPDEST PUSH1 0x0 DUP1 SLOAD SWAP1 POP DUP2 LT ISZERO PUSH2 0x2AB JUMPI PUSH1 0x0 DUP1 DUP3 DUP2 SLOAD DUP2 LT PUSH2 0x225 JUMPI PUSH2 0x224 PUSH2 0x8A3 JUMP JUMPDEST JUMPDEST SWAP1 PUSH1 0x0 MSTORE PUSH1 0x20 PUSH1 0x0 KECCAK256 ADD PUSH1 0x0 SWAP1 SLOAD SWAP1 PUSH2 0x100 EXP SWAP1 DIV PUSH20 0xFFFFFFFFFFFFFFFFFFFFFFFFFFFFFFFFFFFFFFFF AND SWAP1 POP PUSH1 0x0 PUSH1 0x1 PUSH1 0x0 DUP4 PUSH20 0xFFFFFFFFFFFFFFFFFFFFFFFFFFFFFFFFFFFFFFFF AND PUSH20 0xFFFFFFFFFFFFFFFFFFFFFFFFFFFFFFFFFFFFFFFF AND DUP2 MSTORE PUSH1 0x20 ADD SWAP1 DUP2 MSTORE PUSH1 0x20 ADD PUSH1 0x0 KECCAK256 DUP2 SWAP1 SSTORE POP POP DUP1 DUP1 PUSH2 0x2A3 SWAP1 PUSH2 0x901 JUMP JUMPDEST SWAP2 POP POP PUSH2 0x203 JUMP JUMPDEST POP PUSH1 0x0 PUSH8 0xFFFFFFFFFFFFFFFF DUP2 GT ISZERO PUSH2 0x2C7 JUMPI PUSH2 0x2C6 PUSH2 0x949 JUMP JUMPDEST JUMPDEST PUSH1 0x40 MLOAD SWAP1 DUP1 DUP3 MSTORE DUP1 PUSH1 0x20 MUL PUSH1 0x20 ADD DUP3 ADD PUSH1 0x40 MSTORE DUP1 ISZERO PUSH2 0x2F5 JUMPI DUP2 PUSH1 0x20 ADD PUSH1 0x20 DUP3 MUL DUP1 CALLDATASIZE DUP4 CALLDATACOPY DUP1 DUP3 ADD SWAP2 POP POP SWAP1 POP JUMPDEST POP PUSH1 0x0 SWAP1 DUP1 MLOAD SWAP1 PUSH1 0x20 ADD SWAP1 PUSH2 0x30B SWAP3 SWAP2 SWAP1 PUSH2 0x612 JUMP JUMPDEST POP PUSH1 0x0 CALLER PUSH20 0xFFFFFFFFFFFFFFFFFFFFFFFFFFFFFFFFFFFFFFFF AND SELFBALANCE PUSH1 0x40 MLOAD PUSH2 0x332 SWAP1 PUSH2 0x9A9 JUMP JUMPDEST PUSH1 0x0 PUSH1 0x40 MLOAD DUP1 DUP4 SUB DUP2 DUP6 DUP8 GAS CALL SWAP3 POP POP POP RETURNDATASIZE DUP1 PUSH1 0x0 DUP2 EQ PUSH2 0x36F JUMPI PUSH1 0x40 MLOAD SWAP2 POP PUSH1 0x1F NOT PUSH1 0x3F RETURNDATASIZE ADD AND DUP3 ADD PUSH1 0x40 MSTORE RETURNDATASIZE DUP3 MSTORE RETURNDATASIZE PUSH1 0x0 PUSH1 0x20 DUP5 ADD RETURNDATACOPY PUSH2 0x374 JUMP JUMPDEST PUSH1 0x60 SWAP2 POP JUMPDEST POP POP SWAP1 POP DUP1 PUSH2 0x3B8 JUMPI PUSH1 0x40 MLOAD PUSH32 0x8C379A000000000000000000000000000000000000000000000000000000000 DUP2 MSTORE PUSH1 0x4 ADD PUSH2 0x3AF SWAP1 PUSH2 0xA0A JUMP JUMPDEST PUSH1 0x40 MLOAD DUP1 SWAP2 SUB SWAP1 REVERT JUMPDEST POP JUMP JUMPDEST PUSH1 0x2 PUSH1 0x0 SWAP1 SLOAD SWAP1 PUSH2 0x100 EXP SWAP1 DIV PUSH20 0xFFFFFFFFFFFFFFFFFFFFFFFFFFFFFFFFFFFFFFFF AND DUP2 JUMP JUMPDEST PUSH9 0x2B5E3AF16B1880000 PUSH2 0x3F4 CALLVALUE PUSH2 0x52F JUMP JUMPDEST LT ISZERO PUSH2 0x435 JUMPI PUSH1 0x40 MLOAD PUSH32 0x8C379A000000000000000000000000000000000000000000000000000000000 DUP2 MSTORE PUSH1 0x4 ADD PUSH2 0x42C SWAP1 PUSH2 0xA9C JUMP JUMPDEST PUSH1 0x40 MLOAD DUP1 SWAP2 SUB SWAP1 REVERT JUMPDEST PUSH1 0x0 CALLER SWAP1 DUP1 PUSH1 0x1 DUP2 SLOAD ADD DUP1 DUP3 SSTORE DUP1 SWAP2 POP POP PUSH1 0x1 SWAP1 SUB SWAP1 PUSH1 0x0 MSTORE PUSH1 0x20 PUSH1 0x0 KECCAK256 ADD PUSH1 0x0 SWAP1 SWAP2 SWAP1 SWAP2 SWAP1 SWAP2 PUSH2 0x100 EXP DUP2 SLOAD DUP2 PUSH20 0xFFFFFFFFFFFFFFFFFFFFFFFFFFFFFFFFFFFFFFFF MUL NOT AND SWAP1 DUP4 PUSH20 0xFFFFFFFFFFFFFFFFFFFFFFFFFFFFFFFFFFFFFFFF AND MUL OR SWAP1 SSTORE POP CALLVALUE PUSH1 0x1 PUSH1 0x0 CALLER PUSH20 0xFFFFFFFFFFFFFFFFFFFFFFFFFFFFFFFFFFFFFFFF AND PUSH20 0xFFFFFFFFFFFFFFFFFFFFFFFFFFFFFFFFFFFFFFFF AND DUP2 MSTORE PUSH1 0x20 ADD SWAP1 DUP2 MSTORE PUSH1 0x20 ADD PUSH1 0x0 KECCAK256 PUSH1 0x0 DUP3 DUP3 SLOAD PUSH2 0x4E7 SWAP2 SWAP1 PUSH2 0xABC JUMP JUMPDEST SWAP3 POP POP DUP2 SWAP1 SSTORE POP JUMP JUMPDEST PUSH1 0x0 DUP2 DUP2 SLOAD DUP2 LT PUSH2 0x500 JUMPI PUSH1 0x0 DUP1 REVERT JUMPDEST SWAP1 PUSH1 0x0 MSTORE PUSH1 0x20 PUSH1 0x0 KECCAK256 ADD PUSH1 0x0 SWAP2 POP SLOAD SWAP1 PUSH2 0x100 EXP SWAP1 DIV PUSH20 0xFFFFFFFFFFFFFFFFFFFFFFFFFFFFFFFFFFFFFFFF AND DUP2 JUMP JUMPDEST PUSH1 0x0 DUP1 PUSH2 0x53A PUSH2 0x569 JUMP JUMPDEST SWAP1 POP PUSH1 0x0 PUSH8 0xDE0B6B3A7640000 DUP5 DUP4 PUSH2 0x553 SWAP2 SWAP1 PUSH2 0xB12 JUMP JUMPDEST PUSH2 0x55D SWAP2 SWAP1 PUSH2 0xB9B JUMP JUMPDEST SWAP1 POP DUP1 SWAP3 POP POP POP SWAP2 SWAP1 POP JUMP JUMPDEST PUSH1 0x0 DUP1 PUSH20 0x8A753747A1FA494EC906CE90E9F37563A8AF630E SWAP1 POP PUSH1 0x0 DUP2 PUSH20 0xFFFFFFFFFFFFFFFFFFFFFFFFFFFFFFFFFFFFFFFF AND PUSH4 0xFEAF968C PUSH1 0x40 MLOAD DUP2 PUSH4 0xFFFFFFFF AND PUSH1 0xE0 SHL DUP2 MSTORE PUSH1 0x4 ADD PUSH1 0xA0 PUSH1 0x40 MLOAD DUP1 DUP4 SUB DUP2 DUP7 GAS STATICCALL ISZERO DUP1 ISZERO PUSH2 0x5D0 JUMPI RETURNDATASIZE PUSH1 0x0 DUP1 RETURNDATACOPY RETURNDATASIZE PUSH1 0x0 REVERT JUMPDEST POP POP POP POP PUSH1 0x40 MLOAD RETURNDATASIZE PUSH1 0x1F NOT PUSH1 0x1F DUP3 ADD AND DUP3 ADD DUP1 PUSH1 0x40 MSTORE POP DUP2 ADD SWAP1 PUSH2 0x5F4 SWAP2 SWAP1 PUSH2 0xC59 JUMP JUMPDEST POP POP POP SWAP2 POP POP PUSH5 0x2540BE400 DUP2 PUSH2 0x60B SWAP2 SWAP1 PUSH2 0xCD4 JUMP JUMPDEST SWAP3 POP POP POP SWAP1 JUMP JUMPDEST DUP3 DUP1 SLOAD DUP3 DUP3 SSTORE SWAP1 PUSH1 0x0 MSTORE PUSH1 0x20 PUSH1 0x0 KECCAK256 SWAP1 DUP2 ADD SWAP3 DUP3 ISZERO PUSH2 0x68B JUMPI SWAP2 PUSH1 0x20 MUL DUP3 ADD JUMPDEST DUP3 DUP2 GT ISZERO PUSH2 0x68A JUMPI DUP3 MLOAD DUP3 PUSH1 0x0 PUSH2 0x100 EXP DUP2 SLOAD DUP2 PUSH20 0xFFFFFFFFFFFFFFFFFFFFFFFFFFFFFFFFFFFFFFFF MUL NOT AND SWAP1 DUP4 PUSH20 0xFFFFFFFFFFFFFFFFFFFFFFFFFFFFFFFFFFFFFFFF AND MUL OR SWAP1 SSTORE POP SWAP2 PUSH1 0x20 ADD SWAP2 SWAP1 PUSH1 0x1 ADD SWAP1 PUSH2 0x632 JUMP JUMPDEST JUMPDEST POP SWAP1 POP PUSH2 0x698 SWAP2 SWAP1 PUSH2 0x69C JUMP JUMPDEST POP SWAP1 JUMP JUMPDEST JUMPDEST DUP1 DUP3 GT ISZERO PUSH2 0x6B5 JUMPI PUSH1 0x0 DUP2 PUSH1 0x0 SWAP1 SSTORE POP PUSH1 0x1 ADD PUSH2 0x69D JUMP JUMPDEST POP SWAP1 JUMP JUMPDEST PUSH1 0x0 DUP2 SWAP1 POP SWAP2 SWAP1 POP JUMP JUMPDEST PUSH2 0x6CC DUP2 PUSH2 0x6B9 JUMP JUMPDEST DUP3 MSTORE POP POP JUMP JUMPDEST PUSH1 0x0 PUSH1 0x20 DUP3 ADD SWAP1 POP PUSH2 0x6E7 PUSH1 0x0 DUP4 ADD DUP5 PUSH2 0x6C3 JUMP JUMPDEST SWAP3 SWAP2 POP POP JUMP JUMPDEST PUSH1 0x0 DUP1 REVERT JUMPDEST PUSH1 0x0 PUSH20 0xFFFFFFFFFFFFFFFFFFFFFFFFFFFFFFFFFFFFFFFF DUP3 AND SWAP1 POP SWAP2 SWAP1 POP JUMP JUMPDEST PUSH1 0x0 PUSH2 0x71D DUP3 PUSH2 0x6F2 JUMP JUMPDEST SWAP1 POP SWAP2 SWAP1 POP JUMP JUMPDEST PUSH2 0x72D DUP2 PUSH2 0x712 JUMP JUMPDEST DUP2 EQ PUSH2 0x738 JUMPI PUSH1 0x0 DUP1 REVERT JUMPDEST POP JUMP JUMPDEST PUSH1 0x0 DUP2 CALLDATALOAD SWAP1 POP PUSH2 0x74A DUP2 PUSH2 0x724 JUMP JUMPDEST SWAP3 SWAP2 POP POP JUMP JUMPDEST PUSH1 0x0 PUSH1 0x20 DUP3 DUP5 SUB SLT ISZERO PUSH2 0x766 JUMPI PUSH2 0x765 PUSH2 0x6ED JUMP JUMPDEST JUMPDEST PUSH1 0x0 PUSH2 0x774 DUP5 DUP3 DUP6 ADD PUSH2 0x73B JUMP JUMPDEST SWAP2 POP POP SWAP3 SWAP2 POP POP JUMP JUMPDEST PUSH2 0x786 DUP2 PUSH2 0x712 JUMP JUMPDEST DUP3 MSTORE POP POP JUMP JUMPDEST PUSH1 0x0 PUSH1 0x20 DUP3 ADD SWAP1 POP PUSH2 0x7A1 PUSH1 0x0 DUP4 ADD DUP5 PUSH2 0x77D JUMP JUMPDEST SWAP3 SWAP2 POP POP JUMP JUMPDEST PUSH2 0x7B0 DUP2 PUSH2 0x6B9 JUMP JUMPDEST DUP2 EQ PUSH2 0x7BB JUMPI PUSH1 0x0 DUP1 REVERT JUMPDEST POP JUMP JUMPDEST PUSH1 0x0 DUP2 CALLDATALOAD SWAP1 POP PUSH2 0x7CD DUP2 PUSH2 0x7A7 JUMP JUMPDEST SWAP3 SWAP2 POP POP JUMP JUMPDEST PUSH1 0x0 PUSH1 0x20 DUP3 DUP5 SUB SLT ISZERO PUSH2 0x7E9 JUMPI PUSH2 0x7E8 PUSH2 0x6ED JUMP JUMPDEST JUMPDEST PUSH1 0x0 PUSH2 0x7F7 DUP5 DUP3 DUP6 ADD PUSH2 0x7BE JUMP JUMPDEST SWAP2 POP POP SWAP3 SWAP2 POP POP JUMP JUMPDEST PUSH1 0x0 DUP3 DUP3 MSTORE PUSH1 0x20 DUP3 ADD SWAP1 POP SWAP3 SWAP2 POP POP JUMP JUMPDEST PUSH32 0x4F6E6C7920746865206F776E6572206F662074686520636F6E74726163742063 PUSH1 0x0 DUP3 ADD MSTORE PUSH32 0x616E2077697468647261772066756E6473210000000000000000000000000000 PUSH1 0x20 DUP3 ADD MSTORE POP JUMP JUMPDEST PUSH1 0x0 PUSH2 0x86D PUSH1 0x32 DUP4 PUSH2 0x800 JUMP JUMPDEST SWAP2 POP PUSH2 0x878 DUP3 PUSH2 0x811 JUMP JUMPDEST PUSH1 0x40 DUP3 ADD SWAP1 POP SWAP2 SWAP1 POP JUMP JUMPDEST PUSH1 0x0 PUSH1 0x20 DUP3 ADD SWAP1 POP DUP2 DUP2 SUB PUSH1 0x0 DUP4 ADD MSTORE PUSH2 0x89C DUP2 PUSH2 0x860 JUMP JUMPDEST SWAP1 POP SWAP2 SWAP1 POP JUMP JUMPDEST PUSH32 0x4E487B7100000000000000000000000000000000000000000000000000000000 PUSH1 0x0 MSTORE PUSH1 0x32 PUSH1 0x4 MSTORE PUSH1 0x24 PUSH1 0x0 REVERT JUMPDEST PUSH32 0x4E487B7100000000000000000000000000000000000000000000000000000000 PUSH1 0x0 MSTORE PUSH1 0x11 PUSH1 0x4 MSTORE PUSH1 0x24 PUSH1 0x0 REVERT JUMPDEST PUSH1 0x0 PUSH2 0x90C DUP3 PUSH2 0x6B9 JUMP JUMPDEST SWAP2 POP PUSH32 0xFFFFFFFFFFFFFFFFFFFFFFFFFFFFFFFFFFFFFFFFFFFFFFFFFFFFFFFFFFFFFFFF DUP3 SUB PUSH2 0x93E JUMPI PUSH2 0x93D PUSH2 0x8D2 JUMP JUMPDEST JUMPDEST PUSH1 0x1 DUP3 ADD SWAP1 POP SWAP2 SWAP1 POP JUMP JUMPDEST PUSH32 0x4E487B7100000000000000000000000000000000000000000000000000000000 PUSH1 0x0 MSTORE PUSH1 0x41 PUSH1 0x4 MSTORE PUSH1 0x24 PUSH1 0x0 REVERT JUMPDEST PUSH1 0x0 DUP2 SWAP1 POP SWAP3 SWAP2 POP POP JUMP JUMPDEST POP JUMP JUMPDEST PUSH1 0x0 PUSH2 0x993 PUSH1 0x0 DUP4 PUSH2 0x978 JUMP JUMPDEST SWAP2 POP PUSH2 0x99E DUP3 PUSH2 0x983 JUMP JUMPDEST PUSH1 0x0 DUP3 ADD SWAP1 POP SWAP2 SWAP1 POP JUMP JUMPDEST PUSH1 0x0 PUSH2 0x9B4 DUP3 PUSH2 0x986 JUMP JUMPDEST SWAP2 POP DUP2 SWAP1 POP SWAP2 SWAP1 POP JUMP JUMPDEST PUSH32 0x43616C6C204661696C6564000000000000000000000000000000000000000000 PUSH1 0x0 DUP3 ADD MSTORE POP JUMP JUMPDEST PUSH1 0x0 PUSH2 0x9F4 PUSH1 0xB DUP4 PUSH2 0x800 JUMP JUMPDEST SWAP2 POP PUSH2 0x9FF DUP3 PUSH2 0x9BE JUMP JUMPDEST PUSH1 0x20 DUP3 ADD SWAP1 POP SWAP2 SWAP1 POP JUMP JUMPDEST PUSH1 0x0 PUSH1 0x20 DUP3 ADD SWAP1 POP DUP2 DUP2 SUB PUSH1 0x0 DUP4 ADD MSTORE PUSH2 0xA23 DUP2 PUSH2 0x9E7 JUMP JUMPDEST SWAP1 POP SWAP2 SWAP1 POP JUMP JUMPDEST PUSH32 0x46756E64696E6720616D6F756E74206D757374206265206174206C6561737420 PUSH1 0x0 DUP3 ADD MSTORE PUSH32 0x2435300000000000000000000000000000000000000000000000000000000000 PUSH1 0x20 DUP3 ADD MSTORE POP JUMP JUMPDEST PUSH1 0x0 PUSH2 0xA86 PUSH1 0x23 DUP4 PUSH2 0x800 JUMP JUMPDEST SWAP2 POP PUSH2 0xA91 DUP3 PUSH2 0xA2A JUMP JUMPDEST PUSH1 0x40 DUP3 ADD SWAP1 POP SWAP2 SWAP1 POP JUMP JUMPDEST PUSH1 0x0 PUSH1 0x20 DUP3 ADD SWAP1 POP DUP2 DUP2 SUB PUSH1 0x0 DUP4 ADD MSTORE PUSH2 0xAB5 DUP2 PUSH2 0xA79 JUMP JUMPDEST SWAP1 POP SWAP2 SWAP1 POP JUMP JUMPDEST PUSH1 0x0 PUSH2 0xAC7 DUP3 PUSH2 0x6B9 JUMP JUMPDEST SWAP2 POP PUSH2 0xAD2 DUP4 PUSH2 0x6B9 JUMP JUMPDEST SWAP3 POP DUP3 PUSH32 0xFFFFFFFFFFFFFFFFFFFFFFFFFFFFFFFFFFFFFFFFFFFFFFFFFFFFFFFFFFFFFFFF SUB DUP3 GT ISZERO PUSH2 0xB07 JUMPI PUSH2 0xB06 PUSH2 0x8D2 JUMP JUMPDEST JUMPDEST DUP3 DUP3 ADD SWAP1 POP SWAP3 SWAP2 POP POP JUMP JUMPDEST PUSH1 0x0 PUSH2 0xB1D DUP3 PUSH2 0x6B9 JUMP JUMPDEST SWAP2 POP PUSH2 0xB28 DUP4 PUSH2 0x6B9 JUMP JUMPDEST SWAP3 POP DUP2 PUSH32 0xFFFFFFFFFFFFFFFFFFFFFFFFFFFFFFFFFFFFFFFFFFFFFFFFFFFFFFFFFFFFFFFF DIV DUP4 GT DUP3 ISZERO ISZERO AND ISZERO PUSH2 0xB61 JUMPI PUSH2 0xB60 PUSH2 0x8D2 JUMP JUMPDEST JUMPDEST DUP3 DUP3 MUL SWAP1 POP SWAP3 SWAP2 POP POP JUMP JUMPDEST PUSH32 0x4E487B7100000000000000000000000000000000000000000000000000000000 PUSH1 0x0 MSTORE PUSH1 0x12 PUSH1 0x4 MSTORE PUSH1 0x24 PUSH1 0x0 REVERT JUMPDEST PUSH1 0x0 PUSH2 0xBA6 DUP3 PUSH2 0x6B9 JUMP JUMPDEST SWAP2 POP PUSH2 0xBB1 DUP4 PUSH2 0x6B9 JUMP JUMPDEST SWAP3 POP DUP3 PUSH2 0xBC1 JUMPI PUSH2 0xBC0 PUSH2 0xB6C JUMP JUMPDEST JUMPDEST DUP3 DUP3 DIV SWAP1 POP SWAP3 SWAP2 POP POP JUMP JUMPDEST PUSH1 0x0 PUSH10 0xFFFFFFFFFFFFFFFFFFFF DUP3 AND SWAP1 POP SWAP2 SWAP1 POP JUMP JUMPDEST PUSH2 0xBEB DUP2 PUSH2 0xBCC JUMP JUMPDEST DUP2 EQ PUSH2 0xBF6 JUMPI PUSH1 0x0 DUP1 REVERT JUMPDEST POP JUMP JUMPDEST PUSH1 0x0 DUP2 MLOAD SWAP1 POP PUSH2 0xC08 DUP2 PUSH2 0xBE2 JUMP JUMPDEST SWAP3 SWAP2 POP POP JUMP JUMPDEST PUSH1 0x0 DUP2 SWAP1 POP SWAP2 SWAP1 POP JUMP JUMPDEST PUSH2 0xC21 DUP2 PUSH2 0xC0E JUMP JUMPDEST DUP2 EQ PUSH2 0xC2C JUMPI PUSH1 0x0 DUP1 REVERT JUMPDEST POP JUMP JUMPDEST PUSH1 0x0 DUP2 MLOAD SWAP1 POP PUSH2 0xC3E DUP2 PUSH2 0xC18 JUMP JUMPDEST SWAP3 SWAP2 POP POP JUMP JUMPDEST PUSH1 0x0 DUP2 MLOAD SWAP1 POP PUSH2 0xC53 DUP2 PUSH2 0x7A7 JUMP JUMPDEST SWAP3 SWAP2 POP POP JUMP JUMPDEST PUSH1 0x0 DUP1 PUSH1 0x0 DUP1 PUSH1 0x0 PUSH1 0xA0 DUP7 DUP9 SUB SLT ISZERO PUSH2 0xC75 JUMPI PUSH2 0xC74 PUSH2 0x6ED JUMP JUMPDEST JUMPDEST PUSH1 0x0 PUSH2 0xC83 DUP9 DUP3 DUP10 ADD PUSH2 0xBF9 JUMP JUMPDEST SWAP6 POP POP PUSH1 0x20 PUSH2 0xC94 DUP9 DUP3 DUP10 ADD PUSH2 0xC2F JUMP JUMPDEST SWAP5 POP POP PUSH1 0x40 PUSH2 0xCA5 DUP9 DUP3 DUP10 ADD PUSH2 0xC44 JUMP JUMPDEST SWAP4 POP POP PUSH1 0x60 PUSH2 0xCB6 DUP9 DUP3 DUP10 ADD PUSH2 0xC44 JUMP JUMPDEST SWAP3 POP POP PUSH1 0x80 PUSH2 0xCC7 DUP9 DUP3 DUP10 ADD PUSH2 0xBF9 JUMP JUMPDEST SWAP2 POP POP SWAP3 SWAP6 POP SWAP3 SWAP6 SWAP1 SWAP4 POP JUMP JUMPDEST PUSH1 0x0 PUSH2 0xCDF DUP3 PUSH2 0xC0E JUMP JUMPDEST SWAP2 POP PUSH2 0xCEA DUP4 PUSH2 0xC0E JUMP JUMPDEST SWAP3 POP DUP3 PUSH32 0x7FFFFFFFFFFFFFFFFFFFFFFFFFFFFFFFFFFFFFFFFFFFFFFFFFFFFFFFFFFFFFFF DIV DUP3 GT PUSH1 0x0 DUP5 SGT PUSH1 0x0 DUP5 SGT AND AND ISZERO PUSH2 0xD29 JUMPI PUSH2 0xD28 PUSH2 0x8D2 JUMP JUMPDEST JUMPDEST DUP2 PUSH32 0x8000000000000000000000000000000000000000000000000000000000000000 SDIV DUP4 SLT PUSH1 0x0 DUP5 SLT PUSH1 0x0 DUP5 SGT AND AND ISZERO PUSH2 0xD66 JUMPI PUSH2 0xD65 PUSH2 0x8D2 JUMP JUMPDEST JUMPDEST DUP3 PUSH32 0x8000000000000000000000000000000000000000000000000000000000000000 SDIV DUP3 SLT PUSH1 0x0 DUP5 SGT PUSH1 0x0 DUP5 SLT AND AND ISZERO PUSH2 0xDA3 JUMPI PUSH2 0xDA2 PUSH2 0x8D2 JUMP JUMPDEST JUMPDEST DUP3 PUSH32 0x7FFFFFFFFFFFFFFFFFFFFFFFFFFFFFFFFFFFFFFFFFFFFFFFFFFFFFFFFFFFFFFF SDIV DUP3 SLT PUSH1 0x0 DUP5 SLT PUSH1 0x0 DUP5 SLT AND AND ISZERO PUSH2 0xDE0 JUMPI PUSH2 0xDDF PUSH2 0x8D2 JUMP JUMPDEST JUMPDEST DUP3 DUP3 MUL SWAP1 POP SWAP3 SWAP2 POP POP JUMP INVALID LOG2 PUSH5 0x6970667358 0x22 SLT KECCAK256 PUSH13 0xBC59CB4C60CC2FB308B2EF8B17 0xC2 SWAP16 JUMPI 0xDB 0x23 SWAP9 SIGNEXTEND 0xE2 REVERT 0x2B 0x4E 0xB6 PUSH22 0xC21CB6F4AF64736F6C634300080F0033000000000000 "
				},
				"gasEstimates": {
					"creation": {
						"codeDepositCost": "723400",
						"executionCost": "25026",
						"totalCost": "748426"
					},
					"external": {
						"MIN_USD()": "307",
						"addressToAmount(address)": "2814",
						"fund()": "infinite",
						"funders(uint256)": "5044",
						"owner()": "2558",
						"withdraw()": "infinite"
					}
				},
				"methodIdentifiers": {
					"MIN_USD()": "213dbea2",
					"addressToAmount(address)": "3c7e7d28",
					"fund()": "b60d4288",
					"funders(uint256)": "dc0d3dff",
					"owner()": "8da5cb5b",
					"withdraw()": "3ccfd60b"
				}
			},
			"storageLayout": {
				"storage": [
					{
						"astId": 59,
						"contract": "contracts/FundMe.sol:FundMe",
						"label": "funders",
						"offset": 0,
						"slot": "0",
						"type": "t_array(t_address)dyn_storage"
					},
					{
						"astId": 63,
						"contract": "contracts/FundMe.sol:FundMe",
						"label": "addressToAmount",
						"offset": 0,
						"slot": "1",
						"type": "t_mapping(t_address,t_uint256)"
					},
					{
						"astId": 65,
						"contract": "contracts/FundMe.sol:FundMe",
						"label": "owner",
						"offset": 0,
						"slot": "2",
						"type": "t_address"
					}
				],
				"types": {
					"t_address": {
						"encoding": "inplace",
						"label": "address",
						"numberOfBytes": "20"
					},
					"t_array(t_address)dyn_storage": {
						"base": "t_address",
						"encoding": "dynamic_array",
						"label": "address[]",
						"numberOfBytes": "32"
					},
					"t_mapping(t_address,t_uint256)": {
						"encoding": "mapping",
						"key": "t_address",
						"label": "mapping(address => uint256)",
						"numberOfBytes": "32",
						"value": "t_uint256"
					},
					"t_uint256": {
						"encoding": "inplace",
						"label": "uint256",
						"numberOfBytes": "32"
					}
				}
			},
			"userdoc": {
				"kind": "user",
				"methods": {},
				"version": 1
			}
		}
	}
}