{
	"contracts/FundMe.sol": {
		"FundMe": {
			"abi": [
				{
					"inputs": [],
					"name": "fund",
					"outputs": [],
					"stateMutability": "payable",
					"type": "function"
				},
				{
					"inputs": [],
					"name": "getPrice",
					"outputs": [
						{
							"internalType": "int256",
							"name": "",
							"type": "int256"
						}
					],
					"stateMutability": "view",
					"type": "function"
				},
				{
					"inputs": [],
					"name": "minUsd",
					"outputs": [
						{
							"internalType": "uint256",
							"name": "",
							"type": "uint256"
						}
					],
					"stateMutability": "view",
					"type": "function"
				}
			],
			"devdoc": {
				"kind": "dev",
				"methods": {},
				"version": 1
			},
			"evm": {
				"assembly": "    /* \"contracts/FundMe.sol\":253:910  contract FundMe {... */\n  mstore(0x40, 0x80)\n    /* \"contracts/FundMe.sol\":352:354  50 */\n  0x32\n    /* \"contracts/FundMe.sol\":331:354  uint public minUsd = 50 */\n  0x00\n  sstore\n    /* \"contracts/FundMe.sol\":253:910  contract FundMe {... */\n  callvalue\n  dup1\n  iszero\n  tag_1\n  jumpi\n  0x00\n  dup1\n  revert\ntag_1:\n  pop\n  dataSize(sub_0)\n  dup1\n  dataOffset(sub_0)\n  0x00\n  codecopy\n  0x00\n  return\nstop\n\nsub_0: assembly {\n        /* \"contracts/FundMe.sol\":253:910  contract FundMe {... */\n      mstore(0x40, 0x80)\n      jumpi(tag_1, lt(calldatasize, 0x04))\n      shr(0xe0, calldataload(0x00))\n      dup1\n      0x51b80e41\n      eq\n      tag_2\n      jumpi\n      dup1\n      0x98d5fdca\n      eq\n      tag_3\n      jumpi\n      dup1\n      0xb60d4288\n      eq\n      tag_4\n      jumpi\n    tag_1:\n      0x00\n      dup1\n      revert\n        /* \"contracts/FundMe.sol\":331:354  uint public minUsd = 50 */\n    tag_2:\n      callvalue\n      dup1\n      iszero\n      tag_5\n      jumpi\n      0x00\n      dup1\n      revert\n    tag_5:\n      pop\n      tag_6\n      tag_7\n      jump\t// in\n    tag_6:\n      mload(0x40)\n      tag_8\n      swap2\n      swap1\n      tag_9\n      jump\t// in\n    tag_8:\n      mload(0x40)\n      dup1\n      swap2\n      sub\n      swap1\n      return\n        /* \"contracts/FundMe.sol\":488:903  function getPrice() public view returns (int256) {... */\n    tag_3:\n      callvalue\n      dup1\n      iszero\n      tag_10\n      jumpi\n      0x00\n      dup1\n      revert\n    tag_10:\n      pop\n      tag_11\n      tag_12\n      jump\t// in\n    tag_11:\n      mload(0x40)\n      tag_13\n      swap2\n      swap1\n      tag_14\n      jump\t// in\n    tag_13:\n      mload(0x40)\n      dup1\n      swap2\n      sub\n      swap1\n      return\n        /* \"contracts/FundMe.sol\":363:480  function fund() public payable {... */\n    tag_4:\n      tag_15\n      tag_16\n      jump\t// in\n    tag_15:\n      stop\n        /* \"contracts/FundMe.sol\":331:354  uint public minUsd = 50 */\n    tag_7:\n      sload(0x00)\n      dup2\n      jump\t// out\n        /* \"contracts/FundMe.sol\":488:903  function getPrice() public view returns (int256) {... */\n    tag_12:\n        /* \"contracts/FundMe.sol\":529:535  int256 */\n      0x00\n        /* \"contracts/FundMe.sol\":628:659  AggregatorV3Interface priceFeed */\n      dup1\n        /* \"contracts/FundMe.sol\":684:726  0x8A753747A1Fa494EC906cE90E9f37563A8AF630e */\n      0x8a753747a1fa494ec906ce90e9f37563a8af630e\n        /* \"contracts/FundMe.sol\":628:727  AggregatorV3Interface priceFeed = AggregatorV3Interface(0x8A753747A1Fa494EC906cE90E9f37563A8AF630e) */\n      swap1\n      pop\n        /* \"contracts/FundMe.sol\":741:753  int256 price */\n      0x00\n        /* \"contracts/FundMe.sol\":760:769  priceFeed */\n      dup2\n        /* \"contracts/FundMe.sol\":760:785  priceFeed.latestRoundData */\n      0xffffffffffffffffffffffffffffffffffffffff\n      and\n      0xfeaf968c\n        /* \"contracts/FundMe.sol\":760:787  priceFeed.latestRoundData() */\n      mload(0x40)\n      dup2\n      0xffffffff\n      and\n      0xe0\n      shl\n      dup2\n      mstore\n      0x04\n      add\n      0xa0\n      mload(0x40)\n      dup1\n      dup4\n      sub\n      dup2\n      dup7\n      gas\n      staticcall\n      iszero\n      dup1\n      iszero\n      tag_19\n      jumpi\n      returndatasize\n      0x00\n      dup1\n      returndatacopy\n      revert(0x00, returndatasize)\n    tag_19:\n      pop\n      pop\n      pop\n      pop\n      mload(0x40)\n      returndatasize\n      not(0x1f)\n      0x1f\n      dup3\n      add\n      and\n      dup3\n      add\n      dup1\n      0x40\n      mstore\n      pop\n      dup2\n      add\n      swap1\n      tag_20\n      swap2\n      swap1\n      tag_21\n      jump\t// in\n    tag_20:\n        /* \"contracts/FundMe.sol\":738:787  (, int256 price,,,) = priceFeed.latestRoundData() */\n      pop\n      pop\n      pop\n      swap2\n      pop\n      pop\n        /* \"contracts/FundMe.sol\":890:895  price */\n      dup1\n        /* \"contracts/FundMe.sol\":883:895  return price */\n      swap3\n      pop\n      pop\n      pop\n        /* \"contracts/FundMe.sol\":488:903  function getPrice() public view returns (int256) {... */\n      swap1\n      jump\t// out\n        /* \"contracts/FundMe.sol\":363:480  function fund() public payable {... */\n    tag_16:\n        /* \"contracts/FundMe.sol\":426:432  minUsd */\n      sload(0x00)\n        /* \"contracts/FundMe.sol\":413:422  msg.value */\n      callvalue\n        /* \"contracts/FundMe.sol\":413:432  msg.value >= minUsd */\n      lt\n      iszero\n        /* \"contracts/FundMe.sol\":405:472  require(msg.value >= minUsd, \"Funding amount must be at least $50\") */\n      tag_23\n      jumpi\n      mload(0x40)\n      0x08c379a000000000000000000000000000000000000000000000000000000000\n      dup2\n      mstore\n      0x04\n      add\n      tag_24\n      swap1\n      tag_25\n      jump\t// in\n    tag_24:\n      mload(0x40)\n      dup1\n      swap2\n      sub\n      swap1\n      revert\n    tag_23:\n        /* \"contracts/FundMe.sol\":363:480  function fund() public payable {... */\n      jump\t// out\n        /* \"#utility.yul\":7:84   */\n    tag_26:\n        /* \"#utility.yul\":44:51   */\n      0x00\n        /* \"#utility.yul\":73:78   */\n      dup2\n        /* \"#utility.yul\":62:78   */\n      swap1\n      pop\n        /* \"#utility.yul\":7:84   */\n      swap2\n      swap1\n      pop\n      jump\t// out\n        /* \"#utility.yul\":90:208   */\n    tag_27:\n        /* \"#utility.yul\":177:201   */\n      tag_46\n        /* \"#utility.yul\":195:200   */\n      dup2\n        /* \"#utility.yul\":177:201   */\n      tag_26\n      jump\t// in\n    tag_46:\n        /* \"#utility.yul\":172:175   */\n      dup3\n        /* \"#utility.yul\":165:202   */\n      mstore\n        /* \"#utility.yul\":90:208   */\n      pop\n      pop\n      jump\t// out\n        /* \"#utility.yul\":214:436   */\n    tag_9:\n        /* \"#utility.yul\":307:311   */\n      0x00\n        /* \"#utility.yul\":345:347   */\n      0x20\n        /* \"#utility.yul\":334:343   */\n      dup3\n        /* \"#utility.yul\":330:348   */\n      add\n        /* \"#utility.yul\":322:348   */\n      swap1\n      pop\n        /* \"#utility.yul\":358:429   */\n      tag_48\n        /* \"#utility.yul\":426:427   */\n      0x00\n        /* \"#utility.yul\":415:424   */\n      dup4\n        /* \"#utility.yul\":411:428   */\n      add\n        /* \"#utility.yul\":402:408   */\n      dup5\n        /* \"#utility.yul\":358:429   */\n      tag_27\n      jump\t// in\n    tag_48:\n        /* \"#utility.yul\":214:436   */\n      swap3\n      swap2\n      pop\n      pop\n      jump\t// out\n        /* \"#utility.yul\":442:518   */\n    tag_28:\n        /* \"#utility.yul\":478:485   */\n      0x00\n        /* \"#utility.yul\":507:512   */\n      dup2\n        /* \"#utility.yul\":496:512   */\n      swap1\n      pop\n        /* \"#utility.yul\":442:518   */\n      swap2\n      swap1\n      pop\n      jump\t// out\n        /* \"#utility.yul\":524:639   */\n    tag_29:\n        /* \"#utility.yul\":609:632   */\n      tag_51\n        /* \"#utility.yul\":626:631   */\n      dup2\n        /* \"#utility.yul\":609:632   */\n      tag_28\n      jump\t// in\n    tag_51:\n        /* \"#utility.yul\":604:607   */\n      dup3\n        /* \"#utility.yul\":597:633   */\n      mstore\n        /* \"#utility.yul\":524:639   */\n      pop\n      pop\n      jump\t// out\n        /* \"#utility.yul\":645:863   */\n    tag_14:\n        /* \"#utility.yul\":736:740   */\n      0x00\n        /* \"#utility.yul\":774:776   */\n      0x20\n        /* \"#utility.yul\":763:772   */\n      dup3\n        /* \"#utility.yul\":759:777   */\n      add\n        /* \"#utility.yul\":751:777   */\n      swap1\n      pop\n        /* \"#utility.yul\":787:856   */\n      tag_53\n        /* \"#utility.yul\":853:854   */\n      0x00\n        /* \"#utility.yul\":842:851   */\n      dup4\n        /* \"#utility.yul\":838:855   */\n      add\n        /* \"#utility.yul\":829:835   */\n      dup5\n        /* \"#utility.yul\":787:856   */\n      tag_29\n      jump\t// in\n    tag_53:\n        /* \"#utility.yul\":645:863   */\n      swap3\n      swap2\n      pop\n      pop\n      jump\t// out\n        /* \"#utility.yul\":950:1067   */\n    tag_31:\n        /* \"#utility.yul\":1059:1060   */\n      0x00\n        /* \"#utility.yul\":1056:1057   */\n      dup1\n        /* \"#utility.yul\":1049:1061   */\n      revert\n        /* \"#utility.yul\":1196:1301   */\n    tag_33:\n        /* \"#utility.yul\":1232:1239   */\n      0x00\n        /* \"#utility.yul\":1272:1294   */\n      0xffffffffffffffffffff\n        /* \"#utility.yul\":1265:1270   */\n      dup3\n        /* \"#utility.yul\":1261:1295   */\n      and\n        /* \"#utility.yul\":1250:1295   */\n      swap1\n      pop\n        /* \"#utility.yul\":1196:1301   */\n      swap2\n      swap1\n      pop\n      jump\t// out\n        /* \"#utility.yul\":1307:1427   */\n    tag_34:\n        /* \"#utility.yul\":1379:1402   */\n      tag_59\n        /* \"#utility.yul\":1396:1401   */\n      dup2\n        /* \"#utility.yul\":1379:1402   */\n      tag_33\n      jump\t// in\n    tag_59:\n        /* \"#utility.yul\":1372:1377   */\n      dup2\n        /* \"#utility.yul\":1369:1403   */\n      eq\n        /* \"#utility.yul\":1359:1421   */\n      tag_60\n      jumpi\n        /* \"#utility.yul\":1417:1418   */\n      0x00\n        /* \"#utility.yul\":1414:1415   */\n      dup1\n        /* \"#utility.yul\":1407:1419   */\n      revert\n        /* \"#utility.yul\":1359:1421   */\n    tag_60:\n        /* \"#utility.yul\":1307:1427   */\n      pop\n      jump\t// out\n        /* \"#utility.yul\":1433:1574   */\n    tag_35:\n        /* \"#utility.yul\":1489:1494   */\n      0x00\n        /* \"#utility.yul\":1520:1526   */\n      dup2\n        /* \"#utility.yul\":1514:1527   */\n      mload\n        /* \"#utility.yul\":1505:1527   */\n      swap1\n      pop\n        /* \"#utility.yul\":1536:1568   */\n      tag_62\n        /* \"#utility.yul\":1562:1567   */\n      dup2\n        /* \"#utility.yul\":1536:1568   */\n      tag_34\n      jump\t// in\n    tag_62:\n        /* \"#utility.yul\":1433:1574   */\n      swap3\n      swap2\n      pop\n      pop\n      jump\t// out\n        /* \"#utility.yul\":1580:1700   */\n    tag_36:\n        /* \"#utility.yul\":1652:1675   */\n      tag_64\n        /* \"#utility.yul\":1669:1674   */\n      dup2\n        /* \"#utility.yul\":1652:1675   */\n      tag_28\n      jump\t// in\n    tag_64:\n        /* \"#utility.yul\":1645:1650   */\n      dup2\n        /* \"#utility.yul\":1642:1676   */\n      eq\n        /* \"#utility.yul\":1632:1694   */\n      tag_65\n      jumpi\n        /* \"#utility.yul\":1690:1691   */\n      0x00\n        /* \"#utility.yul\":1687:1688   */\n      dup1\n        /* \"#utility.yul\":1680:1692   */\n      revert\n        /* \"#utility.yul\":1632:1694   */\n    tag_65:\n        /* \"#utility.yul\":1580:1700   */\n      pop\n      jump\t// out\n        /* \"#utility.yul\":1706:1847   */\n    tag_37:\n        /* \"#utility.yul\":1762:1767   */\n      0x00\n        /* \"#utility.yul\":1793:1799   */\n      dup2\n        /* \"#utility.yul\":1787:1800   */\n      mload\n        /* \"#utility.yul\":1778:1800   */\n      swap1\n      pop\n        /* \"#utility.yul\":1809:1841   */\n      tag_67\n        /* \"#utility.yul\":1835:1840   */\n      dup2\n        /* \"#utility.yul\":1809:1841   */\n      tag_36\n      jump\t// in\n    tag_67:\n        /* \"#utility.yul\":1706:1847   */\n      swap3\n      swap2\n      pop\n      pop\n      jump\t// out\n        /* \"#utility.yul\":1853:1975   */\n    tag_38:\n        /* \"#utility.yul\":1926:1950   */\n      tag_69\n        /* \"#utility.yul\":1944:1949   */\n      dup2\n        /* \"#utility.yul\":1926:1950   */\n      tag_26\n      jump\t// in\n    tag_69:\n        /* \"#utility.yul\":1919:1924   */\n      dup2\n        /* \"#utility.yul\":1916:1951   */\n      eq\n        /* \"#utility.yul\":1906:1969   */\n      tag_70\n      jumpi\n        /* \"#utility.yul\":1965:1966   */\n      0x00\n        /* \"#utility.yul\":1962:1963   */\n      dup1\n        /* \"#utility.yul\":1955:1967   */\n      revert\n        /* \"#utility.yul\":1906:1969   */\n    tag_70:\n        /* \"#utility.yul\":1853:1975   */\n      pop\n      jump\t// out\n        /* \"#utility.yul\":1981:2124   */\n    tag_39:\n        /* \"#utility.yul\":2038:2043   */\n      0x00\n        /* \"#utility.yul\":2069:2075   */\n      dup2\n        /* \"#utility.yul\":2063:2076   */\n      mload\n        /* \"#utility.yul\":2054:2076   */\n      swap1\n      pop\n        /* \"#utility.yul\":2085:2118   */\n      tag_72\n        /* \"#utility.yul\":2112:2117   */\n      dup2\n        /* \"#utility.yul\":2085:2118   */\n      tag_38\n      jump\t// in\n    tag_72:\n        /* \"#utility.yul\":1981:2124   */\n      swap3\n      swap2\n      pop\n      pop\n      jump\t// out\n        /* \"#utility.yul\":2130:3101   */\n    tag_21:\n        /* \"#utility.yul\":2233:2239   */\n      0x00\n        /* \"#utility.yul\":2241:2247   */\n      dup1\n        /* \"#utility.yul\":2249:2255   */\n      0x00\n        /* \"#utility.yul\":2257:2263   */\n      dup1\n        /* \"#utility.yul\":2265:2271   */\n      0x00\n        /* \"#utility.yul\":2314:2317   */\n      0xa0\n        /* \"#utility.yul\":2302:2311   */\n      dup7\n        /* \"#utility.yul\":2293:2300   */\n      dup9\n        /* \"#utility.yul\":2289:2312   */\n      sub\n        /* \"#utility.yul\":2285:2318   */\n      slt\n        /* \"#utility.yul\":2282:2402   */\n      iszero\n      tag_74\n      jumpi\n        /* \"#utility.yul\":2321:2400   */\n      tag_75\n      tag_31\n      jump\t// in\n    tag_75:\n        /* \"#utility.yul\":2282:2402   */\n    tag_74:\n        /* \"#utility.yul\":2441:2442   */\n      0x00\n        /* \"#utility.yul\":2466:2529   */\n      tag_76\n        /* \"#utility.yul\":2521:2528   */\n      dup9\n        /* \"#utility.yul\":2512:2518   */\n      dup3\n        /* \"#utility.yul\":2501:2510   */\n      dup10\n        /* \"#utility.yul\":2497:2519   */\n      add\n        /* \"#utility.yul\":2466:2529   */\n      tag_35\n      jump\t// in\n    tag_76:\n        /* \"#utility.yul\":2456:2529   */\n      swap6\n      pop\n        /* \"#utility.yul\":2412:2539   */\n      pop\n        /* \"#utility.yul\":2578:2580   */\n      0x20\n        /* \"#utility.yul\":2604:2667   */\n      tag_77\n        /* \"#utility.yul\":2659:2666   */\n      dup9\n        /* \"#utility.yul\":2650:2656   */\n      dup3\n        /* \"#utility.yul\":2639:2648   */\n      dup10\n        /* \"#utility.yul\":2635:2657   */\n      add\n        /* \"#utility.yul\":2604:2667   */\n      tag_37\n      jump\t// in\n    tag_77:\n        /* \"#utility.yul\":2594:2667   */\n      swap5\n      pop\n        /* \"#utility.yul\":2549:2677   */\n      pop\n        /* \"#utility.yul\":2716:2718   */\n      0x40\n        /* \"#utility.yul\":2742:2806   */\n      tag_78\n        /* \"#utility.yul\":2798:2805   */\n      dup9\n        /* \"#utility.yul\":2789:2795   */\n      dup3\n        /* \"#utility.yul\":2778:2787   */\n      dup10\n        /* \"#utility.yul\":2774:2796   */\n      add\n        /* \"#utility.yul\":2742:2806   */\n      tag_39\n      jump\t// in\n    tag_78:\n        /* \"#utility.yul\":2732:2806   */\n      swap4\n      pop\n        /* \"#utility.yul\":2687:2816   */\n      pop\n        /* \"#utility.yul\":2855:2857   */\n      0x60\n        /* \"#utility.yul\":2881:2945   */\n      tag_79\n        /* \"#utility.yul\":2937:2944   */\n      dup9\n        /* \"#utility.yul\":2928:2934   */\n      dup3\n        /* \"#utility.yul\":2917:2926   */\n      dup10\n        /* \"#utility.yul\":2913:2935   */\n      add\n        /* \"#utility.yul\":2881:2945   */\n      tag_39\n      jump\t// in\n    tag_79:\n        /* \"#utility.yul\":2871:2945   */\n      swap3\n      pop\n        /* \"#utility.yul\":2826:2955   */\n      pop\n        /* \"#utility.yul\":2994:2997   */\n      0x80\n        /* \"#utility.yul\":3021:3084   */\n      tag_80\n        /* \"#utility.yul\":3076:3083   */\n      dup9\n        /* \"#utility.yul\":3067:3073   */\n      dup3\n        /* \"#utility.yul\":3056:3065   */\n      dup10\n        /* \"#utility.yul\":3052:3074   */\n      add\n        /* \"#utility.yul\":3021:3084   */\n      tag_35\n      jump\t// in\n    tag_80:\n        /* \"#utility.yul\":3011:3084   */\n      swap2\n      pop\n        /* \"#utility.yul\":2965:3094   */\n      pop\n        /* \"#utility.yul\":2130:3101   */\n      swap3\n      swap6\n      pop\n      swap3\n      swap6\n      swap1\n      swap4\n      pop\n      jump\t// out\n        /* \"#utility.yul\":3107:3276   */\n    tag_40:\n        /* \"#utility.yul\":3191:3202   */\n      0x00\n        /* \"#utility.yul\":3225:3231   */\n      dup3\n        /* \"#utility.yul\":3220:3223   */\n      dup3\n        /* \"#utility.yul\":3213:3232   */\n      mstore\n        /* \"#utility.yul\":3265:3269   */\n      0x20\n        /* \"#utility.yul\":3260:3263   */\n      dup3\n        /* \"#utility.yul\":3256:3270   */\n      add\n        /* \"#utility.yul\":3241:3270   */\n      swap1\n      pop\n        /* \"#utility.yul\":3107:3276   */\n      swap3\n      swap2\n      pop\n      pop\n      jump\t// out\n        /* \"#utility.yul\":3282:3504   */\n    tag_41:\n        /* \"#utility.yul\":3422:3456   */\n      0x46756e64696e6720616d6f756e74206d757374206265206174206c6561737420\n        /* \"#utility.yul\":3418:3419   */\n      0x00\n        /* \"#utility.yul\":3410:3416   */\n      dup3\n        /* \"#utility.yul\":3406:3420   */\n      add\n        /* \"#utility.yul\":3399:3457   */\n      mstore\n        /* \"#utility.yul\":3491:3496   */\n      0x2435300000000000000000000000000000000000000000000000000000000000\n        /* \"#utility.yul\":3486:3488   */\n      0x20\n        /* \"#utility.yul\":3478:3484   */\n      dup3\n        /* \"#utility.yul\":3474:3489   */\n      add\n        /* \"#utility.yul\":3467:3497   */\n      mstore\n        /* \"#utility.yul\":3282:3504   */\n      pop\n      jump\t// out\n        /* \"#utility.yul\":3510:3876   */\n    tag_42:\n        /* \"#utility.yul\":3652:3655   */\n      0x00\n        /* \"#utility.yul\":3673:3740   */\n      tag_84\n        /* \"#utility.yul\":3737:3739   */\n      0x23\n        /* \"#utility.yul\":3732:3735   */\n      dup4\n        /* \"#utility.yul\":3673:3740   */\n      tag_40\n      jump\t// in\n    tag_84:\n        /* \"#utility.yul\":3666:3740   */\n      swap2\n      pop\n        /* \"#utility.yul\":3749:3842   */\n      tag_85\n        /* \"#utility.yul\":3838:3841   */\n      dup3\n        /* \"#utility.yul\":3749:3842   */\n      tag_41\n      jump\t// in\n    tag_85:\n        /* \"#utility.yul\":3867:3869   */\n      0x40\n        /* \"#utility.yul\":3862:3865   */\n      dup3\n        /* \"#utility.yul\":3858:3870   */\n      add\n        /* \"#utility.yul\":3851:3870   */\n      swap1\n      pop\n        /* \"#utility.yul\":3510:3876   */\n      swap2\n      swap1\n      pop\n      jump\t// out\n        /* \"#utility.yul\":3882:4301   */\n    tag_25:\n        /* \"#utility.yul\":4048:4052   */\n      0x00\n        /* \"#utility.yul\":4086:4088   */\n      0x20\n        /* \"#utility.yul\":4075:4084   */\n      dup3\n        /* \"#utility.yul\":4071:4089   */\n      add\n        /* \"#utility.yul\":4063:4089   */\n      swap1\n      pop\n        /* \"#utility.yul\":4135:4144   */\n      dup2\n        /* \"#utility.yul\":4129:4133   */\n      dup2\n        /* \"#utility.yul\":4125:4145   */\n      sub\n        /* \"#utility.yul\":4121:4122   */\n      0x00\n        /* \"#utility.yul\":4110:4119   */\n      dup4\n        /* \"#utility.yul\":4106:4123   */\n      add\n        /* \"#utility.yul\":4099:4146   */\n      mstore\n        /* \"#utility.yul\":4163:4294   */\n      tag_87\n        /* \"#utility.yul\":4289:4293   */\n      dup2\n        /* \"#utility.yul\":4163:4294   */\n      tag_42\n      jump\t// in\n    tag_87:\n        /* \"#utility.yul\":4155:4294   */\n      swap1\n      pop\n        /* \"#utility.yul\":3882:4301   */\n      swap2\n      swap1\n      pop\n      jump\t// out\n\n    auxdata: 0xa2646970667358221220b42cc5e25334d4966ddb311fbad1ed79a28a6dda21b9a1c63f77fafe965a8c3564736f6c634300080f0033\n}\n",
				"bytecode": {
					"linkReferences": {},
					"object": "6080604052603260005534801561001557600080fd5b506103da806100256000396000f3fe6080604052600436106100345760003560e01c806351b80e411461003957806398d5fdca14610064578063b60d42881461008f575b600080fd5b34801561004557600080fd5b5061004e610099565b60405161005b9190610198565b60405180910390f35b34801561007057600080fd5b5061007961009f565b60405161008691906101cc565b60405180910390f35b610097610138565b005b60005481565b600080738a753747a1fa494ec906ce90e9f37563a8af630e905060008173ffffffffffffffffffffffffffffffffffffffff1663feaf968c6040518163ffffffff1660e01b815260040160a060405180830381865afa158015610106573d6000803e3d6000fd5b505050506040513d601f19601f8201168201806040525081019061012a9190610286565b505050915050809250505090565b60005434101561017d576040517f08c379a000000000000000000000000000000000000000000000000000000000815260040161017490610384565b60405180910390fd5b565b6000819050919050565b6101928161017f565b82525050565b60006020820190506101ad6000830184610189565b92915050565b6000819050919050565b6101c6816101b3565b82525050565b60006020820190506101e160008301846101bd565b92915050565b600080fd5b600069ffffffffffffffffffff82169050919050565b61020b816101ec565b811461021657600080fd5b50565b60008151905061022881610202565b92915050565b610237816101b3565b811461024257600080fd5b50565b6000815190506102548161022e565b92915050565b6102638161017f565b811461026e57600080fd5b50565b6000815190506102808161025a565b92915050565b600080600080600060a086880312156102a2576102a16101e7565b5b60006102b088828901610219565b95505060206102c188828901610245565b94505060406102d288828901610271565b93505060606102e388828901610271565b92505060806102f488828901610219565b9150509295509295909350565b600082825260208201905092915050565b7f46756e64696e6720616d6f756e74206d757374206265206174206c656173742060008201527f2435300000000000000000000000000000000000000000000000000000000000602082015250565b600061036e602383610301565b915061037982610312565b604082019050919050565b6000602082019050818103600083015261039d81610361565b905091905056fea2646970667358221220b42cc5e25334d4966ddb311fbad1ed79a28a6dda21b9a1c63f77fafe965a8c3564736f6c634300080f0033",
					"opcodes": "PUSH1 0x80 PUSH1 0x40 MSTORE PUSH1 0x32 PUSH1 0x0 SSTORE CALLVALUE DUP1 ISZERO PUSH2 0x15 JUMPI PUSH1 0x0 DUP1 REVERT JUMPDEST POP PUSH2 0x3DA DUP1 PUSH2 0x25 PUSH1 0x0 CODECOPY PUSH1 0x0 RETURN INVALID PUSH1 0x80 PUSH1 0x40 MSTORE PUSH1 0x4 CALLDATASIZE LT PUSH2 0x34 JUMPI PUSH1 0x0 CALLDATALOAD PUSH1 0xE0 SHR DUP1 PUSH4 0x51B80E41 EQ PUSH2 0x39 JUMPI DUP1 PUSH4 0x98D5FDCA EQ PUSH2 0x64 JUMPI DUP1 PUSH4 0xB60D4288 EQ PUSH2 0x8F JUMPI JUMPDEST PUSH1 0x0 DUP1 REVERT JUMPDEST CALLVALUE DUP1 ISZERO PUSH2 0x45 JUMPI PUSH1 0x0 DUP1 REVERT JUMPDEST POP PUSH2 0x4E PUSH2 0x99 JUMP JUMPDEST PUSH1 0x40 MLOAD PUSH2 0x5B SWAP2 SWAP1 PUSH2 0x198 JUMP JUMPDEST PUSH1 0x40 MLOAD DUP1 SWAP2 SUB SWAP1 RETURN JUMPDEST CALLVALUE DUP1 ISZERO PUSH2 0x70 JUMPI PUSH1 0x0 DUP1 REVERT JUMPDEST POP PUSH2 0x79 PUSH2 0x9F JUMP JUMPDEST PUSH1 0x40 MLOAD PUSH2 0x86 SWAP2 SWAP1 PUSH2 0x1CC JUMP JUMPDEST PUSH1 0x40 MLOAD DUP1 SWAP2 SUB SWAP1 RETURN JUMPDEST PUSH2 0x97 PUSH2 0x138 JUMP JUMPDEST STOP JUMPDEST PUSH1 0x0 SLOAD DUP2 JUMP JUMPDEST PUSH1 0x0 DUP1 PUSH20 0x8A753747A1FA494EC906CE90E9F37563A8AF630E SWAP1 POP PUSH1 0x0 DUP2 PUSH20 0xFFFFFFFFFFFFFFFFFFFFFFFFFFFFFFFFFFFFFFFF AND PUSH4 0xFEAF968C PUSH1 0x40 MLOAD DUP2 PUSH4 0xFFFFFFFF AND PUSH1 0xE0 SHL DUP2 MSTORE PUSH1 0x4 ADD PUSH1 0xA0 PUSH1 0x40 MLOAD DUP1 DUP4 SUB DUP2 DUP7 GAS STATICCALL ISZERO DUP1 ISZERO PUSH2 0x106 JUMPI RETURNDATASIZE PUSH1 0x0 DUP1 RETURNDATACOPY RETURNDATASIZE PUSH1 0x0 REVERT JUMPDEST POP POP POP POP PUSH1 0x40 MLOAD RETURNDATASIZE PUSH1 0x1F NOT PUSH1 0x1F DUP3 ADD AND DUP3 ADD DUP1 PUSH1 0x40 MSTORE POP DUP2 ADD SWAP1 PUSH2 0x12A SWAP2 SWAP1 PUSH2 0x286 JUMP JUMPDEST POP POP POP SWAP2 POP POP DUP1 SWAP3 POP POP POP SWAP1 JUMP JUMPDEST PUSH1 0x0 SLOAD CALLVALUE LT ISZERO PUSH2 0x17D JUMPI PUSH1 0x40 MLOAD PUSH32 0x8C379A000000000000000000000000000000000000000000000000000000000 DUP2 MSTORE PUSH1 0x4 ADD PUSH2 0x174 SWAP1 PUSH2 0x384 JUMP JUMPDEST PUSH1 0x40 MLOAD DUP1 SWAP2 SUB SWAP1 REVERT JUMPDEST JUMP JUMPDEST PUSH1 0x0 DUP2 SWAP1 POP SWAP2 SWAP1 POP JUMP JUMPDEST PUSH2 0x192 DUP2 PUSH2 0x17F JUMP JUMPDEST DUP3 MSTORE POP POP JUMP JUMPDEST PUSH1 0x0 PUSH1 0x20 DUP3 ADD SWAP1 POP PUSH2 0x1AD PUSH1 0x0 DUP4 ADD DUP5 PUSH2 0x189 JUMP JUMPDEST SWAP3 SWAP2 POP POP JUMP JUMPDEST PUSH1 0x0 DUP2 SWAP1 POP SWAP2 SWAP1 POP JUMP JUMPDEST PUSH2 0x1C6 DUP2 PUSH2 0x1B3 JUMP JUMPDEST DUP3 MSTORE POP POP JUMP JUMPDEST PUSH1 0x0 PUSH1 0x20 DUP3 ADD SWAP1 POP PUSH2 0x1E1 PUSH1 0x0 DUP4 ADD DUP5 PUSH2 0x1BD JUMP JUMPDEST SWAP3 SWAP2 POP POP JUMP JUMPDEST PUSH1 0x0 DUP1 REVERT JUMPDEST PUSH1 0x0 PUSH10 0xFFFFFFFFFFFFFFFFFFFF DUP3 AND SWAP1 POP SWAP2 SWAP1 POP JUMP JUMPDEST PUSH2 0x20B DUP2 PUSH2 0x1EC JUMP JUMPDEST DUP2 EQ PUSH2 0x216 JUMPI PUSH1 0x0 DUP1 REVERT JUMPDEST POP JUMP JUMPDEST PUSH1 0x0 DUP2 MLOAD SWAP1 POP PUSH2 0x228 DUP2 PUSH2 0x202 JUMP JUMPDEST SWAP3 SWAP2 POP POP JUMP JUMPDEST PUSH2 0x237 DUP2 PUSH2 0x1B3 JUMP JUMPDEST DUP2 EQ PUSH2 0x242 JUMPI PUSH1 0x0 DUP1 REVERT JUMPDEST POP JUMP JUMPDEST PUSH1 0x0 DUP2 MLOAD SWAP1 POP PUSH2 0x254 DUP2 PUSH2 0x22E JUMP JUMPDEST SWAP3 SWAP2 POP POP JUMP JUMPDEST PUSH2 0x263 DUP2 PUSH2 0x17F JUMP JUMPDEST DUP2 EQ PUSH2 0x26E JUMPI PUSH1 0x0 DUP1 REVERT JUMPDEST POP JUMP JUMPDEST PUSH1 0x0 DUP2 MLOAD SWAP1 POP PUSH2 0x280 DUP2 PUSH2 0x25A JUMP JUMPDEST SWAP3 SWAP2 POP POP JUMP JUMPDEST PUSH1 0x0 DUP1 PUSH1 0x0 DUP1 PUSH1 0x0 PUSH1 0xA0 DUP7 DUP9 SUB SLT ISZERO PUSH2 0x2A2 JUMPI PUSH2 0x2A1 PUSH2 0x1E7 JUMP JUMPDEST JUMPDEST PUSH1 0x0 PUSH2 0x2B0 DUP9 DUP3 DUP10 ADD PUSH2 0x219 JUMP JUMPDEST SWAP6 POP POP PUSH1 0x20 PUSH2 0x2C1 DUP9 DUP3 DUP10 ADD PUSH2 0x245 JUMP JUMPDEST SWAP5 POP POP PUSH1 0x40 PUSH2 0x2D2 DUP9 DUP3 DUP10 ADD PUSH2 0x271 JUMP JUMPDEST SWAP4 POP POP PUSH1 0x60 PUSH2 0x2E3 DUP9 DUP3 DUP10 ADD PUSH2 0x271 JUMP JUMPDEST SWAP3 POP POP PUSH1 0x80 PUSH2 0x2F4 DUP9 DUP3 DUP10 ADD PUSH2 0x219 JUMP JUMPDEST SWAP2 POP POP SWAP3 SWAP6 POP SWAP3 SWAP6 SWAP1 SWAP4 POP JUMP JUMPDEST PUSH1 0x0 DUP3 DUP3 MSTORE PUSH1 0x20 DUP3 ADD SWAP1 POP SWAP3 SWAP2 POP POP JUMP JUMPDEST PUSH32 0x46756E64696E6720616D6F756E74206D757374206265206174206C6561737420 PUSH1 0x0 DUP3 ADD MSTORE PUSH32 0x2435300000000000000000000000000000000000000000000000000000000000 PUSH1 0x20 DUP3 ADD MSTORE POP JUMP JUMPDEST PUSH1 0x0 PUSH2 0x36E PUSH1 0x23 DUP4 PUSH2 0x301 JUMP JUMPDEST SWAP2 POP PUSH2 0x379 DUP3 PUSH2 0x312 JUMP JUMPDEST PUSH1 0x40 DUP3 ADD SWAP1 POP SWAP2 SWAP1 POP JUMP JUMPDEST PUSH1 0x0 PUSH1 0x20 DUP3 ADD SWAP1 POP DUP2 DUP2 SUB PUSH1 0x0 DUP4 ADD MSTORE PUSH2 0x39D DUP2 PUSH2 0x361 JUMP JUMPDEST SWAP1 POP SWAP2 SWAP1 POP JUMP INVALID LOG2 PUSH5 0x6970667358 0x22 SLT KECCAK256 0xB4 0x2C 0xC5 0xE2 MSTORE8 CALLVALUE 0xD4 SWAP7 PUSH14 0xDB311FBAD1ED79A28A6DDA21B9A1 0xC6 EXTCODEHASH PUSH24 0xFAFE965A8C3564736F6C634300080F003300000000000000 "
				},
				"gasEstimates": {
					"creation": {
						"codeDepositCost": "197200",
						"executionCost": "22344",
						"totalCost": "219544"
					},
					"external": {
						"fund()": "2574",
						"getPrice()": "infinite",
						"minUsd()": "2407"
					}
				},
				"methodIdentifiers": {
					"fund()": "b60d4288",
					"getPrice()": "98d5fdca",
					"minUsd()": "51b80e41"
				}
			},
			"storageLayout": {
				"storage": [
					{
						"astId": 51,
						"contract": "contracts/FundMe.sol:FundMe",
						"label": "minUsd",
						"offset": 0,
						"slot": "0",
						"type": "t_uint256"
					}
				],
				"types": {
					"t_uint256": {
						"encoding": "inplace",
						"label": "uint256",
						"numberOfBytes": "32"
					}
				}
			},
			"userdoc": {
				"kind": "user",
				"methods": {},
				"version": 1
			}
		}
	}
}