{
	"contracts/FundMe.sol": {
		"FundMe": {
			"abi": [
				{
					"inputs": [
						{
							"internalType": "address",
							"name": "",
							"type": "address"
						}
					],
					"name": "addressToAmount",
					"outputs": [
						{
							"internalType": "uint256",
							"name": "",
							"type": "uint256"
						}
					],
					"stateMutability": "view",
					"type": "function"
				},
				{
					"inputs": [],
					"name": "fund",
					"outputs": [],
					"stateMutability": "payable",
					"type": "function"
				},
				{
					"inputs": [
						{
							"internalType": "uint256",
							"name": "",
							"type": "uint256"
						}
					],
					"name": "funders",
					"outputs": [
						{
							"internalType": "address",
							"name": "",
							"type": "address"
						}
					],
					"stateMutability": "view",
					"type": "function"
				},
				{
					"inputs": [],
					"name": "minUsd",
					"outputs": [
						{
							"internalType": "uint256",
							"name": "",
							"type": "uint256"
						}
					],
					"stateMutability": "view",
					"type": "function"
				},
				{
					"inputs": [],
					"name": "withdraw",
					"outputs": [],
					"stateMutability": "nonpayable",
					"type": "function"
				}
			],
			"devdoc": {
				"kind": "dev",
				"methods": {},
				"version": 1
			},
			"evm": {
				"assembly": "    /* \"contracts/FundMe.sol\":207:1942  contract FundMe {... */\n  mstore(0x40, 0x80)\n    /* \"contracts/FundMe.sol\":347:349  50 */\n  0x32\n    /* \"contracts/FundMe.sol\":326:349  uint public minUsd = 50 */\n  0x00\n  sstore\n    /* \"contracts/FundMe.sol\":207:1942  contract FundMe {... */\n  callvalue\n  dup1\n  iszero\n  tag_1\n  jumpi\n  0x00\n  dup1\n  revert\ntag_1:\n  pop\n  dataSize(sub_0)\n  dup1\n  dataOffset(sub_0)\n  0x00\n  codecopy\n  0x00\n  return\nstop\n\nsub_0: assembly {\n        /* \"contracts/FundMe.sol\":207:1942  contract FundMe {... */\n      mstore(0x40, 0x80)\n      jumpi(tag_1, lt(calldatasize, 0x04))\n      shr(0xe0, calldataload(0x00))\n      dup1\n      0x3c7e7d28\n      eq\n      tag_2\n      jumpi\n      dup1\n      0x3ccfd60b\n      eq\n      tag_3\n      jumpi\n      dup1\n      0x51b80e41\n      eq\n      tag_4\n      jumpi\n      dup1\n      0xb60d4288\n      eq\n      tag_5\n      jumpi\n      dup1\n      0xdc0d3dff\n      eq\n      tag_6\n      jumpi\n    tag_1:\n      0x00\n      dup1\n      revert\n        /* \"contracts/FundMe.sol\":389:439  mapping(address => uint256) public addressToAmount */\n    tag_2:\n      callvalue\n      dup1\n      iszero\n      tag_7\n      jumpi\n      0x00\n      dup1\n      revert\n    tag_7:\n      pop\n      tag_8\n      0x04\n      dup1\n      calldatasize\n      sub\n      dup2\n      add\n      swap1\n      tag_9\n      swap2\n      swap1\n      tag_10\n      jump\t// in\n    tag_9:\n      tag_11\n      jump\t// in\n    tag_8:\n      mload(0x40)\n      tag_12\n      swap2\n      swap1\n      tag_13\n      jump\t// in\n    tag_12:\n      mload(0x40)\n      dup1\n      swap2\n      sub\n      swap1\n      return\n        /* \"contracts/FundMe.sol\":679:1935  function withdraw() public {... */\n    tag_3:\n      callvalue\n      dup1\n      iszero\n      tag_14\n      jumpi\n      0x00\n      dup1\n      revert\n    tag_14:\n      pop\n      tag_15\n      tag_16\n      jump\t// in\n    tag_15:\n      stop\n        /* \"contracts/FundMe.sol\":326:349  uint public minUsd = 50 */\n    tag_4:\n      callvalue\n      dup1\n      iszero\n      tag_17\n      jumpi\n      0x00\n      dup1\n      revert\n    tag_17:\n      pop\n      tag_18\n      tag_19\n      jump\t// in\n    tag_18:\n      mload(0x40)\n      tag_20\n      swap2\n      swap1\n      tag_13\n      jump\t// in\n    tag_20:\n      mload(0x40)\n      dup1\n      swap2\n      sub\n      swap1\n      return\n        /* \"contracts/FundMe.sol\":448:671  function fund() public payable {... */\n    tag_5:\n      tag_21\n      tag_22\n      jump\t// in\n    tag_21:\n      stop\n        /* \"contracts/FundMe.sol\":358:382  address[] public funders */\n    tag_6:\n      callvalue\n      dup1\n      iszero\n      tag_23\n      jumpi\n      0x00\n      dup1\n      revert\n    tag_23:\n      pop\n      tag_24\n      0x04\n      dup1\n      calldatasize\n      sub\n      dup2\n      add\n      swap1\n      tag_25\n      swap2\n      swap1\n      tag_26\n      jump\t// in\n    tag_25:\n      tag_27\n      jump\t// in\n    tag_24:\n      mload(0x40)\n      tag_28\n      swap2\n      swap1\n      tag_29\n      jump\t// in\n    tag_28:\n      mload(0x40)\n      dup1\n      swap2\n      sub\n      swap1\n      return\n        /* \"contracts/FundMe.sol\":389:439  mapping(address => uint256) public addressToAmount */\n    tag_11:\n      mstore(0x20, 0x02)\n      dup1\n      0x00\n      mstore\n      keccak256(0x00, 0x40)\n      0x00\n      swap2\n      pop\n      swap1\n      pop\n      sload\n      dup2\n      jump\t// out\n        /* \"contracts/FundMe.sol\":679:1935  function withdraw() public {... */\n    tag_16:\n        /* \"contracts/FundMe.sol\":722:735  uint256 index */\n      0x00\n        /* \"contracts/FundMe.sol\":717:874  for( uint256 index = 0; index < funders.length; index++) {... */\n    tag_31:\n        /* \"contracts/FundMe.sol\":749:756  funders */\n      0x01\n        /* \"contracts/FundMe.sol\":749:763  funders.length */\n      dup1\n      sload\n      swap1\n      pop\n        /* \"contracts/FundMe.sol\":741:746  index */\n      dup2\n        /* \"contracts/FundMe.sol\":741:763  index < funders.length */\n      lt\n        /* \"contracts/FundMe.sol\":717:874  for( uint256 index = 0; index < funders.length; index++) {... */\n      iszero\n      tag_32\n      jumpi\n        /* \"contracts/FundMe.sol\":789:803  address funder */\n      0x00\n        /* \"contracts/FundMe.sol\":806:813  funders */\n      0x01\n        /* \"contracts/FundMe.sol\":814:819  index */\n      dup3\n        /* \"contracts/FundMe.sol\":806:820  funders[index] */\n      dup2\n      sload\n      dup2\n      lt\n      tag_34\n      jumpi\n      tag_35\n      tag_36\n      jump\t// in\n    tag_35:\n    tag_34:\n      swap1\n      0x00\n      mstore\n      keccak256(0x00, 0x20)\n      add\n      0x00\n      swap1\n      sload\n      swap1\n      0x0100\n      exp\n      swap1\n      div\n      0xffffffffffffffffffffffffffffffffffffffff\n      and\n        /* \"contracts/FundMe.sol\":789:820  address funder = funders[index] */\n      swap1\n      pop\n        /* \"contracts/FundMe.sol\":861:862  0 */\n      0x00\n        /* \"contracts/FundMe.sol\":835:850  addressToAmount */\n      0x02\n        /* \"contracts/FundMe.sol\":835:858  addressToAmount[funder] */\n      0x00\n        /* \"contracts/FundMe.sol\":851:857  funder */\n      dup4\n        /* \"contracts/FundMe.sol\":835:858  addressToAmount[funder] */\n      0xffffffffffffffffffffffffffffffffffffffff\n      and\n      0xffffffffffffffffffffffffffffffffffffffff\n      and\n      dup2\n      mstore\n      0x20\n      add\n      swap1\n      dup2\n      mstore\n      0x20\n      add\n      0x00\n      keccak256\n        /* \"contracts/FundMe.sol\":835:862  addressToAmount[funder] = 0 */\n      dup2\n      swap1\n      sstore\n      pop\n        /* \"contracts/FundMe.sol\":774:874  {... */\n      pop\n        /* \"contracts/FundMe.sol\":765:772  index++ */\n      dup1\n      dup1\n      tag_38\n      swap1\n      tag_39\n      jump\t// in\n    tag_38:\n      swap2\n      pop\n      pop\n        /* \"contracts/FundMe.sol\":717:874  for( uint256 index = 0; index < funders.length; index++) {... */\n      jump(tag_31)\n    tag_32:\n      pop\n        /* \"contracts/FundMe.sol\":953:954  0 */\n      0x00\n        /* \"contracts/FundMe.sol\":939:955  new address[](0) */\n      0xffffffffffffffff\n      dup2\n      gt\n      iszero\n      tag_40\n      jumpi\n      tag_41\n      tag_42\n      jump\t// in\n    tag_41:\n    tag_40:\n      mload(0x40)\n      swap1\n      dup1\n      dup3\n      mstore\n      dup1\n      0x20\n      mul\n      0x20\n      add\n      dup3\n      add\n      0x40\n      mstore\n      dup1\n      iszero\n      tag_43\n      jumpi\n      dup2\n      0x20\n      add\n      0x20\n      dup3\n      mul\n      dup1\n      calldatasize\n      dup4\n      calldatacopy\n      dup1\n      dup3\n      add\n      swap2\n      pop\n      pop\n      swap1\n      pop\n    tag_43:\n      pop\n        /* \"contracts/FundMe.sol\":929:936  funders */\n      0x01\n        /* \"contracts/FundMe.sol\":929:955  funders = new address[](0) */\n      swap1\n      dup1\n      mload\n      swap1\n      0x20\n      add\n      swap1\n      tag_44\n      swap3\n      swap2\n      swap1\n      tag_45\n      jump\t// in\n    tag_44:\n      pop\n        /* \"contracts/FundMe.sol\":1796:1812  bool callSuccess */\n      0x00\n        /* \"contracts/FundMe.sol\":1825:1835  msg.sender */\n      caller\n        /* \"contracts/FundMe.sol\":1817:1841  payable(msg.sender).call */\n      0xffffffffffffffffffffffffffffffffffffffff\n      and\n        /* \"contracts/FundMe.sol\":1849:1870  address(this).balance */\n      selfbalance\n        /* \"contracts/FundMe.sol\":1817:1875  payable(msg.sender).call{value: address(this).balance}(\"\") */\n      mload(0x40)\n      tag_46\n      swap1\n      tag_47\n      jump\t// in\n    tag_46:\n      0x00\n      mload(0x40)\n      dup1\n      dup4\n      sub\n      dup2\n      dup6\n      dup8\n      gas\n      call\n      swap3\n      pop\n      pop\n      pop\n      returndatasize\n      dup1\n      0x00\n      dup2\n      eq\n      tag_50\n      jumpi\n      mload(0x40)\n      swap2\n      pop\n      and(add(returndatasize, 0x3f), not(0x1f))\n      dup3\n      add\n      0x40\n      mstore\n      returndatasize\n      dup3\n      mstore\n      returndatasize\n      0x00\n      0x20\n      dup5\n      add\n      returndatacopy\n      jump(tag_49)\n    tag_50:\n      0x60\n      swap2\n      pop\n    tag_49:\n      pop\n        /* \"contracts/FundMe.sol\":1795:1875  (bool callSuccess,) = payable(msg.sender).call{value: address(this).balance}(\"\") */\n      pop\n      swap1\n      pop\n        /* \"contracts/FundMe.sol\":1894:1905  callSuccess */\n      dup1\n        /* \"contracts/FundMe.sol\":1886:1921  require(callSuccess, \"Call Failed\") */\n      tag_51\n      jumpi\n      mload(0x40)\n      0x08c379a000000000000000000000000000000000000000000000000000000000\n      dup2\n      mstore\n      0x04\n      add\n      tag_52\n      swap1\n      tag_53\n      jump\t// in\n    tag_52:\n      mload(0x40)\n      dup1\n      swap2\n      sub\n      swap1\n      revert\n    tag_51:\n        /* \"contracts/FundMe.sol\":706:1935  {... */\n      pop\n        /* \"contracts/FundMe.sol\":679:1935  function withdraw() public {... */\n      jump\t// out\n        /* \"contracts/FundMe.sol\":326:349  uint public minUsd = 50 */\n    tag_19:\n      sload(0x00)\n      dup2\n      jump\t// out\n        /* \"contracts/FundMe.sol\":448:671  function fund() public payable {... */\n    tag_22:\n        /* \"contracts/FundMe.sol\":531:537  minUsd */\n      sload(0x00)\n        /* \"contracts/FundMe.sol\":498:527  msg.value.getConversionRate() */\n      tag_55\n        /* \"contracts/FundMe.sol\":498:507  msg.value */\n      callvalue\n        /* \"contracts/FundMe.sol\":498:525  msg.value.getConversionRate */\n      tag_56\n        /* \"contracts/FundMe.sol\":498:527  msg.value.getConversionRate() */\n      jump\t// in\n    tag_55:\n        /* \"contracts/FundMe.sol\":498:537  msg.value.getConversionRate() >= minUsd */\n      lt\n      iszero\n        /* \"contracts/FundMe.sol\":490:577  require(msg.value.getConversionRate() >= minUsd, \"Funding amount must be at least $50\") */\n      tag_57\n      jumpi\n      mload(0x40)\n      0x08c379a000000000000000000000000000000000000000000000000000000000\n      dup2\n      mstore\n      0x04\n      add\n      tag_58\n      swap1\n      tag_59\n      jump\t// in\n    tag_58:\n      mload(0x40)\n      dup1\n      swap2\n      sub\n      swap1\n      revert\n    tag_57:\n        /* \"contracts/FundMe.sol\":588:595  funders */\n      0x01\n        /* \"contracts/FundMe.sol\":601:611  msg.sender */\n      caller\n        /* \"contracts/FundMe.sol\":588:612  funders.push(msg.sender) */\n      swap1\n      dup1\n      0x01\n      dup2\n      sload\n      add\n      dup1\n      dup3\n      sstore\n      dup1\n      swap2\n      pop\n      pop\n      0x01\n      swap1\n      sub\n      swap1\n      0x00\n      mstore\n      keccak256(0x00, 0x20)\n      add\n      0x00\n      swap1\n      swap2\n      swap1\n      swap2\n      swap1\n      swap2\n      0x0100\n      exp\n      dup2\n      sload\n      dup2\n      0xffffffffffffffffffffffffffffffffffffffff\n      mul\n      not\n      and\n      swap1\n      dup4\n      0xffffffffffffffffffffffffffffffffffffffff\n      and\n      mul\n      or\n      swap1\n      sstore\n      pop\n        /* \"contracts/FundMe.sol\":654:663  msg.value */\n      callvalue\n        /* \"contracts/FundMe.sol\":623:638  addressToAmount */\n      0x02\n        /* \"contracts/FundMe.sol\":623:650  addressToAmount[msg.sender] */\n      0x00\n        /* \"contracts/FundMe.sol\":639:649  msg.sender */\n      caller\n        /* \"contracts/FundMe.sol\":623:650  addressToAmount[msg.sender] */\n      0xffffffffffffffffffffffffffffffffffffffff\n      and\n      0xffffffffffffffffffffffffffffffffffffffff\n      and\n      dup2\n      mstore\n      0x20\n      add\n      swap1\n      dup2\n      mstore\n      0x20\n      add\n      0x00\n      keccak256\n      0x00\n        /* \"contracts/FundMe.sol\":623:663  addressToAmount[msg.sender] += msg.value */\n      dup3\n      dup3\n      sload\n      tag_61\n      swap2\n      swap1\n      tag_62\n      jump\t// in\n    tag_61:\n      swap3\n      pop\n      pop\n      dup2\n      swap1\n      sstore\n      pop\n        /* \"contracts/FundMe.sol\":448:671  function fund() public payable {... */\n      jump\t// out\n        /* \"contracts/FundMe.sol\":358:382  address[] public funders */\n    tag_27:\n      0x01\n      dup2\n      dup2\n      sload\n      dup2\n      lt\n      tag_63\n      jumpi\n      0x00\n      dup1\n      revert\n    tag_63:\n      swap1\n      0x00\n      mstore\n      keccak256(0x00, 0x20)\n      add\n      0x00\n      swap2\n      pop\n      sload\n      swap1\n      0x0100\n      exp\n      swap1\n      div\n      0xffffffffffffffffffffffffffffffffffffffff\n      and\n      dup2\n      jump\t// out\n        /* \"contracts/PriceConverter.sol\":435:658  function getConversionRate(uint256 ethAmount) internal view returns (uint256) {... */\n    tag_56:\n        /* \"contracts/PriceConverter.sol\":504:511  uint256 */\n      0x00\n        /* \"contracts/PriceConverter.sol\":524:540  uint256 ethPrice */\n      dup1\n        /* \"contracts/PriceConverter.sol\":543:553  getPrice() */\n      tag_66\n        /* \"contracts/PriceConverter.sol\":543:551  getPrice */\n      tag_67\n        /* \"contracts/PriceConverter.sol\":543:553  getPrice() */\n      jump\t// in\n    tag_66:\n        /* \"contracts/PriceConverter.sol\":524:553  uint256 ethPrice = getPrice() */\n      swap1\n      pop\n        /* \"contracts/PriceConverter.sol\":564:586  uint256 ethAmountInUsd */\n      0x00\n        /* \"contracts/PriceConverter.sol\":614:618  1e18 */\n      0x0de0b6b3a7640000\n        /* \"contracts/PriceConverter.sol\":601:610  ethAmount */\n      dup5\n        /* \"contracts/PriceConverter.sol\":590:598  ethPrice */\n      dup4\n        /* \"contracts/PriceConverter.sol\":590:610  ethPrice * ethAmount */\n      tag_68\n      swap2\n      swap1\n      tag_69\n      jump\t// in\n    tag_68:\n        /* \"contracts/PriceConverter.sol\":589:618  (ethPrice * ethAmount) / 1e18 */\n      tag_70\n      swap2\n      swap1\n      tag_71\n      jump\t// in\n    tag_70:\n        /* \"contracts/PriceConverter.sol\":564:618  uint256 ethAmountInUsd = (ethPrice * ethAmount) / 1e18 */\n      swap1\n      pop\n        /* \"contracts/PriceConverter.sol\":636:650  ethAmountInUsd */\n      dup1\n        /* \"contracts/PriceConverter.sol\":629:650  return ethAmountInUsd */\n      swap3\n      pop\n      pop\n      pop\n        /* \"contracts/PriceConverter.sol\":435:658  function getConversionRate(uint256 ethAmount) internal view returns (uint256) {... */\n      swap2\n      swap1\n      pop\n      jump\t// out\n        /* \"contracts/PriceConverter.sol\":174:427  function getPrice() internal view returns(uint256) {... */\n    tag_67:\n        /* \"contracts/PriceConverter.sol\":216:223  uint256 */\n      0x00\n        /* \"contracts/PriceConverter.sol\":232:263  AggregatorV3Interface priceFeed */\n      dup1\n        /* \"contracts/PriceConverter.sol\":288:330  0x8A753747A1Fa494EC906cE90E9f37563A8AF630e */\n      0x8a753747a1fa494ec906ce90e9f37563a8af630e\n        /* \"contracts/PriceConverter.sol\":232:331  AggregatorV3Interface priceFeed = AggregatorV3Interface(0x8A753747A1Fa494EC906cE90E9f37563A8AF630e) */\n      swap1\n      pop\n        /* \"contracts/PriceConverter.sol\":341:350  int price */\n      0x00\n        /* \"contracts/PriceConverter.sol\":357:366  priceFeed */\n      dup2\n        /* \"contracts/PriceConverter.sol\":357:382  priceFeed.latestRoundData */\n      0xffffffffffffffffffffffffffffffffffffffff\n      and\n      0xfeaf968c\n        /* \"contracts/PriceConverter.sol\":357:384  priceFeed.latestRoundData() */\n      mload(0x40)\n      dup2\n      0xffffffff\n      and\n      0xe0\n      shl\n      dup2\n      mstore\n      0x04\n      add\n      0xa0\n      mload(0x40)\n      dup1\n      dup4\n      sub\n      dup2\n      dup7\n      gas\n      staticcall\n      iszero\n      dup1\n      iszero\n      tag_74\n      jumpi\n      returndatasize\n      0x00\n      dup1\n      returndatacopy\n      revert(0x00, returndatasize)\n    tag_74:\n      pop\n      pop\n      pop\n      pop\n      mload(0x40)\n      returndatasize\n      not(0x1f)\n      0x1f\n      dup3\n      add\n      and\n      dup3\n      add\n      dup1\n      0x40\n      mstore\n      pop\n      dup2\n      add\n      swap1\n      tag_75\n      swap2\n      swap1\n      tag_76\n      jump\t// in\n    tag_75:\n        /* \"contracts/PriceConverter.sol\":338:384  (, int price,,,) = priceFeed.latestRoundData() */\n      pop\n      pop\n      pop\n      swap2\n      pop\n      pop\n        /* \"contracts/PriceConverter.sol\":414:418  1e10 */\n      0x02540be400\n        /* \"contracts/PriceConverter.sol\":406:411  price */\n      dup2\n        /* \"contracts/PriceConverter.sol\":406:418  price * 1e10 */\n      tag_77\n      swap2\n      swap1\n      tag_78\n      jump\t// in\n    tag_77:\n        /* \"contracts/PriceConverter.sol\":391:419  return uint256(price * 1e10) */\n      swap3\n      pop\n      pop\n      pop\n        /* \"contracts/PriceConverter.sol\":174:427  function getPrice() internal view returns(uint256) {... */\n      swap1\n      jump\t// out\n    tag_45:\n      dup3\n      dup1\n      sload\n      dup3\n      dup3\n      sstore\n      swap1\n      0x00\n      mstore\n      keccak256(0x00, 0x20)\n      swap1\n      dup2\n      add\n      swap3\n      dup3\n      iszero\n      tag_79\n      jumpi\n      swap2\n      0x20\n      mul\n      dup3\n      add\n    tag_80:\n      dup3\n      dup2\n      gt\n      iszero\n      tag_81\n      jumpi\n      dup3\n      mload\n      dup3\n      exp(0x0100, 0x00)\n      dup2\n      sload\n      dup2\n      0xffffffffffffffffffffffffffffffffffffffff\n      mul\n      not\n      and\n      swap1\n      dup4\n      0xffffffffffffffffffffffffffffffffffffffff\n      and\n      mul\n      or\n      swap1\n      sstore\n      pop\n      swap2\n      0x20\n      add\n      swap2\n      swap1\n      0x01\n      add\n      swap1\n      jump(tag_80)\n    tag_81:\n    tag_79:\n      pop\n      swap1\n      pop\n      tag_82\n      swap2\n      swap1\n      tag_83\n      jump\t// in\n    tag_82:\n      pop\n      swap1\n      jump\t// out\n    tag_83:\n    tag_84:\n      dup1\n      dup3\n      gt\n      iszero\n      tag_85\n      jumpi\n      0x00\n      dup2\n      0x00\n      swap1\n      sstore\n      pop\n      0x01\n      add\n      jump(tag_84)\n    tag_85:\n      pop\n      swap1\n      jump\t// out\n        /* \"#utility.yul\":88:205   */\n    tag_87:\n        /* \"#utility.yul\":197:198   */\n      0x00\n        /* \"#utility.yul\":194:195   */\n      dup1\n        /* \"#utility.yul\":187:199   */\n      revert\n        /* \"#utility.yul\":334:460   */\n    tag_89:\n        /* \"#utility.yul\":371:378   */\n      0x00\n        /* \"#utility.yul\":411:453   */\n      0xffffffffffffffffffffffffffffffffffffffff\n        /* \"#utility.yul\":404:409   */\n      dup3\n        /* \"#utility.yul\":400:454   */\n      and\n        /* \"#utility.yul\":389:454   */\n      swap1\n      pop\n        /* \"#utility.yul\":334:460   */\n      swap2\n      swap1\n      pop\n      jump\t// out\n        /* \"#utility.yul\":466:562   */\n    tag_90:\n        /* \"#utility.yul\":503:510   */\n      0x00\n        /* \"#utility.yul\":532:556   */\n      tag_121\n        /* \"#utility.yul\":550:555   */\n      dup3\n        /* \"#utility.yul\":532:556   */\n      tag_89\n      jump\t// in\n    tag_121:\n        /* \"#utility.yul\":521:556   */\n      swap1\n      pop\n        /* \"#utility.yul\":466:562   */\n      swap2\n      swap1\n      pop\n      jump\t// out\n        /* \"#utility.yul\":568:690   */\n    tag_91:\n        /* \"#utility.yul\":641:665   */\n      tag_123\n        /* \"#utility.yul\":659:664   */\n      dup2\n        /* \"#utility.yul\":641:665   */\n      tag_90\n      jump\t// in\n    tag_123:\n        /* \"#utility.yul\":634:639   */\n      dup2\n        /* \"#utility.yul\":631:666   */\n      eq\n        /* \"#utility.yul\":621:684   */\n      tag_124\n      jumpi\n        /* \"#utility.yul\":680:681   */\n      0x00\n        /* \"#utility.yul\":677:678   */\n      dup1\n        /* \"#utility.yul\":670:682   */\n      revert\n        /* \"#utility.yul\":621:684   */\n    tag_124:\n        /* \"#utility.yul\":568:690   */\n      pop\n      jump\t// out\n        /* \"#utility.yul\":696:835   */\n    tag_92:\n        /* \"#utility.yul\":742:747   */\n      0x00\n        /* \"#utility.yul\":780:786   */\n      dup2\n        /* \"#utility.yul\":767:787   */\n      calldataload\n        /* \"#utility.yul\":758:787   */\n      swap1\n      pop\n        /* \"#utility.yul\":796:829   */\n      tag_126\n        /* \"#utility.yul\":823:828   */\n      dup2\n        /* \"#utility.yul\":796:829   */\n      tag_91\n      jump\t// in\n    tag_126:\n        /* \"#utility.yul\":696:835   */\n      swap3\n      swap2\n      pop\n      pop\n      jump\t// out\n        /* \"#utility.yul\":841:1170   */\n    tag_10:\n        /* \"#utility.yul\":900:906   */\n      0x00\n        /* \"#utility.yul\":949:951   */\n      0x20\n        /* \"#utility.yul\":937:946   */\n      dup3\n        /* \"#utility.yul\":928:935   */\n      dup5\n        /* \"#utility.yul\":924:947   */\n      sub\n        /* \"#utility.yul\":920:952   */\n      slt\n        /* \"#utility.yul\":917:1036   */\n      iszero\n      tag_128\n      jumpi\n        /* \"#utility.yul\":955:1034   */\n      tag_129\n      tag_87\n      jump\t// in\n    tag_129:\n        /* \"#utility.yul\":917:1036   */\n    tag_128:\n        /* \"#utility.yul\":1075:1076   */\n      0x00\n        /* \"#utility.yul\":1100:1153   */\n      tag_130\n        /* \"#utility.yul\":1145:1152   */\n      dup5\n        /* \"#utility.yul\":1136:1142   */\n      dup3\n        /* \"#utility.yul\":1125:1134   */\n      dup6\n        /* \"#utility.yul\":1121:1143   */\n      add\n        /* \"#utility.yul\":1100:1153   */\n      tag_92\n      jump\t// in\n    tag_130:\n        /* \"#utility.yul\":1090:1153   */\n      swap2\n      pop\n        /* \"#utility.yul\":1046:1163   */\n      pop\n        /* \"#utility.yul\":841:1170   */\n      swap3\n      swap2\n      pop\n      pop\n      jump\t// out\n        /* \"#utility.yul\":1176:1253   */\n    tag_93:\n        /* \"#utility.yul\":1213:1220   */\n      0x00\n        /* \"#utility.yul\":1242:1247   */\n      dup2\n        /* \"#utility.yul\":1231:1247   */\n      swap1\n      pop\n        /* \"#utility.yul\":1176:1253   */\n      swap2\n      swap1\n      pop\n      jump\t// out\n        /* \"#utility.yul\":1259:1377   */\n    tag_94:\n        /* \"#utility.yul\":1346:1370   */\n      tag_133\n        /* \"#utility.yul\":1364:1369   */\n      dup2\n        /* \"#utility.yul\":1346:1370   */\n      tag_93\n      jump\t// in\n    tag_133:\n        /* \"#utility.yul\":1341:1344   */\n      dup3\n        /* \"#utility.yul\":1334:1371   */\n      mstore\n        /* \"#utility.yul\":1259:1377   */\n      pop\n      pop\n      jump\t// out\n        /* \"#utility.yul\":1383:1605   */\n    tag_13:\n        /* \"#utility.yul\":1476:1480   */\n      0x00\n        /* \"#utility.yul\":1514:1516   */\n      0x20\n        /* \"#utility.yul\":1503:1512   */\n      dup3\n        /* \"#utility.yul\":1499:1517   */\n      add\n        /* \"#utility.yul\":1491:1517   */\n      swap1\n      pop\n        /* \"#utility.yul\":1527:1598   */\n      tag_135\n        /* \"#utility.yul\":1595:1596   */\n      0x00\n        /* \"#utility.yul\":1584:1593   */\n      dup4\n        /* \"#utility.yul\":1580:1597   */\n      add\n        /* \"#utility.yul\":1571:1577   */\n      dup5\n        /* \"#utility.yul\":1527:1598   */\n      tag_94\n      jump\t// in\n    tag_135:\n        /* \"#utility.yul\":1383:1605   */\n      swap3\n      swap2\n      pop\n      pop\n      jump\t// out\n        /* \"#utility.yul\":1611:1733   */\n    tag_95:\n        /* \"#utility.yul\":1684:1708   */\n      tag_137\n        /* \"#utility.yul\":1702:1707   */\n      dup2\n        /* \"#utility.yul\":1684:1708   */\n      tag_93\n      jump\t// in\n    tag_137:\n        /* \"#utility.yul\":1677:1682   */\n      dup2\n        /* \"#utility.yul\":1674:1709   */\n      eq\n        /* \"#utility.yul\":1664:1727   */\n      tag_138\n      jumpi\n        /* \"#utility.yul\":1723:1724   */\n      0x00\n        /* \"#utility.yul\":1720:1721   */\n      dup1\n        /* \"#utility.yul\":1713:1725   */\n      revert\n        /* \"#utility.yul\":1664:1727   */\n    tag_138:\n        /* \"#utility.yul\":1611:1733   */\n      pop\n      jump\t// out\n        /* \"#utility.yul\":1739:1878   */\n    tag_96:\n        /* \"#utility.yul\":1785:1790   */\n      0x00\n        /* \"#utility.yul\":1823:1829   */\n      dup2\n        /* \"#utility.yul\":1810:1830   */\n      calldataload\n        /* \"#utility.yul\":1801:1830   */\n      swap1\n      pop\n        /* \"#utility.yul\":1839:1872   */\n      tag_140\n        /* \"#utility.yul\":1866:1871   */\n      dup2\n        /* \"#utility.yul\":1839:1872   */\n      tag_95\n      jump\t// in\n    tag_140:\n        /* \"#utility.yul\":1739:1878   */\n      swap3\n      swap2\n      pop\n      pop\n      jump\t// out\n        /* \"#utility.yul\":1884:2213   */\n    tag_26:\n        /* \"#utility.yul\":1943:1949   */\n      0x00\n        /* \"#utility.yul\":1992:1994   */\n      0x20\n        /* \"#utility.yul\":1980:1989   */\n      dup3\n        /* \"#utility.yul\":1971:1978   */\n      dup5\n        /* \"#utility.yul\":1967:1990   */\n      sub\n        /* \"#utility.yul\":1963:1995   */\n      slt\n        /* \"#utility.yul\":1960:2079   */\n      iszero\n      tag_142\n      jumpi\n        /* \"#utility.yul\":1998:2077   */\n      tag_143\n      tag_87\n      jump\t// in\n    tag_143:\n        /* \"#utility.yul\":1960:2079   */\n    tag_142:\n        /* \"#utility.yul\":2118:2119   */\n      0x00\n        /* \"#utility.yul\":2143:2196   */\n      tag_144\n        /* \"#utility.yul\":2188:2195   */\n      dup5\n        /* \"#utility.yul\":2179:2185   */\n      dup3\n        /* \"#utility.yul\":2168:2177   */\n      dup6\n        /* \"#utility.yul\":2164:2186   */\n      add\n        /* \"#utility.yul\":2143:2196   */\n      tag_96\n      jump\t// in\n    tag_144:\n        /* \"#utility.yul\":2133:2196   */\n      swap2\n      pop\n        /* \"#utility.yul\":2089:2206   */\n      pop\n        /* \"#utility.yul\":1884:2213   */\n      swap3\n      swap2\n      pop\n      pop\n      jump\t// out\n        /* \"#utility.yul\":2219:2337   */\n    tag_97:\n        /* \"#utility.yul\":2306:2330   */\n      tag_146\n        /* \"#utility.yul\":2324:2329   */\n      dup2\n        /* \"#utility.yul\":2306:2330   */\n      tag_90\n      jump\t// in\n    tag_146:\n        /* \"#utility.yul\":2301:2304   */\n      dup3\n        /* \"#utility.yul\":2294:2331   */\n      mstore\n        /* \"#utility.yul\":2219:2337   */\n      pop\n      pop\n      jump\t// out\n        /* \"#utility.yul\":2343:2565   */\n    tag_29:\n        /* \"#utility.yul\":2436:2440   */\n      0x00\n        /* \"#utility.yul\":2474:2476   */\n      0x20\n        /* \"#utility.yul\":2463:2472   */\n      dup3\n        /* \"#utility.yul\":2459:2477   */\n      add\n        /* \"#utility.yul\":2451:2477   */\n      swap1\n      pop\n        /* \"#utility.yul\":2487:2558   */\n      tag_148\n        /* \"#utility.yul\":2555:2556   */\n      0x00\n        /* \"#utility.yul\":2544:2553   */\n      dup4\n        /* \"#utility.yul\":2540:2557   */\n      add\n        /* \"#utility.yul\":2531:2537   */\n      dup5\n        /* \"#utility.yul\":2487:2558   */\n      tag_97\n      jump\t// in\n    tag_148:\n        /* \"#utility.yul\":2343:2565   */\n      swap3\n      swap2\n      pop\n      pop\n      jump\t// out\n        /* \"#utility.yul\":2571:2751   */\n    tag_36:\n        /* \"#utility.yul\":2619:2696   */\n      0x4e487b7100000000000000000000000000000000000000000000000000000000\n        /* \"#utility.yul\":2616:2617   */\n      0x00\n        /* \"#utility.yul\":2609:2697   */\n      mstore\n        /* \"#utility.yul\":2716:2720   */\n      0x32\n        /* \"#utility.yul\":2713:2714   */\n      0x04\n        /* \"#utility.yul\":2706:2721   */\n      mstore\n        /* \"#utility.yul\":2740:2744   */\n      0x24\n        /* \"#utility.yul\":2737:2738   */\n      0x00\n        /* \"#utility.yul\":2730:2745   */\n      revert\n        /* \"#utility.yul\":2757:2937   */\n    tag_98:\n        /* \"#utility.yul\":2805:2882   */\n      0x4e487b7100000000000000000000000000000000000000000000000000000000\n        /* \"#utility.yul\":2802:2803   */\n      0x00\n        /* \"#utility.yul\":2795:2883   */\n      mstore\n        /* \"#utility.yul\":2902:2906   */\n      0x11\n        /* \"#utility.yul\":2899:2900   */\n      0x04\n        /* \"#utility.yul\":2892:2907   */\n      mstore\n        /* \"#utility.yul\":2926:2930   */\n      0x24\n        /* \"#utility.yul\":2923:2924   */\n      0x00\n        /* \"#utility.yul\":2916:2931   */\n      revert\n        /* \"#utility.yul\":2943:3176   */\n    tag_39:\n        /* \"#utility.yul\":2982:2985   */\n      0x00\n        /* \"#utility.yul\":3005:3029   */\n      tag_152\n        /* \"#utility.yul\":3023:3028   */\n      dup3\n        /* \"#utility.yul\":3005:3029   */\n      tag_93\n      jump\t// in\n    tag_152:\n        /* \"#utility.yul\":2996:3029   */\n      swap2\n      pop\n        /* \"#utility.yul\":3051:3117   */\n      0xffffffffffffffffffffffffffffffffffffffffffffffffffffffffffffffff\n        /* \"#utility.yul\":3044:3049   */\n      dup3\n        /* \"#utility.yul\":3041:3118   */\n      sub\n        /* \"#utility.yul\":3038:3141   */\n      tag_153\n      jumpi\n        /* \"#utility.yul\":3121:3139   */\n      tag_154\n      tag_98\n      jump\t// in\n    tag_154:\n        /* \"#utility.yul\":3038:3141   */\n    tag_153:\n        /* \"#utility.yul\":3168:3169   */\n      0x01\n        /* \"#utility.yul\":3161:3166   */\n      dup3\n        /* \"#utility.yul\":3157:3170   */\n      add\n        /* \"#utility.yul\":3150:3170   */\n      swap1\n      pop\n        /* \"#utility.yul\":2943:3176   */\n      swap2\n      swap1\n      pop\n      jump\t// out\n        /* \"#utility.yul\":3182:3362   */\n    tag_42:\n        /* \"#utility.yul\":3230:3307   */\n      0x4e487b7100000000000000000000000000000000000000000000000000000000\n        /* \"#utility.yul\":3227:3228   */\n      0x00\n        /* \"#utility.yul\":3220:3308   */\n      mstore\n        /* \"#utility.yul\":3327:3331   */\n      0x41\n        /* \"#utility.yul\":3324:3325   */\n      0x04\n        /* \"#utility.yul\":3317:3332   */\n      mstore\n        /* \"#utility.yul\":3351:3355   */\n      0x24\n        /* \"#utility.yul\":3348:3349   */\n      0x00\n        /* \"#utility.yul\":3341:3356   */\n      revert\n        /* \"#utility.yul\":3368:3515   */\n    tag_99:\n        /* \"#utility.yul\":3469:3480   */\n      0x00\n        /* \"#utility.yul\":3506:3509   */\n      dup2\n        /* \"#utility.yul\":3491:3509   */\n      swap1\n      pop\n        /* \"#utility.yul\":3368:3515   */\n      swap3\n      swap2\n      pop\n      pop\n      jump\t// out\n        /* \"#utility.yul\":3521:3635   */\n    tag_100:\n      pop\n      jump\t// out\n        /* \"#utility.yul\":3641:4039   */\n    tag_101:\n        /* \"#utility.yul\":3800:3803   */\n      0x00\n        /* \"#utility.yul\":3821:3904   */\n      tag_159\n        /* \"#utility.yul\":3902:3903   */\n      0x00\n        /* \"#utility.yul\":3897:3900   */\n      dup4\n        /* \"#utility.yul\":3821:3904   */\n      tag_99\n      jump\t// in\n    tag_159:\n        /* \"#utility.yul\":3814:3904   */\n      swap2\n      pop\n        /* \"#utility.yul\":3913:4006   */\n      tag_160\n        /* \"#utility.yul\":4002:4005   */\n      dup3\n        /* \"#utility.yul\":3913:4006   */\n      tag_100\n      jump\t// in\n    tag_160:\n        /* \"#utility.yul\":4031:4032   */\n      0x00\n        /* \"#utility.yul\":4026:4029   */\n      dup3\n        /* \"#utility.yul\":4022:4033   */\n      add\n        /* \"#utility.yul\":4015:4033   */\n      swap1\n      pop\n        /* \"#utility.yul\":3641:4039   */\n      swap2\n      swap1\n      pop\n      jump\t// out\n        /* \"#utility.yul\":4045:4424   */\n    tag_47:\n        /* \"#utility.yul\":4229:4232   */\n      0x00\n        /* \"#utility.yul\":4251:4398   */\n      tag_162\n        /* \"#utility.yul\":4394:4397   */\n      dup3\n        /* \"#utility.yul\":4251:4398   */\n      tag_101\n      jump\t// in\n    tag_162:\n        /* \"#utility.yul\":4244:4398   */\n      swap2\n      pop\n        /* \"#utility.yul\":4415:4418   */\n      dup2\n        /* \"#utility.yul\":4408:4418   */\n      swap1\n      pop\n        /* \"#utility.yul\":4045:4424   */\n      swap2\n      swap1\n      pop\n      jump\t// out\n        /* \"#utility.yul\":4430:4599   */\n    tag_102:\n        /* \"#utility.yul\":4514:4525   */\n      0x00\n        /* \"#utility.yul\":4548:4554   */\n      dup3\n        /* \"#utility.yul\":4543:4546   */\n      dup3\n        /* \"#utility.yul\":4536:4555   */\n      mstore\n        /* \"#utility.yul\":4588:4592   */\n      0x20\n        /* \"#utility.yul\":4583:4586   */\n      dup3\n        /* \"#utility.yul\":4579:4593   */\n      add\n        /* \"#utility.yul\":4564:4593   */\n      swap1\n      pop\n        /* \"#utility.yul\":4430:4599   */\n      swap3\n      swap2\n      pop\n      pop\n      jump\t// out\n        /* \"#utility.yul\":4605:4766   */\n    tag_103:\n        /* \"#utility.yul\":4745:4758   */\n      0x43616c6c204661696c6564000000000000000000000000000000000000000000\n        /* \"#utility.yul\":4741:4742   */\n      0x00\n        /* \"#utility.yul\":4733:4739   */\n      dup3\n        /* \"#utility.yul\":4729:4743   */\n      add\n        /* \"#utility.yul\":4722:4759   */\n      mstore\n        /* \"#utility.yul\":4605:4766   */\n      pop\n      jump\t// out\n        /* \"#utility.yul\":4772:5138   */\n    tag_104:\n        /* \"#utility.yul\":4914:4917   */\n      0x00\n        /* \"#utility.yul\":4935:5002   */\n      tag_166\n        /* \"#utility.yul\":4999:5001   */\n      0x0b\n        /* \"#utility.yul\":4994:4997   */\n      dup4\n        /* \"#utility.yul\":4935:5002   */\n      tag_102\n      jump\t// in\n    tag_166:\n        /* \"#utility.yul\":4928:5002   */\n      swap2\n      pop\n        /* \"#utility.yul\":5011:5104   */\n      tag_167\n        /* \"#utility.yul\":5100:5103   */\n      dup3\n        /* \"#utility.yul\":5011:5104   */\n      tag_103\n      jump\t// in\n    tag_167:\n        /* \"#utility.yul\":5129:5131   */\n      0x20\n        /* \"#utility.yul\":5124:5127   */\n      dup3\n        /* \"#utility.yul\":5120:5132   */\n      add\n        /* \"#utility.yul\":5113:5132   */\n      swap1\n      pop\n        /* \"#utility.yul\":4772:5138   */\n      swap2\n      swap1\n      pop\n      jump\t// out\n        /* \"#utility.yul\":5144:5563   */\n    tag_53:\n        /* \"#utility.yul\":5310:5314   */\n      0x00\n        /* \"#utility.yul\":5348:5350   */\n      0x20\n        /* \"#utility.yul\":5337:5346   */\n      dup3\n        /* \"#utility.yul\":5333:5351   */\n      add\n        /* \"#utility.yul\":5325:5351   */\n      swap1\n      pop\n        /* \"#utility.yul\":5397:5406   */\n      dup2\n        /* \"#utility.yul\":5391:5395   */\n      dup2\n        /* \"#utility.yul\":5387:5407   */\n      sub\n        /* \"#utility.yul\":5383:5384   */\n      0x00\n        /* \"#utility.yul\":5372:5381   */\n      dup4\n        /* \"#utility.yul\":5368:5385   */\n      add\n        /* \"#utility.yul\":5361:5408   */\n      mstore\n        /* \"#utility.yul\":5425:5556   */\n      tag_169\n        /* \"#utility.yul\":5551:5555   */\n      dup2\n        /* \"#utility.yul\":5425:5556   */\n      tag_104\n      jump\t// in\n    tag_169:\n        /* \"#utility.yul\":5417:5556   */\n      swap1\n      pop\n        /* \"#utility.yul\":5144:5563   */\n      swap2\n      swap1\n      pop\n      jump\t// out\n        /* \"#utility.yul\":5569:5791   */\n    tag_105:\n        /* \"#utility.yul\":5709:5743   */\n      0x46756e64696e6720616d6f756e74206d757374206265206174206c6561737420\n        /* \"#utility.yul\":5705:5706   */\n      0x00\n        /* \"#utility.yul\":5697:5703   */\n      dup3\n        /* \"#utility.yul\":5693:5707   */\n      add\n        /* \"#utility.yul\":5686:5744   */\n      mstore\n        /* \"#utility.yul\":5778:5783   */\n      0x2435300000000000000000000000000000000000000000000000000000000000\n        /* \"#utility.yul\":5773:5775   */\n      0x20\n        /* \"#utility.yul\":5765:5771   */\n      dup3\n        /* \"#utility.yul\":5761:5776   */\n      add\n        /* \"#utility.yul\":5754:5784   */\n      mstore\n        /* \"#utility.yul\":5569:5791   */\n      pop\n      jump\t// out\n        /* \"#utility.yul\":5797:6163   */\n    tag_106:\n        /* \"#utility.yul\":5939:5942   */\n      0x00\n        /* \"#utility.yul\":5960:6027   */\n      tag_172\n        /* \"#utility.yul\":6024:6026   */\n      0x23\n        /* \"#utility.yul\":6019:6022   */\n      dup4\n        /* \"#utility.yul\":5960:6027   */\n      tag_102\n      jump\t// in\n    tag_172:\n        /* \"#utility.yul\":5953:6027   */\n      swap2\n      pop\n        /* \"#utility.yul\":6036:6129   */\n      tag_173\n        /* \"#utility.yul\":6125:6128   */\n      dup3\n        /* \"#utility.yul\":6036:6129   */\n      tag_105\n      jump\t// in\n    tag_173:\n        /* \"#utility.yul\":6154:6156   */\n      0x40\n        /* \"#utility.yul\":6149:6152   */\n      dup3\n        /* \"#utility.yul\":6145:6157   */\n      add\n        /* \"#utility.yul\":6138:6157   */\n      swap1\n      pop\n        /* \"#utility.yul\":5797:6163   */\n      swap2\n      swap1\n      pop\n      jump\t// out\n        /* \"#utility.yul\":6169:6588   */\n    tag_59:\n        /* \"#utility.yul\":6335:6339   */\n      0x00\n        /* \"#utility.yul\":6373:6375   */\n      0x20\n        /* \"#utility.yul\":6362:6371   */\n      dup3\n        /* \"#utility.yul\":6358:6376   */\n      add\n        /* \"#utility.yul\":6350:6376   */\n      swap1\n      pop\n        /* \"#utility.yul\":6422:6431   */\n      dup2\n        /* \"#utility.yul\":6416:6420   */\n      dup2\n        /* \"#utility.yul\":6412:6432   */\n      sub\n        /* \"#utility.yul\":6408:6409   */\n      0x00\n        /* \"#utility.yul\":6397:6406   */\n      dup4\n        /* \"#utility.yul\":6393:6410   */\n      add\n        /* \"#utility.yul\":6386:6433   */\n      mstore\n        /* \"#utility.yul\":6450:6581   */\n      tag_175\n        /* \"#utility.yul\":6576:6580   */\n      dup2\n        /* \"#utility.yul\":6450:6581   */\n      tag_106\n      jump\t// in\n    tag_175:\n        /* \"#utility.yul\":6442:6581   */\n      swap1\n      pop\n        /* \"#utility.yul\":6169:6588   */\n      swap2\n      swap1\n      pop\n      jump\t// out\n        /* \"#utility.yul\":6594:6899   */\n    tag_62:\n        /* \"#utility.yul\":6634:6637   */\n      0x00\n        /* \"#utility.yul\":6653:6673   */\n      tag_177\n        /* \"#utility.yul\":6671:6672   */\n      dup3\n        /* \"#utility.yul\":6653:6673   */\n      tag_93\n      jump\t// in\n    tag_177:\n        /* \"#utility.yul\":6648:6673   */\n      swap2\n      pop\n        /* \"#utility.yul\":6687:6707   */\n      tag_178\n        /* \"#utility.yul\":6705:6706   */\n      dup4\n        /* \"#utility.yul\":6687:6707   */\n      tag_93\n      jump\t// in\n    tag_178:\n        /* \"#utility.yul\":6682:6707   */\n      swap3\n      pop\n        /* \"#utility.yul\":6841:6842   */\n      dup3\n        /* \"#utility.yul\":6773:6839   */\n      0xffffffffffffffffffffffffffffffffffffffffffffffffffffffffffffffff\n        /* \"#utility.yul\":6769:6843   */\n      sub\n        /* \"#utility.yul\":6766:6767   */\n      dup3\n        /* \"#utility.yul\":6763:6844   */\n      gt\n        /* \"#utility.yul\":6760:6867   */\n      iszero\n      tag_179\n      jumpi\n        /* \"#utility.yul\":6847:6865   */\n      tag_180\n      tag_98\n      jump\t// in\n    tag_180:\n        /* \"#utility.yul\":6760:6867   */\n    tag_179:\n        /* \"#utility.yul\":6891:6892   */\n      dup3\n        /* \"#utility.yul\":6888:6889   */\n      dup3\n        /* \"#utility.yul\":6884:6893   */\n      add\n        /* \"#utility.yul\":6877:6893   */\n      swap1\n      pop\n        /* \"#utility.yul\":6594:6899   */\n      swap3\n      swap2\n      pop\n      pop\n      jump\t// out\n        /* \"#utility.yul\":6905:7253   */\n    tag_69:\n        /* \"#utility.yul\":6945:6952   */\n      0x00\n        /* \"#utility.yul\":6968:6988   */\n      tag_182\n        /* \"#utility.yul\":6986:6987   */\n      dup3\n        /* \"#utility.yul\":6968:6988   */\n      tag_93\n      jump\t// in\n    tag_182:\n        /* \"#utility.yul\":6963:6988   */\n      swap2\n      pop\n        /* \"#utility.yul\":7002:7022   */\n      tag_183\n        /* \"#utility.yul\":7020:7021   */\n      dup4\n        /* \"#utility.yul\":7002:7022   */\n      tag_93\n      jump\t// in\n    tag_183:\n        /* \"#utility.yul\":6997:7022   */\n      swap3\n      pop\n        /* \"#utility.yul\":7190:7191   */\n      dup2\n        /* \"#utility.yul\":7122:7188   */\n      0xffffffffffffffffffffffffffffffffffffffffffffffffffffffffffffffff\n        /* \"#utility.yul\":7118:7192   */\n      div\n        /* \"#utility.yul\":7115:7116   */\n      dup4\n        /* \"#utility.yul\":7112:7193   */\n      gt\n        /* \"#utility.yul\":7107:7108   */\n      dup3\n        /* \"#utility.yul\":7100:7109   */\n      iszero\n        /* \"#utility.yul\":7093:7110   */\n      iszero\n        /* \"#utility.yul\":7089:7194   */\n      and\n        /* \"#utility.yul\":7086:7217   */\n      iszero\n      tag_184\n      jumpi\n        /* \"#utility.yul\":7197:7215   */\n      tag_185\n      tag_98\n      jump\t// in\n    tag_185:\n        /* \"#utility.yul\":7086:7217   */\n    tag_184:\n        /* \"#utility.yul\":7245:7246   */\n      dup3\n        /* \"#utility.yul\":7242:7243   */\n      dup3\n        /* \"#utility.yul\":7238:7247   */\n      mul\n        /* \"#utility.yul\":7227:7247   */\n      swap1\n      pop\n        /* \"#utility.yul\":6905:7253   */\n      swap3\n      swap2\n      pop\n      pop\n      jump\t// out\n        /* \"#utility.yul\":7259:7439   */\n    tag_107:\n        /* \"#utility.yul\":7307:7384   */\n      0x4e487b7100000000000000000000000000000000000000000000000000000000\n        /* \"#utility.yul\":7304:7305   */\n      0x00\n        /* \"#utility.yul\":7297:7385   */\n      mstore\n        /* \"#utility.yul\":7404:7408   */\n      0x12\n        /* \"#utility.yul\":7401:7402   */\n      0x04\n        /* \"#utility.yul\":7394:7409   */\n      mstore\n        /* \"#utility.yul\":7428:7432   */\n      0x24\n        /* \"#utility.yul\":7425:7426   */\n      0x00\n        /* \"#utility.yul\":7418:7433   */\n      revert\n        /* \"#utility.yul\":7445:7630   */\n    tag_71:\n        /* \"#utility.yul\":7485:7486   */\n      0x00\n        /* \"#utility.yul\":7502:7522   */\n      tag_188\n        /* \"#utility.yul\":7520:7521   */\n      dup3\n        /* \"#utility.yul\":7502:7522   */\n      tag_93\n      jump\t// in\n    tag_188:\n        /* \"#utility.yul\":7497:7522   */\n      swap2\n      pop\n        /* \"#utility.yul\":7536:7556   */\n      tag_189\n        /* \"#utility.yul\":7554:7555   */\n      dup4\n        /* \"#utility.yul\":7536:7556   */\n      tag_93\n      jump\t// in\n    tag_189:\n        /* \"#utility.yul\":7531:7556   */\n      swap3\n      pop\n        /* \"#utility.yul\":7575:7576   */\n      dup3\n        /* \"#utility.yul\":7565:7600   */\n      tag_190\n      jumpi\n        /* \"#utility.yul\":7580:7598   */\n      tag_191\n      tag_107\n      jump\t// in\n    tag_191:\n        /* \"#utility.yul\":7565:7600   */\n    tag_190:\n        /* \"#utility.yul\":7622:7623   */\n      dup3\n        /* \"#utility.yul\":7619:7620   */\n      dup3\n        /* \"#utility.yul\":7615:7624   */\n      div\n        /* \"#utility.yul\":7610:7624   */\n      swap1\n      pop\n        /* \"#utility.yul\":7445:7630   */\n      swap3\n      swap2\n      pop\n      pop\n      jump\t// out\n        /* \"#utility.yul\":7636:7741   */\n    tag_108:\n        /* \"#utility.yul\":7672:7679   */\n      0x00\n        /* \"#utility.yul\":7712:7734   */\n      0xffffffffffffffffffff\n        /* \"#utility.yul\":7705:7710   */\n      dup3\n        /* \"#utility.yul\":7701:7735   */\n      and\n        /* \"#utility.yul\":7690:7735   */\n      swap1\n      pop\n        /* \"#utility.yul\":7636:7741   */\n      swap2\n      swap1\n      pop\n      jump\t// out\n        /* \"#utility.yul\":7747:7867   */\n    tag_109:\n        /* \"#utility.yul\":7819:7842   */\n      tag_194\n        /* \"#utility.yul\":7836:7841   */\n      dup2\n        /* \"#utility.yul\":7819:7842   */\n      tag_108\n      jump\t// in\n    tag_194:\n        /* \"#utility.yul\":7812:7817   */\n      dup2\n        /* \"#utility.yul\":7809:7843   */\n      eq\n        /* \"#utility.yul\":7799:7861   */\n      tag_195\n      jumpi\n        /* \"#utility.yul\":7857:7858   */\n      0x00\n        /* \"#utility.yul\":7854:7855   */\n      dup1\n        /* \"#utility.yul\":7847:7859   */\n      revert\n        /* \"#utility.yul\":7799:7861   */\n    tag_195:\n        /* \"#utility.yul\":7747:7867   */\n      pop\n      jump\t// out\n        /* \"#utility.yul\":7873:8014   */\n    tag_110:\n        /* \"#utility.yul\":7929:7934   */\n      0x00\n        /* \"#utility.yul\":7960:7966   */\n      dup2\n        /* \"#utility.yul\":7954:7967   */\n      mload\n        /* \"#utility.yul\":7945:7967   */\n      swap1\n      pop\n        /* \"#utility.yul\":7976:8008   */\n      tag_197\n        /* \"#utility.yul\":8002:8007   */\n      dup2\n        /* \"#utility.yul\":7976:8008   */\n      tag_109\n      jump\t// in\n    tag_197:\n        /* \"#utility.yul\":7873:8014   */\n      swap3\n      swap2\n      pop\n      pop\n      jump\t// out\n        /* \"#utility.yul\":8020:8096   */\n    tag_111:\n        /* \"#utility.yul\":8056:8063   */\n      0x00\n        /* \"#utility.yul\":8085:8090   */\n      dup2\n        /* \"#utility.yul\":8074:8090   */\n      swap1\n      pop\n        /* \"#utility.yul\":8020:8096   */\n      swap2\n      swap1\n      pop\n      jump\t// out\n        /* \"#utility.yul\":8102:8222   */\n    tag_112:\n        /* \"#utility.yul\":8174:8197   */\n      tag_200\n        /* \"#utility.yul\":8191:8196   */\n      dup2\n        /* \"#utility.yul\":8174:8197   */\n      tag_111\n      jump\t// in\n    tag_200:\n        /* \"#utility.yul\":8167:8172   */\n      dup2\n        /* \"#utility.yul\":8164:8198   */\n      eq\n        /* \"#utility.yul\":8154:8216   */\n      tag_201\n      jumpi\n        /* \"#utility.yul\":8212:8213   */\n      0x00\n        /* \"#utility.yul\":8209:8210   */\n      dup1\n        /* \"#utility.yul\":8202:8214   */\n      revert\n        /* \"#utility.yul\":8154:8216   */\n    tag_201:\n        /* \"#utility.yul\":8102:8222   */\n      pop\n      jump\t// out\n        /* \"#utility.yul\":8228:8369   */\n    tag_113:\n        /* \"#utility.yul\":8284:8289   */\n      0x00\n        /* \"#utility.yul\":8315:8321   */\n      dup2\n        /* \"#utility.yul\":8309:8322   */\n      mload\n        /* \"#utility.yul\":8300:8322   */\n      swap1\n      pop\n        /* \"#utility.yul\":8331:8363   */\n      tag_203\n        /* \"#utility.yul\":8357:8362   */\n      dup2\n        /* \"#utility.yul\":8331:8363   */\n      tag_112\n      jump\t// in\n    tag_203:\n        /* \"#utility.yul\":8228:8369   */\n      swap3\n      swap2\n      pop\n      pop\n      jump\t// out\n        /* \"#utility.yul\":8375:8518   */\n    tag_114:\n        /* \"#utility.yul\":8432:8437   */\n      0x00\n        /* \"#utility.yul\":8463:8469   */\n      dup2\n        /* \"#utility.yul\":8457:8470   */\n      mload\n        /* \"#utility.yul\":8448:8470   */\n      swap1\n      pop\n        /* \"#utility.yul\":8479:8512   */\n      tag_205\n        /* \"#utility.yul\":8506:8511   */\n      dup2\n        /* \"#utility.yul\":8479:8512   */\n      tag_95\n      jump\t// in\n    tag_205:\n        /* \"#utility.yul\":8375:8518   */\n      swap3\n      swap2\n      pop\n      pop\n      jump\t// out\n        /* \"#utility.yul\":8524:9495   */\n    tag_76:\n        /* \"#utility.yul\":8627:8633   */\n      0x00\n        /* \"#utility.yul\":8635:8641   */\n      dup1\n        /* \"#utility.yul\":8643:8649   */\n      0x00\n        /* \"#utility.yul\":8651:8657   */\n      dup1\n        /* \"#utility.yul\":8659:8665   */\n      0x00\n        /* \"#utility.yul\":8708:8711   */\n      0xa0\n        /* \"#utility.yul\":8696:8705   */\n      dup7\n        /* \"#utility.yul\":8687:8694   */\n      dup9\n        /* \"#utility.yul\":8683:8706   */\n      sub\n        /* \"#utility.yul\":8679:8712   */\n      slt\n        /* \"#utility.yul\":8676:8796   */\n      iszero\n      tag_207\n      jumpi\n        /* \"#utility.yul\":8715:8794   */\n      tag_208\n      tag_87\n      jump\t// in\n    tag_208:\n        /* \"#utility.yul\":8676:8796   */\n    tag_207:\n        /* \"#utility.yul\":8835:8836   */\n      0x00\n        /* \"#utility.yul\":8860:8923   */\n      tag_209\n        /* \"#utility.yul\":8915:8922   */\n      dup9\n        /* \"#utility.yul\":8906:8912   */\n      dup3\n        /* \"#utility.yul\":8895:8904   */\n      dup10\n        /* \"#utility.yul\":8891:8913   */\n      add\n        /* \"#utility.yul\":8860:8923   */\n      tag_110\n      jump\t// in\n    tag_209:\n        /* \"#utility.yul\":8850:8923   */\n      swap6\n      pop\n        /* \"#utility.yul\":8806:8933   */\n      pop\n        /* \"#utility.yul\":8972:8974   */\n      0x20\n        /* \"#utility.yul\":8998:9061   */\n      tag_210\n        /* \"#utility.yul\":9053:9060   */\n      dup9\n        /* \"#utility.yul\":9044:9050   */\n      dup3\n        /* \"#utility.yul\":9033:9042   */\n      dup10\n        /* \"#utility.yul\":9029:9051   */\n      add\n        /* \"#utility.yul\":8998:9061   */\n      tag_113\n      jump\t// in\n    tag_210:\n        /* \"#utility.yul\":8988:9061   */\n      swap5\n      pop\n        /* \"#utility.yul\":8943:9071   */\n      pop\n        /* \"#utility.yul\":9110:9112   */\n      0x40\n        /* \"#utility.yul\":9136:9200   */\n      tag_211\n        /* \"#utility.yul\":9192:9199   */\n      dup9\n        /* \"#utility.yul\":9183:9189   */\n      dup3\n        /* \"#utility.yul\":9172:9181   */\n      dup10\n        /* \"#utility.yul\":9168:9190   */\n      add\n        /* \"#utility.yul\":9136:9200   */\n      tag_114\n      jump\t// in\n    tag_211:\n        /* \"#utility.yul\":9126:9200   */\n      swap4\n      pop\n        /* \"#utility.yul\":9081:9210   */\n      pop\n        /* \"#utility.yul\":9249:9251   */\n      0x60\n        /* \"#utility.yul\":9275:9339   */\n      tag_212\n        /* \"#utility.yul\":9331:9338   */\n      dup9\n        /* \"#utility.yul\":9322:9328   */\n      dup3\n        /* \"#utility.yul\":9311:9320   */\n      dup10\n        /* \"#utility.yul\":9307:9329   */\n      add\n        /* \"#utility.yul\":9275:9339   */\n      tag_114\n      jump\t// in\n    tag_212:\n        /* \"#utility.yul\":9265:9339   */\n      swap3\n      pop\n        /* \"#utility.yul\":9220:9349   */\n      pop\n        /* \"#utility.yul\":9388:9391   */\n      0x80\n        /* \"#utility.yul\":9415:9478   */\n      tag_213\n        /* \"#utility.yul\":9470:9477   */\n      dup9\n        /* \"#utility.yul\":9461:9467   */\n      dup3\n        /* \"#utility.yul\":9450:9459   */\n      dup10\n        /* \"#utility.yul\":9446:9468   */\n      add\n        /* \"#utility.yul\":9415:9478   */\n      tag_110\n      jump\t// in\n    tag_213:\n        /* \"#utility.yul\":9405:9478   */\n      swap2\n      pop\n        /* \"#utility.yul\":9359:9488   */\n      pop\n        /* \"#utility.yul\":8524:9495   */\n      swap3\n      swap6\n      pop\n      swap3\n      swap6\n      swap1\n      swap4\n      pop\n      jump\t// out\n        /* \"#utility.yul\":9501:10492   */\n    tag_78:\n        /* \"#utility.yul\":9540:9547   */\n      0x00\n        /* \"#utility.yul\":9563:9582   */\n      tag_215\n        /* \"#utility.yul\":9580:9581   */\n      dup3\n        /* \"#utility.yul\":9563:9582   */\n      tag_111\n      jump\t// in\n    tag_215:\n        /* \"#utility.yul\":9558:9582   */\n      swap2\n      pop\n        /* \"#utility.yul\":9596:9615   */\n      tag_216\n        /* \"#utility.yul\":9613:9614   */\n      dup4\n        /* \"#utility.yul\":9596:9615   */\n      tag_111\n      jump\t// in\n    tag_216:\n        /* \"#utility.yul\":9591:9615   */\n      swap3\n      pop\n        /* \"#utility.yul\":9797:9798   */\n      dup3\n        /* \"#utility.yul\":9729:9795   */\n      0x7fffffffffffffffffffffffffffffffffffffffffffffffffffffffffffffff\n        /* \"#utility.yul\":9725:9799   */\n      div\n        /* \"#utility.yul\":9722:9723   */\n      dup3\n        /* \"#utility.yul\":9719:9800   */\n      gt\n        /* \"#utility.yul\":9714:9715   */\n      0x00\n        /* \"#utility.yul\":9711:9712   */\n      dup5\n        /* \"#utility.yul\":9707:9716   */\n      sgt\n        /* \"#utility.yul\":9703:9704   */\n      0x00\n        /* \"#utility.yul\":9700:9701   */\n      dup5\n        /* \"#utility.yul\":9696:9705   */\n      sgt\n        /* \"#utility.yul\":9692:9717   */\n      and\n        /* \"#utility.yul\":9688:9801   */\n      and\n        /* \"#utility.yul\":9685:9824   */\n      iszero\n      tag_217\n      jumpi\n        /* \"#utility.yul\":9804:9822   */\n      tag_218\n      tag_98\n      jump\t// in\n    tag_218:\n        /* \"#utility.yul\":9685:9824   */\n    tag_217:\n        /* \"#utility.yul\":10008:10009   */\n      dup2\n        /* \"#utility.yul\":9940:10006   */\n      0x8000000000000000000000000000000000000000000000000000000000000000\n        /* \"#utility.yul\":9935:10010   */\n      sdiv\n        /* \"#utility.yul\":9932:9933   */\n      dup4\n        /* \"#utility.yul\":9928:10011   */\n      slt\n        /* \"#utility.yul\":9923:9924   */\n      0x00\n        /* \"#utility.yul\":9920:9921   */\n      dup5\n        /* \"#utility.yul\":9916:9925   */\n      slt\n        /* \"#utility.yul\":9912:9913   */\n      0x00\n        /* \"#utility.yul\":9909:9910   */\n      dup5\n        /* \"#utility.yul\":9905:9914   */\n      sgt\n        /* \"#utility.yul\":9901:9926   */\n      and\n        /* \"#utility.yul\":9897:10012   */\n      and\n        /* \"#utility.yul\":9894:10035   */\n      iszero\n      tag_219\n      jumpi\n        /* \"#utility.yul\":10015:10033   */\n      tag_220\n      tag_98\n      jump\t// in\n    tag_220:\n        /* \"#utility.yul\":9894:10035   */\n    tag_219:\n        /* \"#utility.yul\":10219:10220   */\n      dup3\n        /* \"#utility.yul\":10151:10217   */\n      0x8000000000000000000000000000000000000000000000000000000000000000\n        /* \"#utility.yul\":10146:10221   */\n      sdiv\n        /* \"#utility.yul\":10143:10144   */\n      dup3\n        /* \"#utility.yul\":10139:10222   */\n      slt\n        /* \"#utility.yul\":10134:10135   */\n      0x00\n        /* \"#utility.yul\":10131:10132   */\n      dup5\n        /* \"#utility.yul\":10127:10136   */\n      sgt\n        /* \"#utility.yul\":10123:10124   */\n      0x00\n        /* \"#utility.yul\":10120:10121   */\n      dup5\n        /* \"#utility.yul\":10116:10125   */\n      slt\n        /* \"#utility.yul\":10112:10137   */\n      and\n        /* \"#utility.yul\":10108:10223   */\n      and\n        /* \"#utility.yul\":10105:10246   */\n      iszero\n      tag_221\n      jumpi\n        /* \"#utility.yul\":10226:10244   */\n      tag_222\n      tag_98\n      jump\t// in\n    tag_222:\n        /* \"#utility.yul\":10105:10246   */\n    tag_221:\n        /* \"#utility.yul\":10429:10430   */\n      dup3\n        /* \"#utility.yul\":10361:10427   */\n      0x7fffffffffffffffffffffffffffffffffffffffffffffffffffffffffffffff\n        /* \"#utility.yul\":10356:10431   */\n      sdiv\n        /* \"#utility.yul\":10353:10354   */\n      dup3\n        /* \"#utility.yul\":10349:10432   */\n      slt\n        /* \"#utility.yul\":10344:10345   */\n      0x00\n        /* \"#utility.yul\":10341:10342   */\n      dup5\n        /* \"#utility.yul\":10337:10346   */\n      slt\n        /* \"#utility.yul\":10333:10334   */\n      0x00\n        /* \"#utility.yul\":10330:10331   */\n      dup5\n        /* \"#utility.yul\":10326:10335   */\n      slt\n        /* \"#utility.yul\":10322:10347   */\n      and\n        /* \"#utility.yul\":10318:10433   */\n      and\n        /* \"#utility.yul\":10315:10456   */\n      iszero\n      tag_223\n      jumpi\n        /* \"#utility.yul\":10436:10454   */\n      tag_224\n      tag_98\n      jump\t// in\n    tag_224:\n        /* \"#utility.yul\":10315:10456   */\n    tag_223:\n        /* \"#utility.yul\":10484:10485   */\n      dup3\n        /* \"#utility.yul\":10481:10482   */\n      dup3\n        /* \"#utility.yul\":10477:10486   */\n      mul\n        /* \"#utility.yul\":10466:10486   */\n      swap1\n      pop\n        /* \"#utility.yul\":9501:10492   */\n      swap3\n      swap2\n      pop\n      pop\n      jump\t// out\n\n    auxdata: 0xa264697066735822122090d98a514e090c553744a7c35d7abed47027fabb20aeb2834a889705d7b0ce1264736f6c634300080f0033\n}\n",
				"bytecode": {
					"linkReferences": {},
					"object": "6080604052603260005534801561001557600080fd5b50610c96806100256000396000f3fe60806040526004361061004a5760003560e01c80633c7e7d281461004f5780633ccfd60b1461008c57806351b80e41146100a3578063b60d4288146100ce578063dc0d3dff146100d8575b600080fd5b34801561005b57600080fd5b5061007660048036038101906100719190610623565b610115565b6040516100839190610669565b60405180910390f35b34801561009857600080fd5b506100a161012d565b005b3480156100af57600080fd5b506100b86102e9565b6040516100c59190610669565b60405180910390f35b6100d66102ef565b005b3480156100e457600080fd5b506100ff60048036038101906100fa91906106b0565b6103f7565b60405161010c91906106ec565b60405180910390f35b60026020528060005260406000206000915090505481565b60005b6001805490508110156101d95760006001828154811061015357610152610707565b5b9060005260206000200160009054906101000a900473ffffffffffffffffffffffffffffffffffffffff1690506000600260008373ffffffffffffffffffffffffffffffffffffffff1673ffffffffffffffffffffffffffffffffffffffff168152602001908152602001600020819055505080806101d190610765565b915050610130565b50600067ffffffffffffffff8111156101f5576101f46107ad565b5b6040519080825280602002602001820160405280156102235781602001602082028036833780820191505090505b5060019080519060200190610239929190610519565b5060003373ffffffffffffffffffffffffffffffffffffffff16476040516102609061080d565b60006040518083038185875af1925050503d806000811461029d576040519150601f19603f3d011682016040523d82523d6000602084013e6102a2565b606091505b50509050806102e6576040517f08c379a00000000000000000000000000000000000000000000000000000000081526004016102dd9061087f565b60405180910390fd5b50565b60005481565b6000546102fb34610436565b101561033c576040517f08c379a000000000000000000000000000000000000000000000000000000000815260040161033390610911565b60405180910390fd5b6001339080600181540180825580915050600190039060005260206000200160009091909190916101000a81548173ffffffffffffffffffffffffffffffffffffffff021916908373ffffffffffffffffffffffffffffffffffffffff16021790555034600260003373ffffffffffffffffffffffffffffffffffffffff1673ffffffffffffffffffffffffffffffffffffffff16815260200190815260200160002060008282546103ee9190610931565b92505081905550565b6001818154811061040757600080fd5b906000526020600020016000915054906101000a900473ffffffffffffffffffffffffffffffffffffffff1681565b600080610441610470565b90506000670de0b6b3a7640000848361045a9190610987565b6104649190610a10565b90508092505050919050565b600080738a753747a1fa494ec906ce90e9f37563a8af630e905060008173ffffffffffffffffffffffffffffffffffffffff1663feaf968c6040518163ffffffff1660e01b815260040160a060405180830381865afa1580156104d7573d6000803e3d6000fd5b505050506040513d601f19601f820116820180604052508101906104fb9190610ace565b5050509150506402540be400816105129190610b49565b9250505090565b828054828255906000526020600020908101928215610592579160200282015b828111156105915782518260006101000a81548173ffffffffffffffffffffffffffffffffffffffff021916908373ffffffffffffffffffffffffffffffffffffffff16021790555091602001919060010190610539565b5b50905061059f91906105a3565b5090565b5b808211156105bc5760008160009055506001016105a4565b5090565b600080fd5b600073ffffffffffffffffffffffffffffffffffffffff82169050919050565b60006105f0826105c5565b9050919050565b610600816105e5565b811461060b57600080fd5b50565b60008135905061061d816105f7565b92915050565b600060208284031215610639576106386105c0565b5b60006106478482850161060e565b91505092915050565b6000819050919050565b61066381610650565b82525050565b600060208201905061067e600083018461065a565b92915050565b61068d81610650565b811461069857600080fd5b50565b6000813590506106aa81610684565b92915050565b6000602082840312156106c6576106c56105c0565b5b60006106d48482850161069b565b91505092915050565b6106e6816105e5565b82525050565b600060208201905061070160008301846106dd565b92915050565b7f4e487b7100000000000000000000000000000000000000000000000000000000600052603260045260246000fd5b7f4e487b7100000000000000000000000000000000000000000000000000000000600052601160045260246000fd5b600061077082610650565b91507fffffffffffffffffffffffffffffffffffffffffffffffffffffffffffffffff82036107a2576107a1610736565b5b600182019050919050565b7f4e487b7100000000000000000000000000000000000000000000000000000000600052604160045260246000fd5b600081905092915050565b50565b60006107f76000836107dc565b9150610802826107e7565b600082019050919050565b6000610818826107ea565b9150819050919050565b600082825260208201905092915050565b7f43616c6c204661696c6564000000000000000000000000000000000000000000600082015250565b6000610869600b83610822565b915061087482610833565b602082019050919050565b600060208201905081810360008301526108988161085c565b9050919050565b7f46756e64696e6720616d6f756e74206d757374206265206174206c656173742060008201527f2435300000000000000000000000000000000000000000000000000000000000602082015250565b60006108fb602383610822565b91506109068261089f565b604082019050919050565b6000602082019050818103600083015261092a816108ee565b9050919050565b600061093c82610650565b915061094783610650565b9250827fffffffffffffffffffffffffffffffffffffffffffffffffffffffffffffffff0382111561097c5761097b610736565b5b828201905092915050565b600061099282610650565b915061099d83610650565b9250817fffffffffffffffffffffffffffffffffffffffffffffffffffffffffffffffff04831182151516156109d6576109d5610736565b5b828202905092915050565b7f4e487b7100000000000000000000000000000000000000000000000000000000600052601260045260246000fd5b6000610a1b82610650565b9150610a2683610650565b925082610a3657610a356109e1565b5b828204905092915050565b600069ffffffffffffffffffff82169050919050565b610a6081610a41565b8114610a6b57600080fd5b50565b600081519050610a7d81610a57565b92915050565b6000819050919050565b610a9681610a83565b8114610aa157600080fd5b50565b600081519050610ab381610a8d565b92915050565b600081519050610ac881610684565b92915050565b600080600080600060a08688031215610aea57610ae96105c0565b5b6000610af888828901610a6e565b9550506020610b0988828901610aa4565b9450506040610b1a88828901610ab9565b9350506060610b2b88828901610ab9565b9250506080610b3c88828901610a6e565b9150509295509295909350565b6000610b5482610a83565b9150610b5f83610a83565b9250827f7fffffffffffffffffffffffffffffffffffffffffffffffffffffffffffffff0482116000841360008413161615610b9e57610b9d610736565b5b817f80000000000000000000000000000000000000000000000000000000000000000583126000841260008413161615610bdb57610bda610736565b5b827f80000000000000000000000000000000000000000000000000000000000000000582126000841360008412161615610c1857610c17610736565b5b827f7fffffffffffffffffffffffffffffffffffffffffffffffffffffffffffffff0582126000841260008412161615610c5557610c54610736565b5b82820290509291505056fea264697066735822122090d98a514e090c553744a7c35d7abed47027fabb20aeb2834a889705d7b0ce1264736f6c634300080f0033",
					"opcodes": "PUSH1 0x80 PUSH1 0x40 MSTORE PUSH1 0x32 PUSH1 0x0 SSTORE CALLVALUE DUP1 ISZERO PUSH2 0x15 JUMPI PUSH1 0x0 DUP1 REVERT JUMPDEST POP PUSH2 0xC96 DUP1 PUSH2 0x25 PUSH1 0x0 CODECOPY PUSH1 0x0 RETURN INVALID PUSH1 0x80 PUSH1 0x40 MSTORE PUSH1 0x4 CALLDATASIZE LT PUSH2 0x4A JUMPI PUSH1 0x0 CALLDATALOAD PUSH1 0xE0 SHR DUP1 PUSH4 0x3C7E7D28 EQ PUSH2 0x4F JUMPI DUP1 PUSH4 0x3CCFD60B EQ PUSH2 0x8C JUMPI DUP1 PUSH4 0x51B80E41 EQ PUSH2 0xA3 JUMPI DUP1 PUSH4 0xB60D4288 EQ PUSH2 0xCE JUMPI DUP1 PUSH4 0xDC0D3DFF EQ PUSH2 0xD8 JUMPI JUMPDEST PUSH1 0x0 DUP1 REVERT JUMPDEST CALLVALUE DUP1 ISZERO PUSH2 0x5B JUMPI PUSH1 0x0 DUP1 REVERT JUMPDEST POP PUSH2 0x76 PUSH1 0x4 DUP1 CALLDATASIZE SUB DUP2 ADD SWAP1 PUSH2 0x71 SWAP2 SWAP1 PUSH2 0x623 JUMP JUMPDEST PUSH2 0x115 JUMP JUMPDEST PUSH1 0x40 MLOAD PUSH2 0x83 SWAP2 SWAP1 PUSH2 0x669 JUMP JUMPDEST PUSH1 0x40 MLOAD DUP1 SWAP2 SUB SWAP1 RETURN JUMPDEST CALLVALUE DUP1 ISZERO PUSH2 0x98 JUMPI PUSH1 0x0 DUP1 REVERT JUMPDEST POP PUSH2 0xA1 PUSH2 0x12D JUMP JUMPDEST STOP JUMPDEST CALLVALUE DUP1 ISZERO PUSH2 0xAF JUMPI PUSH1 0x0 DUP1 REVERT JUMPDEST POP PUSH2 0xB8 PUSH2 0x2E9 JUMP JUMPDEST PUSH1 0x40 MLOAD PUSH2 0xC5 SWAP2 SWAP1 PUSH2 0x669 JUMP JUMPDEST PUSH1 0x40 MLOAD DUP1 SWAP2 SUB SWAP1 RETURN JUMPDEST PUSH2 0xD6 PUSH2 0x2EF JUMP JUMPDEST STOP JUMPDEST CALLVALUE DUP1 ISZERO PUSH2 0xE4 JUMPI PUSH1 0x0 DUP1 REVERT JUMPDEST POP PUSH2 0xFF PUSH1 0x4 DUP1 CALLDATASIZE SUB DUP2 ADD SWAP1 PUSH2 0xFA SWAP2 SWAP1 PUSH2 0x6B0 JUMP JUMPDEST PUSH2 0x3F7 JUMP JUMPDEST PUSH1 0x40 MLOAD PUSH2 0x10C SWAP2 SWAP1 PUSH2 0x6EC JUMP JUMPDEST PUSH1 0x40 MLOAD DUP1 SWAP2 SUB SWAP1 RETURN JUMPDEST PUSH1 0x2 PUSH1 0x20 MSTORE DUP1 PUSH1 0x0 MSTORE PUSH1 0x40 PUSH1 0x0 KECCAK256 PUSH1 0x0 SWAP2 POP SWAP1 POP SLOAD DUP2 JUMP JUMPDEST PUSH1 0x0 JUMPDEST PUSH1 0x1 DUP1 SLOAD SWAP1 POP DUP2 LT ISZERO PUSH2 0x1D9 JUMPI PUSH1 0x0 PUSH1 0x1 DUP3 DUP2 SLOAD DUP2 LT PUSH2 0x153 JUMPI PUSH2 0x152 PUSH2 0x707 JUMP JUMPDEST JUMPDEST SWAP1 PUSH1 0x0 MSTORE PUSH1 0x20 PUSH1 0x0 KECCAK256 ADD PUSH1 0x0 SWAP1 SLOAD SWAP1 PUSH2 0x100 EXP SWAP1 DIV PUSH20 0xFFFFFFFFFFFFFFFFFFFFFFFFFFFFFFFFFFFFFFFF AND SWAP1 POP PUSH1 0x0 PUSH1 0x2 PUSH1 0x0 DUP4 PUSH20 0xFFFFFFFFFFFFFFFFFFFFFFFFFFFFFFFFFFFFFFFF AND PUSH20 0xFFFFFFFFFFFFFFFFFFFFFFFFFFFFFFFFFFFFFFFF AND DUP2 MSTORE PUSH1 0x20 ADD SWAP1 DUP2 MSTORE PUSH1 0x20 ADD PUSH1 0x0 KECCAK256 DUP2 SWAP1 SSTORE POP POP DUP1 DUP1 PUSH2 0x1D1 SWAP1 PUSH2 0x765 JUMP JUMPDEST SWAP2 POP POP PUSH2 0x130 JUMP JUMPDEST POP PUSH1 0x0 PUSH8 0xFFFFFFFFFFFFFFFF DUP2 GT ISZERO PUSH2 0x1F5 JUMPI PUSH2 0x1F4 PUSH2 0x7AD JUMP JUMPDEST JUMPDEST PUSH1 0x40 MLOAD SWAP1 DUP1 DUP3 MSTORE DUP1 PUSH1 0x20 MUL PUSH1 0x20 ADD DUP3 ADD PUSH1 0x40 MSTORE DUP1 ISZERO PUSH2 0x223 JUMPI DUP2 PUSH1 0x20 ADD PUSH1 0x20 DUP3 MUL DUP1 CALLDATASIZE DUP4 CALLDATACOPY DUP1 DUP3 ADD SWAP2 POP POP SWAP1 POP JUMPDEST POP PUSH1 0x1 SWAP1 DUP1 MLOAD SWAP1 PUSH1 0x20 ADD SWAP1 PUSH2 0x239 SWAP3 SWAP2 SWAP1 PUSH2 0x519 JUMP JUMPDEST POP PUSH1 0x0 CALLER PUSH20 0xFFFFFFFFFFFFFFFFFFFFFFFFFFFFFFFFFFFFFFFF AND SELFBALANCE PUSH1 0x40 MLOAD PUSH2 0x260 SWAP1 PUSH2 0x80D JUMP JUMPDEST PUSH1 0x0 PUSH1 0x40 MLOAD DUP1 DUP4 SUB DUP2 DUP6 DUP8 GAS CALL SWAP3 POP POP POP RETURNDATASIZE DUP1 PUSH1 0x0 DUP2 EQ PUSH2 0x29D JUMPI PUSH1 0x40 MLOAD SWAP2 POP PUSH1 0x1F NOT PUSH1 0x3F RETURNDATASIZE ADD AND DUP3 ADD PUSH1 0x40 MSTORE RETURNDATASIZE DUP3 MSTORE RETURNDATASIZE PUSH1 0x0 PUSH1 0x20 DUP5 ADD RETURNDATACOPY PUSH2 0x2A2 JUMP JUMPDEST PUSH1 0x60 SWAP2 POP JUMPDEST POP POP SWAP1 POP DUP1 PUSH2 0x2E6 JUMPI PUSH1 0x40 MLOAD PUSH32 0x8C379A000000000000000000000000000000000000000000000000000000000 DUP2 MSTORE PUSH1 0x4 ADD PUSH2 0x2DD SWAP1 PUSH2 0x87F JUMP JUMPDEST PUSH1 0x40 MLOAD DUP1 SWAP2 SUB SWAP1 REVERT JUMPDEST POP JUMP JUMPDEST PUSH1 0x0 SLOAD DUP2 JUMP JUMPDEST PUSH1 0x0 SLOAD PUSH2 0x2FB CALLVALUE PUSH2 0x436 JUMP JUMPDEST LT ISZERO PUSH2 0x33C JUMPI PUSH1 0x40 MLOAD PUSH32 0x8C379A000000000000000000000000000000000000000000000000000000000 DUP2 MSTORE PUSH1 0x4 ADD PUSH2 0x333 SWAP1 PUSH2 0x911 JUMP JUMPDEST PUSH1 0x40 MLOAD DUP1 SWAP2 SUB SWAP1 REVERT JUMPDEST PUSH1 0x1 CALLER SWAP1 DUP1 PUSH1 0x1 DUP2 SLOAD ADD DUP1 DUP3 SSTORE DUP1 SWAP2 POP POP PUSH1 0x1 SWAP1 SUB SWAP1 PUSH1 0x0 MSTORE PUSH1 0x20 PUSH1 0x0 KECCAK256 ADD PUSH1 0x0 SWAP1 SWAP2 SWAP1 SWAP2 SWAP1 SWAP2 PUSH2 0x100 EXP DUP2 SLOAD DUP2 PUSH20 0xFFFFFFFFFFFFFFFFFFFFFFFFFFFFFFFFFFFFFFFF MUL NOT AND SWAP1 DUP4 PUSH20 0xFFFFFFFFFFFFFFFFFFFFFFFFFFFFFFFFFFFFFFFF AND MUL OR SWAP1 SSTORE POP CALLVALUE PUSH1 0x2 PUSH1 0x0 CALLER PUSH20 0xFFFFFFFFFFFFFFFFFFFFFFFFFFFFFFFFFFFFFFFF AND PUSH20 0xFFFFFFFFFFFFFFFFFFFFFFFFFFFFFFFFFFFFFFFF AND DUP2 MSTORE PUSH1 0x20 ADD SWAP1 DUP2 MSTORE PUSH1 0x20 ADD PUSH1 0x0 KECCAK256 PUSH1 0x0 DUP3 DUP3 SLOAD PUSH2 0x3EE SWAP2 SWAP1 PUSH2 0x931 JUMP JUMPDEST SWAP3 POP POP DUP2 SWAP1 SSTORE POP JUMP JUMPDEST PUSH1 0x1 DUP2 DUP2 SLOAD DUP2 LT PUSH2 0x407 JUMPI PUSH1 0x0 DUP1 REVERT JUMPDEST SWAP1 PUSH1 0x0 MSTORE PUSH1 0x20 PUSH1 0x0 KECCAK256 ADD PUSH1 0x0 SWAP2 POP SLOAD SWAP1 PUSH2 0x100 EXP SWAP1 DIV PUSH20 0xFFFFFFFFFFFFFFFFFFFFFFFFFFFFFFFFFFFFFFFF AND DUP2 JUMP JUMPDEST PUSH1 0x0 DUP1 PUSH2 0x441 PUSH2 0x470 JUMP JUMPDEST SWAP1 POP PUSH1 0x0 PUSH8 0xDE0B6B3A7640000 DUP5 DUP4 PUSH2 0x45A SWAP2 SWAP1 PUSH2 0x987 JUMP JUMPDEST PUSH2 0x464 SWAP2 SWAP1 PUSH2 0xA10 JUMP JUMPDEST SWAP1 POP DUP1 SWAP3 POP POP POP SWAP2 SWAP1 POP JUMP JUMPDEST PUSH1 0x0 DUP1 PUSH20 0x8A753747A1FA494EC906CE90E9F37563A8AF630E SWAP1 POP PUSH1 0x0 DUP2 PUSH20 0xFFFFFFFFFFFFFFFFFFFFFFFFFFFFFFFFFFFFFFFF AND PUSH4 0xFEAF968C PUSH1 0x40 MLOAD DUP2 PUSH4 0xFFFFFFFF AND PUSH1 0xE0 SHL DUP2 MSTORE PUSH1 0x4 ADD PUSH1 0xA0 PUSH1 0x40 MLOAD DUP1 DUP4 SUB DUP2 DUP7 GAS STATICCALL ISZERO DUP1 ISZERO PUSH2 0x4D7 JUMPI RETURNDATASIZE PUSH1 0x0 DUP1 RETURNDATACOPY RETURNDATASIZE PUSH1 0x0 REVERT JUMPDEST POP POP POP POP PUSH1 0x40 MLOAD RETURNDATASIZE PUSH1 0x1F NOT PUSH1 0x1F DUP3 ADD AND DUP3 ADD DUP1 PUSH1 0x40 MSTORE POP DUP2 ADD SWAP1 PUSH2 0x4FB SWAP2 SWAP1 PUSH2 0xACE JUMP JUMPDEST POP POP POP SWAP2 POP POP PUSH5 0x2540BE400 DUP2 PUSH2 0x512 SWAP2 SWAP1 PUSH2 0xB49 JUMP JUMPDEST SWAP3 POP POP POP SWAP1 JUMP JUMPDEST DUP3 DUP1 SLOAD DUP3 DUP3 SSTORE SWAP1 PUSH1 0x0 MSTORE PUSH1 0x20 PUSH1 0x0 KECCAK256 SWAP1 DUP2 ADD SWAP3 DUP3 ISZERO PUSH2 0x592 JUMPI SWAP2 PUSH1 0x20 MUL DUP3 ADD JUMPDEST DUP3 DUP2 GT ISZERO PUSH2 0x591 JUMPI DUP3 MLOAD DUP3 PUSH1 0x0 PUSH2 0x100 EXP DUP2 SLOAD DUP2 PUSH20 0xFFFFFFFFFFFFFFFFFFFFFFFFFFFFFFFFFFFFFFFF MUL NOT AND SWAP1 DUP4 PUSH20 0xFFFFFFFFFFFFFFFFFFFFFFFFFFFFFFFFFFFFFFFF AND MUL OR SWAP1 SSTORE POP SWAP2 PUSH1 0x20 ADD SWAP2 SWAP1 PUSH1 0x1 ADD SWAP1 PUSH2 0x539 JUMP JUMPDEST JUMPDEST POP SWAP1 POP PUSH2 0x59F SWAP2 SWAP1 PUSH2 0x5A3 JUMP JUMPDEST POP SWAP1 JUMP JUMPDEST JUMPDEST DUP1 DUP3 GT ISZERO PUSH2 0x5BC JUMPI PUSH1 0x0 DUP2 PUSH1 0x0 SWAP1 SSTORE POP PUSH1 0x1 ADD PUSH2 0x5A4 JUMP JUMPDEST POP SWAP1 JUMP JUMPDEST PUSH1 0x0 DUP1 REVERT JUMPDEST PUSH1 0x0 PUSH20 0xFFFFFFFFFFFFFFFFFFFFFFFFFFFFFFFFFFFFFFFF DUP3 AND SWAP1 POP SWAP2 SWAP1 POP JUMP JUMPDEST PUSH1 0x0 PUSH2 0x5F0 DUP3 PUSH2 0x5C5 JUMP JUMPDEST SWAP1 POP SWAP2 SWAP1 POP JUMP JUMPDEST PUSH2 0x600 DUP2 PUSH2 0x5E5 JUMP JUMPDEST DUP2 EQ PUSH2 0x60B JUMPI PUSH1 0x0 DUP1 REVERT JUMPDEST POP JUMP JUMPDEST PUSH1 0x0 DUP2 CALLDATALOAD SWAP1 POP PUSH2 0x61D DUP2 PUSH2 0x5F7 JUMP JUMPDEST SWAP3 SWAP2 POP POP JUMP JUMPDEST PUSH1 0x0 PUSH1 0x20 DUP3 DUP5 SUB SLT ISZERO PUSH2 0x639 JUMPI PUSH2 0x638 PUSH2 0x5C0 JUMP JUMPDEST JUMPDEST PUSH1 0x0 PUSH2 0x647 DUP5 DUP3 DUP6 ADD PUSH2 0x60E JUMP JUMPDEST SWAP2 POP POP SWAP3 SWAP2 POP POP JUMP JUMPDEST PUSH1 0x0 DUP2 SWAP1 POP SWAP2 SWAP1 POP JUMP JUMPDEST PUSH2 0x663 DUP2 PUSH2 0x650 JUMP JUMPDEST DUP3 MSTORE POP POP JUMP JUMPDEST PUSH1 0x0 PUSH1 0x20 DUP3 ADD SWAP1 POP PUSH2 0x67E PUSH1 0x0 DUP4 ADD DUP5 PUSH2 0x65A JUMP JUMPDEST SWAP3 SWAP2 POP POP JUMP JUMPDEST PUSH2 0x68D DUP2 PUSH2 0x650 JUMP JUMPDEST DUP2 EQ PUSH2 0x698 JUMPI PUSH1 0x0 DUP1 REVERT JUMPDEST POP JUMP JUMPDEST PUSH1 0x0 DUP2 CALLDATALOAD SWAP1 POP PUSH2 0x6AA DUP2 PUSH2 0x684 JUMP JUMPDEST SWAP3 SWAP2 POP POP JUMP JUMPDEST PUSH1 0x0 PUSH1 0x20 DUP3 DUP5 SUB SLT ISZERO PUSH2 0x6C6 JUMPI PUSH2 0x6C5 PUSH2 0x5C0 JUMP JUMPDEST JUMPDEST PUSH1 0x0 PUSH2 0x6D4 DUP5 DUP3 DUP6 ADD PUSH2 0x69B JUMP JUMPDEST SWAP2 POP POP SWAP3 SWAP2 POP POP JUMP JUMPDEST PUSH2 0x6E6 DUP2 PUSH2 0x5E5 JUMP JUMPDEST DUP3 MSTORE POP POP JUMP JUMPDEST PUSH1 0x0 PUSH1 0x20 DUP3 ADD SWAP1 POP PUSH2 0x701 PUSH1 0x0 DUP4 ADD DUP5 PUSH2 0x6DD JUMP JUMPDEST SWAP3 SWAP2 POP POP JUMP JUMPDEST PUSH32 0x4E487B7100000000000000000000000000000000000000000000000000000000 PUSH1 0x0 MSTORE PUSH1 0x32 PUSH1 0x4 MSTORE PUSH1 0x24 PUSH1 0x0 REVERT JUMPDEST PUSH32 0x4E487B7100000000000000000000000000000000000000000000000000000000 PUSH1 0x0 MSTORE PUSH1 0x11 PUSH1 0x4 MSTORE PUSH1 0x24 PUSH1 0x0 REVERT JUMPDEST PUSH1 0x0 PUSH2 0x770 DUP3 PUSH2 0x650 JUMP JUMPDEST SWAP2 POP PUSH32 0xFFFFFFFFFFFFFFFFFFFFFFFFFFFFFFFFFFFFFFFFFFFFFFFFFFFFFFFFFFFFFFFF DUP3 SUB PUSH2 0x7A2 JUMPI PUSH2 0x7A1 PUSH2 0x736 JUMP JUMPDEST JUMPDEST PUSH1 0x1 DUP3 ADD SWAP1 POP SWAP2 SWAP1 POP JUMP JUMPDEST PUSH32 0x4E487B7100000000000000000000000000000000000000000000000000000000 PUSH1 0x0 MSTORE PUSH1 0x41 PUSH1 0x4 MSTORE PUSH1 0x24 PUSH1 0x0 REVERT JUMPDEST PUSH1 0x0 DUP2 SWAP1 POP SWAP3 SWAP2 POP POP JUMP JUMPDEST POP JUMP JUMPDEST PUSH1 0x0 PUSH2 0x7F7 PUSH1 0x0 DUP4 PUSH2 0x7DC JUMP JUMPDEST SWAP2 POP PUSH2 0x802 DUP3 PUSH2 0x7E7 JUMP JUMPDEST PUSH1 0x0 DUP3 ADD SWAP1 POP SWAP2 SWAP1 POP JUMP JUMPDEST PUSH1 0x0 PUSH2 0x818 DUP3 PUSH2 0x7EA JUMP JUMPDEST SWAP2 POP DUP2 SWAP1 POP SWAP2 SWAP1 POP JUMP JUMPDEST PUSH1 0x0 DUP3 DUP3 MSTORE PUSH1 0x20 DUP3 ADD SWAP1 POP SWAP3 SWAP2 POP POP JUMP JUMPDEST PUSH32 0x43616C6C204661696C6564000000000000000000000000000000000000000000 PUSH1 0x0 DUP3 ADD MSTORE POP JUMP JUMPDEST PUSH1 0x0 PUSH2 0x869 PUSH1 0xB DUP4 PUSH2 0x822 JUMP JUMPDEST SWAP2 POP PUSH2 0x874 DUP3 PUSH2 0x833 JUMP JUMPDEST PUSH1 0x20 DUP3 ADD SWAP1 POP SWAP2 SWAP1 POP JUMP JUMPDEST PUSH1 0x0 PUSH1 0x20 DUP3 ADD SWAP1 POP DUP2 DUP2 SUB PUSH1 0x0 DUP4 ADD MSTORE PUSH2 0x898 DUP2 PUSH2 0x85C JUMP JUMPDEST SWAP1 POP SWAP2 SWAP1 POP JUMP JUMPDEST PUSH32 0x46756E64696E6720616D6F756E74206D757374206265206174206C6561737420 PUSH1 0x0 DUP3 ADD MSTORE PUSH32 0x2435300000000000000000000000000000000000000000000000000000000000 PUSH1 0x20 DUP3 ADD MSTORE POP JUMP JUMPDEST PUSH1 0x0 PUSH2 0x8FB PUSH1 0x23 DUP4 PUSH2 0x822 JUMP JUMPDEST SWAP2 POP PUSH2 0x906 DUP3 PUSH2 0x89F JUMP JUMPDEST PUSH1 0x40 DUP3 ADD SWAP1 POP SWAP2 SWAP1 POP JUMP JUMPDEST PUSH1 0x0 PUSH1 0x20 DUP3 ADD SWAP1 POP DUP2 DUP2 SUB PUSH1 0x0 DUP4 ADD MSTORE PUSH2 0x92A DUP2 PUSH2 0x8EE JUMP JUMPDEST SWAP1 POP SWAP2 SWAP1 POP JUMP JUMPDEST PUSH1 0x0 PUSH2 0x93C DUP3 PUSH2 0x650 JUMP JUMPDEST SWAP2 POP PUSH2 0x947 DUP4 PUSH2 0x650 JUMP JUMPDEST SWAP3 POP DUP3 PUSH32 0xFFFFFFFFFFFFFFFFFFFFFFFFFFFFFFFFFFFFFFFFFFFFFFFFFFFFFFFFFFFFFFFF SUB DUP3 GT ISZERO PUSH2 0x97C JUMPI PUSH2 0x97B PUSH2 0x736 JUMP JUMPDEST JUMPDEST DUP3 DUP3 ADD SWAP1 POP SWAP3 SWAP2 POP POP JUMP JUMPDEST PUSH1 0x0 PUSH2 0x992 DUP3 PUSH2 0x650 JUMP JUMPDEST SWAP2 POP PUSH2 0x99D DUP4 PUSH2 0x650 JUMP JUMPDEST SWAP3 POP DUP2 PUSH32 0xFFFFFFFFFFFFFFFFFFFFFFFFFFFFFFFFFFFFFFFFFFFFFFFFFFFFFFFFFFFFFFFF DIV DUP4 GT DUP3 ISZERO ISZERO AND ISZERO PUSH2 0x9D6 JUMPI PUSH2 0x9D5 PUSH2 0x736 JUMP JUMPDEST JUMPDEST DUP3 DUP3 MUL SWAP1 POP SWAP3 SWAP2 POP POP JUMP JUMPDEST PUSH32 0x4E487B7100000000000000000000000000000000000000000000000000000000 PUSH1 0x0 MSTORE PUSH1 0x12 PUSH1 0x4 MSTORE PUSH1 0x24 PUSH1 0x0 REVERT JUMPDEST PUSH1 0x0 PUSH2 0xA1B DUP3 PUSH2 0x650 JUMP JUMPDEST SWAP2 POP PUSH2 0xA26 DUP4 PUSH2 0x650 JUMP JUMPDEST SWAP3 POP DUP3 PUSH2 0xA36 JUMPI PUSH2 0xA35 PUSH2 0x9E1 JUMP JUMPDEST JUMPDEST DUP3 DUP3 DIV SWAP1 POP SWAP3 SWAP2 POP POP JUMP JUMPDEST PUSH1 0x0 PUSH10 0xFFFFFFFFFFFFFFFFFFFF DUP3 AND SWAP1 POP SWAP2 SWAP1 POP JUMP JUMPDEST PUSH2 0xA60 DUP2 PUSH2 0xA41 JUMP JUMPDEST DUP2 EQ PUSH2 0xA6B JUMPI PUSH1 0x0 DUP1 REVERT JUMPDEST POP JUMP JUMPDEST PUSH1 0x0 DUP2 MLOAD SWAP1 POP PUSH2 0xA7D DUP2 PUSH2 0xA57 JUMP JUMPDEST SWAP3 SWAP2 POP POP JUMP JUMPDEST PUSH1 0x0 DUP2 SWAP1 POP SWAP2 SWAP1 POP JUMP JUMPDEST PUSH2 0xA96 DUP2 PUSH2 0xA83 JUMP JUMPDEST DUP2 EQ PUSH2 0xAA1 JUMPI PUSH1 0x0 DUP1 REVERT JUMPDEST POP JUMP JUMPDEST PUSH1 0x0 DUP2 MLOAD SWAP1 POP PUSH2 0xAB3 DUP2 PUSH2 0xA8D JUMP JUMPDEST SWAP3 SWAP2 POP POP JUMP JUMPDEST PUSH1 0x0 DUP2 MLOAD SWAP1 POP PUSH2 0xAC8 DUP2 PUSH2 0x684 JUMP JUMPDEST SWAP3 SWAP2 POP POP JUMP JUMPDEST PUSH1 0x0 DUP1 PUSH1 0x0 DUP1 PUSH1 0x0 PUSH1 0xA0 DUP7 DUP9 SUB SLT ISZERO PUSH2 0xAEA JUMPI PUSH2 0xAE9 PUSH2 0x5C0 JUMP JUMPDEST JUMPDEST PUSH1 0x0 PUSH2 0xAF8 DUP9 DUP3 DUP10 ADD PUSH2 0xA6E JUMP JUMPDEST SWAP6 POP POP PUSH1 0x20 PUSH2 0xB09 DUP9 DUP3 DUP10 ADD PUSH2 0xAA4 JUMP JUMPDEST SWAP5 POP POP PUSH1 0x40 PUSH2 0xB1A DUP9 DUP3 DUP10 ADD PUSH2 0xAB9 JUMP JUMPDEST SWAP4 POP POP PUSH1 0x60 PUSH2 0xB2B DUP9 DUP3 DUP10 ADD PUSH2 0xAB9 JUMP JUMPDEST SWAP3 POP POP PUSH1 0x80 PUSH2 0xB3C DUP9 DUP3 DUP10 ADD PUSH2 0xA6E JUMP JUMPDEST SWAP2 POP POP SWAP3 SWAP6 POP SWAP3 SWAP6 SWAP1 SWAP4 POP JUMP JUMPDEST PUSH1 0x0 PUSH2 0xB54 DUP3 PUSH2 0xA83 JUMP JUMPDEST SWAP2 POP PUSH2 0xB5F DUP4 PUSH2 0xA83 JUMP JUMPDEST SWAP3 POP DUP3 PUSH32 0x7FFFFFFFFFFFFFFFFFFFFFFFFFFFFFFFFFFFFFFFFFFFFFFFFFFFFFFFFFFFFFFF DIV DUP3 GT PUSH1 0x0 DUP5 SGT PUSH1 0x0 DUP5 SGT AND AND ISZERO PUSH2 0xB9E JUMPI PUSH2 0xB9D PUSH2 0x736 JUMP JUMPDEST JUMPDEST DUP2 PUSH32 0x8000000000000000000000000000000000000000000000000000000000000000 SDIV DUP4 SLT PUSH1 0x0 DUP5 SLT PUSH1 0x0 DUP5 SGT AND AND ISZERO PUSH2 0xBDB JUMPI PUSH2 0xBDA PUSH2 0x736 JUMP JUMPDEST JUMPDEST DUP3 PUSH32 0x8000000000000000000000000000000000000000000000000000000000000000 SDIV DUP3 SLT PUSH1 0x0 DUP5 SGT PUSH1 0x0 DUP5 SLT AND AND ISZERO PUSH2 0xC18 JUMPI PUSH2 0xC17 PUSH2 0x736 JUMP JUMPDEST JUMPDEST DUP3 PUSH32 0x7FFFFFFFFFFFFFFFFFFFFFFFFFFFFFFFFFFFFFFFFFFFFFFFFFFFFFFFFFFFFFFF SDIV DUP3 SLT PUSH1 0x0 DUP5 SLT PUSH1 0x0 DUP5 SLT AND AND ISZERO PUSH2 0xC55 JUMPI PUSH2 0xC54 PUSH2 0x736 JUMP JUMPDEST JUMPDEST DUP3 DUP3 MUL SWAP1 POP SWAP3 SWAP2 POP POP JUMP INVALID LOG2 PUSH5 0x6970667358 0x22 SLT KECCAK256 SWAP1 0xD9 DUP11 MLOAD 0x4E MULMOD 0xC SSTORE CALLDATACOPY DIFFICULTY 0xA7 0xC3 0x5D PUSH27 0xBED47027FABB20AEB2834A889705D7B0CE1264736F6C634300080F STOP CALLER "
				},
				"gasEstimates": {
					"creation": {
						"codeDepositCost": "644400",
						"executionCost": "22782",
						"totalCost": "667182"
					},
					"external": {
						"addressToAmount(address)": "2792",
						"fund()": "infinite",
						"funders(uint256)": "5022",
						"minUsd()": "2451",
						"withdraw()": "infinite"
					}
				},
				"methodIdentifiers": {
					"addressToAmount(address)": "3c7e7d28",
					"fund()": "b60d4288",
					"funders(uint256)": "dc0d3dff",
					"minUsd()": "51b80e41",
					"withdraw()": "3ccfd60b"
				}
			},
			"storageLayout": {
				"storage": [
					{
						"astId": 54,
						"contract": "contracts/FundMe.sol:FundMe",
						"label": "minUsd",
						"offset": 0,
						"slot": "0",
						"type": "t_uint256"
					},
					{
						"astId": 57,
						"contract": "contracts/FundMe.sol:FundMe",
						"label": "funders",
						"offset": 0,
						"slot": "1",
						"type": "t_array(t_address)dyn_storage"
					},
					{
						"astId": 61,
						"contract": "contracts/FundMe.sol:FundMe",
						"label": "addressToAmount",
						"offset": 0,
						"slot": "2",
						"type": "t_mapping(t_address,t_uint256)"
					}
				],
				"types": {
					"t_address": {
						"encoding": "inplace",
						"label": "address",
						"numberOfBytes": "20"
					},
					"t_array(t_address)dyn_storage": {
						"base": "t_address",
						"encoding": "dynamic_array",
						"label": "address[]",
						"numberOfBytes": "32"
					},
					"t_mapping(t_address,t_uint256)": {
						"encoding": "mapping",
						"key": "t_address",
						"label": "mapping(address => uint256)",
						"numberOfBytes": "32",
						"value": "t_uint256"
					},
					"t_uint256": {
						"encoding": "inplace",
						"label": "uint256",
						"numberOfBytes": "32"
					}
				}
			},
			"userdoc": {
				"kind": "user",
				"methods": {},
				"version": 1
			}
		}
	}
}